{
  "transactions": [
    {
      "hash": "0x32e1eea5bb37b4e867b9a0d374d61668c37b581c2fb988a9b2773cc78173dbe4",
      "transactionType": "CALL",
      "contractName": null,
      "contractAddress": "0x32ab0f45d2f2039e5cf9259117ba82dd2dc8d2c0",
      "function": "createBet(((string,uint256)[],uint8,string,string,string,string,address,uint256,uint8,uint256,uint256,uint256,bool))",
      "arguments": [
        "([(Option 1, 0), (Option 2, 0)], 0, Test Bet, Test Description, https://via.placeholder.com/150, https://www.google.com, 0x9f7cF1d1F558E57ef88a59ac3D47214eF25B6A06, 0, 0, 1758163350, 1758163350, 86400, false)"
      ],
      "transaction": {
        "from": "0xf0830060f836b8d54bf02049e5905f619487989e",
        "to": "0x32ab0f45d2f2039e5cf9259117ba82dd2dc8d2c0",
        "gas": "0xb4da8",
        "value": "0x0",
        "input": "0x840413a6000000000000000000000000000000000000000000000000000000000000002000000000000000000000000000000000000000000000000000000000000001a0000000000000000000000000000000000000000000000000000000000000000000000000000000000000000000000000000000000000000000000000000003000000000000000000000000000000000000000000000000000000000000000340000000000000000000000000000000000000000000000000000000000000038000000000000000000000000000000000000000000000000000000000000003c00000000000000000000000009f7cf1d1f558e57ef88a59ac3d47214ef25b6a06000000000000000000000000000000000000000000000000000000000000000000000000000000000000000000000000000000000000000000000000000000000000000000000000000000000000000000000000000000000000000068cb71960000000000000000000000000000000000000000000000000000000068cb7196000000000000000000000000000000000000000000000000000000000001518000000000000000000000000000000000000000000000000000000000000000000000000000000000000000000000000000000000000000000000000000000002000000000000000000000000000000000000000000000000000000000000004000000000000000000000000000000000000000000000000000000000000000c00000000000000000000000000000000000000000000000000000000000000040000000000000000000000000000000000000000000000000000000000000000000000000000000000000000000000000000000000000000000000000000000084f7074696f6e20310000000000000000000000000000000000000000000000000000000000000000000000000000000000000000000000000000000000000040000000000000000000000000000000000000000000000000000000000000000000000000000000000000000000000000000000000000000000000000000000084f7074696f6e203200000000000000000000000000000000000000000000000000000000000000000000000000000000000000000000000000000000000000085465737420426574000000000000000000000000000000000000000000000000000000000000000000000000000000000000000000000000000000000000001054657374204465736372697074696f6e00000000000000000000000000000000000000000000000000000000000000000000000000000000000000000000001f68747470733a2f2f7669612e706c616365686f6c6465722e636f6d2f31353000000000000000000000000000000000000000000000000000000000000000001668747470733a2f2f7777772e676f6f676c652e636f6d00000000000000000000",
        "nonce": "0x184",
        "chainId": "0x14a34"
      },
      "additionalContracts": [],
      "isFixedGasLimit": false
    }
  ],
  "receipts": [
    {
      "status": "0x1",
      "cumulativeGasUsed": "0x34ab4b",
      "logs": [
        {
          "address": "0x32ab0f45d2f2039e5cf9259117ba82dd2dc8d2c0",
          "topics": [
            "0x8d0a28bca046bb7b061280953becbdf1c01cbded5f21c6cc573531a5f1516a8a",
            "0x0000000000000000000000000000000000000000000000000000000000000001"
          ],
          "data": "0x000000000000000000000000f0830060f836b8d54bf02049e5905f619487989e0000000000000000000000000000000000000000000000000000000000000000",
          "blockHash": "0xfdef04347f9040906b0eb4350a64d78453eafa9b8635e75e9d896df4c2148f34",
          "blockNumber": "0x1dc096e",
          "blockTimestamp": "0x68cb71bc",
          "transactionHash": "0x32e1eea5bb37b4e867b9a0d374d61668c37b581c2fb988a9b2773cc78173dbe4",
          "transactionIndex": "0xe",
          "logIndex": "0x6b",
          "removed": false
        },
        {
          "address": "0x32ab0f45d2f2039e5cf9259117ba82dd2dc8d2c0",
          "topics": [
            "0x90a595c3f2ada4f0d647c38c697c9f120589a88898734e3c15e8e6e998df9a7a"
          ],
          "data": "0x00000000000000000000000000000000000000000000000000000000000000010000000000000000000000000000000000000000000000000000000000000080000000000000000000000000f0830060f836b8d54bf02049e5905f619487989e000000000000000000000000000000000000000000000000000000000000048000000000000000000000000000000000000000000000000000000000000001a0000000000000000000000000000000000000000000000000000000000000000000000000000000000000000000000000000000000000000000000000000003000000000000000000000000000000000000000000000000000000000000000340000000000000000000000000000000000000000000000000000000000000038000000000000000000000000000000000000000000000000000000000000003c00000000000000000000000009f7cf1d1f558e57ef88a59ac3d47214ef25b6a06000000000000000000000000000000000000000000000000000000000000000000000000000000000000000000000000000000000000000000000000000000000000000000000000000000000000000000000000000000000000000068cb71960000000000000000000000000000000000000000000000000000000068cb7196000000000000000000000000000000000000000000000000000000000001518000000000000000000000000000000000000000000000000000000000000000000000000000000000000000000000000000000000000000000000000000000002000000000000000000000000000000000000000000000000000000000000004000000000000000000000000000000000000000000000000000000000000000c00000000000000000000000000000000000000000000000000000000000000040000000000000000000000000000000000000000000000000000000000000000000000000000000000000000000000000000000000000000000000000000000084f7074696f6e20310000000000000000000000000000000000000000000000000000000000000000000000000000000000000000000000000000000000000040000000000000000000000000000000000000000000000000000000000000000000000000000000000000000000000000000000000000000000000000000000084f7074696f6e203200000000000000000000000000000000000000000000000000000000000000000000000000000000000000000000000000000000000000085465737420426574000000000000000000000000000000000000000000000000000000000000000000000000000000000000000000000000000000000000001054657374204465736372697074696f6e00000000000000000000000000000000000000000000000000000000000000000000000000000000000000000000001f68747470733a2f2f7669612e706c616365686f6c6465722e636f6d2f31353000000000000000000000000000000000000000000000000000000000000000001668747470733a2f2f7777772e676f6f676c652e636f6d00000000000000000000000000000000000000000000000000000000000000000000000000000000004000000000000000000000000000000000000000000000000000000000000000010000000000000000000000000000000000000000000000000000000068cb71bc",
          "blockHash": "0xfdef04347f9040906b0eb4350a64d78453eafa9b8635e75e9d896df4c2148f34",
          "blockNumber": "0x1dc096e",
          "blockTimestamp": "0x68cb71bc",
          "transactionHash": "0x32e1eea5bb37b4e867b9a0d374d61668c37b581c2fb988a9b2773cc78173dbe4",
          "transactionIndex": "0xe",
          "logIndex": "0x6c",
          "removed": false
        }
      ],
      "logsBloom": "0x00000000000000800000000000000000002080000000000000000040000000000000000000000000000000000000000000000000000000000000000000040000000000000000000000000000008000000001000000040000000000000000000000000000000000000000000000000000000000000000000000000000000020000000000000000000000000000000000000001000000000000000000000000000000000000000000000000000000000008000000000000000000000000000000000000000000000000000000000000000000000000000000000000000000040000000000000000000000000000000000000000000000000000000000000000000",
      "type": "0x2",
      "transactionHash": "0x32e1eea5bb37b4e867b9a0d374d61668c37b581c2fb988a9b2773cc78173dbe4",
      "transactionIndex": "0xe",
      "blockHash": "0xfdef04347f9040906b0eb4350a64d78453eafa9b8635e75e9d896df4c2148f34",
      "blockNumber": "0x1dc096e",
      "gasUsed": "0x7ba92",
      "effectiveGasPrice": "0xf42b1",
      "from": "0xf0830060f836b8d54bf02049e5905f619487989e",
      "to": "0x32ab0f45d2f2039e5cf9259117ba82dd2dc8d2c0",
      "contractAddress": null,
      "l1BaseFeeScalar": "0x44d",
      "l1BlobBaseFee": "0x1",
      "l1BlobBaseFeeScalar": "0xa118b",
      "l1Fee": "0xfc",
      "l1GasPrice": "0x13",
      "l1GasUsed": "0xfe5"
    }
  ],
  "libraries": [],
  "pending": [],
  "returns": {},
  "timestamp": 1758163389,
  "chain": 84532,
  "commit": "cdbbd7d"
}