{
  "transactions": [
    {
      "hash": "0x3fff3380787c4e1cb88d1e585b8aec8a71c7852755c5707db284358b15778aaf",
      "transactionType": "CALL",
      "contractName": null,
      "contractAddress": "0xdc1766074d0887a5f0bcf0ca869e14851f0ee111",
      "function": "requestResultWithChainlink(uint256,uint256,bytes)",
      "arguments": [
        "1",
        "1",
        "0x00000000000000000000000000000000000000000000000000000000000000010000000000000000000000000000000000000000000000000000000000000001"
      ],
      "transaction": {
        "from": "0xf0830060f836b8d54bf02049e5905f619487989e",
        "to": "0xdc1766074d0887a5f0bcf0ca869e14851f0ee111",
        "gas": "0x119d21",
        "value": "0x0",
        "input": "0x724b2f31000000000000000000000000000000000000000000000000000000000000000100000000000000000000000000000000000000000000000000000000000000010000000000000000000000000000000000000000000000000000000000000060000000000000000000000000000000000000000000000000000000000000004000000000000000000000000000000000000000000000000000000000000000010000000000000000000000000000000000000000000000000000000000000001",
        "nonce": "0x247",
        "chainId": "0x14a34"
      },
      "additionalContracts": [],
      "isFixedGasLimit": false
    }
  ],
  "receipts": [
    {
      "status": "0x1",
      "cumulativeGasUsed": "0xa8a3ca",
      "logs": [
        {
          "address": "0x50eb5509f3617ec5210acb152984bc794c40cd61",
          "topics": [
            "0x2df02ae6a81a2be4debcd95cdc943879a0ddfd7edef8268628578ec32e3e61e5",
            "0x39522dd3a473d46a6d1f35291cdc603e3571d039e1a9555b4e2f1eeb5863d64d",
            "0x0000000000000000000000000000000000000000000000000000000000000001",
            "0x0000000000000000000000000000000000000000000000000000000000000001"
          ],
          "data": "0x000000000000000000000000dc1766074d0887a5f0bcf0ca869e14851f0ee1110000000000000000000000000000000000000000000000000000000000000040000000000000000000000000000000000000000000000000000000000000004000000000000000000000000000000000000000000000000000000000000000010000000000000000000000000000000000000000000000000000000000000001",
          "blockHash": "0xb961b7d618e4620ceadca98867c7582d59052ba8d19f83cede3b64d4348ef6b8",
          "blockNumber": "0x21307a7",
          "blockTimestamp": "0x69396e2e",
          "transactionHash": "0x3fff3380787c4e1cb88d1e585b8aec8a71c7852755c5707db284358b15778aaf",
          "transactionIndex": "0x1c",
          "logIndex": "0x7f",
          "removed": false
        },
        {
          "address": "0xfac44c030703b25911df1627824ad7303e78d491",
          "topics": [
            "0xbf50768ccf13bd0110ca6d53a9c4f1f3271abdd4c24a56878863ed25b20598ff",
            "0x606e64e9ef394b551f00969683413cbec94f05e10f26d07345c4215a45784000",
            "0x000000000000000000000000dc1766074d0887a5f0bcf0ca869e14851f0ee111"
          ],
          "data": "0x000000000000000000000000f0830060f836b8d54bf02049e5905f619487989e0000000000000000000000000000000000000000000000000000000000000212000000000000000000000000f0830060f836b8d54bf02049e5905f619487989e00000000000000000000000000000000000000000000000000000000000002400000000000000000000000000000000000000000000000000000000000000001000000000000000000000000000000000000000000000000000000000000000000000000000000000000000000000000000000000000000000000000000493e0606e64e9ef394b551f00969683413cbec94f05e10f26d07345c4215a45784000000000000000000000000000fac44c030703b25911df1627824ad7303e78d4910000000000000000000000000000000000000000000000000b9d7c3671641549000000000000000000000000dc1766074d0887a5f0bcf0ca869e14851f0ee111000000000000000000000000000000000000000000000000000000000000021200000000000000000000000000000000000000000000000000000000000493e0000000000000000000000000000000000000000000000000032338d90603886400000000000000000000000000000000000000000000000000000000000000000000000000000000000000000000000000000000000000000000000000027eac000000000000000000000000000000000000000000000000000000000000dea80000000000000000000000000000000000000000000000000000000069396f5a00000000000000000000000000000000000000000000000000000000000004d16c636f64654c6f636174696f6ec258200000000000000000000000000000000000000000000000000000000000000000686c616e6775616765c25820000000000000000000000000000000000000000000000000000000000000000066736f7572636579045e2f2f20546869732066756e6374696f6e20676574732062657420726573756c74732066726f6d207468652065787465726e616c204150492e0a2f2f2049742074616b65732067616d6549642c2062657449642c206f7074696f6e436f756e742c20616e64206f7074696f6e20737472696e677320617320617267756d656e747320616e642072657475726e732074686520726573756c7420696e6465782e0a0a2f2f204765742074686520617267756d656e74730a2f2f20617267735b305d203d2067616d6549642c20617267735b315d203d2062657449642c20617267735b325d203d206f7074696f6e436f756e742c20617267735b332b5d203d206f7074696f6e20737472696e67730a636f6e73742067616d654964203d20617267735b305d3b0a636f6e7374206265744964203d20617267735b315d3b0a0a2f2f20436f6e73747275637420746865204150492055524c0a636f6e73742061706955726c203d206068747470733a2f2f6f7261636c652d73696c6b2e76657263656c2e6170702f6170692f726573756c74732f247b62657449647d603b0a0a2f2f2045786563757465207468652041504920726571756573740a636f6e737420617069526573706f6e7365203d2061776169742046756e6374696f6e732e6d616b654874747052657175657374287b0a202075726c3a2061706955726c2c0a7d293b0a0a69662028617069526573706f6e73652e6572726f7229207b0a20207468726f77204572726f72282252657175657374206661696c656422293b0a7d0a0a636f6e7374207b2064617461207d203d20617069526573706f6e73653b0a2f2f2054727920746f20676574206f7574636f6d652066726f6d2067616d65526573756c742e766572646963740a6c657420726573756c74537472696e673b0a696620286461746120262620646174612e67616d65526573756c7420262620646174612e67616d65526573756c742e7665726469637429207b0a2020747279207b0a20202020636f6e73742076657264696374203d0a202020202020747970656f6620646174612e67616d65526573756c742e76657264696374203d3d3d2022737472696e67220a20202020202020203f204a534f4e2e706172736528646174612e67616d65526573756c742e76657264696374290a20202020202020203a20646174612e67616d65526573756c742e766572646963743b0a0a20202020696620287665726469637420262620766572646963742e6f7574636f6d6529207b0a202020202020726573756c74537472696e67203d20766572646963742e6f7574636f6d653b0a202020207d0a20207d20636174636820286529207b0a202020207468726f77204572726f72282250617273696e67206661696c656422293b0a20207d0a7d0a636f6e737420726573756c74496e646578203d207061727365496e7428726573756c74537472696e672c203130293b0a72657475726e2046756e6374696f6e732e656e636f646555696e7432353628726573756c74496e646578293b0a64617267739f613161316130ff000000000000000000000000000000",
          "blockHash": "0xb961b7d618e4620ceadca98867c7582d59052ba8d19f83cede3b64d4348ef6b8",
          "blockNumber": "0x21307a7",
          "blockTimestamp": "0x69396e2e",
          "transactionHash": "0x3fff3380787c4e1cb88d1e585b8aec8a71c7852755c5707db284358b15778aaf",
          "transactionIndex": "0x1c",
          "logIndex": "0x80",
          "removed": false
        },
        {
          "address": "0xf9b8fc078197181c841c296c876945aaa425b278",
          "topics": [
            "0xf67aec45c9a7ede407974a3e0c3a743dffeab99ee3f2d4c9a8144c2ebf2c7ec9",
            "0x606e64e9ef394b551f00969683413cbec94f05e10f26d07345c4215a45784000",
            "0x66756e2d626173652d7365706f6c69612d310000000000000000000000000000",
            "0x0000000000000000000000000000000000000000000000000000000000000212"
          ],
          "data": "0x000000000000000000000000f0830060f836b8d54bf02049e5905f619487989e000000000000000000000000dc1766074d0887a5f0bcf0ca869e14851f0ee111000000000000000000000000f0830060f836b8d54bf02049e5905f619487989e00000000000000000000000000000000000000000000000000000000000000e0000000000000000000000000000000000000000000000000000000000000000100000000000000000000000000000000000000000000000000000000000493e00000000000000000000000000000000000000000000000000b9d7c367164154900000000000000000000000000000000000000000000000000000000000004d16c636f64654c6f636174696f6ec258200000000000000000000000000000000000000000000000000000000000000000686c616e6775616765c25820000000000000000000000000000000000000000000000000000000000000000066736f7572636579045e2f2f20546869732066756e6374696f6e20676574732062657420726573756c74732066726f6d207468652065787465726e616c204150492e0a2f2f2049742074616b65732067616d6549642c2062657449642c206f7074696f6e436f756e742c20616e64206f7074696f6e20737472696e677320617320617267756d656e747320616e642072657475726e732074686520726573756c7420696e6465782e0a0a2f2f204765742074686520617267756d656e74730a2f2f20617267735b305d203d2067616d6549642c20617267735b315d203d2062657449642c20617267735b325d203d206f7074696f6e436f756e742c20617267735b332b5d203d206f7074696f6e20737472696e67730a636f6e73742067616d654964203d20617267735b305d3b0a636f6e7374206265744964203d20617267735b315d3b0a0a2f2f20436f6e73747275637420746865204150492055524c0a636f6e73742061706955726c203d206068747470733a2f2f6f7261636c652d73696c6b2e76657263656c2e6170702f6170692f726573756c74732f247b62657449647d603b0a0a2f2f2045786563757465207468652041504920726571756573740a636f6e737420617069526573706f6e7365203d2061776169742046756e6374696f6e732e6d616b654874747052657175657374287b0a202075726c3a2061706955726c2c0a7d293b0a0a69662028617069526573706f6e73652e6572726f7229207b0a20207468726f77204572726f72282252657175657374206661696c656422293b0a7d0a0a636f6e7374207b2064617461207d203d20617069526573706f6e73653b0a2f2f2054727920746f20676574206f7574636f6d652066726f6d2067616d65526573756c742e766572646963740a6c657420726573756c74537472696e673b0a696620286461746120262620646174612e67616d65526573756c7420262620646174612e67616d65526573756c742e7665726469637429207b0a2020747279207b0a20202020636f6e73742076657264696374203d0a202020202020747970656f6620646174612e67616d65526573756c742e76657264696374203d3d3d2022737472696e67220a20202020202020203f204a534f4e2e706172736528646174612e67616d65526573756c742e76657264696374290a20202020202020203a20646174612e67616d65526573756c742e766572646963743b0a0a20202020696620287665726469637420262620766572646963742e6f7574636f6d6529207b0a202020202020726573756c74537472696e67203d20766572646963742e6f7574636f6d653b0a202020207d0a20207d20636174636820286529207b0a202020207468726f77204572726f72282250617273696e67206661696c656422293b0a20207d0a7d0a636f6e737420726573756c74496e646578203d207061727365496e7428726573756c74537472696e672c203130293b0a72657475726e2046756e6374696f6e732e656e636f646555696e7432353628726573756c74496e646578293b0a64617267739f613161316130ff000000000000000000000000000000",
          "blockHash": "0xb961b7d618e4620ceadca98867c7582d59052ba8d19f83cede3b64d4348ef6b8",
          "blockNumber": "0x21307a7",
          "blockTimestamp": "0x69396e2e",
          "transactionHash": "0x3fff3380787c4e1cb88d1e585b8aec8a71c7852755c5707db284358b15778aaf",
          "transactionIndex": "0x1c",
          "logIndex": "0x81",
          "removed": false
        },
        {
          "address": "0xdc1766074d0887a5f0bcf0ca869e14851f0ee111",
          "topics": [
            "0x1131472297a800fee664d1d89cfa8f7676ff07189ecc53f80bbb5f4969099db8",
            "0x606e64e9ef394b551f00969683413cbec94f05e10f26d07345c4215a45784000"
          ],
          "data": "0x",
          "blockHash": "0xb961b7d618e4620ceadca98867c7582d59052ba8d19f83cede3b64d4348ef6b8",
          "blockNumber": "0x21307a7",
          "blockTimestamp": "0x69396e2e",
          "transactionHash": "0x3fff3380787c4e1cb88d1e585b8aec8a71c7852755c5707db284358b15778aaf",
          "transactionIndex": "0x1c",
          "logIndex": "0x82",
          "removed": false
        },
        {
          "address": "0xdc1766074d0887a5f0bcf0ca869e14851f0ee111",
          "topics": [
            "0xafc68fb6d9692961a89752b00d97bd7f5f047f0f87984e2d539375e4e9f82ba1",
            "0x606e64e9ef394b551f00969683413cbec94f05e10f26d07345c4215a45784000",
            "0x39522dd3a473d46a6d1f35291cdc603e3571d039e1a9555b4e2f1eeb5863d64d"
          ],
          "data": "0x00000000000000000000000000000000000000000000000000000000000000010000000000000000000000000000000000000000000000000000000000000001",
          "blockHash": "0xb961b7d618e4620ceadca98867c7582d59052ba8d19f83cede3b64d4348ef6b8",
          "blockNumber": "0x21307a7",
          "blockTimestamp": "0x69396e2e",
          "transactionHash": "0x3fff3380787c4e1cb88d1e585b8aec8a71c7852755c5707db284358b15778aaf",
          "transactionIndex": "0x1c",
          "logIndex": "0x83",
          "removed": false
        }
      ],
      "logsBloom": "0x0000800000040000808000000000400000000080000c000000000000000000000000000000000000000000000002000000000020000000010000000000040000000000000000000000000800000000000800000020040000000000140000120000000000000000000000000100000000000000008000002080000000000000000000000000000000000000000001000000000000000000000000001000000000000010000000400000000000000000000000100004000000000030000000000044000000800000000080000800000000000000000000020000000002000040000000000000000404000020000000000000000000000000000000000000200008",
      "type": "0x2",
      "transactionHash": "0x3fff3380787c4e1cb88d1e585b8aec8a71c7852755c5707db284358b15778aaf",
      "transactionIndex": "0x1c",
      "blockHash": "0xb961b7d618e4620ceadca98867c7582d59052ba8d19f83cede3b64d4348ef6b8",
      "blockNumber": "0x21307a7",
      "gasUsed": "0xcc088",
      "effectiveGasPrice": "0x124f80",
      "blobGasUsed": "0x79e0",
      "from": "0xf0830060f836b8d54bf02049e5905f619487989e",
      "to": "0xdc1766074d0887a5f0bcf0ca869e14851f0ee111",
      "contractAddress": null,
      "daFootprintGasScalar": "0x138",
      "l1BaseFeeScalar": "0x44d",
      "l1BlobBaseFee": "0x1",
      "l1BlobBaseFeeScalar": "0xa118b",
      "l1Fee": "0x50",
      "l1GasPrice": "0x8",
      "l1GasUsed": "0x640"
    }
  ],
  "libraries": [],
  "pending": [],
  "returns": {},
  "timestamp": 1765371437,
  "chain": 84532,
  "commit": "10bc000"
}