{
  "transactions": [
    {
      "hash": "0xb0c91e409c5482366a085b02055980a2b7b39380223e5a3169b35009673669a1",
      "transactionType": "CALL",
      "contractName": null,
      "contractAddress": "0x1f7466b392bdebdd19decdeaf3a904c0ddd9255b",
      "function": "requestResultWithChainlink(uint256,uint256,bytes)",
      "arguments": [
        "1",
        "1",
        "0x00000000000000000000000000000000000000000000000000000000000000010000000000000000000000000000000000000000000000000000000000000001"
      ],
      "transaction": {
        "from": "0xf0830060f836b8d54bf02049e5905f619487989e",
        "to": "0x1f7466b392bdebdd19decdeaf3a904c0ddd9255b",
        "gas": "0x114469",
        "value": "0x0",
        "input": "0x724b2f31000000000000000000000000000000000000000000000000000000000000000100000000000000000000000000000000000000000000000000000000000000010000000000000000000000000000000000000000000000000000000000000060000000000000000000000000000000000000000000000000000000000000004000000000000000000000000000000000000000000000000000000000000000010000000000000000000000000000000000000000000000000000000000000001",
        "nonce": "0x229",
        "chainId": "0x14a34"
      },
      "additionalContracts": [],
      "isFixedGasLimit": false
    }
  ],
  "receipts": [
    {
      "status": "0x1",
      "cumulativeGasUsed": "0x42f4b4",
      "logs": [
        {
          "address": "0xa56914ab48210a6d269d305a464516e3cda4023e",
          "topics": [
            "0x2df02ae6a81a2be4debcd95cdc943879a0ddfd7edef8268628578ec32e3e61e5",
            "0x46e3e2f6b75fb3841e895c59fbb313b892c0a8f68dd7a6fd7d960525a82da1c2",
            "0x0000000000000000000000000000000000000000000000000000000000000001",
            "0x0000000000000000000000000000000000000000000000000000000000000001"
          ],
          "data": "0x0000000000000000000000001f7466b392bdebdd19decdeaf3a904c0ddd9255b0000000000000000000000000000000000000000000000000000000000000040000000000000000000000000000000000000000000000000000000000000004000000000000000000000000000000000000000000000000000000000000000010000000000000000000000000000000000000000000000000000000000000001",
          "blockHash": "0x75f8df6c209c89eb30dcf3ac17bc313b2f0e35c6397f5ad9ee215df55ffdb6b7",
          "blockNumber": "0x212a7b3",
          "blockTimestamp": "0x6938ae46",
          "transactionHash": "0xb0c91e409c5482366a085b02055980a2b7b39380223e5a3169b35009673669a1",
          "transactionIndex": "0x11",
          "logIndex": "0x67",
          "removed": false
        },
        {
          "address": "0xfac44c030703b25911df1627824ad7303e78d491",
          "topics": [
            "0xbf50768ccf13bd0110ca6d53a9c4f1f3271abdd4c24a56878863ed25b20598ff",
            "0xaadb01d36b7ad0b7e63826f3ecee20bd540027216c7f1198316817c15418602b",
            "0x0000000000000000000000001f7466b392bdebdd19decdeaf3a904c0ddd9255b"
          ],
          "data": "0x000000000000000000000000f0830060f836b8d54bf02049e5905f619487989e0000000000000000000000000000000000000000000000000000000000000212000000000000000000000000f0830060f836b8d54bf02049e5905f619487989e00000000000000000000000000000000000000000000000000000000000002400000000000000000000000000000000000000000000000000000000000000001000000000000000000000000000000000000000000000000000000000000000000000000000000000000000000000000000000000000000000000000000493e0aadb01d36b7ad0b7e63826f3ecee20bd540027216c7f1198316817c15418602b000000000000000000000000fac44c030703b25911df1627824ad7303e78d4910000000000000000000000000000000000000000000000000b5dd2696e47a2580000000000000000000000001f7466b392bdebdd19decdeaf3a904c0ddd9255b000000000000000000000000000000000000000000000000000000000000021200000000000000000000000000000000000000000000000000000000000493e000000000000000000000000000000000000000000000000003130b2cefe99a1e00000000000000000000000000000000000000000000000000000000000000000000000000000000000000000000000000000000000000000000000000027eac000000000000000000000000000000000000000000000000000000000000dea8000000000000000000000000000000000000000000000000000000006938af7200000000000000000000000000000000000000000000000000000000000004c56c636f64654c6f636174696f6ec258200000000000000000000000000000000000000000000000000000000000000000686c616e6775616765c25820000000000000000000000000000000000000000000000000000000000000000066736f757263657904542f2f20546869732066756e6374696f6e20676574732062657420726573756c74732066726f6d207468652065787465726e616c204150492e0a2f2f2049742074616b65732067616d65496420616e6420626574496420617320617267756d656e747320616e642072657475726e732074686520726573756c7420696e6465782e0a0a2f2f20476574207468652067616d65496420616e642062657449642066726f6d20617267730a2f2f20617267735b305d203d2067616d6549642c20617267735b315d203d2062657449640a636f6e73742067616d654964203d20617267735b305d3b0a636f6e7374206265744964203d20617267735b315d3b0a0a2f2f20436f6e73747275637420746865204150492055524c0a636f6e73742061706955726c203d206068747470733a2f2f6f7261636c652d73696c6b2e76657263656c2e6170702f6170692f726573756c74732f247b67616d6549647d603b0a0a2f2f204578656375746520746865204150492072657175657374202850726f6d697365290a636f6e737420617069526573706f6e7365203d2061776169742046756e6374696f6e732e6d616b654874747052657175657374287b0a202075726c3a2061706955726c0a7d293b0a0a69662028617069526573706f6e73652e6572726f7229207b0a2020636f6e736f6c652e6572726f7228617069526573706f6e73652e6572726f72293b0a20207468726f77204572726f72282252657175657374206661696c656422293b0a7d0a0a636f6e7374207b2064617461207d203d20617069526573706f6e73653b0a0a636f6e736f6c652e6c6f67282741504920726573706f6e736520646174613a272c204a534f4e2e737472696e6769667928646174612c206e756c6c2c203229293b0a0a2f2f2050617273652074686520726573706f6e736520746f206765742074686520726573756c740a6c657420726573756c74537472696e673b0a0a69662028646174612e726573756c7429207b0a2020726573756c74537472696e67203d20646174612e726573756c743b0a7d20656c73652069662028646174612e726573756c74496e64657820213d3d20756e646566696e656429207b0a2020726573756c74537472696e67203d20537472696e6728646174612e726573756c74496e646578293b0a7d20656c73652069662028646174612e7665726469637429207b0a2020726573756c74537472696e67203d20646174612e766572646963743b0a7d20656c7365207b0a2020726573756c74537472696e67203d20646174612e726573756c74207c7c20646174612e76657264696374207c7c20226f6e65223b0a7d0a0a636f6e736f6c652e6c6f67282750617273656420726573756c743a272c20726573756c74537472696e67293b0a0a2f2f2052657475726e2074686520726573756c7420617320616e20656e636f64656420737472696e670a72657475726e2046756e6374696f6e732e656e636f6465537472696e6728726573756c74537472696e67293b64617267739f61316131ff000000000000000000000000000000000000000000000000000000",
          "blockHash": "0x75f8df6c209c89eb30dcf3ac17bc313b2f0e35c6397f5ad9ee215df55ffdb6b7",
          "blockNumber": "0x212a7b3",
          "blockTimestamp": "0x6938ae46",
          "transactionHash": "0xb0c91e409c5482366a085b02055980a2b7b39380223e5a3169b35009673669a1",
          "transactionIndex": "0x11",
          "logIndex": "0x68",
          "removed": false
        },
        {
          "address": "0xf9b8fc078197181c841c296c876945aaa425b278",
          "topics": [
            "0xf67aec45c9a7ede407974a3e0c3a743dffeab99ee3f2d4c9a8144c2ebf2c7ec9",
            "0xaadb01d36b7ad0b7e63826f3ecee20bd540027216c7f1198316817c15418602b",
            "0x66756e2d626173652d7365706f6c69612d310000000000000000000000000000",
            "0x0000000000000000000000000000000000000000000000000000000000000212"
          ],
          "data": "0x000000000000000000000000f0830060f836b8d54bf02049e5905f619487989e0000000000000000000000001f7466b392bdebdd19decdeaf3a904c0ddd9255b000000000000000000000000f0830060f836b8d54bf02049e5905f619487989e00000000000000000000000000000000000000000000000000000000000000e0000000000000000000000000000000000000000000000000000000000000000100000000000000000000000000000000000000000000000000000000000493e00000000000000000000000000000000000000000000000000b5dd2696e47a25800000000000000000000000000000000000000000000000000000000000004c56c636f64654c6f636174696f6ec258200000000000000000000000000000000000000000000000000000000000000000686c616e6775616765c25820000000000000000000000000000000000000000000000000000000000000000066736f757263657904542f2f20546869732066756e6374696f6e20676574732062657420726573756c74732066726f6d207468652065787465726e616c204150492e0a2f2f2049742074616b65732067616d65496420616e6420626574496420617320617267756d656e747320616e642072657475726e732074686520726573756c7420696e6465782e0a0a2f2f20476574207468652067616d65496420616e642062657449642066726f6d20617267730a2f2f20617267735b305d203d2067616d6549642c20617267735b315d203d2062657449640a636f6e73742067616d654964203d20617267735b305d3b0a636f6e7374206265744964203d20617267735b315d3b0a0a2f2f20436f6e73747275637420746865204150492055524c0a636f6e73742061706955726c203d206068747470733a2f2f6f7261636c652d73696c6b2e76657263656c2e6170702f6170692f726573756c74732f247b67616d6549647d603b0a0a2f2f204578656375746520746865204150492072657175657374202850726f6d697365290a636f6e737420617069526573706f6e7365203d2061776169742046756e6374696f6e732e6d616b654874747052657175657374287b0a202075726c3a2061706955726c0a7d293b0a0a69662028617069526573706f6e73652e6572726f7229207b0a2020636f6e736f6c652e6572726f7228617069526573706f6e73652e6572726f72293b0a20207468726f77204572726f72282252657175657374206661696c656422293b0a7d0a0a636f6e7374207b2064617461207d203d20617069526573706f6e73653b0a0a636f6e736f6c652e6c6f67282741504920726573706f6e736520646174613a272c204a534f4e2e737472696e6769667928646174612c206e756c6c2c203229293b0a0a2f2f2050617273652074686520726573706f6e736520746f206765742074686520726573756c740a6c657420726573756c74537472696e673b0a0a69662028646174612e726573756c7429207b0a2020726573756c74537472696e67203d20646174612e726573756c743b0a7d20656c73652069662028646174612e726573756c74496e64657820213d3d20756e646566696e656429207b0a2020726573756c74537472696e67203d20537472696e6728646174612e726573756c74496e646578293b0a7d20656c73652069662028646174612e7665726469637429207b0a2020726573756c74537472696e67203d20646174612e766572646963743b0a7d20656c7365207b0a2020726573756c74537472696e67203d20646174612e726573756c74207c7c20646174612e76657264696374207c7c20226f6e65223b0a7d0a0a636f6e736f6c652e6c6f67282750617273656420726573756c743a272c20726573756c74537472696e67293b0a0a2f2f2052657475726e2074686520726573756c7420617320616e20656e636f64656420737472696e670a72657475726e2046756e6374696f6e732e656e636f6465537472696e6728726573756c74537472696e67293b64617267739f61316131ff000000000000000000000000000000000000000000000000000000",
          "blockHash": "0x75f8df6c209c89eb30dcf3ac17bc313b2f0e35c6397f5ad9ee215df55ffdb6b7",
          "blockNumber": "0x212a7b3",
          "blockTimestamp": "0x6938ae46",
          "transactionHash": "0xb0c91e409c5482366a085b02055980a2b7b39380223e5a3169b35009673669a1",
          "transactionIndex": "0x11",
          "logIndex": "0x69",
          "removed": false
        },
        {
          "address": "0x1f7466b392bdebdd19decdeaf3a904c0ddd9255b",
          "topics": [
            "0x1131472297a800fee664d1d89cfa8f7676ff07189ecc53f80bbb5f4969099db8",
            "0xaadb01d36b7ad0b7e63826f3ecee20bd540027216c7f1198316817c15418602b"
          ],
          "data": "0x",
          "blockHash": "0x75f8df6c209c89eb30dcf3ac17bc313b2f0e35c6397f5ad9ee215df55ffdb6b7",
          "blockNumber": "0x212a7b3",
          "blockTimestamp": "0x6938ae46",
          "transactionHash": "0xb0c91e409c5482366a085b02055980a2b7b39380223e5a3169b35009673669a1",
          "transactionIndex": "0x11",
          "logIndex": "0x6a",
          "removed": false
        },
        {
          "address": "0x1f7466b392bdebdd19decdeaf3a904c0ddd9255b",
          "topics": [
            "0xafc68fb6d9692961a89752b00d97bd7f5f047f0f87984e2d539375e4e9f82ba1",
            "0xaadb01d36b7ad0b7e63826f3ecee20bd540027216c7f1198316817c15418602b",
            "0x46e3e2f6b75fb3841e895c59fbb313b892c0a8f68dd7a6fd7d960525a82da1c2"
          ],
          "data": "0x00000000000000000000000000000000000000000000000000000000000000010000000000000000000000000000000000000000000000000000000000000001",
          "blockHash": "0x75f8df6c209c89eb30dcf3ac17bc313b2f0e35c6397f5ad9ee215df55ffdb6b7",
          "blockNumber": "0x212a7b3",
          "blockTimestamp": "0x6938ae46",
          "transactionHash": "0xb0c91e409c5482366a085b02055980a2b7b39380223e5a3169b35009673669a1",
          "transactionIndex": "0x11",
          "logIndex": "0x6b",
          "removed": false
        }
      ],
      "logsBloom": "0x00008000000000008080000000004000000000800004000000000100000000000000000000000000000000000100000000000010000000000000000000040000000000000000000000000800000000000810000000040000000000100000020000000000000000000000000000000000000000008000002080000000000000000000000110000000000000000000000000000000002000004000001010000000000001000000400000000000000000000000100004000000000030000000000044008000000000000080000800000000000000000000020000000002000040008000010000000400000000000000000001004000000000000000000000200000",
      "type": "0x2",
      "transactionHash": "0xb0c91e409c5482366a085b02055980a2b7b39380223e5a3169b35009673669a1",
      "transactionIndex": "0x11",
      "blockHash": "0x75f8df6c209c89eb30dcf3ac17bc313b2f0e35c6397f5ad9ee215df55ffdb6b7",
      "blockNumber": "0x212a7b3",
      "gasUsed": "0xc804d",
      "effectiveGasPrice": "0x124f80",
      "blobGasUsed": "0x79e0",
      "from": "0xf0830060f836b8d54bf02049e5905f619487989e",
      "to": "0x1f7466b392bdebdd19decdeaf3a904c0ddd9255b",
      "contractAddress": null,
      "daFootprintGasScalar": "0x138",
      "l1BaseFeeScalar": "0x44d",
      "l1BlobBaseFee": "0x1",
      "l1BlobBaseFeeScalar": "0xa118b",
      "l1Fee": "0x4e",
      "l1GasPrice": "0x7",
      "l1GasUsed": "0x640"
    }
  ],
  "libraries": [],
  "pending": [],
  "returns": {},
  "timestamp": 1765322309,
  "chain": 84532,
  "commit": "10bc000"
}