{
  "transactions": [
    {
      "hash": "0xd9475f199f7383a825bc47cc45cd176e9e68219a7dfa93849faace9f72296694",
      "transactionType": "CALL",
      "contractName": null,
      "contractAddress": "0xae186e6ae3082edd8ed44dfe1e26614d82b48747",
      "function": "requestResultWithChainlink(address,bytes32,bytes)",
      "arguments": [
        "0x4c6d2B645d5d62D79e2396b4c3564CcD83c338d5",
        "0xb6fba499e6921df812b67fbfd37368e9cceb8d27f5e8ac3c63cacc8e8ca9803c",
        "0x"
      ],
      "transaction": {
        "from": "0xf0830060f836b8d54bf02049e5905f619487989e",
        "to": "0xae186e6ae3082edd8ed44dfe1e26614d82b48747",
        "gas": "0x100ec5",
        "value": "0x0",
        "input": "0x0a9e8f1f0000000000000000000000004c6d2b645d5d62d79e2396b4c3564ccd83c338d5b6fba499e6921df812b67fbfd37368e9cceb8d27f5e8ac3c63cacc8e8ca9803c00000000000000000000000000000000000000000000000000000000000000600000000000000000000000000000000000000000000000000000000000000000",
        "nonce": "0x2bb",
        "chainId": "0x14a34"
      },
      "additionalContracts": [],
      "isFixedGasLimit": false
    }
  ],
  "receipts": [
    {
      "status": "0x1",
      "cumulativeGasUsed": "0x205819",
      "logs": [
        {
          "address": "0xd0f00b375e47fc3ab8b962b2277975391ff28554",
          "topics": [
            "0x71a947ed72472107c71d9a6163834c0f3ca554cdbfa7fb6df01fa7f7a61cfb5e",
            "0xf41ba0df7577f30a26a6334c86202dcf36e17abc6f46fdb17152cfdaf3e129f8",
            "0xb6fba499e6921df812b67fbfd37368e9cceb8d27f5e8ac3c63cacc8e8ca9803c"
          ],
          "data": "0x000000000000000000000000ae186e6ae3082edd8ed44dfe1e26614d82b4874700000000000000000000000000000000000000000000000000000000000000400000000000000000000000000000000000000000000000000000000000000000",
          "blockHash": "0x35f87baac2d1f6d4f0b9cd74d4c98586649beba628f147f10b263eae683982fb",
          "blockNumber": "0x22289f7",
          "blockTimestamp": "0x695872ce",
          "transactionHash": "0xd9475f199f7383a825bc47cc45cd176e9e68219a7dfa93849faace9f72296694",
          "transactionIndex": "0xb",
          "logIndex": "0x3b",
          "removed": false
        },
        {
          "address": "0xfac44c030703b25911df1627824ad7303e78d491",
          "topics": [
            "0xbf50768ccf13bd0110ca6d53a9c4f1f3271abdd4c24a56878863ed25b20598ff",
            "0x5e8ae63d91d47cf4bd602aa0ff0831b071e21ac519fc77025f861475fcc2fcbe",
            "0x000000000000000000000000ae186e6ae3082edd8ed44dfe1e26614d82b48747"
          ],
          "data": "0x000000000000000000000000f0830060f836b8d54bf02049e5905f619487989e0000000000000000000000000000000000000000000000000000000000000212000000000000000000000000f0830060f836b8d54bf02049e5905f619487989e00000000000000000000000000000000000000000000000000000000000002400000000000000000000000000000000000000000000000000000000000000001000000000000000000000000000000000000000000000000000000000000000000000000000000000000000000000000000000000000000000000000000493e05e8ae63d91d47cf4bd602aa0ff0831b071e21ac519fc77025f861475fcc2fcbe000000000000000000000000fac44c030703b25911df1627824ad7303e78d4910000000000000000000000000000000000000000000000000bdf53903f5f2d88000000000000000000000000ae186e6ae3082edd8ed44dfe1e26614d82b48747000000000000000000000000000000000000000000000000000000000000021200000000000000000000000000000000000000000000000000000000000493e0000000000000000000000000000000000000000000000000035a3fbe4bc2e1ed00000000000000000000000000000000000000000000000000000000000000000000000000000000000000000000000000000000000000000000000000027eac000000000000000000000000000000000000000000000000000000000000dea800000000000000000000000000000000000000000000000000000000695873fa000000000000000000000000000000000000000000000000000000000000041b6c636f64654c6f636174696f6ec258200000000000000000000000000000000000000000000000000000000000000000686c616e6775616765c25820000000000000000000000000000000000000000000000000000000000000000066736f7572636579036a2f2f20312e20496d706f7274206574686572730a636f6e7374207b20657468657273207d203d20617761697420696d706f727428226e706d3a65746865727340362e31302e3022293b0a0a636f6e7374207175657374696f6e4964203d20617267735b305d3b0a0a636f6e73742061706955726c203d206068747470733a2f2f6f7261636c652d73696c6b2e76657263656c2e6170702f6170692f726573756c74732f247b7175657374696f6e49647d603b0a0a636f6e737420617069526573706f6e7365203d2061776169742046756e6374696f6e732e6d616b654874747052657175657374287b0a202075726c3a2061706955726c2c0a7d293b0a0a69662028617069526573706f6e73652e6572726f7229207b0a20207468726f77204572726f72282252657175657374206661696c656422293b0a7d0a0a636f6e7374207b2064617461207d203d20617069526573706f6e73653b0a0a2f2f20322e204578747261637420746865206172726179206469726563746c790a2f2f20417373756d7074696f6e3a20646174612e726573756c74206973205b302c20315d0a636f6e737420726573756c744172726179203d20646174612e726573756c743b0a0a696620282141727261792e6973417272617928726573756c7441727261792929207b0a20207468726f77204572726f72282241504920646964206e6f742072657475726e20616e20617272617922293b0a7d0a0a2f2f20332e20456e636f6465207468652041727261790a636f6e737420616269436f646572203d206574686572732e416269436f6465722e64656661756c74416269436f64657228293b0a0a2f2f2057652061726520656e636f64696e672061202275696e743235365b5d222e0a2f2f20546865207365636f6e6420617267756d656e74206d7573742062652061206c697374206f662076616c7565732e0a2f2f2053696e6365206f75722076616c756520495320616e2061727261792c207765206d75737420777261702069743a205b20726573756c744172726179205d0a636f6e737420656e636f646564203d20616269436f6465722e656e636f6465285b2275696e743235365b5d225d2c205b726573756c7441727261795d293b0a0a2f2f20342e2052657475726e2062797465730a72657475726e206574686572732e676574427974657328656e636f646564293b0a64617267739f7842307862366662613439396536393231646638313262363766626664333733363865396363656238643237663565386163336336336361636338653863613938303363ff0000000000",
          "blockHash": "0x35f87baac2d1f6d4f0b9cd74d4c98586649beba628f147f10b263eae683982fb",
          "blockNumber": "0x22289f7",
          "blockTimestamp": "0x695872ce",
          "transactionHash": "0xd9475f199f7383a825bc47cc45cd176e9e68219a7dfa93849faace9f72296694",
          "transactionIndex": "0xb",
          "logIndex": "0x3c",
          "removed": false
        },
        {
          "address": "0xf9b8fc078197181c841c296c876945aaa425b278",
          "topics": [
            "0xf67aec45c9a7ede407974a3e0c3a743dffeab99ee3f2d4c9a8144c2ebf2c7ec9",
            "0x5e8ae63d91d47cf4bd602aa0ff0831b071e21ac519fc77025f861475fcc2fcbe",
            "0x66756e2d626173652d7365706f6c69612d310000000000000000000000000000",
            "0x0000000000000000000000000000000000000000000000000000000000000212"
          ],
          "data": "0x000000000000000000000000f0830060f836b8d54bf02049e5905f619487989e000000000000000000000000ae186e6ae3082edd8ed44dfe1e26614d82b48747000000000000000000000000f0830060f836b8d54bf02049e5905f619487989e00000000000000000000000000000000000000000000000000000000000000e0000000000000000000000000000000000000000000000000000000000000000100000000000000000000000000000000000000000000000000000000000493e00000000000000000000000000000000000000000000000000bdf53903f5f2d88000000000000000000000000000000000000000000000000000000000000041b6c636f64654c6f636174696f6ec258200000000000000000000000000000000000000000000000000000000000000000686c616e6775616765c25820000000000000000000000000000000000000000000000000000000000000000066736f7572636579036a2f2f20312e20496d706f7274206574686572730a636f6e7374207b20657468657273207d203d20617761697420696d706f727428226e706d3a65746865727340362e31302e3022293b0a0a636f6e7374207175657374696f6e4964203d20617267735b305d3b0a0a636f6e73742061706955726c203d206068747470733a2f2f6f7261636c652d73696c6b2e76657263656c2e6170702f6170692f726573756c74732f247b7175657374696f6e49647d603b0a0a636f6e737420617069526573706f6e7365203d2061776169742046756e6374696f6e732e6d616b654874747052657175657374287b0a202075726c3a2061706955726c2c0a7d293b0a0a69662028617069526573706f6e73652e6572726f7229207b0a20207468726f77204572726f72282252657175657374206661696c656422293b0a7d0a0a636f6e7374207b2064617461207d203d20617069526573706f6e73653b0a0a2f2f20322e204578747261637420746865206172726179206469726563746c790a2f2f20417373756d7074696f6e3a20646174612e726573756c74206973205b302c20315d0a636f6e737420726573756c744172726179203d20646174612e726573756c743b0a0a696620282141727261792e6973417272617928726573756c7441727261792929207b0a20207468726f77204572726f72282241504920646964206e6f742072657475726e20616e20617272617922293b0a7d0a0a2f2f20332e20456e636f6465207468652041727261790a636f6e737420616269436f646572203d206574686572732e416269436f6465722e64656661756c74416269436f64657228293b0a0a2f2f2057652061726520656e636f64696e672061202275696e743235365b5d222e0a2f2f20546865207365636f6e6420617267756d656e74206d7573742062652061206c697374206f662076616c7565732e0a2f2f2053696e6365206f75722076616c756520495320616e2061727261792c207765206d75737420777261702069743a205b20726573756c744172726179205d0a636f6e737420656e636f646564203d20616269436f6465722e656e636f6465285b2275696e743235365b5d225d2c205b726573756c7441727261795d293b0a0a2f2f20342e2052657475726e2062797465730a72657475726e206574686572732e676574427974657328656e636f646564293b0a64617267739f7842307862366662613439396536393231646638313262363766626664333733363865396363656238643237663565386163336336336361636338653863613938303363ff0000000000",
          "blockHash": "0x35f87baac2d1f6d4f0b9cd74d4c98586649beba628f147f10b263eae683982fb",
          "blockNumber": "0x22289f7",
          "blockTimestamp": "0x695872ce",
          "transactionHash": "0xd9475f199f7383a825bc47cc45cd176e9e68219a7dfa93849faace9f72296694",
          "transactionIndex": "0xb",
          "logIndex": "0x3d",
          "removed": false
        },
        {
          "address": "0xae186e6ae3082edd8ed44dfe1e26614d82b48747",
          "topics": [
            "0x1131472297a800fee664d1d89cfa8f7676ff07189ecc53f80bbb5f4969099db8",
            "0x5e8ae63d91d47cf4bd602aa0ff0831b071e21ac519fc77025f861475fcc2fcbe"
          ],
          "data": "0x",
          "blockHash": "0x35f87baac2d1f6d4f0b9cd74d4c98586649beba628f147f10b263eae683982fb",
          "blockNumber": "0x22289f7",
          "blockTimestamp": "0x695872ce",
          "transactionHash": "0xd9475f199f7383a825bc47cc45cd176e9e68219a7dfa93849faace9f72296694",
          "transactionIndex": "0xb",
          "logIndex": "0x3e",
          "removed": false
        },
        {
          "address": "0xae186e6ae3082edd8ed44dfe1e26614d82b48747",
          "topics": [
            "0xce56338c9c37d89134fc028be508741426d7129fe7a62e1440e49ae68b7c4e28",
            "0x5e8ae63d91d47cf4bd602aa0ff0831b071e21ac519fc77025f861475fcc2fcbe",
            "0xf41ba0df7577f30a26a6334c86202dcf36e17abc6f46fdb17152cfdaf3e129f8"
          ],
          "data": "0x0000000000000000000000004c6d2b645d5d62d79e2396b4c3564ccd83c338d5b6fba499e6921df812b67fbfd37368e9cceb8d27f5e8ac3c63cacc8e8ca9803c",
          "blockHash": "0x35f87baac2d1f6d4f0b9cd74d4c98586649beba628f147f10b263eae683982fb",
          "blockNumber": "0x22289f7",
          "blockTimestamp": "0x695872ce",
          "transactionHash": "0xd9475f199f7383a825bc47cc45cd176e9e68219a7dfa93849faace9f72296694",
          "transactionIndex": "0xb",
          "logIndex": "0x3f",
          "removed": false
        }
      ],
      "logsBloom": "0x00008000000000000080000000000000000000800804010000000000000000000000000000000000000000000000000004000000002000000008000000000000000000000000000000000000000000400c000000000000000000000100000200000000000000000000000000000000000000004080000020800000000000000000000000000000000010000000000800000000000000000000040010000040000000000000000000000000000000000020001000040000000040200000000000440040000000000000800208000000000000000000000a410000000a000000000000000000000400000000000000000000000040000000400000000000200000",
      "type": "0x2",
      "transactionHash": "0xd9475f199f7383a825bc47cc45cd176e9e68219a7dfa93849faace9f72296694",
      "transactionIndex": "0xb",
      "blockHash": "0x35f87baac2d1f6d4f0b9cd74d4c98586649beba628f147f10b263eae683982fb",
      "blockNumber": "0x22289f7",
      "gasUsed": "0xba020",
      "effectiveGasPrice": "0x124f80",
      "blobGasUsed": "0x9240",
      "from": "0xf0830060f836b8d54bf02049e5905f619487989e",
      "to": "0xae186e6ae3082edd8ed44dfe1e26614d82b48747",
      "contractAddress": null,
      "daFootprintGasScalar": "0x138",
      "l1BaseFeeScalar": "0x44d",
      "l1BlobBaseFee": "0x1",
      "l1BlobBaseFeeScalar": "0xa118b",
      "l1Fee": "0x50",
      "l1GasPrice": "0x8",
      "l1GasUsed": "0x788"
    }
  ],
  "libraries": [],
  "pending": [],
  "returns": {},
  "timestamp": 1767404237,
  "chain": 84532,
  "commit": "a3f3d1b"
}