{
  "transactions": [
    {
      "hash": "0x87f1e093fc1890f873959254e0e08b2012984b8d1bb262af770ecf0a19091bdc",
      "transactionType": "CALL",
      "contractName": null,
      "contractAddress": "0xd91a091d43f24e0603633f7ba49e8458c9b46005",
      "function": "allowListReporter(address,bool)",
      "arguments": [
        "0xf0830060f836B8d54bF02049E5905F619487989e",
        "true"
      ],
      "transaction": {
        "from": "0xf0830060f836b8d54bf02049e5905f619487989e",
        "to": "0xd91a091d43f24e0603633f7ba49e8458c9b46005",
        "gas": "0xb377",
        "value": "0x0",
        "input": "0x6605d6b9000000000000000000000000f0830060f836b8d54bf02049e5905f619487989e0000000000000000000000000000000000000000000000000000000000000001",
        "nonce": "0x5a",
        "chainId": "0xaa044c"
      },
      "additionalContracts": [],
      "isFixedGasLimit": false
    },
    {
      "hash": "0xf6a6f412ca8083cf66aaa86170a3214c2e70319ff2662861e9c3c05f40880817",
      "transactionType": "CALL",
      "contractName": null,
      "contractAddress": "0xd91a091d43f24e0603633f7ba49e8458c9b46005",
      "function": "allowListReporter(address,bool)",
      "arguments": [
        "0xd91a091D43f24E0603633f7Ba49e8458c9b46005",
        "true"
      ],
      "transaction": {
        "from": "0xf0830060f836b8d54bf02049e5905f619487989e",
        "to": "0xd91a091d43f24e0603633f7ba49e8458c9b46005",
        "gas": "0x11ee7",
        "value": "0x0",
        "input": "0x6605d6b9000000000000000000000000d91a091d43f24e0603633f7ba49e8458c9b460050000000000000000000000000000000000000000000000000000000000000001",
        "nonce": "0x5b",
        "chainId": "0xaa044c"
      },
      "additionalContracts": [],
      "isFixedGasLimit": false
    },
    {
      "hash": "0x53d972ad63249b35030d861fa1d7c9529d4c36a129df6200a23df0b07bc55d56",
      "transactionType": "CALL",
      "contractName": null,
      "contractAddress": "0xd91a091d43f24e0603633f7ba49e8458c9b46005",
      "function": "allowListReporter(address,bool)",
      "arguments": [
        "0xf0830060f836B8d54bF02049E5905F619487989e",
        "true"
      ],
      "transaction": {
        "from": "0xf0830060f836b8d54bf02049e5905f619487989e",
        "to": "0xd91a091d43f24e0603633f7ba49e8458c9b46005",
        "gas": "0xb377",
        "value": "0x0",
        "input": "0x6605d6b9000000000000000000000000f0830060f836b8d54bf02049e5905f619487989e0000000000000000000000000000000000000000000000000000000000000001",
        "nonce": "0x5c",
        "chainId": "0xaa044c"
      },
      "additionalContracts": [],
      "isFixedGasLimit": false
    }
  ],
  "receipts": [
    {
      "status": "0x1",
      "cumulativeGasUsed": "0x13601",
      "logs": [
        {
          "address": "0xd91a091d43f24e0603633f7ba49e8458c9b46005",
          "topics": [
            "0xbd2eed0e0b9e71b4636ac34e4b6398c60945a0446c79a0a81fe172f10d0260ea",
            "0x000000000000000000000000f0830060f836b8d54bf02049e5905f619487989e"
          ],
          "data": "0x",
          "blockHash": "0xa7042312849f618760adb0517e69df2b158a3a26af61c57e175bc76a01b9f5cd",
          "blockNumber": "0x13c35b5",
          "blockTimestamp": "0x69bd3349",
          "transactionHash": "0x87f1e093fc1890f873959254e0e08b2012984b8d1bb262af770ecf0a19091bdc",
          "transactionIndex": "0x1",
          "logIndex": "0x0",
          "removed": false
        }
      ],
      "logsBloom": "0x00000000000000000000000000000000000000000000000000000000000000000000000000000000000000000002000000000000040000000000000000000008000000000000000000000000000000040000000000000000000000000000000000000000000000000000400000000000000000000000000000000000000000000000000000000000000400000000000800000000000000000000000000000000000000000000000000020000000000000000000000000000000000000000000000000000000000000000000000000100000000000000000000000000000000000000000000000000000000000000000000000000000000000000000000000000",
      "type": "0x2",
      "transactionHash": "0x87f1e093fc1890f873959254e0e08b2012984b8d1bb262af770ecf0a19091bdc",
      "transactionIndex": "0x1",
      "blockHash": "0xa7042312849f618760adb0517e69df2b158a3a26af61c57e175bc76a01b9f5cd",
      "blockNumber": "0x13c35b5",
      "gasUsed": "0x81ef",
      "effectiveGasPrice": "0xc393e6d00",
      "blobGasUsed": "0x64",
      "from": "0xf0830060f836b8d54bf02049e5905f619487989e",
      "to": "0xd91a091d43f24e0603633f7ba49e8458c9b46005",
      "contractAddress": null,
      "daFootprintGasScalar": "0x1",
      "l1BaseFeeScalar": "0x0",
      "l1BlobBaseFee": "0x1",
      "l1BlobBaseFeeScalar": "0x0",
      "l1Fee": "0x0",
      "l1GasPrice": "0xa",
      "l1GasUsed": "0x640"
    },
    {
      "status": "0x1",
      "cumulativeGasUsed": "0x205b8",
      "logs": [
        {
          "address": "0xd91a091d43f24e0603633f7ba49e8458c9b46005",
          "topics": [
            "0xbd2eed0e0b9e71b4636ac34e4b6398c60945a0446c79a0a81fe172f10d0260ea",
            "0x000000000000000000000000d91a091d43f24e0603633f7ba49e8458c9b46005"
          ],
          "data": "0x",
          "blockHash": "0xa7042312849f618760adb0517e69df2b158a3a26af61c57e175bc76a01b9f5cd",
          "blockNumber": "0x13c35b5",
          "blockTimestamp": "0x69bd3349",
          "transactionHash": "0xf6a6f412ca8083cf66aaa86170a3214c2e70319ff2662861e9c3c05f40880817",
          "transactionIndex": "0x2",
          "logIndex": "0x1",
          "removed": false
        }
      ],
      "logsBloom": "0x00000000000000000000000000000008000000000000000000000000000000000000000000000000000000000002000000000000040000000000000000000000000000000000000000000000000000040000000000000000000000000000000000000000000000000000400000000000000000000000000000000000000000000000000000000000000000000000000000000000000000000000000000000000000000000000000000020000000000000000000000000000000000000000000000000000000000000000000000000100000000000000000000000000000002000000004000000000000000000000000000000000000000000000000000000000",
      "type": "0x2",
      "transactionHash": "0xf6a6f412ca8083cf66aaa86170a3214c2e70319ff2662861e9c3c05f40880817",
      "transactionIndex": "0x2",
      "blockHash": "0xa7042312849f618760adb0517e69df2b158a3a26af61c57e175bc76a01b9f5cd",
      "blockNumber": "0x13c35b5",
      "gasUsed": "0xcfb7",
      "effectiveGasPrice": "0xc393e6d00",
      "blobGasUsed": "0x64",
      "from": "0xf0830060f836b8d54bf02049e5905f619487989e",
      "to": "0xd91a091d43f24e0603633f7ba49e8458c9b46005",
      "contractAddress": null,
      "daFootprintGasScalar": "0x1",
      "l1BaseFeeScalar": "0x0",
      "l1BlobBaseFee": "0x1",
      "l1BlobBaseFeeScalar": "0x0",
      "l1Fee": "0x0",
      "l1GasPrice": "0xa",
      "l1GasUsed": "0x640"
    },
    {
      "status": "0x1",
      "cumulativeGasUsed": "0x287a7",
      "logs": [
        {
          "address": "0xd91a091d43f24e0603633f7ba49e8458c9b46005",
          "topics": [
            "0xbd2eed0e0b9e71b4636ac34e4b6398c60945a0446c79a0a81fe172f10d0260ea",
            "0x000000000000000000000000f0830060f836b8d54bf02049e5905f619487989e"
          ],
          "data": "0x",
          "blockHash": "0xa7042312849f618760adb0517e69df2b158a3a26af61c57e175bc76a01b9f5cd",
          "blockNumber": "0x13c35b5",
          "blockTimestamp": "0x69bd3349",
          "transactionHash": "0x53d972ad63249b35030d861fa1d7c9529d4c36a129df6200a23df0b07bc55d56",
          "transactionIndex": "0x3",
          "logIndex": "0x2",
          "removed": false
        }
      ],
      "logsBloom": "0x00000000000000000000000000000000000000000000000000000000000000000000000000000000000000000002000000000000040000000000000000000008000000000000000000000000000000040000000000000000000000000000000000000000000000000000400000000000000000000000000000000000000000000000000000000000000400000000000800000000000000000000000000000000000000000000000000020000000000000000000000000000000000000000000000000000000000000000000000000100000000000000000000000000000000000000000000000000000000000000000000000000000000000000000000000000",
      "type": "0x2",
      "transactionHash": "0x53d972ad63249b35030d861fa1d7c9529d4c36a129df6200a23df0b07bc55d56",
      "transactionIndex": "0x3",
      "blockHash": "0xa7042312849f618760adb0517e69df2b158a3a26af61c57e175bc76a01b9f5cd",
      "blockNumber": "0x13c35b5",
      "gasUsed": "0x81ef",
      "effectiveGasPrice": "0xc393e6d00",
      "blobGasUsed": "0x64",
      "from": "0xf0830060f836b8d54bf02049e5905f619487989e",
      "to": "0xd91a091d43f24e0603633f7ba49e8458c9b46005",
      "contractAddress": null,
      "daFootprintGasScalar": "0x1",
      "l1BaseFeeScalar": "0x0",
      "l1BlobBaseFee": "0x1",
      "l1BlobBaseFeeScalar": "0x0",
      "l1Fee": "0x0",
      "l1GasPrice": "0xa",
      "l1GasUsed": "0x640"
    }
  ],
  "libraries": [],
  "pending": [],
  "returns": {},
  "timestamp": 1774007113321,
  "chain": 11142220,
  "commit": "7098885"
}