{
  "transactions": [
    {
      "hash": "0xfc65dac459f6a06824ece3839c9b1fb2944edbd4706a12bfe5517c4d319ec1a0",
      "transactionType": "CALL",
      "contractName": null,
      "contractAddress": "0xf5cdcaf95bb27fb43919d1c664a2618c773330dd",
      "function": "create((string,bytes32,address,address,uint256,uint256,uint256,uint8,uint8))",
      "arguments": [
        "(Will X Y Z happen by 2025-12-21?, 0x0000000000000000000000000000000000000000000000000000000000000000, 0x4fd81EfC19A5Af3E9eAd9c147e5E9cF3CF823DE2, 0x0000000000000000000000000000000000000000, 0, 1000, 2, 1, 1)"
      ],
      "transaction": {
        "from": "0xf0830060f836b8d54bf02049e5905f619487989e",
        "to": "0xf5cdcaf95bb27fb43919d1c664a2618c773330dd",
        "gas": "0xa2f2c",
        "value": "0x0",
        "input": "0x395994320000000000000000000000000000000000000000000000000000000000000020000000000000000000000000000000000000000000000000000000000000012000000000000000000000000000000000000000000000000000000000000000000000000000000000000000004fd81efc19a5af3e9ead9c147e5e9cf3cf823de20000000000000000000000000000000000000000000000000000000000000000000000000000000000000000000000000000000000000000000000000000000000000000000000000000000000000000000000000000000000000000000003e8000000000000000000000000000000000000000000000000000000000000000200000000000000000000000000000000000000000000000000000000000000010000000000000000000000000000000000000000000000000000000000000001000000000000000000000000000000000000000000000000000000000000002057696c6c20582059205a2068617070656e20627920323032352d31322d32313f",
        "nonce": "0x903",
        "chainId": "0xaa36a7"
      },
      "additionalContracts": [],
      "isFixedGasLimit": false
    }
  ],
  "receipts": [
    {
      "status": "0x1",
      "cumulativeGasUsed": "0x18450ac",
      "logs": [
        {
          "address": "0xff6f3af86bf0f010f1a72ba9c6be7bf22162d330",
          "topics": [
            "0xab3760c3bd2bb38b5bcf54dc79802ed67338b4cf29f3054ded67ed24661e4177",
            "0xad52a25ad476345ac3e26bd1c87b10128c60a66f8c742085089c491ec5b32428",
            "0x000000000000000000000000018baf94bf57ef4b62c510a94c1c35fa1c786a7d",
            "0x40f0acaf49cb574ee13f185350fc8c1a08f3a6fa6dae7c3a0923aacaab1313d2"
          ],
          "data": "0x0000000000000000000000000000000000000000000000000000000000000002",
          "blockHash": "0x5cc0b8ea9d4bbcb53df07c3faa0d617de0fc1b3c6458edf063745aecd3cbdcb8",
          "blockNumber": "0x9df115",
          "blockTimestamp": "0x69a22df0",
          "transactionHash": "0xfc65dac459f6a06824ece3839c9b1fb2944edbd4706a12bfe5517c4d319ec1a0",
          "transactionIndex": "0x85",
          "logIndex": "0x1a6",
          "removed": false
        },
        {
          "address": "0x018baf94bf57ef4b62c510a94c1c35fa1c786a7d",
          "topics": [
            "0x8a467b9548454672390325930536c6ad39a6f7c235383a6c09514a620ca19e4e",
            "0x40f0acaf49cb574ee13f185350fc8c1a08f3a6fa6dae7c3a0923aacaab1313d2",
            "0xad52a25ad476345ac3e26bd1c87b10128c60a66f8c742085089c491ec5b32428"
          ],
          "data": "0x0000000000000000000000000000000000000000000000000000000000000002",
          "blockHash": "0x5cc0b8ea9d4bbcb53df07c3faa0d617de0fc1b3c6458edf063745aecd3cbdcb8",
          "blockNumber": "0x9df115",
          "blockTimestamp": "0x69a22df0",
          "transactionHash": "0xfc65dac459f6a06824ece3839c9b1fb2944edbd4706a12bfe5517c4d319ec1a0",
          "transactionIndex": "0x85",
          "logIndex": "0x1a7",
          "removed": false
        },
        {
          "address": "0xfc4def105b3288e41f0ae8818bdd48d58f950772",
          "topics": [
            "0x95370a14f3652c2fa62b4fcc36d1addd1c445b877ed9404341c61f970b34280b",
            "0x40f0acaf49cb574ee13f185350fc8c1a08f3a6fa6dae7c3a0923aacaab1313d2"
          ],
          "data": "0xad52a25ad476345ac3e26bd1c87b10128c60a66f8c742085089c491ec5b32428",
          "blockHash": "0x5cc0b8ea9d4bbcb53df07c3faa0d617de0fc1b3c6458edf063745aecd3cbdcb8",
          "blockNumber": "0x9df115",
          "blockTimestamp": "0x69a22df0",
          "transactionHash": "0xfc65dac459f6a06824ece3839c9b1fb2944edbd4706a12bfe5517c4d319ec1a0",
          "transactionIndex": "0x85",
          "logIndex": "0x1a8",
          "removed": false
        },
        {
          "address": "0xf5cdcaf95bb27fb43919d1c664a2618c773330dd",
          "topics": [
            "0x3768acba3af0d4399cd28259609501bab034134f1f8eefb90cb312fcb12774ac"
          ],
          "data": "0x40f0acaf49cb574ee13f185350fc8c1a08f3a6fa6dae7c3a0923aacaab1313d200000000000000000000000000000000000000000000000000000000000000a000000000000000000000000000000000000000000000000000000000000000010000000000000000000000000000000000000000000000000000000000000001000000000000000000000000f0830060f836b8d54bf02049e5905f619487989e000000000000000000000000000000000000000000000000000000000000002057696c6c20582059205a2068617070656e20627920323032352d31322d32313f",
          "blockHash": "0x5cc0b8ea9d4bbcb53df07c3faa0d617de0fc1b3c6458edf063745aecd3cbdcb8",
          "blockNumber": "0x9df115",
          "blockTimestamp": "0x69a22df0",
          "transactionHash": "0xfc65dac459f6a06824ece3839c9b1fb2944edbd4706a12bfe5517c4d319ec1a0",
          "transactionIndex": "0x85",
          "logIndex": "0x1a9",
          "removed": false
        }
      ],
      "logsBloom": "0x00000000000080000000000200010300000000000040000000000000000000000001000800000000000000008000000000002040000000000000000000000000004000000000000000000000000000000000000000000000420000000000000000000000000000000004000000000010000008020000000800000000000000000000020080000000000000000000000008020000080000000000000000000000000000000000000000000001400000000000000000000000000000000000000000000010000000200080000000000000080000000000000000000000000000000000000000000000000000000020000000000200000000000000000000400000",
      "type": "0x2",
      "transactionHash": "0xfc65dac459f6a06824ece3839c9b1fb2944edbd4706a12bfe5517c4d319ec1a0",
      "transactionIndex": "0x85",
      "blockHash": "0x5cc0b8ea9d4bbcb53df07c3faa0d617de0fc1b3c6458edf063745aecd3cbdcb8",
      "blockNumber": "0x9df115",
      "gasUsed": "0x75f8d",
      "effectiveGasPrice": "0x11f5a3",
      "from": "0xf0830060f836b8d54bf02049e5905f619487989e",
      "to": "0xf5cdcaf95bb27fb43919d1c664a2618c773330dd",
      "contractAddress": null
    }
  ],
  "libraries": [],
  "pending": [],
  "returns": {},
  "timestamp": 1772236272808,
  "chain": 11155111,
  "commit": "f844a23"
}