{
  "transactions": [
    {
      "hash": "0x9ad30ad5384407f4f3c18d86e806624c6a9e37ee97f222a91c05a5fd9bc3fd3f",
      "transactionType": "CALL",
      "contractName": null,
      "contractAddress": "0xf62ccebd5fc1a0189c9cec9f452b6ac1452ffbfd",
      "function": "create((string,bytes32,address,address,uint256,uint256,uint256,uint8,uint8))",
      "arguments": [
        "(Will X Y Z happen by 2025-12-21?, 0x0000000000000000000000000000000000000000000000000000000000000000, 0x71d35ad20603F82C19BC40420B34C7280d77994b, 0x0000000000000000000000000000000000000000, 0, 1000, 2, 1, 1)"
      ],
      "transaction": {
        "from": "0xf0830060f836b8d54bf02049e5905f619487989e",
        "to": "0xf62ccebd5fc1a0189c9cec9f452b6ac1452ffbfd",
        "gas": "0xa2f2c",
        "value": "0x0",
        "input": "0x3959943200000000000000000000000000000000000000000000000000000000000000200000000000000000000000000000000000000000000000000000000000000120000000000000000000000000000000000000000000000000000000000000000000000000000000000000000071d35ad20603f82c19bc40420b34c7280d77994b0000000000000000000000000000000000000000000000000000000000000000000000000000000000000000000000000000000000000000000000000000000000000000000000000000000000000000000000000000000000000000000003e8000000000000000000000000000000000000000000000000000000000000000200000000000000000000000000000000000000000000000000000000000000010000000000000000000000000000000000000000000000000000000000000001000000000000000000000000000000000000000000000000000000000000002057696c6c20582059205a2068617070656e20627920323032352d31322d32313f",
        "nonce": "0x66f",
        "chainId": "0xaa36a7"
      },
      "additionalContracts": [],
      "isFixedGasLimit": false
    }
  ],
  "receipts": [
    {
      "status": "0x1",
      "cumulativeGasUsed": "0xe9016a",
      "logs": [
        {
          "address": "0x7c26e296335e870dc12b224f4710c3c538572c4b",
          "topics": [
            "0xab3760c3bd2bb38b5bcf54dc79802ed67338b4cf29f3054ded67ed24661e4177",
            "0x286972a3b689ef108b48272832d6ae3ad9380140e328793517062f4e0e3f382a",
            "0x0000000000000000000000005c4436ceab0c7249e0cb779c8809c3c289d0dd3d",
            "0xee7c0f7921f892f5ae9784748924fb1855d55e12885fb880c3b1cefbc134e744"
          ],
          "data": "0x0000000000000000000000000000000000000000000000000000000000000002",
          "blockHash": "0xd9b6a43830885f5fef609e7579315e9ee3cc063268d9c3bb20923b7abc35b7f3",
          "blockNumber": "0x9de7cf",
          "blockTimestamp": "0x69a1bb3c",
          "transactionHash": "0x9ad30ad5384407f4f3c18d86e806624c6a9e37ee97f222a91c05a5fd9bc3fd3f",
          "transactionIndex": "0x7c",
          "logIndex": "0x101",
          "removed": false
        },
        {
          "address": "0x5c4436ceab0c7249e0cb779c8809c3c289d0dd3d",
          "topics": [
            "0x8a467b9548454672390325930536c6ad39a6f7c235383a6c09514a620ca19e4e",
            "0xee7c0f7921f892f5ae9784748924fb1855d55e12885fb880c3b1cefbc134e744",
            "0x286972a3b689ef108b48272832d6ae3ad9380140e328793517062f4e0e3f382a"
          ],
          "data": "0x0000000000000000000000000000000000000000000000000000000000000002",
          "blockHash": "0xd9b6a43830885f5fef609e7579315e9ee3cc063268d9c3bb20923b7abc35b7f3",
          "blockNumber": "0x9de7cf",
          "blockTimestamp": "0x69a1bb3c",
          "transactionHash": "0x9ad30ad5384407f4f3c18d86e806624c6a9e37ee97f222a91c05a5fd9bc3fd3f",
          "transactionIndex": "0x7c",
          "logIndex": "0x102",
          "removed": false
        },
        {
          "address": "0xf7cf4c775f26ab0cc6161268f5c79a5f4fa9f5f3",
          "topics": [
            "0x95370a14f3652c2fa62b4fcc36d1addd1c445b877ed9404341c61f970b34280b",
            "0xee7c0f7921f892f5ae9784748924fb1855d55e12885fb880c3b1cefbc134e744"
          ],
          "data": "0x286972a3b689ef108b48272832d6ae3ad9380140e328793517062f4e0e3f382a",
          "blockHash": "0xd9b6a43830885f5fef609e7579315e9ee3cc063268d9c3bb20923b7abc35b7f3",
          "blockNumber": "0x9de7cf",
          "blockTimestamp": "0x69a1bb3c",
          "transactionHash": "0x9ad30ad5384407f4f3c18d86e806624c6a9e37ee97f222a91c05a5fd9bc3fd3f",
          "transactionIndex": "0x7c",
          "logIndex": "0x103",
          "removed": false
        },
        {
          "address": "0xf62ccebd5fc1a0189c9cec9f452b6ac1452ffbfd",
          "topics": [
            "0x3768acba3af0d4399cd28259609501bab034134f1f8eefb90cb312fcb12774ac"
          ],
          "data": "0xee7c0f7921f892f5ae9784748924fb1855d55e12885fb880c3b1cefbc134e74400000000000000000000000000000000000000000000000000000000000000a000000000000000000000000000000000000000000000000000000000000000010000000000000000000000000000000000000000000000000000000000000001000000000000000000000000f0830060f836b8d54bf02049e5905f619487989e000000000000000000000000000000000000000000000000000000000000002057696c6c20582059205a2068617070656e20627920323032352d31322d32313f",
          "blockHash": "0xd9b6a43830885f5fef609e7579315e9ee3cc063268d9c3bb20923b7abc35b7f3",
          "blockNumber": "0x9de7cf",
          "blockTimestamp": "0x69a1bb3c",
          "transactionHash": "0x9ad30ad5384407f4f3c18d86e806624c6a9e37ee97f222a91c05a5fd9bc3fd3f",
          "transactionIndex": "0x7c",
          "logIndex": "0x104",
          "removed": false
        }
      ],
      "logsBloom": "0x0000000000000080000000000000030000000000004000000000000000000000800000082000000000000000800000000000a00040000000004000000000000000000000000000000000000000000000000000000000000000000000000000000000000000000000000000000000001800000002000000000000000000000000000002000000000000000000000000000002000000000000040000000000000000000800000020000080000100000000000000000000000000000000000000000000001080000000001000000000000008000000000800000a000000200000000000000000000000040000000000000000000000000000000000004010000000",
      "type": "0x2",
      "transactionHash": "0x9ad30ad5384407f4f3c18d86e806624c6a9e37ee97f222a91c05a5fd9bc3fd3f",
      "transactionIndex": "0x7c",
      "blockHash": "0xd9b6a43830885f5fef609e7579315e9ee3cc063268d9c3bb20923b7abc35b7f3",
      "blockNumber": "0x9de7cf",
      "gasUsed": "0x75f8d",
      "effectiveGasPrice": "0x2350be9",
      "from": "0xf0830060f836b8d54bf02049e5905f619487989e",
      "to": "0xf62ccebd5fc1a0189c9cec9f452b6ac1452ffbfd",
      "contractAddress": null
    }
  ],
  "libraries": [],
  "pending": [],
  "returns": {},
  "timestamp": 1772206908233,
  "chain": 11155111,
  "commit": "4a43ba6"
}