{
  "transactions": [
    {
      "hash": "0xe11c16d6fcb66c1e1737bb42ee9d51d6f9791db6c7fed15068cccfae712bb260",
      "transactionType": "CALL",
      "contractName": null,
      "contractAddress": "0x45bec1219ae7442c93cbb32d63df374d94e1df2a",
      "function": "create((string,bytes32,address,address,uint256,uint256,uint256,uint8,uint8))",
      "arguments": [
        "(Will X Y Z happen by 2025-12-21?, 0x0000000000000000000000000000000000000000000000000000000000000000, 0x787AA9f59509Db6Fb37EA37b1cBB7D0D71B116E6, 0x0000000000000000000000000000000000000000, 0, 1000, 2, 1, 1)"
      ],
      "transaction": {
        "from": "0xf0830060f836b8d54bf02049e5905f619487989e",
        "to": "0x45bec1219ae7442c93cbb32d63df374d94e1df2a",
        "gas": "0xa2817",
        "value": "0x0",
        "input": "0x39599432000000000000000000000000000000000000000000000000000000000000002000000000000000000000000000000000000000000000000000000000000001200000000000000000000000000000000000000000000000000000000000000000000000000000000000000000787aa9f59509db6fb37ea37b1cbb7d0d71b116e60000000000000000000000000000000000000000000000000000000000000000000000000000000000000000000000000000000000000000000000000000000000000000000000000000000000000000000000000000000000000000000003e8000000000000000000000000000000000000000000000000000000000000000200000000000000000000000000000000000000000000000000000000000000010000000000000000000000000000000000000000000000000000000000000001000000000000000000000000000000000000000000000000000000000000002057696c6c20582059205a2068617070656e20627920323032352d31322d32313f",
        "nonce": "0x2d8",
        "chainId": "0xaa36a7"
      },
      "additionalContracts": [],
      "isFixedGasLimit": false
    }
  ],
  "receipts": [
    {
      "status": "0x1",
      "cumulativeGasUsed": "0x96d22f",
      "logs": [
        {
          "address": "0xb01f9a7824fc1ffef9c428aa8c0225b0e308a4f4",
          "topics": [
            "0xab3760c3bd2bb38b5bcf54dc79802ed67338b4cf29f3054ded67ed24661e4177",
            "0x7ee27b6063a40c60066cb8c99fe9a620cf21859fd56f1540a0a450a1e27b2ce5",
            "0x000000000000000000000000bc42ecc32c2da4a9473404dc6549493aa3684383",
            "0xfbb2cfb380064b64826c1f6302983b3565a15b702d2c7464d4f2376c1916d838"
          ],
          "data": "0x0000000000000000000000000000000000000000000000000000000000000002",
          "blockHash": "0xe061edf0b22ffd2b754bbf0f5886da5dcc47250762fbbb233f85fc990ddb6d03",
          "blockNumber": "0x9dcf21",
          "blockTimestamp": "0x69a0893c",
          "transactionHash": "0xe11c16d6fcb66c1e1737bb42ee9d51d6f9791db6c7fed15068cccfae712bb260",
          "transactionIndex": "0x4e",
          "logIndex": "0xac",
          "removed": false
        },
        {
          "address": "0xbc42ecc32c2da4a9473404dc6549493aa3684383",
          "topics": [
            "0x8a467b9548454672390325930536c6ad39a6f7c235383a6c09514a620ca19e4e",
            "0xfbb2cfb380064b64826c1f6302983b3565a15b702d2c7464d4f2376c1916d838",
            "0x7ee27b6063a40c60066cb8c99fe9a620cf21859fd56f1540a0a450a1e27b2ce5"
          ],
          "data": "0x0000000000000000000000000000000000000000000000000000000000000002",
          "blockHash": "0xe061edf0b22ffd2b754bbf0f5886da5dcc47250762fbbb233f85fc990ddb6d03",
          "blockNumber": "0x9dcf21",
          "blockTimestamp": "0x69a0893c",
          "transactionHash": "0xe11c16d6fcb66c1e1737bb42ee9d51d6f9791db6c7fed15068cccfae712bb260",
          "transactionIndex": "0x4e",
          "logIndex": "0xad",
          "removed": false
        },
        {
          "address": "0x37ad1be17be247854f9d4f8af95eeeffde0b179e",
          "topics": [
            "0x95370a14f3652c2fa62b4fcc36d1addd1c445b877ed9404341c61f970b34280b",
            "0xfbb2cfb380064b64826c1f6302983b3565a15b702d2c7464d4f2376c1916d838"
          ],
          "data": "0x7ee27b6063a40c60066cb8c99fe9a620cf21859fd56f1540a0a450a1e27b2ce5",
          "blockHash": "0xe061edf0b22ffd2b754bbf0f5886da5dcc47250762fbbb233f85fc990ddb6d03",
          "blockNumber": "0x9dcf21",
          "blockTimestamp": "0x69a0893c",
          "transactionHash": "0xe11c16d6fcb66c1e1737bb42ee9d51d6f9791db6c7fed15068cccfae712bb260",
          "transactionIndex": "0x4e",
          "logIndex": "0xae",
          "removed": false
        },
        {
          "address": "0x45bec1219ae7442c93cbb32d63df374d94e1df2a",
          "topics": [
            "0x3768acba3af0d4399cd28259609501bab034134f1f8eefb90cb312fcb12774ac"
          ],
          "data": "0xfbb2cfb380064b64826c1f6302983b3565a15b702d2c7464d4f2376c1916d83800000000000000000000000000000000000000000000000000000000000000a000000000000000000000000000000000000000000000000000000000000000010000000000000000000000000000000000000000000000000000000000000001000000000000000000000000f0830060f836b8d54bf02049e5905f619487989e000000000000000000000000000000000000000000000000000000000000002057696c6c20582059205a2068617070656e20627920323032352d31322d32313f",
          "blockHash": "0xe061edf0b22ffd2b754bbf0f5886da5dcc47250762fbbb233f85fc990ddb6d03",
          "blockNumber": "0x9dcf21",
          "blockTimestamp": "0x69a0893c",
          "transactionHash": "0xe11c16d6fcb66c1e1737bb42ee9d51d6f9791db6c7fed15068cccfae712bb260",
          "transactionIndex": "0x4e",
          "logIndex": "0xaf",
          "removed": false
        }
      ],
      "logsBloom": "0x00020000000000000000000000000300000000000000000000100000000000000000000800080002000000008048000000802000000000000000000000000000000000000000000000000000000000000000000000000000000400000010000000000000000000000000001000000010040000020000000000000000000000000000020000040000000000000080000000020000000000000000000000400000000000000000000000000001000000000000000000000000000000000000000000000010000800000000000000000400080000000000000000000000000008000000000000000000000000000000000000810000000000000000000000050000",
      "type": "0x2",
      "transactionHash": "0xe11c16d6fcb66c1e1737bb42ee9d51d6f9791db6c7fed15068cccfae712bb260",
      "transactionIndex": "0x4e",
      "blockHash": "0xe061edf0b22ffd2b754bbf0f5886da5dcc47250762fbbb233f85fc990ddb6d03",
      "blockNumber": "0x9dcf21",
      "gasUsed": "0x75a6c",
      "effectiveGasPrice": "0xfd48d",
      "from": "0xf0830060f836b8d54bf02049e5905f619487989e",
      "to": "0x45bec1219ae7442c93cbb32d63df374d94e1df2a",
      "contractAddress": null
    }
  ],
  "libraries": [],
  "pending": [],
  "returns": {},
  "timestamp": 1772128573604,
  "chain": 11155111,
  "commit": "83a9ffa"
}