{
  "transactions": [
    {
      "hash": "0x79fff4ec84c13721651879a238c62f48c945a026c8f4dfeb193bbf85d47a325d",
      "transactionType": "CALL",
      "contractName": null,
      "contractAddress": "0x8d19d6c95bc3f5999b43aab8b943bbbd1acecbfe",
      "function": "setForwarderAddress(address)",
      "arguments": [
        "0x15fC6ae953E024d975e77382eEeC56A9101f9F88"
      ],
      "transaction": {
        "from": "0xf0830060f836b8d54bf02049e5905f619487989e",
        "to": "0x8d19d6c95bc3f5999b43aab8b943bbbd1acecbfe",
        "gas": "0xb3a6",
        "value": "0x0",
        "input": "0xd777cc6d00000000000000000000000015fc6ae953e024d975e77382eeec56a9101f9f88",
        "nonce": "0x107",
        "chainId": "0xaa36a7"
      },
      "additionalContracts": [],
      "isFixedGasLimit": false
    },
    {
      "hash": "0xdb54e43955e4c3ae2813d0cc4b8be9e364353305fea9d060c531ec6372bcf92a",
      "transactionType": "CALL",
      "contractName": null,
      "contractAddress": "0x8d19d6c95bc3f5999b43aab8b943bbbd1acecbfe",
      "function": "setExpectedAuthor(address)",
      "arguments": [
        "0x0000000000000000000000000000000000000000"
      ],
      "transaction": {
        "from": "0xf0830060f836b8d54bf02049e5905f619487989e",
        "to": "0x8d19d6c95bc3f5999b43aab8b943bbbd1acecbfe",
        "gas": "0xb227",
        "value": "0x0",
        "input": "0xd60c884b0000000000000000000000000000000000000000000000000000000000000000",
        "nonce": "0x108",
        "chainId": "0xaa36a7"
      },
      "additionalContracts": [],
      "isFixedGasLimit": false
    },
    {
      "hash": "0xd521390c0caad04a421f508b2400bbdefe056e119414e343f84701d9d73b68a9",
      "transactionType": "CALL",
      "contractName": null,
      "contractAddress": "0x8d19d6c95bc3f5999b43aab8b943bbbd1acecbfe",
      "function": "setExpectedWorkflowName(string)",
      "arguments": [
        ""
      ],
      "transaction": {
        "from": "0xf0830060f836b8d54bf02049e5905f619487989e",
        "to": "0x8d19d6c95bc3f5999b43aab8b943bbbd1acecbfe",
        "gas": "0xbe5d",
        "value": "0x0",
        "input": "0xbc1fc27a00000000000000000000000000000000000000000000000000000000000000200000000000000000000000000000000000000000000000000000000000000000",
        "nonce": "0x109",
        "chainId": "0xaa36a7"
      },
      "additionalContracts": [],
      "isFixedGasLimit": false
    },
    {
      "hash": "0xc04f8616445cdedacf7d73309df390f0c2587a9a1a7241612fdf76d8e154c9a9",
      "transactionType": "CALL",
      "contractName": null,
      "contractAddress": "0x8d19d6c95bc3f5999b43aab8b943bbbd1acecbfe",
      "function": "setExpectedWorkflowId(bytes32)",
      "arguments": [
        "0x0000000000000000000000000000000000000000000000000000000000000000"
      ],
      "transaction": {
        "from": "0xf0830060f836b8d54bf02049e5905f619487989e",
        "to": "0x8d19d6c95bc3f5999b43aab8b943bbbd1acecbfe",
        "gas": "0xb0f6",
        "value": "0x0",
        "input": "0xc3c44ac20000000000000000000000000000000000000000000000000000000000000000",
        "nonce": "0x10a",
        "chainId": "0xaa36a7"
      },
      "additionalContracts": [],
      "isFixedGasLimit": false
    }
  ],
  "receipts": [
    {
      "status": "0x1",
      "cumulativeGasUsed": "0x2400c25",
      "logs": [
        {
          "address": "0x8d19d6c95bc3f5999b43aab8b943bbbd1acecbfe",
          "topics": [
            "0x039ad854736757070884dd787ef1a7f58db33546639d1f3efddcf4a33fb8997e",
            "0x00000000000000000000000015fc6ae953e024d975e77382eeec56a9101f9f88",
            "0x00000000000000000000000015fc6ae953e024d975e77382eeec56a9101f9f88"
          ],
          "data": "0x",
          "blockHash": "0x55dd8173ef56f556199c50302c03baf0f438af3d1918fd9612d81dc80b2ca888",
          "blockNumber": "0x9dad98",
          "blockTimestamp": "0x699ee170",
          "transactionHash": "0x79fff4ec84c13721651879a238c62f48c945a026c8f4dfeb193bbf85d47a325d",
          "transactionIndex": "0xae",
          "logIndex": "0x355",
          "removed": false
        }
      ],
      "logsBloom": "0x00000000400000000000000000000000000000000000000002000000002000000000000000000000000000000000000000000000000000000000000000000000000002000000000000000000000000000000000000000000000000000000000002000000000000000000000000000000000000000000000000000000000000000000000000000000000000000000000000000000000040000000000000000000000000000000000000000000000000000000000000000000000000020000000000000000000000000000000000000000000000000000000000000000000000000400000000000000000000000000000000000000000000000000000000080000",
      "type": "0x2",
      "transactionHash": "0x79fff4ec84c13721651879a238c62f48c945a026c8f4dfeb193bbf85d47a325d",
      "transactionIndex": "0xae",
      "blockHash": "0x55dd8173ef56f556199c50302c03baf0f438af3d1918fd9612d81dc80b2ca888",
      "blockNumber": "0x9dad98",
      "gasUsed": "0x8210",
      "effectiveGasPrice": "0xf7019",
      "from": "0xf0830060f836b8d54bf02049e5905f619487989e",
      "to": "0x8d19d6c95bc3f5999b43aab8b943bbbd1acecbfe",
      "contractAddress": null
    },
    {
      "status": "0x1",
      "cumulativeGasUsed": "0x2408d21",
      "logs": [
        {
          "address": "0x8d19d6c95bc3f5999b43aab8b943bbbd1acecbfe",
          "topics": [
            "0x3321cda85c145617e47418aa14255e9dcbec53a753778e57591703b89a3cad31",
            "0x0000000000000000000000000000000000000000000000000000000000000000",
            "0x0000000000000000000000000000000000000000000000000000000000000000"
          ],
          "data": "0x",
          "blockHash": "0x55dd8173ef56f556199c50302c03baf0f438af3d1918fd9612d81dc80b2ca888",
          "blockNumber": "0x9dad98",
          "blockTimestamp": "0x699ee170",
          "transactionHash": "0xdb54e43955e4c3ae2813d0cc4b8be9e364353305fea9d060c531ec6372bcf92a",
          "transactionIndex": "0xaf",
          "logIndex": "0x356",
          "removed": false
        }
      ],
      "logsBloom": "0x00000000000000000000000000000000000000000000000000000000000000000000000000000000000000000000000000000000000000000000000000000000000002000000000000000000000000000000000000000000000000000000000000000000020001000000000000000800000000000000000000000000000000000000000000000000000000000000000000000000000040000000000000000000000000000000000000000000000000000000001000000000000000000000000000000000000000000000000000000020000000000000000000000000000020000400000000000000000000000000000000000000000000000000000000000000",
      "type": "0x2",
      "transactionHash": "0xdb54e43955e4c3ae2813d0cc4b8be9e364353305fea9d060c531ec6372bcf92a",
      "transactionIndex": "0xaf",
      "blockHash": "0x55dd8173ef56f556199c50302c03baf0f438af3d1918fd9612d81dc80b2ca888",
      "blockNumber": "0x9dad98",
      "gasUsed": "0x80fc",
      "effectiveGasPrice": "0xf7019",
      "from": "0xf0830060f836b8d54bf02049e5905f619487989e",
      "to": "0x8d19d6c95bc3f5999b43aab8b943bbbd1acecbfe",
      "contractAddress": null
    },
    {
      "status": "0x1",
      "cumulativeGasUsed": "0x2410f4b",
      "logs": [
        {
          "address": "0x8d19d6c95bc3f5999b43aab8b943bbbd1acecbfe",
          "topics": [
            "0x1e7ddd09d504c82dcfc784a464b167469f5aad967606ec4822d848ef9141dfa5",
            "0x0000000000000000000000000000000000000000000000000000000000000000",
            "0x0000000000000000000000000000000000000000000000000000000000000000"
          ],
          "data": "0x",
          "blockHash": "0x55dd8173ef56f556199c50302c03baf0f438af3d1918fd9612d81dc80b2ca888",
          "blockNumber": "0x9dad98",
          "blockTimestamp": "0x699ee170",
          "transactionHash": "0xd521390c0caad04a421f508b2400bbdefe056e119414e343f84701d9d73b68a9",
          "transactionIndex": "0xb0",
          "logIndex": "0x357",
          "removed": false
        }
      ],
      "logsBloom": "0x00000000000000000000000004000000000000000000000000000000000000000000000000000000000020000000000000000000000000000000000000000000000002000000000000000000000000000000000000000000000000000000000000000000020000000000000000000800000000000000000000000000000000000000000000000000000000000000000000000000000040000000000000000000000000000000000000000000000000000000000000000000000000000000000000000000000000000000000000000000000000000004000000000000000020000400000000000000000000000000000000000000000000000000000000000000",
      "type": "0x2",
      "transactionHash": "0xd521390c0caad04a421f508b2400bbdefe056e119414e343f84701d9d73b68a9",
      "transactionIndex": "0xb0",
      "blockHash": "0x55dd8173ef56f556199c50302c03baf0f438af3d1918fd9612d81dc80b2ca888",
      "blockNumber": "0x9dad98",
      "gasUsed": "0x822a",
      "effectiveGasPrice": "0xf7019",
      "from": "0xf0830060f836b8d54bf02049e5905f619487989e",
      "to": "0x8d19d6c95bc3f5999b43aab8b943bbbd1acecbfe",
      "contractAddress": null
    },
    {
      "status": "0x1",
      "cumulativeGasUsed": "0x2418f6a",
      "logs": [
        {
          "address": "0x8d19d6c95bc3f5999b43aab8b943bbbd1acecbfe",
          "topics": [
            "0x0dbedcdf21925e053b4c574eae180d7f2883235ab4976ecc0873598a2a999b03",
            "0x0000000000000000000000000000000000000000000000000000000000000000",
            "0x0000000000000000000000000000000000000000000000000000000000000000"
          ],
          "data": "0x",
          "blockHash": "0x55dd8173ef56f556199c50302c03baf0f438af3d1918fd9612d81dc80b2ca888",
          "blockNumber": "0x9dad98",
          "blockTimestamp": "0x699ee170",
          "transactionHash": "0xc04f8616445cdedacf7d73309df390f0c2587a9a1a7241612fdf76d8e154c9a9",
          "transactionIndex": "0xb1",
          "logIndex": "0x358",
          "removed": false
        }
      ],
      "logsBloom": "0x00000000000000000000000000000000000000000000000000000000000000000000000004000010000000000000000000000000000000000000000000000000000002000000000000000000000000000000000000000000000000000000000000000000020000000000000000000800000000000000000000000000000000000000000000000000000000000000000000000000000040000000000000000000000000000000000000000000000000000000000000000000000000000000000000000000000000000000000000000000008000000000000000000000000020000400000000000000000000000000000000000000000000000000000000000000",
      "type": "0x2",
      "transactionHash": "0xc04f8616445cdedacf7d73309df390f0c2587a9a1a7241612fdf76d8e154c9a9",
      "transactionIndex": "0xb1",
      "blockHash": "0x55dd8173ef56f556199c50302c03baf0f438af3d1918fd9612d81dc80b2ca888",
      "blockNumber": "0x9dad98",
      "gasUsed": "0x801f",
      "effectiveGasPrice": "0xf7019",
      "from": "0xf0830060f836b8d54bf02049e5905f619487989e",
      "to": "0x8d19d6c95bc3f5999b43aab8b943bbbd1acecbfe",
      "contractAddress": null
    }
  ],
  "libraries": [],
  "pending": [],
  "returns": {},
  "timestamp": 1772020080,
  "chain": 11155111,
  "commit": "9d53ee3"
}