{
  "transactions": [
    {
      "hash": null,
      "transactionType": "CALL",
      "contractName": null,
      "contractAddress": "0xd16bea141dc1a9a2ae56c1bfe14b04a6fd1e5cfd",
      "function": "create((string,bytes32,address,address,uint256,uint256,uint256,uint8,uint8))",
      "arguments": [
        "(Will X Y Z happen by 2025-12-21?, 0x0000000000000000000000000000000000000000000000000000000000000000, 0x3DD35b903667842078a9898ca3206E047D87d0ea, 0x0000000000000000000000000000000000000000, 0, 1000, 2, 1, 2)"
      ],
      "transaction": {
        "from": "0xf0830060f836b8d54bf02049e5905f619487989e",
        "to": "0xd16bea141dc1a9a2ae56c1bfe14b04a6fd1e5cfd",
        "gas": "0xc0dee",
        "value": "0x0",
        "input": "0x395994320000000000000000000000000000000000000000000000000000000000000020000000000000000000000000000000000000000000000000000000000000012000000000000000000000000000000000000000000000000000000000000000000000000000000000000000003dd35b903667842078a9898ca3206e047d87d0ea0000000000000000000000000000000000000000000000000000000000000000000000000000000000000000000000000000000000000000000000000000000000000000000000000000000000000000000000000000000000000000000003e8000000000000000000000000000000000000000000000000000000000000000200000000000000000000000000000000000000000000000000000000000000010000000000000000000000000000000000000000000000000000000000000002000000000000000000000000000000000000000000000000000000000000002057696c6c20582059205a2068617070656e20627920323032352d31322d32313f",
        "nonce": "0x547",
        "chainId": "0x14a34"
      },
      "additionalContracts": [],
      "isFixedGasLimit": false
    }
  ],
  "receipts": [],
  "libraries": [],
  "pending": [],
  "returns": {},
  "timestamp": 1771983051,
  "chain": 84532,
  "commit": "e707bc8"
}