{
  "transactions": [
    {
      "hash": "0xf4031af1a138a8b3bcb0ae8875148f25494734dc90f1f7e1bd23801bcd9d9bfa",
      "transactionType": "CALL",
      "contractName": null,
      "contractAddress": "0x0cf42e10759a6c5160fab2ece21866387e4ffaaa",
      "function": "create((string,bytes32,address,address,uint256,uint256,uint256,uint8,uint8))",
      "arguments": [
        "(Will X Y Z happen by 2025-12-21?, 0x0000000000000000000000000000000000000000000000000000000000000000, 0x9B7c5B66e2CbDd6721793257Fb9736511Fa51FCd, 0x0000000000000000000000000000000000000000, 0, 1000, 2, 1, 2)"
      ],
      "transaction": {
        "from": "0xf0830060f836b8d54bf02049e5905f619487989e",
        "to": "0x0cf42e10759a6c5160fab2ece21866387e4ffaaa",
        "gas": "0xb626d",
        "value": "0x0",
        "input": "0x395994320000000000000000000000000000000000000000000000000000000000000020000000000000000000000000000000000000000000000000000000000000012000000000000000000000000000000000000000000000000000000000000000000000000000000000000000009b7c5b66e2cbdd6721793257fb9736511fa51fcd0000000000000000000000000000000000000000000000000000000000000000000000000000000000000000000000000000000000000000000000000000000000000000000000000000000000000000000000000000000000000000000003e8000000000000000000000000000000000000000000000000000000000000000200000000000000000000000000000000000000000000000000000000000000010000000000000000000000000000000000000000000000000000000000000002000000000000000000000000000000000000000000000000000000000000002057696c6c20582059205a2068617070656e20627920323032352d31322d32313f",
        "nonce": "0x4ea",
        "chainId": "0x14a34"
      },
      "additionalContracts": [],
      "isFixedGasLimit": false
    }
  ],
  "receipts": [
    {
      "status": "0x1",
      "cumulativeGasUsed": "0x2f5bc6",
      "logs": [
        {
          "address": "0x9ec4f62e29b0fb5aa561095104826b62591a9115",
          "topics": [
            "0xab3760c3bd2bb38b5bcf54dc79802ed67338b4cf29f3054ded67ed24661e4177",
            "0x64c4431bf975bf96c8c4e963b260aae657edfdd5a768b4a3d1194ef419b07bd5",
            "0x0000000000000000000000007010ab83de21d9fc011d88dcb87ac2f89d2c5768",
            "0x53c4d9706f3a5dcadbc3fc7fcf02115f13ff1b5fd13e4035a92580fcac9cb3f5"
          ],
          "data": "0x0000000000000000000000000000000000000000000000000000000000000002",
          "blockHash": "0x0000000000000000000000000000000000000000000000000000000000000000",
          "blockNumber": "0x2456b1c",
          "blockTimestamp": "0x699e3518",
          "transactionHash": "0xf4031af1a138a8b3bcb0ae8875148f25494734dc90f1f7e1bd23801bcd9d9bfa",
          "transactionIndex": "0x11",
          "logIndex": "0x32",
          "removed": false
        },
        {
          "address": "0x7010ab83de21d9fc011d88dcb87ac2f89d2c5768",
          "topics": [
            "0x8a467b9548454672390325930536c6ad39a6f7c235383a6c09514a620ca19e4e",
            "0x53c4d9706f3a5dcadbc3fc7fcf02115f13ff1b5fd13e4035a92580fcac9cb3f5",
            "0x64c4431bf975bf96c8c4e963b260aae657edfdd5a768b4a3d1194ef419b07bd5"
          ],
          "data": "0x0000000000000000000000000000000000000000000000000000000000000002",
          "blockHash": "0x0000000000000000000000000000000000000000000000000000000000000000",
          "blockNumber": "0x2456b1c",
          "blockTimestamp": "0x699e3518",
          "transactionHash": "0xf4031af1a138a8b3bcb0ae8875148f25494734dc90f1f7e1bd23801bcd9d9bfa",
          "transactionIndex": "0x11",
          "logIndex": "0x33",
          "removed": false
        },
        {
          "address": "0x2c752c2f3f729dadfa1d63398a90023ff2ad7c5a",
          "topics": [
            "0x95370a14f3652c2fa62b4fcc36d1addd1c445b877ed9404341c61f970b34280b",
            "0x53c4d9706f3a5dcadbc3fc7fcf02115f13ff1b5fd13e4035a92580fcac9cb3f5"
          ],
          "data": "0x64c4431bf975bf96c8c4e963b260aae657edfdd5a768b4a3d1194ef419b07bd5",
          "blockHash": "0x0000000000000000000000000000000000000000000000000000000000000000",
          "blockNumber": "0x2456b1c",
          "blockTimestamp": "0x699e3518",
          "transactionHash": "0xf4031af1a138a8b3bcb0ae8875148f25494734dc90f1f7e1bd23801bcd9d9bfa",
          "transactionIndex": "0x11",
          "logIndex": "0x34",
          "removed": false
        },
        {
          "address": "0x0cf42e10759a6c5160fab2ece21866387e4ffaaa",
          "topics": [
            "0x3768acba3af0d4399cd28259609501bab034134f1f8eefb90cb312fcb12774ac"
          ],
          "data": "0x53c4d9706f3a5dcadbc3fc7fcf02115f13ff1b5fd13e4035a92580fcac9cb3f500000000000000000000000000000000000000000000000000000000000000a0000000000000000000000000000000000000000000000000000000000000000100000000000000000000000000000000000000000000000000000000000000020000000000000000000000000000000000000000000000000000000000000000000000000000000000000000000000000000000000000000000000000000002057696c6c20582059205a2068617070656e20627920323032352d31322d32313f",
          "blockHash": "0x0000000000000000000000000000000000000000000000000000000000000000",
          "blockNumber": "0x2456b1c",
          "blockTimestamp": "0x699e3518",
          "transactionHash": "0xf4031af1a138a8b3bcb0ae8875148f25494734dc90f1f7e1bd23801bcd9d9bfa",
          "transactionIndex": "0x11",
          "logIndex": "0x35",
          "removed": false
        }
      ],
      "logsBloom": "0x00000000000000000000800000000300000000000000000000004100000001000000000810000000000000008000010100002000000000020000000000000000000000000001000010000002000000000000000000000000000000000410000080000000000000000000000000000010000000020000000000100000001000000000020000000000000000000000000010020000000000000000000000000000000000000000000000000001001000000000000000000000000000000000000000000010000000000000000000000000080000000000000000000000000020000000000000000000000000000000000000800000000000000000000000008000",
      "type": "0x2",
      "transactionHash": "0xf4031af1a138a8b3bcb0ae8875148f25494734dc90f1f7e1bd23801bcd9d9bfa",
      "transactionIndex": "0x11",
      "blockHash": "0x0000000000000000000000000000000000000000000000000000000000000000",
      "blockNumber": "0x2456b1c",
      "gasUsed": "0x83dff",
      "effectiveGasPrice": "0x5b8d80",
      "blobGasUsed": "0x4da5",
      "from": "0xf0830060f836b8d54bf02049e5905f619487989e",
      "to": "0x0cf42e10759a6c5160fab2ece21866387e4ffaaa",
      "contractAddress": null,
      "daFootprintGasScalar": "0x8b",
      "l1BaseFeeScalar": "0x44d",
      "l1BlobBaseFee": "0x1",
      "l1BlobBaseFeeScalar": "0xa118b",
      "l1Fee": "0x76",
      "l1GasPrice": "0xc",
      "l1GasUsed": "0x8f1"
    }
  ],
  "libraries": [],
  "pending": [],
  "returns": {},
  "timestamp": 1771975959,
  "chain": 84532,
  "commit": "e707bc8"
}