{
  "transactions": [
    {
      "hash": "0x0ef807a75b99aaad162fc03155872b182e27c1e6173e4ad30a2e3cbb0d046362",
      "transactionType": "CALL",
      "contractName": null,
      "contractAddress": "0x2ca2ed54ff680208711ae322dc5c7c98b09b8855",
      "function": "create((string,bytes32,address,address,uint256,uint256,uint256,uint8,uint8))",
      "arguments": [
        "(Will X Y Z happen by 2025-12-21?, 0x0000000000000000000000000000000000000000000000000000000000000000, 0x30b0a86153C2C17C5A0f8b89F8CE693AE469C02a, 0x0000000000000000000000000000000000000000, 0, 1000, 2, 1, 2)"
      ],
      "transaction": {
        "from": "0xf0830060f836b8d54bf02049e5905f619487989e",
        "to": "0x2ca2ed54ff680208711ae322dc5c7c98b09b8855",
        "gas": "0xb1916",
        "value": "0x0",
        "input": "0x3959943200000000000000000000000000000000000000000000000000000000000000200000000000000000000000000000000000000000000000000000000000000120000000000000000000000000000000000000000000000000000000000000000000000000000000000000000030b0a86153c2c17c5a0f8b89f8ce693ae469c02a0000000000000000000000000000000000000000000000000000000000000000000000000000000000000000000000000000000000000000000000000000000000000000000000000000000000000000000000000000000000000000000003e8000000000000000000000000000000000000000000000000000000000000000200000000000000000000000000000000000000000000000000000000000000010000000000000000000000000000000000000000000000000000000000000002000000000000000000000000000000000000000000000000000000000000002057696c6c20582059205a2068617070656e20627920323032352d31322d32313f",
        "nonce": "0x58a",
        "chainId": "0x14a34"
      },
      "additionalContracts": [],
      "isFixedGasLimit": false
    }
  ],
  "receipts": [
    {
      "status": "0x1",
      "cumulativeGasUsed": "0x1203a0",
      "logs": [
        {
          "address": "0x4cb45adf78f1a028a3672c64bce7449f36feb34f",
          "topics": [
            "0xab3760c3bd2bb38b5bcf54dc79802ed67338b4cf29f3054ded67ed24661e4177",
            "0x950695937ecdc8ab6b110523333ba544d8915bb253fa432d1118bdec0c412f0f",
            "0x000000000000000000000000b98ac3e6b9e7c4d6580891d20ab8b9e935171af7",
            "0xc1d1c0adf5195e527be22f13a2d3f42119951932c44f365da7bef7afa4ed52be"
          ],
          "data": "0x0000000000000000000000000000000000000000000000000000000000000002",
          "blockHash": "0x0000000000000000000000000000000000000000000000000000000000000000",
          "blockNumber": "0x2457e8e",
          "blockTimestamp": "0x699e5bfc",
          "transactionHash": "0x0ef807a75b99aaad162fc03155872b182e27c1e6173e4ad30a2e3cbb0d046362",
          "transactionIndex": "0xa",
          "logIndex": "0xd",
          "removed": false
        },
        {
          "address": "0xb98ac3e6b9e7c4d6580891d20ab8b9e935171af7",
          "topics": [
            "0x8a467b9548454672390325930536c6ad39a6f7c235383a6c09514a620ca19e4e",
            "0xc1d1c0adf5195e527be22f13a2d3f42119951932c44f365da7bef7afa4ed52be",
            "0x950695937ecdc8ab6b110523333ba544d8915bb253fa432d1118bdec0c412f0f"
          ],
          "data": "0x0000000000000000000000000000000000000000000000000000000000000002",
          "blockHash": "0x0000000000000000000000000000000000000000000000000000000000000000",
          "blockNumber": "0x2457e8e",
          "blockTimestamp": "0x699e5bfc",
          "transactionHash": "0x0ef807a75b99aaad162fc03155872b182e27c1e6173e4ad30a2e3cbb0d046362",
          "transactionIndex": "0xa",
          "logIndex": "0xe",
          "removed": false
        },
        {
          "address": "0x414f1ebde68d771dba854e3c13dba84adbc657c8",
          "topics": [
            "0x95370a14f3652c2fa62b4fcc36d1addd1c445b877ed9404341c61f970b34280b",
            "0xc1d1c0adf5195e527be22f13a2d3f42119951932c44f365da7bef7afa4ed52be"
          ],
          "data": "0x950695937ecdc8ab6b110523333ba544d8915bb253fa432d1118bdec0c412f0f",
          "blockHash": "0x0000000000000000000000000000000000000000000000000000000000000000",
          "blockNumber": "0x2457e8e",
          "blockTimestamp": "0x699e5bfc",
          "transactionHash": "0x0ef807a75b99aaad162fc03155872b182e27c1e6173e4ad30a2e3cbb0d046362",
          "transactionIndex": "0xa",
          "logIndex": "0xf",
          "removed": false
        },
        {
          "address": "0x2ca2ed54ff680208711ae322dc5c7c98b09b8855",
          "topics": [
            "0x3768acba3af0d4399cd28259609501bab034134f1f8eefb90cb312fcb12774ac"
          ],
          "data": "0xc1d1c0adf5195e527be22f13a2d3f42119951932c44f365da7bef7afa4ed52be00000000000000000000000000000000000000000000000000000000000000a000000000000000000000000000000000000000000000000000000000000000010000000000000000000000000000000000000000000000000000000000000002000000000000000000000000f0830060f836b8d54bf02049e5905f619487989e000000000000000000000000000000000000000000000000000000000000002057696c6c20582059205a2068617070656e20627920323032352d31322d32313f",
          "blockHash": "0x0000000000000000000000000000000000000000000000000000000000000000",
          "blockNumber": "0x2457e8e",
          "blockTimestamp": "0x699e5bfc",
          "transactionHash": "0x0ef807a75b99aaad162fc03155872b182e27c1e6173e4ad30a2e3cbb0d046362",
          "transactionIndex": "0xa",
          "logIndex": "0x10",
          "removed": false
        }
      ],
      "logsBloom": "0x00000000000000000000000000000300000000000000000000800000000000000000000800000000000001008000000000002000000000000080000000000000000000000000000000010000000000000000040000000000000000000000000000000000000000000000000000000010000080060000000000000000000800400020020000000000000000000000000000022000000800000008000000000000000000000000000000000001000000000000000000000000000000000000000000000010000000040000000000000000080000100000000080000000000000000000000000000000008000000000000000040000010000200008000000000000",
      "type": "0x2",
      "transactionHash": "0x0ef807a75b99aaad162fc03155872b182e27c1e6173e4ad30a2e3cbb0d046362",
      "transactionIndex": "0xa",
      "blockHash": "0x0000000000000000000000000000000000000000000000000000000000000000",
      "blockNumber": "0x2457e8e",
      "gasUsed": "0x808e6",
      "effectiveGasPrice": "0x5b8d80",
      "blobGasUsed": "0x4da5",
      "from": "0xf0830060f836b8d54bf02049e5905f619487989e",
      "to": "0x2ca2ed54ff680208711ae322dc5c7c98b09b8855",
      "contractAddress": null,
      "daFootprintGasScalar": "0x8b",
      "l1BaseFeeScalar": "0x44d",
      "l1BlobBaseFee": "0x1",
      "l1BlobBaseFeeScalar": "0xa118b",
      "l1Fee": "0x5a",
      "l1GasPrice": "0xe",
      "l1GasUsed": "0x8f1"
    }
  ],
  "libraries": [],
  "pending": [],
  "returns": {},
  "timestamp": 1771985914,
  "chain": 84532,
  "commit": "e707bc8"
}