{
  "transactions": [
    {
      "hash": "0x304d256c161157081a09d28672d65cf26f189338b97b7be27330a908613717f3",
      "transactionType": "CALL",
      "contractName": null,
      "contractAddress": "0x78be5078c6614d43a730eec5323fa45d7bd829b7",
      "function": "create((string,bytes32,address,address,uint256,uint256,uint256,uint8,uint8))",
      "arguments": [
        "(Will X Y Z happen by 2025-12-21?, 0x0000000000000000000000000000000000000000000000000000000000000000, 0xdBB48cc80DE6BbaB003f3e9b17641EFfcA110e39, 0x0000000000000000000000000000000000000000, 0, 1000, 2, 1, 2)"
      ],
      "transaction": {
        "from": "0xf0830060f836b8d54bf02049e5905f619487989e",
        "to": "0x78be5078c6614d43a730eec5323fa45d7bd829b7",
        "gas": "0xc030f",
        "value": "0x0",
        "input": "0x39599432000000000000000000000000000000000000000000000000000000000000002000000000000000000000000000000000000000000000000000000000000001200000000000000000000000000000000000000000000000000000000000000000000000000000000000000000dbb48cc80de6bbab003f3e9b17641effca110e390000000000000000000000000000000000000000000000000000000000000000000000000000000000000000000000000000000000000000000000000000000000000000000000000000000000000000000000000000000000000000000003e8000000000000000000000000000000000000000000000000000000000000000200000000000000000000000000000000000000000000000000000000000000010000000000000000000000000000000000000000000000000000000000000002000000000000000000000000000000000000000000000000000000000000002057696c6c20582059205a2068617070656e20627920323032352d31322d32313f",
        "nonce": "0x478",
        "chainId": "0x14a34"
      },
      "additionalContracts": [],
      "isFixedGasLimit": false
    }
  ],
  "receipts": [
    {
      "status": "0x1",
      "cumulativeGasUsed": "0x743e3f",
      "logs": [
        {
          "address": "0x732754d455db204990a8a1ec07552df0d1fcb349",
          "topics": [
            "0xab3760c3bd2bb38b5bcf54dc79802ed67338b4cf29f3054ded67ed24661e4177",
            "0x0c050e44723d16aea66b61636eeda7c2f2ccd60e9108b886eb50b55abb68b031",
            "0x0000000000000000000000006049de7e1eccebcf7b39ef9a2fd639e3e6925f32",
            "0x41a0ad3b898d7e183b7c8e686af7f0919db15db0e503f29ccb0f7b336bdc9381"
          ],
          "data": "0x0000000000000000000000000000000000000000000000000000000000000002",
          "blockHash": "0x0000000000000000000000000000000000000000000000000000000000000000",
          "blockNumber": "0x245440c",
          "blockTimestamp": "0x699de6f8",
          "transactionHash": "0x304d256c161157081a09d28672d65cf26f189338b97b7be27330a908613717f3",
          "transactionIndex": "0x10",
          "logIndex": "0xef",
          "removed": false
        },
        {
          "address": "0x6049de7e1eccebcf7b39ef9a2fd639e3e6925f32",
          "topics": [
            "0x8a467b9548454672390325930536c6ad39a6f7c235383a6c09514a620ca19e4e",
            "0x41a0ad3b898d7e183b7c8e686af7f0919db15db0e503f29ccb0f7b336bdc9381",
            "0x0c050e44723d16aea66b61636eeda7c2f2ccd60e9108b886eb50b55abb68b031"
          ],
          "data": "0x0000000000000000000000000000000000000000000000000000000000000002",
          "blockHash": "0x0000000000000000000000000000000000000000000000000000000000000000",
          "blockNumber": "0x245440c",
          "blockTimestamp": "0x699de6f8",
          "transactionHash": "0x304d256c161157081a09d28672d65cf26f189338b97b7be27330a908613717f3",
          "transactionIndex": "0x10",
          "logIndex": "0xf0",
          "removed": false
        },
        {
          "address": "0x8f7baaef7f15acc36eebea97370414eec2f0fd79",
          "topics": [
            "0x95370a14f3652c2fa62b4fcc36d1addd1c445b877ed9404341c61f970b34280b",
            "0x41a0ad3b898d7e183b7c8e686af7f0919db15db0e503f29ccb0f7b336bdc9381"
          ],
          "data": "0x0c050e44723d16aea66b61636eeda7c2f2ccd60e9108b886eb50b55abb68b031",
          "blockHash": "0x0000000000000000000000000000000000000000000000000000000000000000",
          "blockNumber": "0x245440c",
          "blockTimestamp": "0x699de6f8",
          "transactionHash": "0x304d256c161157081a09d28672d65cf26f189338b97b7be27330a908613717f3",
          "transactionIndex": "0x10",
          "logIndex": "0xf1",
          "removed": false
        },
        {
          "address": "0x78be5078c6614d43a730eec5323fa45d7bd829b7",
          "topics": [
            "0x3768acba3af0d4399cd28259609501bab034134f1f8eefb90cb312fcb12774ac"
          ],
          "data": "0x41a0ad3b898d7e183b7c8e686af7f0919db15db0e503f29ccb0f7b336bdc938100000000000000000000000000000000000000000000000000000000000000a0000000000000000000000000000000000000000000000000000000000000000100000000000000000000000000000000000000000000000000000000000000020000000000000000000000000000000000000000000000000000000000000000000000000000000000000000000000000000000000000000000000000000002057696c6c20582059205a2068617070656e20627920323032352d31322d32313f",
          "blockHash": "0x0000000000000000000000000000000000000000000000000000000000000000",
          "blockNumber": "0x245440c",
          "blockTimestamp": "0x699de6f8",
          "transactionHash": "0x304d256c161157081a09d28672d65cf26f189338b97b7be27330a908613717f3",
          "transactionIndex": "0x10",
          "logIndex": "0xf2",
          "removed": false
        }
      ],
      "logsBloom": "0x00000000000000000000000000040300000000000000000000000000000000001000000800000080000000008000000000002840000000000000000000400000000000000000000000000000000000000000000000000000000000000000000108000000000001000000000000400010000000020000000000000000004000000000020000000000000000000000000000020000000000000000000000000000000000000000000000000001000000000040800000000000002000000400000000000010000020000000000000000000080000000000200080000000000000000000000000100000000000000000000200000000000080000000000000000000",
      "type": "0x2",
      "transactionHash": "0x304d256c161157081a09d28672d65cf26f189338b97b7be27330a908613717f3",
      "transactionIndex": "0x10",
      "blockHash": "0x0000000000000000000000000000000000000000000000000000000000000000",
      "blockNumber": "0x245440c",
      "gasUsed": "0x8369b",
      "effectiveGasPrice": "0x4dd1e0",
      "blobGasUsed": "0x4da5",
      "from": "0xf0830060f836b8d54bf02049e5905f619487989e",
      "to": "0x78be5078c6614d43a730eec5323fa45d7bd829b7",
      "contractAddress": null,
      "daFootprintGasScalar": "0x8b",
      "l1BaseFeeScalar": "0x44d",
      "l1BlobBaseFee": "0x1",
      "l1BlobBaseFeeScalar": "0xa118b",
      "l1Fee": "0x64",
      "l1GasPrice": "0xd",
      "l1GasUsed": "0x8f1"
    }
  ],
  "libraries": [],
  "pending": [],
  "returns": {},
  "timestamp": 1771955958,
  "chain": 84532,
  "commit": null
}