{
  "transactions": [
    {
      "hash": "0xeaef1de2837c57c74502ada82c9ffc0d8a9a1d61ce0edc313ca537f58673fac4",
      "transactionType": "CALL",
      "contractName": null,
      "contractAddress": "0x717d3a265c1ecb281e796912538340cb10da2eb3",
      "function": "create((string,bytes32,address,address,uint256,uint256,uint256,uint8,uint8))",
      "arguments": [
        "(Will X Y Z happen by 2025-12-21?, 0x0000000000000000000000000000000000000000000000000000000000000000, 0x4D1D663Fe63D44BFD8DaE614322c686EB89e802F, 0x0000000000000000000000000000000000000000, 0, 1000, 2, 1, 2)"
      ],
      "transaction": {
        "from": "0xf0830060f836b8d54bf02049e5905f619487989e",
        "to": "0x717d3a265c1ecb281e796912538340cb10da2eb3",
        "gas": "0xb1916",
        "value": "0x0",
        "input": "0x395994320000000000000000000000000000000000000000000000000000000000000020000000000000000000000000000000000000000000000000000000000000012000000000000000000000000000000000000000000000000000000000000000000000000000000000000000004d1d663fe63d44bfd8dae614322c686eb89e802f0000000000000000000000000000000000000000000000000000000000000000000000000000000000000000000000000000000000000000000000000000000000000000000000000000000000000000000000000000000000000000000003e8000000000000000000000000000000000000000000000000000000000000000200000000000000000000000000000000000000000000000000000000000000010000000000000000000000000000000000000000000000000000000000000002000000000000000000000000000000000000000000000000000000000000002057696c6c20582059205a2068617070656e20627920323032352d31322d32313f",
        "nonce": "0x5ab",
        "chainId": "0x14a34"
      },
      "additionalContracts": [],
      "isFixedGasLimit": false
    }
  ],
  "receipts": [
    {
      "status": "0x1",
      "cumulativeGasUsed": "0x70c16e",
      "logs": [
        {
          "address": "0x92b72b6c9e8e711e87e6d15e3775fda9f583c10a",
          "topics": [
            "0xab3760c3bd2bb38b5bcf54dc79802ed67338b4cf29f3054ded67ed24661e4177",
            "0x84a0d633466f2252afca5cdb9040c2f3e5d220ecaab57c691a9056caf3df8532",
            "0x000000000000000000000000a93e345790453e4d54ad725a94b880030f621214",
            "0x05bf28d198cb3df0e5cb3575364ab9169b321dbcb294974814ad9462cb42c1be"
          ],
          "data": "0x0000000000000000000000000000000000000000000000000000000000000002",
          "blockHash": "0x0000000000000000000000000000000000000000000000000000000000000000",
          "blockNumber": "0x2458187",
          "blockTimestamp": "0x699e61ee",
          "transactionHash": "0xeaef1de2837c57c74502ada82c9ffc0d8a9a1d61ce0edc313ca537f58673fac4",
          "transactionIndex": "0x13",
          "logIndex": "0x1d",
          "removed": false
        },
        {
          "address": "0xa93e345790453e4d54ad725a94b880030f621214",
          "topics": [
            "0x8a467b9548454672390325930536c6ad39a6f7c235383a6c09514a620ca19e4e",
            "0x05bf28d198cb3df0e5cb3575364ab9169b321dbcb294974814ad9462cb42c1be",
            "0x84a0d633466f2252afca5cdb9040c2f3e5d220ecaab57c691a9056caf3df8532"
          ],
          "data": "0x0000000000000000000000000000000000000000000000000000000000000002",
          "blockHash": "0x0000000000000000000000000000000000000000000000000000000000000000",
          "blockNumber": "0x2458187",
          "blockTimestamp": "0x699e61ee",
          "transactionHash": "0xeaef1de2837c57c74502ada82c9ffc0d8a9a1d61ce0edc313ca537f58673fac4",
          "transactionIndex": "0x13",
          "logIndex": "0x1e",
          "removed": false
        },
        {
          "address": "0xe487ebbcf1fafbd410cbc6c7d7c2c836e36fff34",
          "topics": [
            "0x95370a14f3652c2fa62b4fcc36d1addd1c445b877ed9404341c61f970b34280b",
            "0x05bf28d198cb3df0e5cb3575364ab9169b321dbcb294974814ad9462cb42c1be"
          ],
          "data": "0x84a0d633466f2252afca5cdb9040c2f3e5d220ecaab57c691a9056caf3df8532",
          "blockHash": "0x0000000000000000000000000000000000000000000000000000000000000000",
          "blockNumber": "0x2458187",
          "blockTimestamp": "0x699e61ee",
          "transactionHash": "0xeaef1de2837c57c74502ada82c9ffc0d8a9a1d61ce0edc313ca537f58673fac4",
          "transactionIndex": "0x13",
          "logIndex": "0x1f",
          "removed": false
        },
        {
          "address": "0x717d3a265c1ecb281e796912538340cb10da2eb3",
          "topics": [
            "0x3768acba3af0d4399cd28259609501bab034134f1f8eefb90cb312fcb12774ac"
          ],
          "data": "0x05bf28d198cb3df0e5cb3575364ab9169b321dbcb294974814ad9462cb42c1be00000000000000000000000000000000000000000000000000000000000000a000000000000000000000000000000000000000000000000000000000000000010000000000000000000000000000000000000000000000000000000000000002000000000000000000000000f0830060f836b8d54bf02049e5905f619487989e000000000000000000000000000000000000000000000000000000000000002057696c6c20582059205a2068617070656e20627920323032352d31322d32313f",
          "blockHash": "0x0000000000000000000000000000000000000000000000000000000000000000",
          "blockNumber": "0x2458187",
          "blockTimestamp": "0x699e61ee",
          "transactionHash": "0xeaef1de2837c57c74502ada82c9ffc0d8a9a1d61ce0edc313ca537f58673fac4",
          "transactionIndex": "0x13",
          "logIndex": "0x20",
          "removed": false
        }
      ],
      "logsBloom": "0x00000000000000000000000000000300000000000080000000000000000000000000000800000000010200008000000000002000000001000000000000000000000181000000020000000000000000000000000004000000800000000000002000000000000000800000000000000010000000020000000020000000000000000000020000000000000001000000000000020000000000000000000000010000000004000000000000000001000000000000000000000010000000000000000000000210200000000000100000000000080000000000000000000000000000000000000000000000000000000000000000000000000000000010000000000000",
      "type": "0x2",
      "transactionHash": "0xeaef1de2837c57c74502ada82c9ffc0d8a9a1d61ce0edc313ca537f58673fac4",
      "transactionIndex": "0x13",
      "blockHash": "0x0000000000000000000000000000000000000000000000000000000000000000",
      "blockNumber": "0x2458187",
      "gasUsed": "0x808e6",
      "effectiveGasPrice": "0x5b8d80",
      "blobGasUsed": "0x4da5",
      "from": "0xf0830060f836b8d54bf02049e5905f619487989e",
      "to": "0x717d3a265c1ecb281e796912538340cb10da2eb3",
      "contractAddress": null,
      "daFootprintGasScalar": "0x8b",
      "l1BaseFeeScalar": "0x44d",
      "l1BlobBaseFee": "0x1",
      "l1BlobBaseFeeScalar": "0xa118b",
      "l1Fee": "0x5e",
      "l1GasPrice": "0x10",
      "l1GasUsed": "0x8f1"
    }
  ],
  "libraries": [],
  "pending": [],
  "returns": {},
  "timestamp": 1771987437,
  "chain": 84532,
  "commit": "e707bc8"
}