{
  "transactions": [
    {
      "hash": "0x80a8d2a3a49eb3c5c79a594653414c69c573d96715af48f850516974489aa9ea",
      "transactionType": "CALL",
      "contractName": null,
      "contractAddress": "0xd16bea141dc1a9a2ae56c1bfe14b04a6fd1e5cfd",
      "function": "create((string,bytes32,address,address,uint256,uint256,uint256,uint8,uint8))",
      "arguments": [
        "(Will X Y Z happen by 2025-12-21?, 0x0000000000000000000000000000000000000000000000000000000000000000, 0x3DD35b903667842078a9898ca3206E047D87d0ea, 0x0000000000000000000000000000000000000000, 0, 1000, 2, 1, 2)"
      ],
      "transaction": {
        "from": "0xf0830060f836b8d54bf02049e5905f619487989e",
        "to": "0xd16bea141dc1a9a2ae56c1bfe14b04a6fd1e5cfd",
        "gas": "0xc0dee",
        "value": "0x0",
        "input": "0x395994320000000000000000000000000000000000000000000000000000000000000020000000000000000000000000000000000000000000000000000000000000012000000000000000000000000000000000000000000000000000000000000000000000000000000000000000003dd35b903667842078a9898ca3206e047d87d0ea0000000000000000000000000000000000000000000000000000000000000000000000000000000000000000000000000000000000000000000000000000000000000000000000000000000000000000000000000000000000000000000003e8000000000000000000000000000000000000000000000000000000000000000200000000000000000000000000000000000000000000000000000000000000010000000000000000000000000000000000000000000000000000000000000002000000000000000000000000000000000000000000000000000000000000002057696c6c20582059205a2068617070656e20627920323032352d31322d32313f",
        "nonce": "0x54c",
        "chainId": "0x14a34"
      },
      "additionalContracts": [],
      "isFixedGasLimit": false
    }
  ],
  "receipts": [
    {
      "status": "0x1",
      "cumulativeGasUsed": "0xabe86",
      "logs": [
        {
          "address": "0x8438fb4246a1bba7ba33e4a61f365cb411957c41",
          "topics": [
            "0xab3760c3bd2bb38b5bcf54dc79802ed67338b4cf29f3054ded67ed24661e4177",
            "0x6ad0896e9a4e3439a2a4d8bdc7d441043c9cba67a52253ccb5850a2380823c7c",
            "0x000000000000000000000000beed0b1b73cbb2997f0de519f8ef7a34cddc8426",
            "0xe60f4316167117427aa2f7a55c81ed6f539cfb7f4b387729c0c472ac2f2c733e"
          ],
          "data": "0x0000000000000000000000000000000000000000000000000000000000000002",
          "blockHash": "0x0000000000000000000000000000000000000000000000000000000000000000",
          "blockNumber": "0x245796f",
          "blockTimestamp": "0x699e51be",
          "transactionHash": "0x80a8d2a3a49eb3c5c79a594653414c69c573d96715af48f850516974489aa9ea",
          "transactionIndex": "0x5",
          "logIndex": "0x1",
          "removed": false
        },
        {
          "address": "0xbeed0b1b73cbb2997f0de519f8ef7a34cddc8426",
          "topics": [
            "0x8a467b9548454672390325930536c6ad39a6f7c235383a6c09514a620ca19e4e",
            "0xe60f4316167117427aa2f7a55c81ed6f539cfb7f4b387729c0c472ac2f2c733e",
            "0x6ad0896e9a4e3439a2a4d8bdc7d441043c9cba67a52253ccb5850a2380823c7c"
          ],
          "data": "0x0000000000000000000000000000000000000000000000000000000000000002",
          "blockHash": "0x0000000000000000000000000000000000000000000000000000000000000000",
          "blockNumber": "0x245796f",
          "blockTimestamp": "0x699e51be",
          "transactionHash": "0x80a8d2a3a49eb3c5c79a594653414c69c573d96715af48f850516974489aa9ea",
          "transactionIndex": "0x5",
          "logIndex": "0x2",
          "removed": false
        },
        {
          "address": "0xc42a56d20ad27598140de497faf5eed999d54e02",
          "topics": [
            "0x95370a14f3652c2fa62b4fcc36d1addd1c445b877ed9404341c61f970b34280b",
            "0xe60f4316167117427aa2f7a55c81ed6f539cfb7f4b387729c0c472ac2f2c733e"
          ],
          "data": "0x6ad0896e9a4e3439a2a4d8bdc7d441043c9cba67a52253ccb5850a2380823c7c",
          "blockHash": "0x0000000000000000000000000000000000000000000000000000000000000000",
          "blockNumber": "0x245796f",
          "blockTimestamp": "0x699e51be",
          "transactionHash": "0x80a8d2a3a49eb3c5c79a594653414c69c573d96715af48f850516974489aa9ea",
          "transactionIndex": "0x5",
          "logIndex": "0x3",
          "removed": false
        },
        {
          "address": "0xd16bea141dc1a9a2ae56c1bfe14b04a6fd1e5cfd",
          "topics": [
            "0x3768acba3af0d4399cd28259609501bab034134f1f8eefb90cb312fcb12774ac"
          ],
          "data": "0xe60f4316167117427aa2f7a55c81ed6f539cfb7f4b387729c0c472ac2f2c733e00000000000000000000000000000000000000000000000000000000000000a000000000000000000000000000000000000000000000000000000000000000010000000000000000000000000000000000000000000000000000000000000002000000000000000000000000f0830060f836b8d54bf02049e5905f619487989e000000000000000000000000000000000000000000000000000000000000002057696c6c20582059205a2068617070656e20627920323032352d31322d32313f",
          "blockHash": "0x0000000000000000000000000000000000000000000000000000000000000000",
          "blockNumber": "0x245796f",
          "blockTimestamp": "0x699e51be",
          "transactionHash": "0x80a8d2a3a49eb3c5c79a594653414c69c573d96715af48f850516974489aa9ea",
          "transactionIndex": "0x5",
          "logIndex": "0x4",
          "removed": false
        }
      ],
      "logsBloom": "0x00200000000000000000000000040300000000000000000000000000000000000000000800008000400000008000000000002004000000000000400000000000000000000000000008000000000000000800000000000000200000100000000000000000000800000000000000000010000000020000000000000000000000000000020000000000000000000000000000020000000000000810000000000000000000000000000000800201000000900000000000000000040000000000000000000010000000000000000000000000080000000080000000000000000000000000000000000000000000000000000200000010000000000000000000000000",
      "type": "0x2",
      "transactionHash": "0x80a8d2a3a49eb3c5c79a594653414c69c573d96715af48f850516974489aa9ea",
      "transactionIndex": "0x5",
      "blockHash": "0x0000000000000000000000000000000000000000000000000000000000000000",
      "blockNumber": "0x245796f",
      "gasUsed": "0x83e0a",
      "effectiveGasPrice": "0x5b8d80",
      "blobGasUsed": "0x4da5",
      "from": "0xf0830060f836b8d54bf02049e5905f619487989e",
      "to": "0xd16bea141dc1a9a2ae56c1bfe14b04a6fd1e5cfd",
      "contractAddress": null,
      "daFootprintGasScalar": "0x8b",
      "l1BaseFeeScalar": "0x44d",
      "l1BlobBaseFee": "0x2",
      "l1BlobBaseFeeScalar": "0xa118b",
      "l1Fee": "0xa3",
      "l1GasPrice": "0x12",
      "l1GasUsed": "0x8f1"
    }
  ],
  "libraries": [],
  "pending": [],
  "returns": {},
  "timestamp": 1771983292,
  "chain": 84532,
  "commit": "e707bc8"
}