{
  "transactions": [
    {
      "hash": "0x7cc7aa95ebde3eca62364ca9e286d23378a3d716f2818934c7070e189b98d89a",
      "transactionType": "CALL",
      "contractName": null,
      "contractAddress": "0xce1a7a7fac2fc23bf4bc644c6d347b22bebaf77e",
      "function": "create((string,bytes32,address,address,uint256,uint256,uint256,uint8,uint8))",
      "arguments": [
        "(Will Bitcoin close above ,000 by March 31 2026?, 0x0000000000000000000000000000000000000000000000000000000000000000, 0xd91a091D43f24E0603633f7Ba49e8458c9b46005, 0x0000000000000000000000000000000000000000, 0, 2592000, 2, 1, 1)"
      ],
      "transaction": {
        "from": "0xf0830060f836b8d54bf02049e5905f619487989e",
        "to": "0xce1a7a7fac2fc23bf4bc644c6d347b22bebaf77e",
        "gas": "0xb4b2f",
        "value": "0x0",
        "input": "0x39599432000000000000000000000000000000000000000000000000000000000000002000000000000000000000000000000000000000000000000000000000000001200000000000000000000000000000000000000000000000000000000000000000000000000000000000000000d91a091d43f24e0603633f7ba49e8458c9b46005000000000000000000000000000000000000000000000000000000000000000000000000000000000000000000000000000000000000000000000000000000000000000000000000000000000000000000000000000000000000000000278d00000000000000000000000000000000000000000000000000000000000000000200000000000000000000000000000000000000000000000000000000000000010000000000000000000000000000000000000000000000000000000000000001000000000000000000000000000000000000000000000000000000000000002f57696c6c20426974636f696e20636c6f73652061626f7665202c303030206279204d6172636820333120323032363f0000000000000000000000000000000000",
        "nonce": "0x5d",
        "chainId": "0xaa044c"
      },
      "additionalContracts": [],
      "isFixedGasLimit": false
    }
  ],
  "receipts": [
    {
      "status": "0x1",
      "cumulativeGasUsed": "0x86cf3",
      "logs": [
        {
          "address": "0xf5f7d334b1dc75c644816bea608b0af31f6450dc",
          "topics": [
            "0xab3760c3bd2bb38b5bcf54dc79802ed67338b4cf29f3054ded67ed24661e4177",
            "0x6c6b7092f06416d72f145ebf6ac99f6b469e35c98655bc946fd91dc9141d9b67",
            "0x000000000000000000000000fb0be8721f277746d853cc95e9b66f074c756756",
            "0x4ecccacd77f8878f09756b7ba771ac0518f578eea69b55e8b6e913877e669d90"
          ],
          "data": "0x0000000000000000000000000000000000000000000000000000000000000002",
          "blockHash": "0x774478b0b3347ff100acfdb0fa25c5b9b0d74d7bc5ccf0f342c945c52d4693ca",
          "blockNumber": "0x13c35de",
          "blockTimestamp": "0x69bd3372",
          "transactionHash": "0x7cc7aa95ebde3eca62364ca9e286d23378a3d716f2818934c7070e189b98d89a",
          "transactionIndex": "0x1",
          "logIndex": "0x0",
          "removed": false
        },
        {
          "address": "0xfb0be8721f277746d853cc95e9b66f074c756756",
          "topics": [
            "0x8a467b9548454672390325930536c6ad39a6f7c235383a6c09514a620ca19e4e",
            "0x4ecccacd77f8878f09756b7ba771ac0518f578eea69b55e8b6e913877e669d90",
            "0x6c6b7092f06416d72f145ebf6ac99f6b469e35c98655bc946fd91dc9141d9b67"
          ],
          "data": "0x0000000000000000000000000000000000000000000000000000000000000002",
          "blockHash": "0x774478b0b3347ff100acfdb0fa25c5b9b0d74d7bc5ccf0f342c945c52d4693ca",
          "blockNumber": "0x13c35de",
          "blockTimestamp": "0x69bd3372",
          "transactionHash": "0x7cc7aa95ebde3eca62364ca9e286d23378a3d716f2818934c7070e189b98d89a",
          "transactionIndex": "0x1",
          "logIndex": "0x1",
          "removed": false
        },
        {
          "address": "0xcf9f7b946779d7f960d4ab2c6764003ea43a7915",
          "topics": [
            "0x95370a14f3652c2fa62b4fcc36d1addd1c445b877ed9404341c61f970b34280b",
            "0x4ecccacd77f8878f09756b7ba771ac0518f578eea69b55e8b6e913877e669d90"
          ],
          "data": "0x6c6b7092f06416d72f145ebf6ac99f6b469e35c98655bc946fd91dc9141d9b67",
          "blockHash": "0x774478b0b3347ff100acfdb0fa25c5b9b0d74d7bc5ccf0f342c945c52d4693ca",
          "blockNumber": "0x13c35de",
          "blockTimestamp": "0x69bd3372",
          "transactionHash": "0x7cc7aa95ebde3eca62364ca9e286d23378a3d716f2818934c7070e189b98d89a",
          "transactionIndex": "0x1",
          "logIndex": "0x2",
          "removed": false
        },
        {
          "address": "0xce1a7a7fac2fc23bf4bc644c6d347b22bebaf77e",
          "topics": [
            "0x3768acba3af0d4399cd28259609501bab034134f1f8eefb90cb312fcb12774ac"
          ],
          "data": "0x4ecccacd77f8878f09756b7ba771ac0518f578eea69b55e8b6e913877e669d9000000000000000000000000000000000000000000000000000000000000000a000000000000000000000000000000000000000000000000000000000000000010000000000000000000000000000000000000000000000000000000000000001000000000000000000000000f0830060f836b8d54bf02049e5905f619487989e000000000000000000000000000000000000000000000000000000000000002f57696c6c20426974636f696e20636c6f73652061626f7665202c303030206279204d6172636820333120323032363f0000000000000000000000000000000000",
          "blockHash": "0x774478b0b3347ff100acfdb0fa25c5b9b0d74d7bc5ccf0f342c945c52d4693ca",
          "blockNumber": "0x13c35de",
          "blockTimestamp": "0x69bd3372",
          "transactionHash": "0x7cc7aa95ebde3eca62364ca9e286d23378a3d716f2818934c7070e189b98d89a",
          "transactionIndex": "0x1",
          "logIndex": "0x3",
          "removed": false
        }
      ],
      "logsBloom": "0x00000000000000000000000000400300000000000000000000000000020000000000000800000000000080008000000000002000000000000000000000000000000000000000000000022000000000000000000000024000000000000000002000000000000000000000000000000010000000020000000000000000080000000200020000000004000000000400000000020000000000000002000000000000000000000000000000000001000000020000000200000000000000000000000000000010000000000000000000010000280000000000000000000000000000000000004000000000000000000000000000000000000000000000000000000280",
      "type": "0x2",
      "transactionHash": "0x7cc7aa95ebde3eca62364ca9e286d23378a3d716f2818934c7070e189b98d89a",
      "transactionIndex": "0x1",
      "blockHash": "0x774478b0b3347ff100acfdb0fa25c5b9b0d74d7bc5ccf0f342c945c52d4693ca",
      "blockNumber": "0x13c35de",
      "gasUsed": "0x7b8e1",
      "effectiveGasPrice": "0xba43b7401",
      "blobGasUsed": "0x99",
      "from": "0xf0830060f836b8d54bf02049e5905f619487989e",
      "to": "0xce1a7a7fac2fc23bf4bc644c6d347b22bebaf77e",
      "contractAddress": null,
      "daFootprintGasScalar": "0x1",
      "l1BaseFeeScalar": "0x0",
      "l1BlobBaseFee": "0x1",
      "l1BlobBaseFeeScalar": "0x0",
      "l1Fee": "0x0",
      "l1GasPrice": "0xa",
      "l1GasUsed": "0x99f"
    }
  ],
  "libraries": [],
  "pending": [],
  "returns": {},
  "timestamp": 1774007154838,
  "chain": 11142220,
  "commit": "7098885"
}