{
  "transactions": [
    {
      "hash": "0x106dbf792afd14d6a5469299f410789c4975ec54ead32a135174b3fdfeda30f5",
      "transactionType": "CALL",
      "contractName": "Oracle",
      "contractAddress": "0x71d35ad20603f82c19bc40420b34c7280d77994b",
      "function": "allowListReporter(address,bool)",
      "arguments": [
        "0x71d35ad20603F82C19BC40420B34C7280d77994b",
        "true"
      ],
      "transaction": {
        "from": "0xf0830060f836b8d54bf02049e5905f619487989e",
        "to": "0x71d35ad20603f82c19bc40420b34c7280d77994b",
        "gas": "0x11ee7",
        "value": "0x0",
        "input": "0x6605d6b900000000000000000000000071d35ad20603f82c19bc40420b34c7280d77994b0000000000000000000000000000000000000000000000000000000000000001",
        "nonce": "0x66e",
        "chainId": "0xaa36a7"
      },
      "additionalContracts": [],
      "isFixedGasLimit": false
    }
  ],
  "receipts": [
    {
      "status": "0x1",
      "cumulativeGasUsed": "0x8100f1",
      "logs": [
        {
          "address": "0x71d35ad20603f82c19bc40420b34c7280d77994b",
          "topics": [
            "0xbd2eed0e0b9e71b4636ac34e4b6398c60945a0446c79a0a81fe172f10d0260ea",
            "0x00000000000000000000000071d35ad20603f82c19bc40420b34c7280d77994b"
          ],
          "data": "0x",
          "blockHash": "0x5ecf961bf8cc66d75cd0238eb174aba77cc480d2ba10f8c3ea5b1bd0c86e5d40",
          "blockNumber": "0x9de7cd",
          "blockTimestamp": "0x69a1bb24",
          "transactionHash": "0x106dbf792afd14d6a5469299f410789c4975ec54ead32a135174b3fdfeda30f5",
          "transactionIndex": "0x56",
          "logIndex": "0x94",
          "removed": false
        }
      ],
      "logsBloom": "0x00000000000000000000000000000000000000000000000000000000000000000000000100000000008000000000000000000000040000000000000000000000000000000000000000000000000000000000000000000002000000080000400000000000000000000000000000000000000000000000004000000000000000000000000000000000000000000000000000000000000000000000000000000000000000000000000000020000000000000000000000000000000000000000000000000000000000000000000000000100000000000000000000000000000000000000000000000000000000000000000000000000000000000000000000000000",
      "type": "0x2",
      "transactionHash": "0x106dbf792afd14d6a5469299f410789c4975ec54ead32a135174b3fdfeda30f5",
      "transactionIndex": "0x56",
      "blockHash": "0x5ecf961bf8cc66d75cd0238eb174aba77cc480d2ba10f8c3ea5b1bd0c86e5d40",
      "blockNumber": "0x9de7cd",
      "gasUsed": "0xcfb7",
      "effectiveGasPrice": "0x24adecd",
      "from": "0xf0830060f836b8d54bf02049e5905f619487989e",
      "to": "0x71d35ad20603f82c19bc40420b34c7280d77994b",
      "contractAddress": null
    }
  ],
  "libraries": [],
  "pending": [],
  "returns": {},
  "timestamp": 1772206885020,
  "chain": 11155111,
  "commit": "4a43ba6"
}