{
  "transactions": [
    {
      "hash": "0xf4fa71ccf39d44f7b000fef1e9e8b573682fb156791c192989004035cda86a81",
      "transactionType": "CALL",
      "contractName": null,
      "contractAddress": "0x787aa9f59509db6fb37ea37b1cbb7d0d71b116e6",
      "function": "allowListReporter(address,bool)",
      "arguments": [
        "0x787AA9f59509Db6Fb37EA37b1cBB7D0D71B116E6",
        "true"
      ],
      "transaction": {
        "from": "0xf0830060f836b8d54bf02049e5905f619487989e",
        "to": "0x787aa9f59509db6fb37ea37b1cbb7d0d71b116e6",
        "gas": "0x11ee7",
        "value": "0x0",
        "input": "0x6605d6b9000000000000000000000000787aa9f59509db6fb37ea37b1cbb7d0d71b116e60000000000000000000000000000000000000000000000000000000000000001",
        "nonce": "0x12d",
        "chainId": "0xaa36a7"
      },
      "additionalContracts": [],
      "isFixedGasLimit": false
    }
  ],
  "receipts": [
    {
      "status": "0x1",
      "cumulativeGasUsed": "0x13df765",
      "logs": [
        {
          "address": "0x787aa9f59509db6fb37ea37b1cbb7d0d71b116e6",
          "topics": [
            "0xbd2eed0e0b9e71b4636ac34e4b6398c60945a0446c79a0a81fe172f10d0260ea",
            "0x000000000000000000000000787aa9f59509db6fb37ea37b1cbb7d0d71b116e6"
          ],
          "data": "0x",
          "blockHash": "0xf121decc019c747f6929056e5bdd046afd844bda3e95e6e64d2a5ae41ff89229",
          "blockNumber": "0x9db208",
          "blockTimestamp": "0x699f1ab8",
          "transactionHash": "0xf4fa71ccf39d44f7b000fef1e9e8b573682fb156791c192989004035cda86a81",
          "transactionIndex": "0x73",
          "logIndex": "0xea",
          "removed": false
        }
      ],
      "logsBloom": "0x00000000000000000000000000000000000000000000000000000000000000000000000000000000000000400000000000000000040000000000000000000000000000000000000000000000000000000000000000000000000000000000000000000000020000000000000000000000000000000000000000000000000000000000000000000000000000000000000000000000000000000000000000000000000000000000000000021100000000000000000000000000000000000000000000000000000000000000000000000100000000000000000000000000000400000000000000000000000000000000000080000000000000000000000000000000",
      "type": "0x2",
      "transactionHash": "0xf4fa71ccf39d44f7b000fef1e9e8b573682fb156791c192989004035cda86a81",
      "transactionIndex": "0x73",
      "blockHash": "0xf121decc019c747f6929056e5bdd046afd844bda3e95e6e64d2a5ae41ff89229",
      "blockNumber": "0x9db208",
      "gasUsed": "0xcfb7",
      "effectiveGasPrice": "0xfba36",
      "from": "0xf0830060f836b8d54bf02049e5905f619487989e",
      "to": "0x787aa9f59509db6fb37ea37b1cbb7d0d71b116e6",
      "contractAddress": null
    }
  ],
  "libraries": [],
  "pending": [],
  "returns": {},
  "timestamp": 1772034745,
  "chain": 11155111,
  "commit": "e6e30ee"
}