{
  "transactions": [
    {
      "hash": "0x4e222d9b1f9adafb755b00fc2e7f8e87d4975304c771e244850e28203869aefd",
      "transactionType": "CALL",
      "contractName": "Oracle",
      "contractAddress": "0x4fd81efc19a5af3e9ead9c147e5e9cf3cf823de2",
      "function": "allowListReporter(address,bool)",
      "arguments": [
        "0x4fd81EfC19A5Af3E9eAd9c147e5E9cF3CF823DE2",
        "true"
      ],
      "transaction": {
        "from": "0xf0830060f836b8d54bf02049e5905f619487989e",
        "to": "0x4fd81efc19a5af3e9ead9c147e5e9cf3cf823de2",
        "gas": "0x11ee7",
        "value": "0x0",
        "input": "0x6605d6b90000000000000000000000004fd81efc19a5af3e9ead9c147e5e9cf3cf823de20000000000000000000000000000000000000000000000000000000000000001",
        "nonce": "0x902",
        "chainId": "0xaa36a7"
      },
      "additionalContracts": [],
      "isFixedGasLimit": false
    }
  ],
  "receipts": [
    {
      "status": "0x1",
      "cumulativeGasUsed": "0x7d2b9f",
      "logs": [
        {
          "address": "0x4fd81efc19a5af3e9ead9c147e5e9cf3cf823de2",
          "topics": [
            "0xbd2eed0e0b9e71b4636ac34e4b6398c60945a0446c79a0a81fe172f10d0260ea",
            "0x0000000000000000000000004fd81efc19a5af3e9ead9c147e5e9cf3cf823de2"
          ],
          "data": "0x",
          "blockHash": "0x00bf3587aba3b35f7ab47f44df29dbfd0925a1e180b548c2ddd1611f3481fa1e",
          "blockNumber": "0x9df10e",
          "blockTimestamp": "0x69a22d9c",
          "transactionHash": "0x4e222d9b1f9adafb755b00fc2e7f8e87d4975304c771e244850e28203869aefd",
          "transactionIndex": "0x5a",
          "logIndex": "0x8f",
          "removed": false
        }
      ],
      "logsBloom": "0x00000000000000001000000000000000000000000000000000000000000000000000000000000000000000000000000000000000040008000000000000000000000000000000800000000000000000000000100000000000000000000000000000000000000000000000000000000000000000000000000000000000000000000000000000000000000000000000000000000000000000000000000000000000000000000000000000020000000000010000000000000000000000008000000000000000000000000000000000000100000000000000000000000000000000000000000000000000000000000000000000000000000000000000000000000000",
      "type": "0x2",
      "transactionHash": "0x4e222d9b1f9adafb755b00fc2e7f8e87d4975304c771e244850e28203869aefd",
      "transactionIndex": "0x5a",
      "blockHash": "0x00bf3587aba3b35f7ab47f44df29dbfd0925a1e180b548c2ddd1611f3481fa1e",
      "blockNumber": "0x9df10e",
      "gasUsed": "0xcfb7",
      "effectiveGasPrice": "0x121946",
      "from": "0xf0830060f836b8d54bf02049e5905f619487989e",
      "to": "0x4fd81efc19a5af3e9ead9c147e5e9cf3cf823de2",
      "contractAddress": null
    }
  ],
  "libraries": [],
  "pending": [],
  "returns": {},
  "timestamp": 1772236189413,
  "chain": 11155111,
  "commit": "f844a23"
}