{
  "transactions": [
    {
      "hash": "0xa104c938c93ea05ba6b3e2090c323c3b839fc32bb650611c78a419a0bd9d8074",
      "transactionType": "CALL",
      "contractName": null,
      "contractAddress": "0x3059a6d5bc497e50f265475fbdd893b4287122a1",
      "function": "createBet((uint8,string,string,string,string,address,bytes32,uint8,uint256,uint256,uint256,bool),(string,uint256)[])",
      "arguments": [
        "(0, Mock Bet - Player Match, Who will win? Player 1, Player 2, or Draw?, https://via.placeholder.com/150, https://www.example.com, 0xf0830060f836B8d54bF02049E5905F619487989e, 0x0000000000000000000000000000000000000000000000000000000000000000, 0, 1765372840, 1765372840, 86400, false)",
        "[(PLAYER1, 0), (PLAYER2, 0), (DRAW, 0)]"
      ],
      "transaction": {
        "from": "0xf0830060f836b8d54bf02049e5905f619487989e",
        "to": "0x3059a6d5bc497e50f265475fbdd893b4287122a1",
        "gas": "0xdfaae",
        "value": "0x0",
        "input": "0x9f5cc149000000000000000000000000000000000000000000000000000000000000004000000000000000000000000000000000000000000000000000000000000002e00000000000000000000000000000000000000000000000000000000000000000000000000000000000000000000000000000000000000000000000000000018000000000000000000000000000000000000000000000000000000000000001c000000000000000000000000000000000000000000000000000000000000002200000000000000000000000000000000000000000000000000000000000000260000000000000000000000000f0830060f836b8d54bf02049e5905f619487989e0000000000000000000000000000000000000000000000000000000000000000000000000000000000000000000000000000000000000000000000000000000000000000000000000000000000000000000000000000000000000000693973a800000000000000000000000000000000000000000000000000000000693973a80000000000000000000000000000000000000000000000000000000000015180000000000000000000000000000000000000000000000000000000000000000000000000000000000000000000000000000000000000000000000000000000174d6f636b20426574202d20506c61796572204d61746368000000000000000000000000000000000000000000000000000000000000000000000000000000002a57686f2077696c6c2077696e3f20506c6179657220312c20506c6179657220322c206f7220447261773f00000000000000000000000000000000000000000000000000000000000000000000000000000000000000000000000000000000001f68747470733a2f2f7669612e706c616365686f6c6465722e636f6d2f31353000000000000000000000000000000000000000000000000000000000000000001768747470733a2f2f7777772e6578616d706c652e636f6d0000000000000000000000000000000000000000000000000000000000000000000000000000000003000000000000000000000000000000000000000000000000000000000000006000000000000000000000000000000000000000000000000000000000000000e00000000000000000000000000000000000000000000000000000000000000160000000000000000000000000000000000000000000000000000000000000004000000000000000000000000000000000000000000000000000000000000000000000000000000000000000000000000000000000000000000000000000000007504c415945523100000000000000000000000000000000000000000000000000000000000000000000000000000000000000000000000000000000000000004000000000000000000000000000000000000000000000000000000000000000000000000000000000000000000000000000000000000000000000000000000007504c4159455232000000000000000000000000000000000000000000000000000000000000000000000000000000000000000000000000000000000000000040000000000000000000000000000000000000000000000000000000000000000000000000000000000000000000000000000000000000000000000000000000044452415700000000000000000000000000000000000000000000000000000000",
        "nonce": "0x248",
        "chainId": "0x14a34"
      },
      "additionalContracts": [],
      "isFixedGasLimit": false
    },
    {
      "hash": "0xd3185e43c61574e0dac10c54040c1dd639a3f3af4015903ea9c7104aa47ccc4c",
      "transactionType": "CALL",
      "contractName": null,
      "contractAddress": "0x3059a6d5bc497e50f265475fbdd893b4287122a1",
      "function": "activateBet(uint256)",
      "arguments": [
        "1"
      ],
      "transaction": {
        "from": "0xf0830060f836b8d54bf02049e5905f619487989e",
        "to": "0x3059a6d5bc497e50f265475fbdd893b4287122a1",
        "gas": "0x11fdb",
        "value": "0x0",
        "input": "0x7638301e0000000000000000000000000000000000000000000000000000000000000001",
        "nonce": "0x249",
        "chainId": "0x14a34"
      },
      "additionalContracts": [],
      "isFixedGasLimit": false
    },
    {
      "hash": "0xbb4a70e79877bde9f24b9f9bc0080633b186ef24269263ba4af3dd5badd42ed8",
      "transactionType": "CALL",
      "contractName": null,
      "contractAddress": "0x3059a6d5bc497e50f265475fbdd893b4287122a1",
      "function": "addUserToGroup(uint256,address,uint8)",
      "arguments": [
        "1",
        "0xf0830060f836B8d54bF02049E5905F619487989e",
        "1"
      ],
      "transaction": {
        "from": "0xf0830060f836b8d54bf02049e5905f619487989e",
        "to": "0x3059a6d5bc497e50f265475fbdd893b4287122a1",
        "gas": "0x1fa16",
        "value": "0x0",
        "input": "0x85383ad50000000000000000000000000000000000000000000000000000000000000001000000000000000000000000f0830060f836b8d54bf02049e5905f619487989e0000000000000000000000000000000000000000000000000000000000000001",
        "nonce": "0x24a",
        "chainId": "0x14a34"
      },
      "additionalContracts": [],
      "isFixedGasLimit": false
    },
    {
      "hash": "0x86eacab2f6d4de0f0b55c93653864a74a9a851cd5f219b9ce05ddd015b3b5d61",
      "transactionType": "CALL",
      "contractName": null,
      "contractAddress": "0x3059a6d5bc497e50f265475fbdd893b4287122a1",
      "function": "acceptInvitation(uint256)",
      "arguments": [
        "1"
      ],
      "transaction": {
        "from": "0xf0830060f836b8d54bf02049e5905f619487989e",
        "to": "0x3059a6d5bc497e50f265475fbdd893b4287122a1",
        "gas": "0x25b4a",
        "value": "0x0",
        "input": "0x464c5b6c0000000000000000000000000000000000000000000000000000000000000001",
        "nonce": "0x24b",
        "chainId": "0x14a34"
      },
      "additionalContracts": [],
      "isFixedGasLimit": false
    },
    {
      "hash": "0x5fc4be36faa72b795630242be32c9ceff40902ca1a7b9a4eced5d010e3954338",
      "transactionType": "CALL",
      "contractName": null,
      "contractAddress": "0x3059a6d5bc497e50f265475fbdd893b4287122a1",
      "function": "stake(uint256,bytes32)",
      "arguments": [
        "1",
        "0x097cdcb4e8215f7805608b09245ee8893d24e3c4f839daf28d3c4c3f8622ed0d"
      ],
      "transaction": {
        "from": "0xf0830060f836b8d54bf02049e5905f619487989e",
        "to": "0x3059a6d5bc497e50f265475fbdd893b4287122a1",
        "gas": "0x22ace",
        "value": "0x2540be400",
        "input": "0x83c592cf0000000000000000000000000000000000000000000000000000000000000001097cdcb4e8215f7805608b09245ee8893d24e3c4f839daf28d3c4c3f8622ed0d",
        "nonce": "0x24c",
        "chainId": "0x14a34"
      },
      "additionalContracts": [],
      "isFixedGasLimit": false
    },
    {
      "hash": "0xd9011dfbd68fe9ec1a26d8de7d440d6dbf17746616fd7517a64a38400d379777",
      "transactionType": "CALL",
      "contractName": null,
      "contractAddress": "0x3059a6d5bc497e50f265475fbdd893b4287122a1",
      "function": "stake(uint256,bytes32)",
      "arguments": [
        "1",
        "0xb257067f98bfa3ff02b189a0bef100d7d2268b6dd0f0fbd564275696d10464af"
      ],
      "transaction": {
        "from": "0xf0830060f836b8d54bf02049e5905f619487989e",
        "to": "0x3059a6d5bc497e50f265475fbdd893b4287122a1",
        "gas": "0x1ce7a",
        "value": "0x2540be400",
        "input": "0x83c592cf0000000000000000000000000000000000000000000000000000000000000001b257067f98bfa3ff02b189a0bef100d7d2268b6dd0f0fbd564275696d10464af",
        "nonce": "0x24d",
        "chainId": "0x14a34"
      },
      "additionalContracts": [],
      "isFixedGasLimit": false
    },
    {
      "hash": "0xe4e4bfa511d3aa9c8747ea0ce2d225da6882b363895e66903f034e4b8577d2e0",
      "transactionType": "CALL",
      "contractName": null,
      "contractAddress": "0x3059a6d5bc497e50f265475fbdd893b4287122a1",
      "function": "stake(uint256,bytes32)",
      "arguments": [
        "1",
        "0x1cf54708aaa392dbeba88d1a07e69feaba67586acd469366b89b52bf44132258"
      ],
      "transaction": {
        "from": "0xf0830060f836b8d54bf02049e5905f619487989e",
        "to": "0x3059a6d5bc497e50f265475fbdd893b4287122a1",
        "gas": "0x1ce8b",
        "value": "0x2540be400",
        "input": "0x83c592cf00000000000000000000000000000000000000000000000000000000000000011cf54708aaa392dbeba88d1a07e69feaba67586acd469366b89b52bf44132258",
        "nonce": "0x24e",
        "chainId": "0x14a34"
      },
      "additionalContracts": [],
      "isFixedGasLimit": false
    },
    {
      "hash": "0x4452f20ba1bcc5d9e5f56a8b5e4017060e7dad32fdefb6018f3aa0037074fc3d",
      "transactionType": "CALL",
      "contractName": null,
      "contractAddress": "0xdc1766074d0887a5f0bcf0ca869e14851f0ee111",
      "function": "requestResultWithChainlink(uint256,uint256,bytes)",
      "arguments": [
        "0",
        "1",
        "0x00000000000000000000000000000000000000000000000000000000000000000000000000000000000000000000000000000000000000000000000000000001"
      ],
      "transaction": {
        "from": "0xf0830060f836b8d54bf02049e5905f619487989e",
        "to": "0xdc1766074d0887a5f0bcf0ca869e14851f0ee111",
        "gas": "0x112ed6",
        "value": "0x0",
        "input": "0x724b2f31000000000000000000000000000000000000000000000000000000000000000000000000000000000000000000000000000000000000000000000000000000010000000000000000000000000000000000000000000000000000000000000060000000000000000000000000000000000000000000000000000000000000004000000000000000000000000000000000000000000000000000000000000000000000000000000000000000000000000000000000000000000000000000000001",
        "nonce": "0x24f",
        "chainId": "0x14a34"
      },
      "additionalContracts": [],
      "isFixedGasLimit": false
    }
  ],
  "receipts": [
    {
      "status": "0x1",
      "cumulativeGasUsed": "0x551631",
      "logs": [
        {
          "address": "0x3059a6d5bc497e50f265475fbdd893b4287122a1",
          "topics": [
            "0xed91adb0136aed266b4ac6d8e00dca7d5c81a694ed7b1fe049820e94ab774b6b",
            "0x0000000000000000000000000000000000000000000000000000000000000001",
            "0x097cdcb4e8215f7805608b09245ee8893d24e3c4f839daf28d3c4c3f8622ed0d"
          ],
          "data": "0x00000000000000000000000000000000000000000000000000000000000000200000000000000000000000000000000000000000000000000000000000000007504c415945523100000000000000000000000000000000000000000000000000",
          "blockHash": "0x44001bb3cc9d0bb86774f93d5564d62d5de88f422a7eaf2b0c529dcf2bbc0cb9",
          "blockNumber": "0x2130a7a",
          "blockTimestamp": "0x693973d4",
          "transactionHash": "0xa104c938c93ea05ba6b3e2090c323c3b839fc32bb650611c78a419a0bd9d8074",
          "transactionIndex": "0xd",
          "logIndex": "0x2a",
          "removed": false
        },
        {
          "address": "0x3059a6d5bc497e50f265475fbdd893b4287122a1",
          "topics": [
            "0xed91adb0136aed266b4ac6d8e00dca7d5c81a694ed7b1fe049820e94ab774b6b",
            "0x0000000000000000000000000000000000000000000000000000000000000001",
            "0xb257067f98bfa3ff02b189a0bef100d7d2268b6dd0f0fbd564275696d10464af"
          ],
          "data": "0x00000000000000000000000000000000000000000000000000000000000000200000000000000000000000000000000000000000000000000000000000000007504c415945523200000000000000000000000000000000000000000000000000",
          "blockHash": "0x44001bb3cc9d0bb86774f93d5564d62d5de88f422a7eaf2b0c529dcf2bbc0cb9",
          "blockNumber": "0x2130a7a",
          "blockTimestamp": "0x693973d4",
          "transactionHash": "0xa104c938c93ea05ba6b3e2090c323c3b839fc32bb650611c78a419a0bd9d8074",
          "transactionIndex": "0xd",
          "logIndex": "0x2b",
          "removed": false
        },
        {
          "address": "0x3059a6d5bc497e50f265475fbdd893b4287122a1",
          "topics": [
            "0xed91adb0136aed266b4ac6d8e00dca7d5c81a694ed7b1fe049820e94ab774b6b",
            "0x0000000000000000000000000000000000000000000000000000000000000001",
            "0x1cf54708aaa392dbeba88d1a07e69feaba67586acd469366b89b52bf44132258"
          ],
          "data": "0x000000000000000000000000000000000000000000000000000000000000002000000000000000000000000000000000000000000000000000000000000000044452415700000000000000000000000000000000000000000000000000000000",
          "blockHash": "0x44001bb3cc9d0bb86774f93d5564d62d5de88f422a7eaf2b0c529dcf2bbc0cb9",
          "blockNumber": "0x2130a7a",
          "blockTimestamp": "0x693973d4",
          "transactionHash": "0xa104c938c93ea05ba6b3e2090c323c3b839fc32bb650611c78a419a0bd9d8074",
          "transactionIndex": "0xd",
          "logIndex": "0x2c",
          "removed": false
        },
        {
          "address": "0x3059a6d5bc497e50f265475fbdd893b4287122a1",
          "topics": [
            "0x8d0a28bca046bb7b061280953becbdf1c01cbded5f21c6cc573531a5f1516a8a",
            "0x0000000000000000000000000000000000000000000000000000000000000001"
          ],
          "data": "0x000000000000000000000000f0830060f836b8d54bf02049e5905f619487989e0000000000000000000000000000000000000000000000000000000000000000",
          "blockHash": "0x44001bb3cc9d0bb86774f93d5564d62d5de88f422a7eaf2b0c529dcf2bbc0cb9",
          "blockNumber": "0x2130a7a",
          "blockTimestamp": "0x693973d4",
          "transactionHash": "0xa104c938c93ea05ba6b3e2090c323c3b839fc32bb650611c78a419a0bd9d8074",
          "transactionIndex": "0xd",
          "logIndex": "0x2d",
          "removed": false
        },
        {
          "address": "0x3059a6d5bc497e50f265475fbdd893b4287122a1",
          "topics": [
            "0xd9ffda041dc5c373bdb4e785beba744359254aea124b9f766d03075d0545ea9a"
          ],
          "data": "0x000000000000000000000000000000000000000000000000000000000000000100000000000000000000000000000000000000000000000000000000000000a0000000000000000000000000f0830060f836b8d54bf02049e5905f619487989e000000000000000000000000000000000000000000000000000000000000034000000000000000000000000000000000000000000000000000000000000003a00000000000000000000000000000000000000000000000000000000000000000000000000000000000000000000000000000000000000000000000000000018000000000000000000000000000000000000000000000000000000000000001c000000000000000000000000000000000000000000000000000000000000002200000000000000000000000000000000000000000000000000000000000000260000000000000000000000000f0830060f836b8d54bf02049e5905f619487989e0000000000000000000000000000000000000000000000000000000000000000000000000000000000000000000000000000000000000000000000000000000000000000000000000000000000000000000000000000000000000000693973a800000000000000000000000000000000000000000000000000000000693973a80000000000000000000000000000000000000000000000000000000000015180000000000000000000000000000000000000000000000000000000000000000000000000000000000000000000000000000000000000000000000000000000174d6f636b20426574202d20506c61796572204d61746368000000000000000000000000000000000000000000000000000000000000000000000000000000002a57686f2077696c6c2077696e3f20506c6179657220312c20506c6179657220322c206f7220447261773f00000000000000000000000000000000000000000000000000000000000000000000000000000000000000000000000000000000001f68747470733a2f2f7669612e706c616365686f6c6465722e636f6d2f31353000000000000000000000000000000000000000000000000000000000000000001768747470733a2f2f7777772e6578616d706c652e636f6d0000000000000000000000000000000000000000000000000000000000000000000000000000000040000000000000000000000000000000000000000000000000000000000000000100000000000000000000000000000000000000000000000000000000693973d40000000000000000000000000000000000000000000000000000000000000003097cdcb4e8215f7805608b09245ee8893d24e3c4f839daf28d3c4c3f8622ed0db257067f98bfa3ff02b189a0bef100d7d2268b6dd0f0fbd564275696d10464af1cf54708aaa392dbeba88d1a07e69feaba67586acd469366b89b52bf44132258",
          "blockHash": "0x44001bb3cc9d0bb86774f93d5564d62d5de88f422a7eaf2b0c529dcf2bbc0cb9",
          "blockNumber": "0x2130a7a",
          "blockTimestamp": "0x693973d4",
          "transactionHash": "0xa104c938c93ea05ba6b3e2090c323c3b839fc32bb650611c78a419a0bd9d8074",
          "transactionIndex": "0xd",
          "logIndex": "0x2e",
          "removed": false
        }
      ],
      "logsBloom": "0x00000000000000800000000800000000000000020000000000000000000000000000000000000000000000000000000000000000010000000000000000040000000000000000000000000000000000000001000220040000000000000400000000000000000001000080000000000800000000000000000040000020000000000000000000000000000000000000000000000000000000000000000000001000000000000000000000000000000000008000000000000000000000000000000000000000000000000000000000000082400000000000000000000000000040000000000000000000000000000000040000000100000000000000000000000200",
      "type": "0x2",
      "transactionHash": "0xa104c938c93ea05ba6b3e2090c323c3b839fc32bb650611c78a419a0bd9d8074",
      "transactionIndex": "0xd",
      "blockHash": "0x44001bb3cc9d0bb86774f93d5564d62d5de88f422a7eaf2b0c529dcf2bbc0cb9",
      "blockNumber": "0x2130a7a",
      "gasUsed": "0xa1ee7",
      "effectiveGasPrice": "0x124f80",
      "blobGasUsed": "0x169f8",
      "from": "0xf0830060f836b8d54bf02049e5905f619487989e",
      "to": "0x3059a6d5bc497e50f265475fbdd893b4287122a1",
      "contractAddress": null,
      "daFootprintGasScalar": "0x138",
      "l1BaseFeeScalar": "0x44d",
      "l1BlobBaseFee": "0x1",
      "l1BlobBaseFeeScalar": "0xa118b",
      "l1Fee": "0x51",
      "l1GasPrice": "0x9",
      "l1GasUsed": "0x129d"
    },
    {
      "status": "0x1",
      "cumulativeGasUsed": "0x60b4e9",
      "logs": [],
      "logsBloom": "0x00000000000000000000000000000000000000000000000000000000000000000000000000000000000000000000000000000000000000000000000000000000000000000000000000000000000000000000000000000000000000000000000000000000000000000000000000000000000000000000000000000000000000000000000000000000000000000000000000000000000000000000000000000000000000000000000000000000000000000000000000000000000000000000000000000000000000000000000000000000000000000000000000000000000000000000000000000000000000000000000000000000000000000000000000000000",
      "type": "0x2",
      "transactionHash": "0xd3185e43c61574e0dac10c54040c1dd639a3f3af4015903ea9c7104aa47ccc4c",
      "transactionIndex": "0x11",
      "blockHash": "0xd149bb14fbb8df7953bc99d4dca9fa9e5b35c8c55f053b3761fde6bc5e92b3d9",
      "blockNumber": "0x2130a7a",
      "gasUsed": "0xd068",
      "effectiveGasPrice": "0x124f80",
      "blobGasUsed": "0x79e0",
      "from": "0xf0830060f836b8d54bf02049e5905f619487989e",
      "to": "0x3059a6d5bc497e50f265475fbdd893b4287122a1",
      "contractAddress": null,
      "daFootprintGasScalar": "0x138",
      "l1BaseFeeScalar": "0x44d",
      "l1BlobBaseFee": "0x1",
      "l1BlobBaseFeeScalar": "0xa118b",
      "l1Fee": "0x51",
      "l1GasPrice": "0x9",
      "l1GasUsed": "0x640"
    },
    {
      "status": "0x1",
      "cumulativeGasUsed": "0x620ef4",
      "logs": [
        {
          "address": "0x3059a6d5bc497e50f265475fbdd893b4287122a1",
          "topics": [
            "0x8d0a28bca046bb7b061280953becbdf1c01cbded5f21c6cc573531a5f1516a8a",
            "0x0000000000000000000000000000000000000000000000000000000000000001"
          ],
          "data": "0x000000000000000000000000f0830060f836b8d54bf02049e5905f619487989e0000000000000000000000000000000000000000000000000000000000000001",
          "blockHash": "0xd149bb14fbb8df7953bc99d4dca9fa9e5b35c8c55f053b3761fde6bc5e92b3d9",
          "blockNumber": "0x2130a7a",
          "blockTimestamp": "0x693973d4",
          "transactionHash": "0xbb4a70e79877bde9f24b9f9bc0080633b186ef24269263ba4af3dd5badd42ed8",
          "transactionIndex": "0x12",
          "logIndex": "0x50",
          "removed": false
        }
      ],
      "logsBloom": "0x00000000000000800000000800000000000000000000000000000000000000000000000000000000000000000000000000000000000000000000000000040000000000000000000000000000000000000001000000040000000000000000000000000000000000000000000000000000000000000000000040000000000000000000000000000000000000000000000000000000000000000000000000000000000000000000000000000000000000008000000000000000000000000000000000000000000000000000000000000000000000000000000000000000000040000000000000000000000000000000040000000000000000000000000000000000",
      "type": "0x2",
      "transactionHash": "0xbb4a70e79877bde9f24b9f9bc0080633b186ef24269263ba4af3dd5badd42ed8",
      "transactionIndex": "0x12",
      "blockHash": "0xd149bb14fbb8df7953bc99d4dca9fa9e5b35c8c55f053b3761fde6bc5e92b3d9",
      "blockNumber": "0x2130a7a",
      "gasUsed": "0x15a0b",
      "effectiveGasPrice": "0x124f80",
      "blobGasUsed": "0x79e0",
      "from": "0xf0830060f836b8d54bf02049e5905f619487989e",
      "to": "0x3059a6d5bc497e50f265475fbdd893b4287122a1",
      "contractAddress": null,
      "daFootprintGasScalar": "0x138",
      "l1BaseFeeScalar": "0x44d",
      "l1BlobBaseFee": "0x1",
      "l1BlobBaseFeeScalar": "0xa118b",
      "l1Fee": "0x51",
      "l1GasPrice": "0x9",
      "l1GasUsed": "0x640"
    },
    {
      "status": "0x1",
      "cumulativeGasUsed": "0x63ab76",
      "logs": [
        {
          "address": "0x3059a6d5bc497e50f265475fbdd893b4287122a1",
          "topics": [
            "0x9c980bf56be121fc68a81d95fabc5213737d3a63221832243b680166f4585ddd",
            "0x0000000000000000000000000000000000000000000000000000000000000001"
          ],
          "data": "0x000000000000000000000000f0830060f836b8d54bf02049e5905f619487989e",
          "blockHash": "0xd149bb14fbb8df7953bc99d4dca9fa9e5b35c8c55f053b3761fde6bc5e92b3d9",
          "blockNumber": "0x2130a7a",
          "blockTimestamp": "0x693973d4",
          "transactionHash": "0x86eacab2f6d4de0f0b55c93653864a74a9a851cd5f219b9ce05ddd015b3b5d61",
          "transactionIndex": "0x13",
          "logIndex": "0x51",
          "removed": false
        }
      ],
      "logsBloom": "0x00000000000000000000000800000000000000000000000000000000000000000000000000000000000000000000000000000000000000000000000000040000000000000000000000000000000000000000000000040000000000000000000000000000000000000000000000000000000000000000000040000000000000000000000000000000000000000000000000000000000000000000000000000000008000000000000000000000000000000000000000000000000000000000000000000000000000000000000000000000000040000000000000000000000040000000000000000000000000000000040000004000000000000000000000000000",
      "type": "0x2",
      "transactionHash": "0x86eacab2f6d4de0f0b55c93653864a74a9a851cd5f219b9ce05ddd015b3b5d61",
      "transactionIndex": "0x13",
      "blockHash": "0xd149bb14fbb8df7953bc99d4dca9fa9e5b35c8c55f053b3761fde6bc5e92b3d9",
      "blockNumber": "0x2130a7a",
      "gasUsed": "0x19c82",
      "effectiveGasPrice": "0x124f80",
      "blobGasUsed": "0x79e0",
      "from": "0xf0830060f836b8d54bf02049e5905f619487989e",
      "to": "0x3059a6d5bc497e50f265475fbdd893b4287122a1",
      "contractAddress": null,
      "daFootprintGasScalar": "0x138",
      "l1BaseFeeScalar": "0x44d",
      "l1BlobBaseFee": "0x1",
      "l1BlobBaseFeeScalar": "0xa118b",
      "l1Fee": "0x51",
      "l1GasPrice": "0x9",
      "l1GasUsed": "0x640"
    },
    {
      "status": "0x1",
      "cumulativeGasUsed": "0x653d22",
      "logs": [
        {
          "address": "0x3059a6d5bc497e50f265475fbdd893b4287122a1",
          "topics": [
            "0x03a01f0c89d0b1cc1e9eaf39ffcabd454922f25ed393de30e6c5c5bae211ca88",
            "0x0000000000000000000000000000000000000000000000000000000000000001",
            "0x097cdcb4e8215f7805608b09245ee8893d24e3c4f839daf28d3c4c3f8622ed0d"
          ],
          "data": "0x000000000000000000000000f0830060f836b8d54bf02049e5905f619487989e00000000000000000000000000000000000000000000000000000002540be400",
          "blockHash": "0xd149bb14fbb8df7953bc99d4dca9fa9e5b35c8c55f053b3761fde6bc5e92b3d9",
          "blockNumber": "0x2130a7a",
          "blockTimestamp": "0x693973d4",
          "transactionHash": "0x5fc4be36faa72b795630242be32c9ceff40902ca1a7b9a4eced5d010e3954338",
          "transactionIndex": "0x14",
          "logIndex": "0x52",
          "removed": false
        }
      ],
      "logsBloom": "0x00000000000000000000000800000000000000000000000000000000000000000000000000000000000000000000000000000000010000000000000000040000000004000000000000000000000000000000000000040400000000000000000000000000000001000000000000000800000000000000000040000000000000008000000000000000000000000000000000000000000000000000000000000000000000000000000000000000000000000000000000000000000000000000000000000000000000000000000000000000000000000000000000000000000040000000000000000000000000000000040000000000000000000000000000000000",
      "type": "0x2",
      "transactionHash": "0x5fc4be36faa72b795630242be32c9ceff40902ca1a7b9a4eced5d010e3954338",
      "transactionIndex": "0x14",
      "blockHash": "0xd149bb14fbb8df7953bc99d4dca9fa9e5b35c8c55f053b3761fde6bc5e92b3d9",
      "blockNumber": "0x2130a7a",
      "gasUsed": "0x191ac",
      "effectiveGasPrice": "0x124f80",
      "blobGasUsed": "0x79e0",
      "from": "0xf0830060f836b8d54bf02049e5905f619487989e",
      "to": "0x3059a6d5bc497e50f265475fbdd893b4287122a1",
      "contractAddress": null,
      "daFootprintGasScalar": "0x138",
      "l1BaseFeeScalar": "0x44d",
      "l1BlobBaseFee": "0x1",
      "l1BlobBaseFeeScalar": "0xa118b",
      "l1Fee": "0x51",
      "l1GasPrice": "0x9",
      "l1GasUsed": "0x640"
    },
    {
      "status": "0x1",
      "cumulativeGasUsed": "0x668bf6",
      "logs": [
        {
          "address": "0x3059a6d5bc497e50f265475fbdd893b4287122a1",
          "topics": [
            "0x03a01f0c89d0b1cc1e9eaf39ffcabd454922f25ed393de30e6c5c5bae211ca88",
            "0x0000000000000000000000000000000000000000000000000000000000000001",
            "0xb257067f98bfa3ff02b189a0bef100d7d2268b6dd0f0fbd564275696d10464af"
          ],
          "data": "0x000000000000000000000000f0830060f836b8d54bf02049e5905f619487989e00000000000000000000000000000000000000000000000000000002540be400",
          "blockHash": "0xd149bb14fbb8df7953bc99d4dca9fa9e5b35c8c55f053b3761fde6bc5e92b3d9",
          "blockNumber": "0x2130a7a",
          "blockTimestamp": "0x693973d4",
          "transactionHash": "0xd9011dfbd68fe9ec1a26d8de7d440d6dbf17746616fd7517a64a38400d379777",
          "transactionIndex": "0x15",
          "logIndex": "0x53",
          "removed": false
        }
      ],
      "logsBloom": "0x00000000000000000000000800000000000000000000000000000000000000000000000000000000000000000000000000000000000000000000000000040000000004000000000000000000000000000000000000040400000000000000000000000000000000000000000000000000000000000000000040000000000000008000000000000000000000000000000000000000000000000000000000000000000000000000000000000000000000000000000000000000000000000000000000000000000000000000000000000080000000000000000000000000000040000000000000000000000000000000040000000100000000000000000000000200",
      "type": "0x2",
      "transactionHash": "0xd9011dfbd68fe9ec1a26d8de7d440d6dbf17746616fd7517a64a38400d379777",
      "transactionIndex": "0x15",
      "blockHash": "0xd149bb14fbb8df7953bc99d4dca9fa9e5b35c8c55f053b3761fde6bc5e92b3d9",
      "blockNumber": "0x2130a7a",
      "gasUsed": "0x14ed4",
      "effectiveGasPrice": "0x124f80",
      "blobGasUsed": "0x79e0",
      "from": "0xf0830060f836b8d54bf02049e5905f619487989e",
      "to": "0x3059a6d5bc497e50f265475fbdd893b4287122a1",
      "contractAddress": null,
      "daFootprintGasScalar": "0x138",
      "l1BaseFeeScalar": "0x44d",
      "l1BlobBaseFee": "0x1",
      "l1BlobBaseFeeScalar": "0xa118b",
      "l1Fee": "0x51",
      "l1GasPrice": "0x9",
      "l1GasUsed": "0x640"
    },
    {
      "status": "0x1",
      "cumulativeGasUsed": "0x67dad6",
      "logs": [
        {
          "address": "0x3059a6d5bc497e50f265475fbdd893b4287122a1",
          "topics": [
            "0x03a01f0c89d0b1cc1e9eaf39ffcabd454922f25ed393de30e6c5c5bae211ca88",
            "0x0000000000000000000000000000000000000000000000000000000000000001",
            "0x1cf54708aaa392dbeba88d1a07e69feaba67586acd469366b89b52bf44132258"
          ],
          "data": "0x000000000000000000000000f0830060f836b8d54bf02049e5905f619487989e00000000000000000000000000000000000000000000000000000002540be400",
          "blockHash": "0xd149bb14fbb8df7953bc99d4dca9fa9e5b35c8c55f053b3761fde6bc5e92b3d9",
          "blockNumber": "0x2130a7a",
          "blockTimestamp": "0x693973d4",
          "transactionHash": "0xe4e4bfa511d3aa9c8747ea0ce2d225da6882b363895e66903f034e4b8577d2e0",
          "transactionIndex": "0x16",
          "logIndex": "0x54",
          "removed": false
        }
      ],
      "logsBloom": "0x00000000000000000000000800000000000000020000000000000000000000000000000000000000000000000000000000000000000000000000000000040000000004000000000000000000000000000000000020040400000000000000000000000000000000000000000000000000000000000000000040000000000000008000000000000000000000000000000000000000000000000000000000000000000000000000000000000000000000000000000000000000000000000000000000000000000000000000000000000002000000000000000000000000000040000000000000000000000000000000040000000000000000000000000000000000",
      "type": "0x2",
      "transactionHash": "0xe4e4bfa511d3aa9c8747ea0ce2d225da6882b363895e66903f034e4b8577d2e0",
      "transactionIndex": "0x16",
      "blockHash": "0xd149bb14fbb8df7953bc99d4dca9fa9e5b35c8c55f053b3761fde6bc5e92b3d9",
      "blockNumber": "0x2130a7a",
      "gasUsed": "0x14ee0",
      "effectiveGasPrice": "0x124f80",
      "blobGasUsed": "0x79e0",
      "from": "0xf0830060f836b8d54bf02049e5905f619487989e",
      "to": "0x3059a6d5bc497e50f265475fbdd893b4287122a1",
      "contractAddress": null,
      "daFootprintGasScalar": "0x138",
      "l1BaseFeeScalar": "0x44d",
      "l1BlobBaseFee": "0x1",
      "l1BlobBaseFeeScalar": "0xa118b",
      "l1Fee": "0x51",
      "l1GasPrice": "0x9",
      "l1GasUsed": "0x640"
    },
    {
      "status": "0x1",
      "cumulativeGasUsed": "0x7502e1",
      "logs": [
        {
          "address": "0x50eb5509f3617ec5210acb152984bc794c40cd61",
          "topics": [
            "0x2df02ae6a81a2be4debcd95cdc943879a0ddfd7edef8268628578ec32e3e61e5",
            "0x41c87d4dd49b28a37dbbf8b4bd83ad60916029238c62642a5645e5934ff2834d",
            "0x0000000000000000000000000000000000000000000000000000000000000000",
            "0x0000000000000000000000000000000000000000000000000000000000000001"
          ],
          "data": "0x000000000000000000000000dc1766074d0887a5f0bcf0ca869e14851f0ee1110000000000000000000000000000000000000000000000000000000000000040000000000000000000000000000000000000000000000000000000000000004000000000000000000000000000000000000000000000000000000000000000000000000000000000000000000000000000000000000000000000000000000001",
          "blockHash": "0xd149bb14fbb8df7953bc99d4dca9fa9e5b35c8c55f053b3761fde6bc5e92b3d9",
          "blockNumber": "0x2130a7a",
          "blockTimestamp": "0x693973d4",
          "transactionHash": "0x4452f20ba1bcc5d9e5f56a8b5e4017060e7dad32fdefb6018f3aa0037074fc3d",
          "transactionIndex": "0x18",
          "logIndex": "0x56",
          "removed": false
        },
        {
          "address": "0xfac44c030703b25911df1627824ad7303e78d491",
          "topics": [
            "0xbf50768ccf13bd0110ca6d53a9c4f1f3271abdd4c24a56878863ed25b20598ff",
            "0xc13a718e2383d88f59e8f7b771cc6d835649e0c9011f370ee67bf9486d4b8cc0",
            "0x000000000000000000000000dc1766074d0887a5f0bcf0ca869e14851f0ee111"
          ],
          "data": "0x000000000000000000000000f0830060f836b8d54bf02049e5905f619487989e0000000000000000000000000000000000000000000000000000000000000212000000000000000000000000f0830060f836b8d54bf02049e5905f619487989e00000000000000000000000000000000000000000000000000000000000002400000000000000000000000000000000000000000000000000000000000000001000000000000000000000000000000000000000000000000000000000000000000000000000000000000000000000000000000000000000000000000000493e0c13a718e2383d88f59e8f7b771cc6d835649e0c9011f370ee67bf9486d4b8cc0000000000000000000000000fac44c030703b25911df1627824ad7303e78d4910000000000000000000000000000000000000000000000000ba2c1709a8546a0000000000000000000000000dc1766074d0887a5f0bcf0ca869e14851f0ee111000000000000000000000000000000000000000000000000000000000000021200000000000000000000000000000000000000000000000000000000000493e00000000000000000000000000000000000000000000000000324e73f6fd2c66400000000000000000000000000000000000000000000000000000000000000000000000000000000000000000000000000000000000000000000000000027eac000000000000000000000000000000000000000000000000000000000000dea8000000000000000000000000000000000000000000000000000000006939750000000000000000000000000000000000000000000000000000000000000004e66c636f64654c6f636174696f6ec258200000000000000000000000000000000000000000000000000000000000000000686c616e6775616765c25820000000000000000000000000000000000000000000000000000000000000000066736f7572636579045e2f2f20546869732066756e6374696f6e20676574732062657420726573756c74732066726f6d207468652065787465726e616c204150492e0a2f2f2049742074616b65732067616d6549642c2062657449642c206f7074696f6e436f756e742c20616e64206f7074696f6e20737472696e677320617320617267756d656e747320616e642072657475726e732074686520726573756c7420696e6465782e0a0a2f2f204765742074686520617267756d656e74730a2f2f20617267735b305d203d2067616d6549642c20617267735b315d203d2062657449642c20617267735b325d203d206f7074696f6e436f756e742c20617267735b332b5d203d206f7074696f6e20737472696e67730a636f6e73742067616d654964203d20617267735b305d3b0a636f6e7374206265744964203d20617267735b315d3b0a0a2f2f20436f6e73747275637420746865204150492055524c0a636f6e73742061706955726c203d206068747470733a2f2f6f7261636c652d73696c6b2e76657263656c2e6170702f6170692f726573756c74732f247b62657449647d603b0a0a2f2f2045786563757465207468652041504920726571756573740a636f6e737420617069526573706f6e7365203d2061776169742046756e6374696f6e732e6d616b654874747052657175657374287b0a202075726c3a2061706955726c2c0a7d293b0a0a69662028617069526573706f6e73652e6572726f7229207b0a20207468726f77204572726f72282252657175657374206661696c656422293b0a7d0a0a636f6e7374207b2064617461207d203d20617069526573706f6e73653b0a2f2f2054727920746f20676574206f7574636f6d652066726f6d2067616d65526573756c742e766572646963740a6c657420726573756c74537472696e673b0a696620286461746120262620646174612e67616d65526573756c7420262620646174612e67616d65526573756c742e7665726469637429207b0a2020747279207b0a20202020636f6e73742076657264696374203d0a202020202020747970656f6620646174612e67616d65526573756c742e76657264696374203d3d3d2022737472696e67220a20202020202020203f204a534f4e2e706172736528646174612e67616d65526573756c742e76657264696374290a20202020202020203a20646174612e67616d65526573756c742e766572646963743b0a0a20202020696620287665726469637420262620766572646963742e6f7574636f6d6529207b0a202020202020726573756c74537472696e67203d20766572646963742e6f7574636f6d653b0a202020207d0a20207d20636174636820286529207b0a202020207468726f77204572726f72282250617273696e67206661696c656422293b0a20207d0a7d0a636f6e737420726573756c74496e646578203d207061727365496e7428726573756c74537472696e672c203130293b0a72657475726e2046756e6374696f6e732e656e636f646555696e7432353628726573756c74496e646578293b0a64617267739f61306131613367504c415945523167504c41594552326444524157ff0000000000000000000000000000000000000000000000000000",
          "blockHash": "0xd149bb14fbb8df7953bc99d4dca9fa9e5b35c8c55f053b3761fde6bc5e92b3d9",
          "blockNumber": "0x2130a7a",
          "blockTimestamp": "0x693973d4",
          "transactionHash": "0x4452f20ba1bcc5d9e5f56a8b5e4017060e7dad32fdefb6018f3aa0037074fc3d",
          "transactionIndex": "0x18",
          "logIndex": "0x57",
          "removed": false
        },
        {
          "address": "0xf9b8fc078197181c841c296c876945aaa425b278",
          "topics": [
            "0xf67aec45c9a7ede407974a3e0c3a743dffeab99ee3f2d4c9a8144c2ebf2c7ec9",
            "0xc13a718e2383d88f59e8f7b771cc6d835649e0c9011f370ee67bf9486d4b8cc0",
            "0x66756e2d626173652d7365706f6c69612d310000000000000000000000000000",
            "0x0000000000000000000000000000000000000000000000000000000000000212"
          ],
          "data": "0x000000000000000000000000f0830060f836b8d54bf02049e5905f619487989e000000000000000000000000dc1766074d0887a5f0bcf0ca869e14851f0ee111000000000000000000000000f0830060f836b8d54bf02049e5905f619487989e00000000000000000000000000000000000000000000000000000000000000e0000000000000000000000000000000000000000000000000000000000000000100000000000000000000000000000000000000000000000000000000000493e00000000000000000000000000000000000000000000000000ba2c1709a8546a000000000000000000000000000000000000000000000000000000000000004e66c636f64654c6f636174696f6ec258200000000000000000000000000000000000000000000000000000000000000000686c616e6775616765c25820000000000000000000000000000000000000000000000000000000000000000066736f7572636579045e2f2f20546869732066756e6374696f6e20676574732062657420726573756c74732066726f6d207468652065787465726e616c204150492e0a2f2f2049742074616b65732067616d6549642c2062657449642c206f7074696f6e436f756e742c20616e64206f7074696f6e20737472696e677320617320617267756d656e747320616e642072657475726e732074686520726573756c7420696e6465782e0a0a2f2f204765742074686520617267756d656e74730a2f2f20617267735b305d203d2067616d6549642c20617267735b315d203d2062657449642c20617267735b325d203d206f7074696f6e436f756e742c20617267735b332b5d203d206f7074696f6e20737472696e67730a636f6e73742067616d654964203d20617267735b305d3b0a636f6e7374206265744964203d20617267735b315d3b0a0a2f2f20436f6e73747275637420746865204150492055524c0a636f6e73742061706955726c203d206068747470733a2f2f6f7261636c652d73696c6b2e76657263656c2e6170702f6170692f726573756c74732f247b62657449647d603b0a0a2f2f2045786563757465207468652041504920726571756573740a636f6e737420617069526573706f6e7365203d2061776169742046756e6374696f6e732e6d616b654874747052657175657374287b0a202075726c3a2061706955726c2c0a7d293b0a0a69662028617069526573706f6e73652e6572726f7229207b0a20207468726f77204572726f72282252657175657374206661696c656422293b0a7d0a0a636f6e7374207b2064617461207d203d20617069526573706f6e73653b0a2f2f2054727920746f20676574206f7574636f6d652066726f6d2067616d65526573756c742e766572646963740a6c657420726573756c74537472696e673b0a696620286461746120262620646174612e67616d65526573756c7420262620646174612e67616d65526573756c742e7665726469637429207b0a2020747279207b0a20202020636f6e73742076657264696374203d0a202020202020747970656f6620646174612e67616d65526573756c742e76657264696374203d3d3d2022737472696e67220a20202020202020203f204a534f4e2e706172736528646174612e67616d65526573756c742e76657264696374290a20202020202020203a20646174612e67616d65526573756c742e766572646963743b0a0a20202020696620287665726469637420262620766572646963742e6f7574636f6d6529207b0a202020202020726573756c74537472696e67203d20766572646963742e6f7574636f6d653b0a202020207d0a20207d20636174636820286529207b0a202020207468726f77204572726f72282250617273696e67206661696c656422293b0a20207d0a7d0a636f6e737420726573756c74496e646578203d207061727365496e7428726573756c74537472696e672c203130293b0a72657475726e2046756e6374696f6e732e656e636f646555696e7432353628726573756c74496e646578293b0a64617267739f61306131613367504c415945523167504c41594552326444524157ff0000000000000000000000000000000000000000000000000000",
          "blockHash": "0xd149bb14fbb8df7953bc99d4dca9fa9e5b35c8c55f053b3761fde6bc5e92b3d9",
          "blockNumber": "0x2130a7a",
          "blockTimestamp": "0x693973d4",
          "transactionHash": "0x4452f20ba1bcc5d9e5f56a8b5e4017060e7dad32fdefb6018f3aa0037074fc3d",
          "transactionIndex": "0x18",
          "logIndex": "0x58",
          "removed": false
        },
        {
          "address": "0xdc1766074d0887a5f0bcf0ca869e14851f0ee111",
          "topics": [
            "0x1131472297a800fee664d1d89cfa8f7676ff07189ecc53f80bbb5f4969099db8",
            "0xc13a718e2383d88f59e8f7b771cc6d835649e0c9011f370ee67bf9486d4b8cc0"
          ],
          "data": "0x",
          "blockHash": "0xd149bb14fbb8df7953bc99d4dca9fa9e5b35c8c55f053b3761fde6bc5e92b3d9",
          "blockNumber": "0x2130a7a",
          "blockTimestamp": "0x693973d4",
          "transactionHash": "0x4452f20ba1bcc5d9e5f56a8b5e4017060e7dad32fdefb6018f3aa0037074fc3d",
          "transactionIndex": "0x18",
          "logIndex": "0x59",
          "removed": false
        },
        {
          "address": "0xdc1766074d0887a5f0bcf0ca869e14851f0ee111",
          "topics": [
            "0xafc68fb6d9692961a89752b00d97bd7f5f047f0f87984e2d539375e4e9f82ba1",
            "0xc13a718e2383d88f59e8f7b771cc6d835649e0c9011f370ee67bf9486d4b8cc0",
            "0x41c87d4dd49b28a37dbbf8b4bd83ad60916029238c62642a5645e5934ff2834d"
          ],
          "data": "0x00000000000000000000000000000000000000000000000000000000000000000000000000000000000000000000000000000000000000000000000000000001",
          "blockHash": "0xd149bb14fbb8df7953bc99d4dca9fa9e5b35c8c55f053b3761fde6bc5e92b3d9",
          "blockNumber": "0x2130a7a",
          "blockTimestamp": "0x693973d4",
          "transactionHash": "0x4452f20ba1bcc5d9e5f56a8b5e4017060e7dad32fdefb6018f3aa0037074fc3d",
          "transactionIndex": "0x18",
          "logIndex": "0x5a",
          "removed": false
        }
      ],
      "logsBloom": "0x0000800000000000a080000000004000000000800004000000000000000000000000000000000000000000000000000800000020000000010000000000040000000000000000000000000800000000000800000000040000000000140000120000040000020000000000000100000800000000008000002080008000000000000000000000000000000000000001000000000000000000000000001000000000000010000000400000000000000000000000100004000000000030000000000064000000800000000080000800000000000000000000020000000002000060000000000000000400000020000000000000000000100000000000000000200000",
      "type": "0x2",
      "transactionHash": "0x4452f20ba1bcc5d9e5f56a8b5e4017060e7dad32fdefb6018f3aa0037074fc3d",
      "transactionIndex": "0x18",
      "blockHash": "0xd149bb14fbb8df7953bc99d4dca9fa9e5b35c8c55f053b3761fde6bc5e92b3d9",
      "blockNumber": "0x2130a7a",
      "gasUsed": "0xc70af",
      "effectiveGasPrice": "0x124f80",
      "blobGasUsed": "0x79e0",
      "from": "0xf0830060f836b8d54bf02049e5905f619487989e",
      "to": "0xdc1766074d0887a5f0bcf0ca869e14851f0ee111",
      "contractAddress": null,
      "daFootprintGasScalar": "0x138",
      "l1BaseFeeScalar": "0x44d",
      "l1BlobBaseFee": "0x1",
      "l1BlobBaseFeeScalar": "0xa118b",
      "l1Fee": "0x51",
      "l1GasPrice": "0x9",
      "l1GasUsed": "0x640"
    }
  ],
  "libraries": [],
  "pending": [],
  "returns": {},
  "timestamp": 1765372884,
  "chain": 84532,
  "commit": "10bc000"
}