{
  "transactions": [
    {
      "hash": "0x02b2874f85464ca430770c0f28a2cbdf6849d11121e4c209bff3d5b6126a2859",
      "transactionType": "CALL",
      "contractName": null,
      "contractAddress": "0x8debb580891ac331102fb0cf8deeb8b57a999aef",
      "function": "createBet((uint8,string,string,string,string,address,bytes32,uint8,uint256,uint256,uint256,bool),(string,uint256)[])",
      "arguments": [
        "(0, Mock Bet - Player Match, Who will win? Player 1, Player 2, or Draw?, https://via.placeholder.com/150, https://www.example.com, 0xf0830060f836B8d54bF02049E5905F619487989e, 0x0000000000000000000000000000000000000000000000000000000000000000, 0, 1765321428, 1765321428, 86400, false)",
        "[(PLAYER1, 0), (PLAYER2, 0), (DRAW, 0)]"
      ],
      "transaction": {
        "from": "0xf0830060f836b8d54bf02049e5905f619487989e",
        "to": "0x8debb580891ac331102fb0cf8deeb8b57a999aef",
        "gas": "0xdfaae",
        "value": "0x0",
        "input": "0x9f5cc149000000000000000000000000000000000000000000000000000000000000004000000000000000000000000000000000000000000000000000000000000002e00000000000000000000000000000000000000000000000000000000000000000000000000000000000000000000000000000000000000000000000000000018000000000000000000000000000000000000000000000000000000000000001c000000000000000000000000000000000000000000000000000000000000002200000000000000000000000000000000000000000000000000000000000000260000000000000000000000000f0830060f836b8d54bf02049e5905f619487989e00000000000000000000000000000000000000000000000000000000000000000000000000000000000000000000000000000000000000000000000000000000000000000000000000000000000000000000000000000000000000006938aad4000000000000000000000000000000000000000000000000000000006938aad40000000000000000000000000000000000000000000000000000000000015180000000000000000000000000000000000000000000000000000000000000000000000000000000000000000000000000000000000000000000000000000000174d6f636b20426574202d20506c61796572204d61746368000000000000000000000000000000000000000000000000000000000000000000000000000000002a57686f2077696c6c2077696e3f20506c6179657220312c20506c6179657220322c206f7220447261773f00000000000000000000000000000000000000000000000000000000000000000000000000000000000000000000000000000000001f68747470733a2f2f7669612e706c616365686f6c6465722e636f6d2f31353000000000000000000000000000000000000000000000000000000000000000001768747470733a2f2f7777772e6578616d706c652e636f6d0000000000000000000000000000000000000000000000000000000000000000000000000000000003000000000000000000000000000000000000000000000000000000000000006000000000000000000000000000000000000000000000000000000000000000e00000000000000000000000000000000000000000000000000000000000000160000000000000000000000000000000000000000000000000000000000000004000000000000000000000000000000000000000000000000000000000000000000000000000000000000000000000000000000000000000000000000000000007504c415945523100000000000000000000000000000000000000000000000000000000000000000000000000000000000000000000000000000000000000004000000000000000000000000000000000000000000000000000000000000000000000000000000000000000000000000000000000000000000000000000000007504c4159455232000000000000000000000000000000000000000000000000000000000000000000000000000000000000000000000000000000000000000040000000000000000000000000000000000000000000000000000000000000000000000000000000000000000000000000000000000000000000000000000000044452415700000000000000000000000000000000000000000000000000000000",
        "nonce": "0x211",
        "chainId": "0x14a34"
      },
      "additionalContracts": [],
      "isFixedGasLimit": false
    },
    {
      "hash": "0xe93006ad33726857e8769330b6edaeb31d3c7a7faebc0b2adf9da23ebc6679aa",
      "transactionType": "CALL",
      "contractName": null,
      "contractAddress": "0x8debb580891ac331102fb0cf8deeb8b57a999aef",
      "function": "activateBet(uint256)",
      "arguments": [
        "1"
      ],
      "transaction": {
        "from": "0xf0830060f836b8d54bf02049e5905f619487989e",
        "to": "0x8debb580891ac331102fb0cf8deeb8b57a999aef",
        "gas": "0x11fdb",
        "value": "0x0",
        "input": "0x7638301e0000000000000000000000000000000000000000000000000000000000000001",
        "nonce": "0x212",
        "chainId": "0x14a34"
      },
      "additionalContracts": [],
      "isFixedGasLimit": false
    },
    {
      "hash": "0x249033564528d71649a58e34925adcfde3e0d0517f20cc616d2be40a1943a5ba",
      "transactionType": "CALL",
      "contractName": null,
      "contractAddress": "0x8debb580891ac331102fb0cf8deeb8b57a999aef",
      "function": "addUserToGroup(uint256,address,uint8)",
      "arguments": [
        "1",
        "0xf0830060f836B8d54bF02049E5905F619487989e",
        "1"
      ],
      "transaction": {
        "from": "0xf0830060f836b8d54bf02049e5905f619487989e",
        "to": "0x8debb580891ac331102fb0cf8deeb8b57a999aef",
        "gas": "0x1fa16",
        "value": "0x0",
        "input": "0x85383ad50000000000000000000000000000000000000000000000000000000000000001000000000000000000000000f0830060f836b8d54bf02049e5905f619487989e0000000000000000000000000000000000000000000000000000000000000001",
        "nonce": "0x213",
        "chainId": "0x14a34"
      },
      "additionalContracts": [],
      "isFixedGasLimit": false
    },
    {
      "hash": "0x032aff8c3c7098941765ecc8b8d122033a4e56905870fe84f39ce3196851e703",
      "transactionType": "CALL",
      "contractName": null,
      "contractAddress": "0x8debb580891ac331102fb0cf8deeb8b57a999aef",
      "function": "acceptInvitation(uint256)",
      "arguments": [
        "1"
      ],
      "transaction": {
        "from": "0xf0830060f836b8d54bf02049e5905f619487989e",
        "to": "0x8debb580891ac331102fb0cf8deeb8b57a999aef",
        "gas": "0x25b4a",
        "value": "0x0",
        "input": "0x464c5b6c0000000000000000000000000000000000000000000000000000000000000001",
        "nonce": "0x214",
        "chainId": "0x14a34"
      },
      "additionalContracts": [],
      "isFixedGasLimit": false
    },
    {
      "hash": "0x6b9f0643ea5f48c56c1701729a8d476f99db3c40efcf0d1b08e7c779edde6096",
      "transactionType": "CALL",
      "contractName": null,
      "contractAddress": "0x8debb580891ac331102fb0cf8deeb8b57a999aef",
      "function": "stake(uint256,bytes32)",
      "arguments": [
        "1",
        "0x097cdcb4e8215f7805608b09245ee8893d24e3c4f839daf28d3c4c3f8622ed0d"
      ],
      "transaction": {
        "from": "0xf0830060f836b8d54bf02049e5905f619487989e",
        "to": "0x8debb580891ac331102fb0cf8deeb8b57a999aef",
        "gas": "0x22ace",
        "value": "0x2540be400",
        "input": "0x83c592cf0000000000000000000000000000000000000000000000000000000000000001097cdcb4e8215f7805608b09245ee8893d24e3c4f839daf28d3c4c3f8622ed0d",
        "nonce": "0x215",
        "chainId": "0x14a34"
      },
      "additionalContracts": [],
      "isFixedGasLimit": false
    },
    {
      "hash": "0x580dd40728d7a1eaa43f048aea58fa7a54457e26c8808791f3690a34c77d151f",
      "transactionType": "CALL",
      "contractName": null,
      "contractAddress": "0x8debb580891ac331102fb0cf8deeb8b57a999aef",
      "function": "stake(uint256,bytes32)",
      "arguments": [
        "1",
        "0xb257067f98bfa3ff02b189a0bef100d7d2268b6dd0f0fbd564275696d10464af"
      ],
      "transaction": {
        "from": "0xf0830060f836b8d54bf02049e5905f619487989e",
        "to": "0x8debb580891ac331102fb0cf8deeb8b57a999aef",
        "gas": "0x1ce7a",
        "value": "0x2540be400",
        "input": "0x83c592cf0000000000000000000000000000000000000000000000000000000000000001b257067f98bfa3ff02b189a0bef100d7d2268b6dd0f0fbd564275696d10464af",
        "nonce": "0x216",
        "chainId": "0x14a34"
      },
      "additionalContracts": [],
      "isFixedGasLimit": false
    },
    {
      "hash": "0x1dfc04859c601a2ec98be225f8669a6c11b021242fc0bcc16503da57e1be2172",
      "transactionType": "CALL",
      "contractName": null,
      "contractAddress": "0x8debb580891ac331102fb0cf8deeb8b57a999aef",
      "function": "stake(uint256,bytes32)",
      "arguments": [
        "1",
        "0x1cf54708aaa392dbeba88d1a07e69feaba67586acd469366b89b52bf44132258"
      ],
      "transaction": {
        "from": "0xf0830060f836b8d54bf02049e5905f619487989e",
        "to": "0x8debb580891ac331102fb0cf8deeb8b57a999aef",
        "gas": "0x1ce8b",
        "value": "0x2540be400",
        "input": "0x83c592cf00000000000000000000000000000000000000000000000000000000000000011cf54708aaa392dbeba88d1a07e69feaba67586acd469366b89b52bf44132258",
        "nonce": "0x217",
        "chainId": "0x14a34"
      },
      "additionalContracts": [],
      "isFixedGasLimit": false
    },
    {
      "hash": "0x826ff912e3a20ed3a98ac52eb4103db0d3192c947daa5f53f507ea2912d5ebfe",
      "transactionType": "CALL",
      "contractName": null,
      "contractAddress": "0xb9976056ab31ccd5cd778183d7c4c4677b4e4713",
      "function": "requestResultWithChainlink(uint256,uint256,bytes)",
      "arguments": [
        "0",
        "1",
        "0x00000000000000000000000000000000000000000000000000000000000000000000000000000000000000000000000000000000000000000000000000000001"
      ],
      "transaction": {
        "from": "0xf0830060f836b8d54bf02049e5905f619487989e",
        "to": "0xb9976056ab31ccd5cd778183d7c4c4677b4e4713",
        "gas": "0x10004b",
        "value": "0x0",
        "input": "0x724b2f31000000000000000000000000000000000000000000000000000000000000000000000000000000000000000000000000000000000000000000000000000000010000000000000000000000000000000000000000000000000000000000000060000000000000000000000000000000000000000000000000000000000000004000000000000000000000000000000000000000000000000000000000000000000000000000000000000000000000000000000000000000000000000000000001",
        "nonce": "0x218",
        "chainId": "0x14a34"
      },
      "additionalContracts": [],
      "isFixedGasLimit": false
    }
  ],
  "receipts": [
    {
      "status": "0x1",
      "cumulativeGasUsed": "0xd2d6e",
      "logs": [
        {
          "address": "0x8debb580891ac331102fb0cf8deeb8b57a999aef",
          "topics": [
            "0xed91adb0136aed266b4ac6d8e00dca7d5c81a694ed7b1fe049820e94ab774b6b",
            "0x0000000000000000000000000000000000000000000000000000000000000001",
            "0x097cdcb4e8215f7805608b09245ee8893d24e3c4f839daf28d3c4c3f8622ed0d"
          ],
          "data": "0x00000000000000000000000000000000000000000000000000000000000000200000000000000000000000000000000000000000000000000000000000000007504c415945523100000000000000000000000000000000000000000000000000",
          "blockHash": "0x1f457a700caf6b7a08831626040511195424a2ee19ab6a4f632fdc30eaef2320",
          "blockNumber": "0x212a611",
          "blockTimestamp": "0x6938ab02",
          "transactionHash": "0x02b2874f85464ca430770c0f28a2cbdf6849d11121e4c209bff3d5b6126a2859",
          "transactionIndex": "0x4",
          "logIndex": "0x4",
          "removed": false
        },
        {
          "address": "0x8debb580891ac331102fb0cf8deeb8b57a999aef",
          "topics": [
            "0xed91adb0136aed266b4ac6d8e00dca7d5c81a694ed7b1fe049820e94ab774b6b",
            "0x0000000000000000000000000000000000000000000000000000000000000001",
            "0xb257067f98bfa3ff02b189a0bef100d7d2268b6dd0f0fbd564275696d10464af"
          ],
          "data": "0x00000000000000000000000000000000000000000000000000000000000000200000000000000000000000000000000000000000000000000000000000000007504c415945523200000000000000000000000000000000000000000000000000",
          "blockHash": "0x1f457a700caf6b7a08831626040511195424a2ee19ab6a4f632fdc30eaef2320",
          "blockNumber": "0x212a611",
          "blockTimestamp": "0x6938ab02",
          "transactionHash": "0x02b2874f85464ca430770c0f28a2cbdf6849d11121e4c209bff3d5b6126a2859",
          "transactionIndex": "0x4",
          "logIndex": "0x5",
          "removed": false
        },
        {
          "address": "0x8debb580891ac331102fb0cf8deeb8b57a999aef",
          "topics": [
            "0xed91adb0136aed266b4ac6d8e00dca7d5c81a694ed7b1fe049820e94ab774b6b",
            "0x0000000000000000000000000000000000000000000000000000000000000001",
            "0x1cf54708aaa392dbeba88d1a07e69feaba67586acd469366b89b52bf44132258"
          ],
          "data": "0x000000000000000000000000000000000000000000000000000000000000002000000000000000000000000000000000000000000000000000000000000000044452415700000000000000000000000000000000000000000000000000000000",
          "blockHash": "0x1f457a700caf6b7a08831626040511195424a2ee19ab6a4f632fdc30eaef2320",
          "blockNumber": "0x212a611",
          "blockTimestamp": "0x6938ab02",
          "transactionHash": "0x02b2874f85464ca430770c0f28a2cbdf6849d11121e4c209bff3d5b6126a2859",
          "transactionIndex": "0x4",
          "logIndex": "0x6",
          "removed": false
        },
        {
          "address": "0x8debb580891ac331102fb0cf8deeb8b57a999aef",
          "topics": [
            "0x8d0a28bca046bb7b061280953becbdf1c01cbded5f21c6cc573531a5f1516a8a",
            "0x0000000000000000000000000000000000000000000000000000000000000001"
          ],
          "data": "0x000000000000000000000000f0830060f836b8d54bf02049e5905f619487989e0000000000000000000000000000000000000000000000000000000000000000",
          "blockHash": "0x1f457a700caf6b7a08831626040511195424a2ee19ab6a4f632fdc30eaef2320",
          "blockNumber": "0x212a611",
          "blockTimestamp": "0x6938ab02",
          "transactionHash": "0x02b2874f85464ca430770c0f28a2cbdf6849d11121e4c209bff3d5b6126a2859",
          "transactionIndex": "0x4",
          "logIndex": "0x7",
          "removed": false
        },
        {
          "address": "0x8debb580891ac331102fb0cf8deeb8b57a999aef",
          "topics": [
            "0xd9ffda041dc5c373bdb4e785beba744359254aea124b9f766d03075d0545ea9a"
          ],
          "data": "0x000000000000000000000000000000000000000000000000000000000000000100000000000000000000000000000000000000000000000000000000000000a0000000000000000000000000f0830060f836b8d54bf02049e5905f619487989e000000000000000000000000000000000000000000000000000000000000034000000000000000000000000000000000000000000000000000000000000003a00000000000000000000000000000000000000000000000000000000000000000000000000000000000000000000000000000000000000000000000000000018000000000000000000000000000000000000000000000000000000000000001c000000000000000000000000000000000000000000000000000000000000002200000000000000000000000000000000000000000000000000000000000000260000000000000000000000000f0830060f836b8d54bf02049e5905f619487989e00000000000000000000000000000000000000000000000000000000000000000000000000000000000000000000000000000000000000000000000000000000000000000000000000000000000000000000000000000000000000006938aad4000000000000000000000000000000000000000000000000000000006938aad40000000000000000000000000000000000000000000000000000000000015180000000000000000000000000000000000000000000000000000000000000000000000000000000000000000000000000000000000000000000000000000000174d6f636b20426574202d20506c61796572204d61746368000000000000000000000000000000000000000000000000000000000000000000000000000000002a57686f2077696c6c2077696e3f20506c6179657220312c20506c6179657220322c206f7220447261773f00000000000000000000000000000000000000000000000000000000000000000000000000000000000000000000000000000000001f68747470733a2f2f7669612e706c616365686f6c6465722e636f6d2f31353000000000000000000000000000000000000000000000000000000000000000001768747470733a2f2f7777772e6578616d706c652e636f6d00000000000000000000000000000000000000000000000000000000000000000000000000000000400000000000000000000000000000000000000000000000000000000000000001000000000000000000000000000000000000000000000000000000006938ab020000000000000000000000000000000000000000000000000000000000000003097cdcb4e8215f7805608b09245ee8893d24e3c4f839daf28d3c4c3f8622ed0db257067f98bfa3ff02b189a0bef100d7d2268b6dd0f0fbd564275696d10464af1cf54708aaa392dbeba88d1a07e69feaba67586acd469366b89b52bf44132258",
          "blockHash": "0x1f457a700caf6b7a08831626040511195424a2ee19ab6a4f632fdc30eaef2320",
          "blockNumber": "0x212a611",
          "blockTimestamp": "0x6938ab02",
          "transactionHash": "0x02b2874f85464ca430770c0f28a2cbdf6849d11121e4c209bff3d5b6126a2859",
          "transactionIndex": "0x4",
          "logIndex": "0x8",
          "removed": false
        }
      ],
      "logsBloom": "0x00000000000000800000000000000000000000020000000000000000000000000000000000000000000000000000000000000000010000000000000000040000000000000000000000000000000000000021000220040000000000000440000000000000000001000080000000000800000000000000000000000020000000000000000000000000000000000000000000000000000000000000000000001000000000000000000000000000000000008000000000000000000000000000000000000000000000000000000000000082400000000000000000000000000040000000000000000000000000000000000200000100000000000000000000000200",
      "type": "0x2",
      "transactionHash": "0x02b2874f85464ca430770c0f28a2cbdf6849d11121e4c209bff3d5b6126a2859",
      "transactionIndex": "0x4",
      "blockHash": "0x1f457a700caf6b7a08831626040511195424a2ee19ab6a4f632fdc30eaef2320",
      "blockNumber": "0x212a611",
      "gasUsed": "0xa1ee7",
      "effectiveGasPrice": "0x124f80",
      "blobGasUsed": "0x169f8",
      "from": "0xf0830060f836b8d54bf02049e5905f619487989e",
      "to": "0x8debb580891ac331102fb0cf8deeb8b57a999aef",
      "contractAddress": null,
      "daFootprintGasScalar": "0x138",
      "l1BaseFeeScalar": "0x44d",
      "l1BlobBaseFee": "0x1",
      "l1BlobBaseFeeScalar": "0xa118b",
      "l1Fee": "0x4e",
      "l1GasPrice": "0x7",
      "l1GasUsed": "0x129d"
    },
    {
      "status": "0x1",
      "cumulativeGasUsed": "0xdfdd6",
      "logs": [],
      "logsBloom": "0x00000000000000000000000000000000000000000000000000000000000000000000000000000000000000000000000000000000000000000000000000000000000000000000000000000000000000000000000000000000000000000000000000000000000000000000000000000000000000000000000000000000000000000000000000000000000000000000000000000000000000000000000000000000000000000000000000000000000000000000000000000000000000000000000000000000000000000000000000000000000000000000000000000000000000000000000000000000000000000000000000000000000000000000000000000000",
      "type": "0x2",
      "transactionHash": "0xe93006ad33726857e8769330b6edaeb31d3c7a7faebc0b2adf9da23ebc6679aa",
      "transactionIndex": "0x5",
      "blockHash": "0x1f457a700caf6b7a08831626040511195424a2ee19ab6a4f632fdc30eaef2320",
      "blockNumber": "0x212a611",
      "gasUsed": "0xd068",
      "effectiveGasPrice": "0x124f80",
      "blobGasUsed": "0x79e0",
      "from": "0xf0830060f836b8d54bf02049e5905f619487989e",
      "to": "0x8debb580891ac331102fb0cf8deeb8b57a999aef",
      "contractAddress": null,
      "daFootprintGasScalar": "0x138",
      "l1BaseFeeScalar": "0x44d",
      "l1BlobBaseFee": "0x1",
      "l1BlobBaseFeeScalar": "0xa118b",
      "l1Fee": "0x4e",
      "l1GasPrice": "0x7",
      "l1GasUsed": "0x640"
    },
    {
      "status": "0x1",
      "cumulativeGasUsed": "0xf57e1",
      "logs": [
        {
          "address": "0x8debb580891ac331102fb0cf8deeb8b57a999aef",
          "topics": [
            "0x8d0a28bca046bb7b061280953becbdf1c01cbded5f21c6cc573531a5f1516a8a",
            "0x0000000000000000000000000000000000000000000000000000000000000001"
          ],
          "data": "0x000000000000000000000000f0830060f836b8d54bf02049e5905f619487989e0000000000000000000000000000000000000000000000000000000000000001",
          "blockHash": "0x1f457a700caf6b7a08831626040511195424a2ee19ab6a4f632fdc30eaef2320",
          "blockNumber": "0x212a611",
          "blockTimestamp": "0x6938ab02",
          "transactionHash": "0x249033564528d71649a58e34925adcfde3e0d0517f20cc616d2be40a1943a5ba",
          "transactionIndex": "0x6",
          "logIndex": "0x9",
          "removed": false
        }
      ],
      "logsBloom": "0x00000000000000800000000000000000000000000000000000000000000000000000000000000000000000000000000000000000000000000000000000040000000000000000000000000000000000000021000000040000000000000040000000000000000000000000000000000000000000000000000000000000000000000000000000000000000000000000000000000000000000000000000000000000000000000000000000000000000000008000000000000000000000000000000000000000000000000000000000000000000000000000000000000000000040000000000000000000000000000000000200000000000000000000000000000000",
      "type": "0x2",
      "transactionHash": "0x249033564528d71649a58e34925adcfde3e0d0517f20cc616d2be40a1943a5ba",
      "transactionIndex": "0x6",
      "blockHash": "0x1f457a700caf6b7a08831626040511195424a2ee19ab6a4f632fdc30eaef2320",
      "blockNumber": "0x212a611",
      "gasUsed": "0x15a0b",
      "effectiveGasPrice": "0x124f80",
      "blobGasUsed": "0x79e0",
      "from": "0xf0830060f836b8d54bf02049e5905f619487989e",
      "to": "0x8debb580891ac331102fb0cf8deeb8b57a999aef",
      "contractAddress": null,
      "daFootprintGasScalar": "0x138",
      "l1BaseFeeScalar": "0x44d",
      "l1BlobBaseFee": "0x1",
      "l1BlobBaseFeeScalar": "0xa118b",
      "l1Fee": "0x4e",
      "l1GasPrice": "0x7",
      "l1GasUsed": "0x640"
    },
    {
      "status": "0x1",
      "cumulativeGasUsed": "0x10f463",
      "logs": [
        {
          "address": "0x8debb580891ac331102fb0cf8deeb8b57a999aef",
          "topics": [
            "0x9c980bf56be121fc68a81d95fabc5213737d3a63221832243b680166f4585ddd",
            "0x0000000000000000000000000000000000000000000000000000000000000001"
          ],
          "data": "0x000000000000000000000000f0830060f836b8d54bf02049e5905f619487989e",
          "blockHash": "0x1f457a700caf6b7a08831626040511195424a2ee19ab6a4f632fdc30eaef2320",
          "blockNumber": "0x212a611",
          "blockTimestamp": "0x6938ab02",
          "transactionHash": "0x032aff8c3c7098941765ecc8b8d122033a4e56905870fe84f39ce3196851e703",
          "transactionIndex": "0x7",
          "logIndex": "0xa",
          "removed": false
        }
      ],
      "logsBloom": "0x00000000000000000000000000000000000000000000000000000000000000000000000000000000000000000000000000000000000000000000000000040000000000000000000000000000000000000020000000040000000000000040000000000000000000000000000000000000000000000000000000000000000000000000000000000000000000000000000000000000000000000000000000000000008000000000000000000000000000000000000000000000000000000000000000000000000000000000000000000000000040000000000000000000000040000000000000000000000000000000000200004000000000000000000000000000",
      "type": "0x2",
      "transactionHash": "0x032aff8c3c7098941765ecc8b8d122033a4e56905870fe84f39ce3196851e703",
      "transactionIndex": "0x7",
      "blockHash": "0x1f457a700caf6b7a08831626040511195424a2ee19ab6a4f632fdc30eaef2320",
      "blockNumber": "0x212a611",
      "gasUsed": "0x19c82",
      "effectiveGasPrice": "0x124f80",
      "blobGasUsed": "0x79e0",
      "from": "0xf0830060f836b8d54bf02049e5905f619487989e",
      "to": "0x8debb580891ac331102fb0cf8deeb8b57a999aef",
      "contractAddress": null,
      "daFootprintGasScalar": "0x138",
      "l1BaseFeeScalar": "0x44d",
      "l1BlobBaseFee": "0x1",
      "l1BlobBaseFeeScalar": "0xa118b",
      "l1Fee": "0x4e",
      "l1GasPrice": "0x7",
      "l1GasUsed": "0x640"
    },
    {
      "status": "0x1",
      "cumulativeGasUsed": "0x12860f",
      "logs": [
        {
          "address": "0x8debb580891ac331102fb0cf8deeb8b57a999aef",
          "topics": [
            "0x03a01f0c89d0b1cc1e9eaf39ffcabd454922f25ed393de30e6c5c5bae211ca88",
            "0x0000000000000000000000000000000000000000000000000000000000000001",
            "0x097cdcb4e8215f7805608b09245ee8893d24e3c4f839daf28d3c4c3f8622ed0d"
          ],
          "data": "0x000000000000000000000000f0830060f836b8d54bf02049e5905f619487989e00000000000000000000000000000000000000000000000000000002540be400",
          "blockHash": "0x1f457a700caf6b7a08831626040511195424a2ee19ab6a4f632fdc30eaef2320",
          "blockNumber": "0x212a611",
          "blockTimestamp": "0x6938ab02",
          "transactionHash": "0x6b9f0643ea5f48c56c1701729a8d476f99db3c40efcf0d1b08e7c779edde6096",
          "transactionIndex": "0x8",
          "logIndex": "0xb",
          "removed": false
        }
      ],
      "logsBloom": "0x00000000000000000000000000000000000000000000000000000000000000000000000000000000000000000000000000000000010000000000000000040000000004000000000000000000000000000020000000040400000000000040000000000000000001000000000000000800000000000000000000000000000000008000000000000000000000000000000000000000000000000000000000000000000000000000000000000000000000000000000000000000000000000000000000000000000000000000000000000000000000000000000000000000000040000000000000000000000000000000000200000000000000000000000000000000",
      "type": "0x2",
      "transactionHash": "0x6b9f0643ea5f48c56c1701729a8d476f99db3c40efcf0d1b08e7c779edde6096",
      "transactionIndex": "0x8",
      "blockHash": "0x1f457a700caf6b7a08831626040511195424a2ee19ab6a4f632fdc30eaef2320",
      "blockNumber": "0x212a611",
      "gasUsed": "0x191ac",
      "effectiveGasPrice": "0x124f80",
      "blobGasUsed": "0x79e0",
      "from": "0xf0830060f836b8d54bf02049e5905f619487989e",
      "to": "0x8debb580891ac331102fb0cf8deeb8b57a999aef",
      "contractAddress": null,
      "daFootprintGasScalar": "0x138",
      "l1BaseFeeScalar": "0x44d",
      "l1BlobBaseFee": "0x1",
      "l1BlobBaseFeeScalar": "0xa118b",
      "l1Fee": "0x4e",
      "l1GasPrice": "0x7",
      "l1GasUsed": "0x640"
    },
    {
      "status": "0x1",
      "cumulativeGasUsed": "0x13d4e3",
      "logs": [
        {
          "address": "0x8debb580891ac331102fb0cf8deeb8b57a999aef",
          "topics": [
            "0x03a01f0c89d0b1cc1e9eaf39ffcabd454922f25ed393de30e6c5c5bae211ca88",
            "0x0000000000000000000000000000000000000000000000000000000000000001",
            "0xb257067f98bfa3ff02b189a0bef100d7d2268b6dd0f0fbd564275696d10464af"
          ],
          "data": "0x000000000000000000000000f0830060f836b8d54bf02049e5905f619487989e00000000000000000000000000000000000000000000000000000002540be400",
          "blockHash": "0x1f457a700caf6b7a08831626040511195424a2ee19ab6a4f632fdc30eaef2320",
          "blockNumber": "0x212a611",
          "blockTimestamp": "0x6938ab02",
          "transactionHash": "0x580dd40728d7a1eaa43f048aea58fa7a54457e26c8808791f3690a34c77d151f",
          "transactionIndex": "0x9",
          "logIndex": "0xc",
          "removed": false
        }
      ],
      "logsBloom": "0x00000000000000000000000000000000000000000000000000000000000000000000000000000000000000000000000000000000000000000000000000040000000004000000000000000000000000000020000000040400000000000040000000000000000000000000000000000000000000000000000000000000000000008000000000000000000000000000000000000000000000000000000000000000000000000000000000000000000000000000000000000000000000000000000000000000000000000000000000000080000000000000000000000000000040000000000000000000000000000000000200000100000000000000000000000200",
      "type": "0x2",
      "transactionHash": "0x580dd40728d7a1eaa43f048aea58fa7a54457e26c8808791f3690a34c77d151f",
      "transactionIndex": "0x9",
      "blockHash": "0x1f457a700caf6b7a08831626040511195424a2ee19ab6a4f632fdc30eaef2320",
      "blockNumber": "0x212a611",
      "gasUsed": "0x14ed4",
      "effectiveGasPrice": "0x124f80",
      "blobGasUsed": "0x79e0",
      "from": "0xf0830060f836b8d54bf02049e5905f619487989e",
      "to": "0x8debb580891ac331102fb0cf8deeb8b57a999aef",
      "contractAddress": null,
      "daFootprintGasScalar": "0x138",
      "l1BaseFeeScalar": "0x44d",
      "l1BlobBaseFee": "0x1",
      "l1BlobBaseFeeScalar": "0xa118b",
      "l1Fee": "0x4e",
      "l1GasPrice": "0x7",
      "l1GasUsed": "0x640"
    },
    {
      "status": "0x1",
      "cumulativeGasUsed": "0x1523c3",
      "logs": [
        {
          "address": "0x8debb580891ac331102fb0cf8deeb8b57a999aef",
          "topics": [
            "0x03a01f0c89d0b1cc1e9eaf39ffcabd454922f25ed393de30e6c5c5bae211ca88",
            "0x0000000000000000000000000000000000000000000000000000000000000001",
            "0x1cf54708aaa392dbeba88d1a07e69feaba67586acd469366b89b52bf44132258"
          ],
          "data": "0x000000000000000000000000f0830060f836b8d54bf02049e5905f619487989e00000000000000000000000000000000000000000000000000000002540be400",
          "blockHash": "0x1f457a700caf6b7a08831626040511195424a2ee19ab6a4f632fdc30eaef2320",
          "blockNumber": "0x212a611",
          "blockTimestamp": "0x6938ab02",
          "transactionHash": "0x1dfc04859c601a2ec98be225f8669a6c11b021242fc0bcc16503da57e1be2172",
          "transactionIndex": "0xa",
          "logIndex": "0xd",
          "removed": false
        }
      ],
      "logsBloom": "0x00000000000000000000000000000000000000020000000000000000000000000000000000000000000000000000000000000000000000000000000000040000000004000000000000000000000000000020000020040400000000000040000000000000000000000000000000000000000000000000000000000000000000008000000000000000000000000000000000000000000000000000000000000000000000000000000000000000000000000000000000000000000000000000000000000000000000000000000000000002000000000000000000000000000040000000000000000000000000000000000200000000000000000000000000000000",
      "type": "0x2",
      "transactionHash": "0x1dfc04859c601a2ec98be225f8669a6c11b021242fc0bcc16503da57e1be2172",
      "transactionIndex": "0xa",
      "blockHash": "0x1f457a700caf6b7a08831626040511195424a2ee19ab6a4f632fdc30eaef2320",
      "blockNumber": "0x212a611",
      "gasUsed": "0x14ee0",
      "effectiveGasPrice": "0x124f80",
      "blobGasUsed": "0x79e0",
      "from": "0xf0830060f836b8d54bf02049e5905f619487989e",
      "to": "0x8debb580891ac331102fb0cf8deeb8b57a999aef",
      "contractAddress": null,
      "daFootprintGasScalar": "0x138",
      "l1BaseFeeScalar": "0x44d",
      "l1BlobBaseFee": "0x1",
      "l1BlobBaseFeeScalar": "0xa118b",
      "l1Fee": "0x4e",
      "l1GasPrice": "0x7",
      "l1GasUsed": "0x640"
    },
    {
      "status": "0x1",
      "cumulativeGasUsed": "0x2843f7",
      "logs": [
        {
          "address": "0x671b29b7b489d4b6151dd617b5150873847e19c3",
          "topics": [
            "0x2df02ae6a81a2be4debcd95cdc943879a0ddfd7edef8268628578ec32e3e61e5",
            "0x869d2f475200f1b2572bfc7b532a2ce25db2d45f23064f389c98908b99af37ac",
            "0x0000000000000000000000000000000000000000000000000000000000000000",
            "0x0000000000000000000000000000000000000000000000000000000000000001"
          ],
          "data": "0x000000000000000000000000b9976056ab31ccd5cd778183d7c4c4677b4e47130000000000000000000000000000000000000000000000000000000000000040000000000000000000000000000000000000000000000000000000000000004000000000000000000000000000000000000000000000000000000000000000000000000000000000000000000000000000000000000000000000000000000001",
          "blockHash": "0x1f457a700caf6b7a08831626040511195424a2ee19ab6a4f632fdc30eaef2320",
          "blockNumber": "0x212a611",
          "blockTimestamp": "0x6938ab02",
          "transactionHash": "0x826ff912e3a20ed3a98ac52eb4103db0d3192c947daa5f53f507ea2912d5ebfe",
          "transactionIndex": "0xc",
          "logIndex": "0x18",
          "removed": false
        },
        {
          "address": "0xfac44c030703b25911df1627824ad7303e78d491",
          "topics": [
            "0xbf50768ccf13bd0110ca6d53a9c4f1f3271abdd4c24a56878863ed25b20598ff",
            "0x2386f5b3642ca420b34b000d20d4408e2068c2be4055a3b3fe1d53595731c4c1",
            "0x000000000000000000000000b9976056ab31ccd5cd778183d7c4c4677b4e4713"
          ],
          "data": "0x000000000000000000000000f0830060f836b8d54bf02049e5905f619487989e0000000000000000000000000000000000000000000000000000000000000212000000000000000000000000f0830060f836b8d54bf02049e5905f619487989e00000000000000000000000000000000000000000000000000000000000002400000000000000000000000000000000000000000000000000000000000000001000000000000000000000000000000000000000000000000000000000000000000000000000000000000000000000000000000000000000000000000000493e02386f5b3642ca420b34b000d20d4408e2068c2be4055a3b3fe1d53595731c4c1000000000000000000000000fac44c030703b25911df1627824ad7303e78d4910000000000000000000000000000000000000000000000000b5457b975f5a5b0000000000000000000000000b9976056ab31ccd5cd778183d7c4c4677b4e4713000000000000000000000000000000000000000000000000000000000000021200000000000000000000000000000000000000000000000000000000000493e0000000000000000000000000000000000000000000000000030de3e55f8328a800000000000000000000000000000000000000000000000000000000000000000000000000000000000000000000000000000000000000000000000000027eac000000000000000000000000000000000000000000000000000000000000dea8000000000000000000000000000000000000000000000000000000006938ac2e00000000000000000000000000000000000000000000000000000000000004c56c636f64654c6f636174696f6ec258200000000000000000000000000000000000000000000000000000000000000000686c616e6775616765c25820000000000000000000000000000000000000000000000000000000000000000066736f757263657904542f2f20546869732066756e6374696f6e20676574732062657420726573756c74732066726f6d207468652065787465726e616c204150492e0a2f2f2049742074616b65732067616d65496420616e6420626574496420617320617267756d656e747320616e642072657475726e732074686520726573756c7420696e6465782e0a0a2f2f20476574207468652067616d65496420616e642062657449642066726f6d20617267730a2f2f20617267735b305d203d2067616d6549642c20617267735b315d203d2062657449640a636f6e73742067616d654964203d20617267735b305d3b0a636f6e7374206265744964203d20617267735b315d3b0a0a2f2f20436f6e73747275637420746865204150492055524c0a636f6e73742061706955726c203d206068747470733a2f2f6f7261636c652d73696c6b2e76657263656c2e6170702f6170692f726573756c74732f247b67616d6549647d603b0a0a2f2f204578656375746520746865204150492072657175657374202850726f6d697365290a636f6e737420617069526573706f6e7365203d2061776169742046756e6374696f6e732e6d616b654874747052657175657374287b0a202075726c3a2061706955726c0a7d293b0a0a69662028617069526573706f6e73652e6572726f7229207b0a2020636f6e736f6c652e6572726f7228617069526573706f6e73652e6572726f72293b0a20207468726f77204572726f72282252657175657374206661696c656422293b0a7d0a0a636f6e7374207b2064617461207d203d20617069526573706f6e73653b0a0a636f6e736f6c652e6c6f67282741504920726573706f6e736520646174613a272c204a534f4e2e737472696e6769667928646174612c206e756c6c2c203229293b0a0a2f2f2050617273652074686520726573706f6e736520746f206765742074686520726573756c740a6c657420726573756c74537472696e673b0a0a69662028646174612e726573756c7429207b0a2020726573756c74537472696e67203d20646174612e726573756c743b0a7d20656c73652069662028646174612e726573756c74496e64657820213d3d20756e646566696e656429207b0a2020726573756c74537472696e67203d20537472696e6728646174612e726573756c74496e646578293b0a7d20656c73652069662028646174612e7665726469637429207b0a2020726573756c74537472696e67203d20646174612e766572646963743b0a7d20656c7365207b0a2020726573756c74537472696e67203d20646174612e726573756c74207c7c20646174612e76657264696374207c7c20226f6e65223b0a7d0a0a636f6e736f6c652e6c6f67282750617273656420726573756c743a272c20726573756c74537472696e67293b0a0a2f2f2052657475726e2074686520726573756c7420617320616e20656e636f64656420737472696e670a72657475726e2046756e6374696f6e732e656e636f6465537472696e6728726573756c74537472696e67293b64617267739f61306131ff000000000000000000000000000000000000000000000000000000",
          "blockHash": "0x1f457a700caf6b7a08831626040511195424a2ee19ab6a4f632fdc30eaef2320",
          "blockNumber": "0x212a611",
          "blockTimestamp": "0x6938ab02",
          "transactionHash": "0x826ff912e3a20ed3a98ac52eb4103db0d3192c947daa5f53f507ea2912d5ebfe",
          "transactionIndex": "0xc",
          "logIndex": "0x19",
          "removed": false
        },
        {
          "address": "0xf9b8fc078197181c841c296c876945aaa425b278",
          "topics": [
            "0xf67aec45c9a7ede407974a3e0c3a743dffeab99ee3f2d4c9a8144c2ebf2c7ec9",
            "0x2386f5b3642ca420b34b000d20d4408e2068c2be4055a3b3fe1d53595731c4c1",
            "0x66756e2d626173652d7365706f6c69612d310000000000000000000000000000",
            "0x0000000000000000000000000000000000000000000000000000000000000212"
          ],
          "data": "0x000000000000000000000000f0830060f836b8d54bf02049e5905f619487989e000000000000000000000000b9976056ab31ccd5cd778183d7c4c4677b4e4713000000000000000000000000f0830060f836b8d54bf02049e5905f619487989e00000000000000000000000000000000000000000000000000000000000000e0000000000000000000000000000000000000000000000000000000000000000100000000000000000000000000000000000000000000000000000000000493e00000000000000000000000000000000000000000000000000b5457b975f5a5b000000000000000000000000000000000000000000000000000000000000004c56c636f64654c6f636174696f6ec258200000000000000000000000000000000000000000000000000000000000000000686c616e6775616765c25820000000000000000000000000000000000000000000000000000000000000000066736f757263657904542f2f20546869732066756e6374696f6e20676574732062657420726573756c74732066726f6d207468652065787465726e616c204150492e0a2f2f2049742074616b65732067616d65496420616e6420626574496420617320617267756d656e747320616e642072657475726e732074686520726573756c7420696e6465782e0a0a2f2f20476574207468652067616d65496420616e642062657449642066726f6d20617267730a2f2f20617267735b305d203d2067616d6549642c20617267735b315d203d2062657449640a636f6e73742067616d654964203d20617267735b305d3b0a636f6e7374206265744964203d20617267735b315d3b0a0a2f2f20436f6e73747275637420746865204150492055524c0a636f6e73742061706955726c203d206068747470733a2f2f6f7261636c652d73696c6b2e76657263656c2e6170702f6170692f726573756c74732f247b67616d6549647d603b0a0a2f2f204578656375746520746865204150492072657175657374202850726f6d697365290a636f6e737420617069526573706f6e7365203d2061776169742046756e6374696f6e732e6d616b654874747052657175657374287b0a202075726c3a2061706955726c0a7d293b0a0a69662028617069526573706f6e73652e6572726f7229207b0a2020636f6e736f6c652e6572726f7228617069526573706f6e73652e6572726f72293b0a20207468726f77204572726f72282252657175657374206661696c656422293b0a7d0a0a636f6e7374207b2064617461207d203d20617069526573706f6e73653b0a0a636f6e736f6c652e6c6f67282741504920726573706f6e736520646174613a272c204a534f4e2e737472696e6769667928646174612c206e756c6c2c203229293b0a0a2f2f2050617273652074686520726573706f6e736520746f206765742074686520726573756c740a6c657420726573756c74537472696e673b0a0a69662028646174612e726573756c7429207b0a2020726573756c74537472696e67203d20646174612e726573756c743b0a7d20656c73652069662028646174612e726573756c74496e64657820213d3d20756e646566696e656429207b0a2020726573756c74537472696e67203d20537472696e6728646174612e726573756c74496e646578293b0a7d20656c73652069662028646174612e7665726469637429207b0a2020726573756c74537472696e67203d20646174612e766572646963743b0a7d20656c7365207b0a2020726573756c74537472696e67203d20646174612e726573756c74207c7c20646174612e76657264696374207c7c20226f6e65223b0a7d0a0a636f6e736f6c652e6c6f67282750617273656420726573756c743a272c20726573756c74537472696e67293b0a0a2f2f2052657475726e2074686520726573756c7420617320616e20656e636f64656420737472696e670a72657475726e2046756e6374696f6e732e656e636f6465537472696e6728726573756c74537472696e67293b64617267739f61306131ff000000000000000000000000000000000000000000000000000000",
          "blockHash": "0x1f457a700caf6b7a08831626040511195424a2ee19ab6a4f632fdc30eaef2320",
          "blockNumber": "0x212a611",
          "blockTimestamp": "0x6938ab02",
          "transactionHash": "0x826ff912e3a20ed3a98ac52eb4103db0d3192c947daa5f53f507ea2912d5ebfe",
          "transactionIndex": "0xc",
          "logIndex": "0x1a",
          "removed": false
        },
        {
          "address": "0xb9976056ab31ccd5cd778183d7c4c4677b4e4713",
          "topics": [
            "0x1131472297a800fee664d1d89cfa8f7676ff07189ecc53f80bbb5f4969099db8",
            "0x2386f5b3642ca420b34b000d20d4408e2068c2be4055a3b3fe1d53595731c4c1"
          ],
          "data": "0x",
          "blockHash": "0x1f457a700caf6b7a08831626040511195424a2ee19ab6a4f632fdc30eaef2320",
          "blockNumber": "0x212a611",
          "blockTimestamp": "0x6938ab02",
          "transactionHash": "0x826ff912e3a20ed3a98ac52eb4103db0d3192c947daa5f53f507ea2912d5ebfe",
          "transactionIndex": "0xc",
          "logIndex": "0x1b",
          "removed": false
        },
        {
          "address": "0xb9976056ab31ccd5cd778183d7c4c4677b4e4713",
          "topics": [
            "0xafc68fb6d9692961a89752b00d97bd7f5f047f0f87984e2d539375e4e9f82ba1",
            "0x2386f5b3642ca420b34b000d20d4408e2068c2be4055a3b3fe1d53595731c4c1",
            "0x869d2f475200f1b2572bfc7b532a2ce25db2d45f23064f389c98908b99af37ac"
          ],
          "data": "0x00000000000000000000000000000000000000000000000000000000000000000000000000000000000000000000000000000000000000000000000000000001",
          "blockHash": "0x1f457a700caf6b7a08831626040511195424a2ee19ab6a4f632fdc30eaef2320",
          "blockNumber": "0x212a611",
          "blockTimestamp": "0x6938ab02",
          "transactionHash": "0x826ff912e3a20ed3a98ac52eb4103db0d3192c947daa5f53f507ea2912d5ebfe",
          "transactionIndex": "0xc",
          "logIndex": "0x1c",
          "removed": false
        }
      ],
      "logsBloom": "0x00008000000000008080000000004000080000800004000000000000000000000000000000200000000000000000000000000000000000000000000000040000000000000000000000000800800000000800000000040000000000100000020000000000020000000000000000000800000000008001002080000000000000000000000010000400000000000000000000400000000000000000001100000000000000002000480000000000000000000000100004000000000030000000000044000000000000000080002800000000040000000000020010000002000060000000000000000400000000000000040000000000000000000000000000200000",
      "type": "0x2",
      "transactionHash": "0x826ff912e3a20ed3a98ac52eb4103db0d3192c947daa5f53f507ea2912d5ebfe",
      "transactionIndex": "0xc",
      "blockHash": "0x1f457a700caf6b7a08831626040511195424a2ee19ab6a4f632fdc30eaef2320",
      "blockNumber": "0x212a611",
      "gasUsed": "0xb95a5",
      "effectiveGasPrice": "0x124f80",
      "blobGasUsed": "0x79e0",
      "from": "0xf0830060f836b8d54bf02049e5905f619487989e",
      "to": "0xb9976056ab31ccd5cd778183d7c4c4677b4e4713",
      "contractAddress": null,
      "daFootprintGasScalar": "0x138",
      "l1BaseFeeScalar": "0x44d",
      "l1BlobBaseFee": "0x1",
      "l1BlobBaseFeeScalar": "0xa118b",
      "l1Fee": "0x4e",
      "l1GasPrice": "0x7",
      "l1GasUsed": "0x640"
    }
  ],
  "libraries": [],
  "pending": [],
  "returns": {},
  "timestamp": 1765321472,
  "chain": 84532,
  "commit": "10bc000"
}