{
  "transactions": [
    {
      "hash": null,
      "transactionType": "CALL",
      "contractName": null,
      "contractAddress": "0x32ab0f45d2f2039e5cf9259117ba82dd2dc8d2c0",
      "function": "createBet(((string,uint256)[],uint8,string,string,string,string,address,uint256,uint8,uint256,uint256,uint256,bool))",
      "arguments": [
        "([(Option 1, 0), (Option 2, 0)], 0, Test Bet, Test Description, https://via.placeholder.com/150, https://www.google.com, 0x9f7cF1d1F558E57ef88a59ac3D47214eF25B6A06, 0, 0, 1758163298, 1758163298, 86400, false)"
      ],
      "transaction": {
        "from": "0xf0830060f836b8d54bf02049e5905f619487989e",
        "to": "0x32ab0f45d2f2039e5cf9259117ba82dd2dc8d2c0",
        "gas": "0xb4da8",
        "value": "0x0",
        "input": "0x840413a6000000000000000000000000000000000000000000000000000000000000002000000000000000000000000000000000000000000000000000000000000001a0000000000000000000000000000000000000000000000000000000000000000000000000000000000000000000000000000000000000000000000000000003000000000000000000000000000000000000000000000000000000000000000340000000000000000000000000000000000000000000000000000000000000038000000000000000000000000000000000000000000000000000000000000003c00000000000000000000000009f7cf1d1f558e57ef88a59ac3d47214ef25b6a06000000000000000000000000000000000000000000000000000000000000000000000000000000000000000000000000000000000000000000000000000000000000000000000000000000000000000000000000000000000000000068cb71620000000000000000000000000000000000000000000000000000000068cb7162000000000000000000000000000000000000000000000000000000000001518000000000000000000000000000000000000000000000000000000000000000000000000000000000000000000000000000000000000000000000000000000002000000000000000000000000000000000000000000000000000000000000004000000000000000000000000000000000000000000000000000000000000000c00000000000000000000000000000000000000000000000000000000000000040000000000000000000000000000000000000000000000000000000000000000000000000000000000000000000000000000000000000000000000000000000084f7074696f6e20310000000000000000000000000000000000000000000000000000000000000000000000000000000000000000000000000000000000000040000000000000000000000000000000000000000000000000000000000000000000000000000000000000000000000000000000000000000000000000000000084f7074696f6e203200000000000000000000000000000000000000000000000000000000000000000000000000000000000000000000000000000000000000085465737420426574000000000000000000000000000000000000000000000000000000000000000000000000000000000000000000000000000000000000001054657374204465736372697074696f6e00000000000000000000000000000000000000000000000000000000000000000000000000000000000000000000001f68747470733a2f2f7669612e706c616365686f6c6465722e636f6d2f31353000000000000000000000000000000000000000000000000000000000000000001668747470733a2f2f7777772e676f6f676c652e636f6d00000000000000000000",
        "nonce": "0x184",
        "chainId": "0x14a34"
      },
      "additionalContracts": [],
      "isFixedGasLimit": false
    }
  ],
  "receipts": [],
  "libraries": [],
  "pending": [],
  "returns": {},
  "timestamp": 1758163333,
  "chain": 84532,
  "commit": "cdbbd7d"
}