{
  "transactions": [
    {
      "hash": "0x7c8304315a3fb4ea9489e1dde8b5ca84873dc0058fa576dc2281780e6ead8900",
      "transactionType": "CALL",
      "contractName": null,
      "contractAddress": "0x9c504c9e4fbc92a780aa35f2441821962581c646",
      "function": "approve(address,uint256)",
      "arguments": [
        "0xcf9f7B946779D7F960D4aB2C6764003EA43A7915",
        "115792089237316195423570985008687907853269984665640564039457584007913129639935"
      ],
      "transaction": {
        "from": "0xf0830060f836b8d54bf02049e5905f619487989e",
        "to": "0x9c504c9e4fbc92a780aa35f2441821962581c646",
        "gas": "0xf9ae",
        "value": "0x0",
        "input": "0x095ea7b3000000000000000000000000cf9f7b946779d7f960d4ab2c6764003ea43a7915ffffffffffffffffffffffffffffffffffffffffffffffffffffffffffffffff",
        "nonce": "0x5e",
        "chainId": "0xaa044c"
      },
      "additionalContracts": [],
      "isFixedGasLimit": false
    },
    {
      "hash": "0xa4db176b611d42c31ee44e05f1195809af30f0828cfc2937979805dd1f17d965",
      "transactionType": "CALL",
      "contractName": null,
      "contractAddress": "0xcf9f7b946779d7f960d4ab2c6764003ea43a7915",
      "function": "seedMarketLiquidity(bytes32,uint256)",
      "arguments": [
        "0x4ecccacd77f8878f09756b7ba771ac0518f578eea69b55e8b6e913877e669d90",
        "1000000"
      ],
      "transaction": {
        "from": "0xf0830060f836b8d54bf02049e5905f619487989e",
        "to": "0xcf9f7b946779d7f960d4ab2c6764003ea43a7915",
        "gas": "0x36eb6",
        "value": "0x0",
        "input": "0x765ee7dd4ecccacd77f8878f09756b7ba771ac0518f578eea69b55e8b6e913877e669d9000000000000000000000000000000000000000000000000000000000000f4240",
        "nonce": "0x5f",
        "chainId": "0xaa044c"
      },
      "additionalContracts": [],
      "isFixedGasLimit": false
    }
  ],
  "receipts": [
    {
      "status": "0x1",
      "cumulativeGasUsed": "0x40f80",
      "logs": [
        {
          "address": "0x9c504c9e4fbc92a780aa35f2441821962581c646",
          "topics": [
            "0x8c5be1e5ebec7d5bd14f71427d1e84f3dd0314c0f7b2291e5b200ac8c7c3b925",
            "0x000000000000000000000000f0830060f836b8d54bf02049e5905f619487989e",
            "0x000000000000000000000000cf9f7b946779d7f960d4ab2c6764003ea43a7915"
          ],
          "data": "0xffffffffffffffffffffffffffffffffffffffffffffffffffffffffffffffff",
          "blockHash": "0xf02aa39996ed025f71cd72e026f4884abc3d3beca6efedf09051052eb5e92973",
          "blockNumber": "0x13c3625",
          "blockTimestamp": "0x69bd33b9",
          "transactionHash": "0xa4db176b611d42c31ee44e05f1195809af30f0828cfc2937979805dd1f17d965",
          "transactionIndex": "0x2",
          "logIndex": "0x1",
          "removed": false
        }
      ],
      "logsBloom": "0x00000000000000000000000000100000000000000000000000000000000000000000000000000000000000000000000000000000000000000040000000200008000000000000000000000000000000000000000000000000000000000000000000000000000000000800000000000000000000004000000000000000000000000000000000000000000400000000000800000000000000000000000000000000020000000000000000000000000000000000000000000000000000000000000000000000000000000000000000000000000000000000000000000000000000000010000000004040000000000000000000000000000000000000000000000000",
      "type": "0x2",
      "transactionHash": "0xa4db176b611d42c31ee44e05f1195809af30f0828cfc2937979805dd1f17d965",
      "transactionIndex": "0x2",
      "blockHash": "0xf02aa39996ed025f71cd72e026f4884abc3d3beca6efedf09051052eb5e92973",
      "blockNumber": "0x13c3625",
      "gasUsed": "0xb4c4",
      "effectiveGasPrice": "0xba43b7401",
      "blobGasUsed": "0x64",
      "from": "0xf0830060f836b8d54bf02049e5905f619487989e",
      "to": "0x9c504c9e4fbc92a780aa35f2441821962581c646",
      "contractAddress": null,
      "daFootprintGasScalar": "0x1",
      "l1BaseFeeScalar": "0x0",
      "l1BlobBaseFee": "0x1",
      "l1BlobBaseFeeScalar": "0x0",
      "l1Fee": "0x0",
      "l1GasPrice": "0xa",
      "l1GasUsed": "0x640"
    },
    {
      "status": "0x1",
      "cumulativeGasUsed": "0x68bad",
      "logs": [
        {
          "address": "0x9c504c9e4fbc92a780aa35f2441821962581c646",
          "topics": [
            "0xddf252ad1be2c89b69c2b068fc378daa952ba7f163c4a11628f55a4df523b3ef",
            "0x000000000000000000000000f0830060f836b8d54bf02049e5905f619487989e",
            "0x000000000000000000000000cf9f7b946779d7f960d4ab2c6764003ea43a7915"
          ],
          "data": "0x00000000000000000000000000000000000000000000000000000000000f4240",
          "blockHash": "0xf02aa39996ed025f71cd72e026f4884abc3d3beca6efedf09051052eb5e92973",
          "blockNumber": "0x13c3625",
          "blockTimestamp": "0x69bd33b9",
          "transactionHash": "0x7c8304315a3fb4ea9489e1dde8b5ca84873dc0058fa576dc2281780e6ead8900",
          "transactionIndex": "0x3",
          "logIndex": "0x2",
          "removed": false
        },
        {
          "address": "0x9c504c9e4fbc92a780aa35f2441821962581c646",
          "topics": [
            "0x8c5be1e5ebec7d5bd14f71427d1e84f3dd0314c0f7b2291e5b200ac8c7c3b925",
            "0x000000000000000000000000cf9f7b946779d7f960d4ab2c6764003ea43a7915",
            "0x000000000000000000000000f5f7d334b1dc75c644816bea608b0af31f6450dc"
          ],
          "data": "0x00000000000000000000000000000000000000000000000000000000000f4240",
          "blockHash": "0xf02aa39996ed025f71cd72e026f4884abc3d3beca6efedf09051052eb5e92973",
          "blockNumber": "0x13c3625",
          "blockTimestamp": "0x69bd33b9",
          "transactionHash": "0x7c8304315a3fb4ea9489e1dde8b5ca84873dc0058fa576dc2281780e6ead8900",
          "transactionIndex": "0x3",
          "logIndex": "0x3",
          "removed": false
        },
        {
          "address": "0x9c504c9e4fbc92a780aa35f2441821962581c646",
          "topics": [
            "0xddf252ad1be2c89b69c2b068fc378daa952ba7f163c4a11628f55a4df523b3ef",
            "0x000000000000000000000000cf9f7b946779d7f960d4ab2c6764003ea43a7915",
            "0x000000000000000000000000f5f7d334b1dc75c644816bea608b0af31f6450dc"
          ],
          "data": "0x00000000000000000000000000000000000000000000000000000000000f4240",
          "blockHash": "0xf02aa39996ed025f71cd72e026f4884abc3d3beca6efedf09051052eb5e92973",
          "blockNumber": "0x13c3625",
          "blockTimestamp": "0x69bd33b9",
          "transactionHash": "0x7c8304315a3fb4ea9489e1dde8b5ca84873dc0058fa576dc2281780e6ead8900",
          "transactionIndex": "0x3",
          "logIndex": "0x4",
          "removed": false
        },
        {
          "address": "0xf5f7d334b1dc75c644816bea608b0af31f6450dc",
          "topics": [
            "0x4a39dc06d4c0dbc64b70af90fd698a233a518aa5d07e595d983b8c0526c8f7fb",
            "0x000000000000000000000000cf9f7b946779d7f960d4ab2c6764003ea43a7915",
            "0x0000000000000000000000000000000000000000000000000000000000000000",
            "0x000000000000000000000000cf9f7b946779d7f960d4ab2c6764003ea43a7915"
          ],
          "data": "0x000000000000000000000000000000000000000000000000000000000000004000000000000000000000000000000000000000000000000000000000000000a00000000000000000000000000000000000000000000000000000000000000002438646541389dae8b06f234d5de0277623de00803039088bbb7720fc59cc005c42ae8a76cf1f7b0530eedb5a5e8b51354dffabe0b82cb4c83755849431dcea70000000000000000000000000000000000000000000000000000000000000000200000000000000000000000000000000000000000000000000000000000f424000000000000000000000000000000000000000000000000000000000000f4240",
          "blockHash": "0xf02aa39996ed025f71cd72e026f4884abc3d3beca6efedf09051052eb5e92973",
          "blockNumber": "0x13c3625",
          "blockTimestamp": "0x69bd33b9",
          "transactionHash": "0x7c8304315a3fb4ea9489e1dde8b5ca84873dc0058fa576dc2281780e6ead8900",
          "transactionIndex": "0x3",
          "logIndex": "0x5",
          "removed": false
        },
        {
          "address": "0xf5f7d334b1dc75c644816bea608b0af31f6450dc",
          "topics": [
            "0x2e6bb91f8cbcda0c93623c54d0403a43514fabc40084ec96b6d5379a74786298",
            "0x000000000000000000000000cf9f7b946779d7f960d4ab2c6764003ea43a7915",
            "0x0000000000000000000000009c504c9e4fbc92a780aa35f2441821962581c646",
            "0x0000000000000000000000000000000000000000000000000000000000000000"
          ],
          "data": "0x6c6b7092f06416d72f145ebf6ac99f6b469e35c98655bc946fd91dc9141d9b67000000000000000000000000000000000000000000000000000000000000006000000000000000000000000000000000000000000000000000000000000f4240000000000000000000000000000000000000000000000000000000000000000200000000000000000000000000000000000000000000000000000000000000010000000000000000000000000000000000000000000000000000000000000002",
          "blockHash": "0xf02aa39996ed025f71cd72e026f4884abc3d3beca6efedf09051052eb5e92973",
          "blockNumber": "0x13c3625",
          "blockTimestamp": "0x69bd33b9",
          "transactionHash": "0x7c8304315a3fb4ea9489e1dde8b5ca84873dc0058fa576dc2281780e6ead8900",
          "transactionIndex": "0x3",
          "logIndex": "0x6",
          "removed": false
        },
        {
          "address": "0x9c504c9e4fbc92a780aa35f2441821962581c646",
          "topics": [
            "0x8c5be1e5ebec7d5bd14f71427d1e84f3dd0314c0f7b2291e5b200ac8c7c3b925",
            "0x000000000000000000000000cf9f7b946779d7f960d4ab2c6764003ea43a7915",
            "0x000000000000000000000000f5f7d334b1dc75c644816bea608b0af31f6450dc"
          ],
          "data": "0x0000000000000000000000000000000000000000000000000000000000000000",
          "blockHash": "0xf02aa39996ed025f71cd72e026f4884abc3d3beca6efedf09051052eb5e92973",
          "blockNumber": "0x13c3625",
          "blockTimestamp": "0x69bd33b9",
          "transactionHash": "0x7c8304315a3fb4ea9489e1dde8b5ca84873dc0058fa576dc2281780e6ead8900",
          "transactionIndex": "0x3",
          "logIndex": "0x7",
          "removed": false
        },
        {
          "address": "0xcf9f7b946779d7f960d4ab2c6764003ea43a7915",
          "topics": [
            "0xf404d92d2c3631ae4b9607df0145b2725ac6525c03ec0ee2ea64f4f4f4a30cc6",
            "0x4ecccacd77f8878f09756b7ba771ac0518f578eea69b55e8b6e913877e669d90"
          ],
          "data": "0x00000000000000000000000000000000000000000000000000000000000f4240",
          "blockHash": "0xf02aa39996ed025f71cd72e026f4884abc3d3beca6efedf09051052eb5e92973",
          "blockNumber": "0x13c3625",
          "blockTimestamp": "0x69bd33b9",
          "transactionHash": "0x7c8304315a3fb4ea9489e1dde8b5ca84873dc0058fa576dc2281780e6ead8900",
          "transactionIndex": "0x3",
          "logIndex": "0x8",
          "removed": false
        }
      ],
      "logsBloom": "0x00000000000000000000000010500000000000000000800000001000020000000000000000000000010080002000000000000000000000000040000000200008000000000000000000000008000000000000000000000000000000000200000000000000020000000801000000000800000000004800000000002010000000000200000000000004000400040000000800000000000000000000000008000000020000000000000000000000000000000000000200000000000000000400000000000002000000000000000000010000200400000400000000000000000020000010000000004040000000000000000000000000000000000000000002000200",
      "type": "0x2",
      "transactionHash": "0x7c8304315a3fb4ea9489e1dde8b5ca84873dc0058fa576dc2281780e6ead8900",
      "transactionIndex": "0x3",
      "blockHash": "0xf02aa39996ed025f71cd72e026f4884abc3d3beca6efedf09051052eb5e92973",
      "blockNumber": "0x13c3625",
      "gasUsed": "0x27c2d",
      "effectiveGasPrice": "0xba43b7401",
      "blobGasUsed": "0x64",
      "from": "0xf0830060f836b8d54bf02049e5905f619487989e",
      "to": "0xcf9f7b946779d7f960d4ab2c6764003ea43a7915",
      "contractAddress": null,
      "daFootprintGasScalar": "0x1",
      "l1BaseFeeScalar": "0x0",
      "l1BlobBaseFee": "0x1",
      "l1BlobBaseFeeScalar": "0x0",
      "l1Fee": "0x0",
      "l1GasPrice": "0xa",
      "l1GasUsed": "0x640"
    }
  ],
  "libraries": [],
  "pending": [],
  "returns": {},
  "timestamp": 1774007225429,
  "chain": 11142220,
  "commit": "7098885"
}