{
  "transactions": [
    {
      "hash": null,
      "transactionType": "CALL",
      "contractName": null,
      "contractAddress": "0xd6403378e4f729d6a143b131cc28e3698d510676",
      "function": "updateSubscriptionId(uint64)",
      "arguments": [
        "530"
      ],
      "transaction": {
        "from": "0xf0830060f836b8d54bf02049e5905f619487989e",
        "to": "0xd6403378e4f729d6a143b131cc28e3698d510676",
        "gas": "0x9803",
        "value": "0x0",
        "input": "0x14b1dd1b0000000000000000000000000000000000000000000000000000000000000212",
        "nonce": "0x1f8",
        "chainId": "0x14a34"
      },
      "additionalContracts": [],
      "isFixedGasLimit": false
    },
    {
      "hash": null,
      "transactionType": "CALL",
      "contractName": null,
      "contractAddress": "0xd6403378e4f729d6a143b131cc28e3698d510676",
      "function": "updateDonId(bytes32)",
      "arguments": [
        "0x66756e2d626173652d7365706f6c69612d310000000000000000000000000000"
      ],
      "transaction": {
        "from": "0xf0830060f836b8d54bf02049e5905f619487989e",
        "to": "0xd6403378e4f729d6a143b131cc28e3698d510676",
        "gas": "0xb265",
        "value": "0x0",
        "input": "0x6df0c74766756e2d626173652d7365706f6c69612d310000000000000000000000000000",
        "nonce": "0x1f9",
        "chainId": "0x14a34"
      },
      "additionalContracts": [],
      "isFixedGasLimit": false
    },
    {
      "hash": null,
      "transactionType": "CALL",
      "contractName": null,
      "contractAddress": "0xd6403378e4f729d6a143b131cc28e3698d510676",
      "function": "updateCallbackGasLimit(uint32)",
      "arguments": [
        "300000"
      ],
      "transaction": {
        "from": "0xf0830060f836b8d54bf02049e5905f619487989e",
        "to": "0xd6403378e4f729d6a143b131cc28e3698d510676",
        "gas": "0x993b",
        "value": "0x0",
        "input": "0xb0e8d08600000000000000000000000000000000000000000000000000000000000493e0",
        "nonce": "0x1fa",
        "chainId": "0x14a34"
      },
      "additionalContracts": [],
      "isFixedGasLimit": false
    }
  ],
  "receipts": [],
  "libraries": [],
  "pending": [],
  "returns": {},
  "timestamp": 1765317118,
  "chain": 84532,
  "commit": "58d83c2"
}