{
  "transactions": [
    {
      "hash": "0x8c74bd504af0076b3c3b896780b9e658557580a9ac23554faf86288fff13b075",
      "transactionType": "CALL",
      "contractName": null,
      "contractAddress": "0x0cf42e10759a6c5160fab2ece21866387e4ffaaa",
      "function": "setForwarderAddress(address)",
      "arguments": [
        "0x82300bd7c3958625581cc2F77bC6464dcEcDF3e5"
      ],
      "transaction": {
        "from": "0xf0830060f836b8d54bf02049e5905f619487989e",
        "to": "0x0cf42e10759a6c5160fab2ece21866387e4ffaaa",
        "gas": "0xb3a6",
        "value": "0x0",
        "input": "0xd777cc6d00000000000000000000000082300bd7c3958625581cc2f77bc6464dcecdf3e5",
        "nonce": "0x4f7",
        "chainId": "0x14a34"
      },
      "additionalContracts": [],
      "isFixedGasLimit": false
    },
    {
      "hash": "0xd12eb17c333dfd71004c8297590417126874a929541b91f15d72934c6ab96f8d",
      "transactionType": "CALL",
      "contractName": null,
      "contractAddress": "0x0cf42e10759a6c5160fab2ece21866387e4ffaaa",
      "function": "setExpectedAuthor(address)",
      "arguments": [
        "0xf0830060f836B8d54bF02049E5905F619487989e"
      ],
      "transaction": {
        "from": "0xf0830060f836b8d54bf02049e5905f619487989e",
        "to": "0x0cf42e10759a6c5160fab2ece21866387e4ffaaa",
        "gas": "0xb363",
        "value": "0x0",
        "input": "0xd60c884b000000000000000000000000f0830060f836b8d54bf02049e5905f619487989e",
        "nonce": "0x4f8",
        "chainId": "0x14a34"
      },
      "additionalContracts": [],
      "isFixedGasLimit": false
    },
    {
      "hash": "0x3cf55da0432f4de14a0b2b1d9732ed53cd33a5cc2ab17779a75f6d629251e088",
      "transactionType": "CALL",
      "contractName": null,
      "contractAddress": "0x0cf42e10759a6c5160fab2ece21866387e4ffaaa",
      "function": "setExpectedWorkflowName(string)",
      "arguments": [
        "sub0cre"
      ],
      "transaction": {
        "from": "0xf0830060f836b8d54bf02049e5905f619487989e",
        "to": "0x0cf42e10759a6c5160fab2ece21866387e4ffaaa",
        "gas": "0x1af12",
        "value": "0x0",
        "input": "0xbc1fc27a000000000000000000000000000000000000000000000000000000000000002000000000000000000000000000000000000000000000000000000000000000077375623063726500000000000000000000000000000000000000000000000000",
        "nonce": "0x4f9",
        "chainId": "0x14a34"
      },
      "additionalContracts": [],
      "isFixedGasLimit": false
    },
    {
      "hash": "0xe90fb1b0aa4e9e6cd056b06d91ab3286758c93aa42b7c044288ceb8b540d2a46",
      "transactionType": "CALL",
      "contractName": null,
      "contractAddress": "0x0cf42e10759a6c5160fab2ece21866387e4ffaaa",
      "function": "setExpectedWorkflowId(bytes32)",
      "arguments": [
        "0x0000000000000000000000000000000000000000000000000000000000000000"
      ],
      "transaction": {
        "from": "0xf0830060f836b8d54bf02049e5905f619487989e",
        "to": "0x0cf42e10759a6c5160fab2ece21866387e4ffaaa",
        "gas": "0xa62b",
        "value": "0x0",
        "input": "0xc3c44ac20000000000000000000000000000000000000000000000000000000000000000",
        "nonce": "0x4fa",
        "chainId": "0x14a34"
      },
      "additionalContracts": [],
      "isFixedGasLimit": false
    }
  ],
  "receipts": [
    {
      "status": "0x1",
      "cumulativeGasUsed": "0x40337",
      "logs": [
        {
          "address": "0x0cf42e10759a6c5160fab2ece21866387e4ffaaa",
          "topics": [
            "0x039ad854736757070884dd787ef1a7f58db33546639d1f3efddcf4a33fb8997e",
            "0x00000000000000000000000082300bd7c3958625581cc2f77bc6464dcecdf3e5",
            "0x00000000000000000000000082300bd7c3958625581cc2f77bc6464dcecdf3e5"
          ],
          "data": "0x",
          "blockHash": "0x0000000000000000000000000000000000000000000000000000000000000000",
          "blockNumber": "0x2457538",
          "blockTimestamp": "0x699e4950",
          "transactionHash": "0x8c74bd504af0076b3c3b896780b9e658557580a9ac23554faf86288fff13b075",
          "transactionIndex": "0x7",
          "logIndex": "0x3",
          "removed": false
        }
      ],
      "logsBloom": "0x00000000000020000000000000000000000000000000000002000000002000000000200000000000000000000000000000000000000000000000000000000000000000000000000000000000000000000400000000000000000000000000000000000000000000000000000000000000000000000000000000000000000000000000000000000000000000000000000010000000000000000000000000000000000000000000000000000000000000000000000000000000000000000000000000000000000000000000000000000000000000000000000000000000000000000000000000000000000000000000000000800000000000000000000000088000",
      "type": "0x2",
      "transactionHash": "0x8c74bd504af0076b3c3b896780b9e658557580a9ac23554faf86288fff13b075",
      "transactionIndex": "0x7",
      "blockHash": "0x0000000000000000000000000000000000000000000000000000000000000000",
      "blockNumber": "0x2457538",
      "gasUsed": "0x8210",
      "effectiveGasPrice": "0x5b8d80",
      "blobGasUsed": "0x364c",
      "from": "0xf0830060f836b8d54bf02049e5905f619487989e",
      "to": "0x0cf42e10759a6c5160fab2ece21866387e4ffaaa",
      "contractAddress": null,
      "daFootprintGasScalar": "0x8b",
      "l1BaseFeeScalar": "0x44d",
      "l1BlobBaseFee": "0x1",
      "l1BlobBaseFeeScalar": "0xa118b",
      "l1Fee": "0x5a",
      "l1GasPrice": "0xe",
      "l1GasUsed": "0x640"
    },
    {
      "status": "0x1",
      "cumulativeGasUsed": "0x48517",
      "logs": [
        {
          "address": "0x0cf42e10759a6c5160fab2ece21866387e4ffaaa",
          "topics": [
            "0x3321cda85c145617e47418aa14255e9dcbec53a753778e57591703b89a3cad31",
            "0x000000000000000000000000f0830060f836b8d54bf02049e5905f619487989e",
            "0x000000000000000000000000f0830060f836b8d54bf02049e5905f619487989e"
          ],
          "data": "0x",
          "blockHash": "0x0000000000000000000000000000000000000000000000000000000000000000",
          "blockNumber": "0x2457538",
          "blockTimestamp": "0x699e4950",
          "transactionHash": "0xd12eb17c333dfd71004c8297590417126874a929541b91f15d72934c6ab96f8d",
          "transactionIndex": "0x8",
          "logIndex": "0x4",
          "removed": false
        }
      ],
      "logsBloom": "0x00000000000000000000000000000000000000000000000000000000000000000000000000000000000000000000000000000000000000000000000000000008000000000000000000000000000000000000000000000000000000000000000000000000000001000000000000000000000000000000000000000000000000000000000000000000000400000000000810000000000000000000000000000000000000000000000000000000000000000000001000000000000000000000000000000000000000000000000000000020000000000000000000000000000000000000000000000000000000000000000000800000000000000000000000008000",
      "type": "0x2",
      "transactionHash": "0xd12eb17c333dfd71004c8297590417126874a929541b91f15d72934c6ab96f8d",
      "transactionIndex": "0x8",
      "blockHash": "0x0000000000000000000000000000000000000000000000000000000000000000",
      "blockNumber": "0x2457538",
      "gasUsed": "0x81e0",
      "effectiveGasPrice": "0x5b8d80",
      "blobGasUsed": "0x364c",
      "from": "0xf0830060f836b8d54bf02049e5905f619487989e",
      "to": "0x0cf42e10759a6c5160fab2ece21866387e4ffaaa",
      "contractAddress": null,
      "daFootprintGasScalar": "0x8b",
      "l1BaseFeeScalar": "0x44d",
      "l1BlobBaseFee": "0x1",
      "l1BlobBaseFeeScalar": "0xa118b",
      "l1Fee": "0x5a",
      "l1GasPrice": "0xe",
      "l1GasUsed": "0x640"
    },
    {
      "status": "0x1",
      "cumulativeGasUsed": "0x5bd2e",
      "logs": [
        {
          "address": "0x0cf42e10759a6c5160fab2ece21866387e4ffaaa",
          "topics": [
            "0x1e7ddd09d504c82dcfc784a464b167469f5aad967606ec4822d848ef9141dfa5",
            "0x6665613463326237303800000000000000000000000000000000000000000000",
            "0x6665613463326237303800000000000000000000000000000000000000000000"
          ],
          "data": "0x",
          "blockHash": "0x0000000000000000000000000000000000000000000000000000000000000000",
          "blockNumber": "0x2457538",
          "blockTimestamp": "0x699e4950",
          "transactionHash": "0x3cf55da0432f4de14a0b2b1d9732ed53cd33a5cc2ab17779a75f6d629251e088",
          "transactionIndex": "0x9",
          "logIndex": "0x5",
          "removed": false
        }
      ],
      "logsBloom": "0x00000000000000000000000004000000000000000000000000000000000000000000000000000000000020000000000000000000000000000000000000000000000000000000000000000000000000000000000000000000000000000000000000000000000000000000000000000000000000000000000000000000000000000000000000000000000000000000000010000000000000000000000000000000020000000000000000000000000000000000020000000000000000000000000000000000000000000000000000000000000000000004000000000000000000000000000000000000000000000002000000800000000000000000000000008000",
      "type": "0x2",
      "transactionHash": "0x3cf55da0432f4de14a0b2b1d9732ed53cd33a5cc2ab17779a75f6d629251e088",
      "transactionIndex": "0x9",
      "blockHash": "0x0000000000000000000000000000000000000000000000000000000000000000",
      "blockNumber": "0x2457538",
      "gasUsed": "0x13817",
      "effectiveGasPrice": "0x5b8d80",
      "blobGasUsed": "0x364c",
      "from": "0xf0830060f836b8d54bf02049e5905f619487989e",
      "to": "0x0cf42e10759a6c5160fab2ece21866387e4ffaaa",
      "contractAddress": null,
      "daFootprintGasScalar": "0x8b",
      "l1BaseFeeScalar": "0x44d",
      "l1BlobBaseFee": "0x1",
      "l1BlobBaseFeeScalar": "0xa118b",
      "l1Fee": "0x5a",
      "l1GasPrice": "0xe",
      "l1GasUsed": "0x640"
    },
    {
      "status": "0x1",
      "cumulativeGasUsed": "0x6357d",
      "logs": [
        {
          "address": "0x0cf42e10759a6c5160fab2ece21866387e4ffaaa",
          "topics": [
            "0x0dbedcdf21925e053b4c574eae180d7f2883235ab4976ecc0873598a2a999b03",
            "0x53c4d9706f3a5dcadbc3fc7fcf02115f13ff1b5fd13e4035a92580fcac9cb3f5",
            "0x0000000000000000000000000000000000000000000000000000000000000000"
          ],
          "data": "0x",
          "blockHash": "0x0000000000000000000000000000000000000000000000000000000000000000",
          "blockNumber": "0x2457538",
          "blockTimestamp": "0x699e4950",
          "transactionHash": "0xe90fb1b0aa4e9e6cd056b06d91ab3286758c93aa42b7c044288ceb8b540d2a46",
          "transactionIndex": "0xa",
          "logIndex": "0x6",
          "removed": false
        }
      ],
      "logsBloom": "0x00000000000000000000000000000000000000000000000000000000000001000000000004000010000000000000000000000000000000000000000000000000000000000000000000000000000000000000000000000000000000000010000000000000020000000000000000000800000000000000000000000000000000000000000000000000000000000000000010000000000000000000000000000000000000000000000000000000001000000000000000000000000000000000000000000000000000000000000000000000008000000000000000000000000020000000000000000000000000000000000000800000000000000000000000008000",
      "type": "0x2",
      "transactionHash": "0xe90fb1b0aa4e9e6cd056b06d91ab3286758c93aa42b7c044288ceb8b540d2a46",
      "transactionIndex": "0xa",
      "blockHash": "0x0000000000000000000000000000000000000000000000000000000000000000",
      "blockNumber": "0x2457538",
      "gasUsed": "0x784f",
      "effectiveGasPrice": "0x5b8d80",
      "blobGasUsed": "0x364c",
      "from": "0xf0830060f836b8d54bf02049e5905f619487989e",
      "to": "0x0cf42e10759a6c5160fab2ece21866387e4ffaaa",
      "contractAddress": null,
      "daFootprintGasScalar": "0x8b",
      "l1BaseFeeScalar": "0x44d",
      "l1BlobBaseFee": "0x1",
      "l1BlobBaseFeeScalar": "0xa118b",
      "l1Fee": "0x5a",
      "l1GasPrice": "0xe",
      "l1GasUsed": "0x640"
    }
  ],
  "libraries": [],
  "pending": [],
  "returns": {},
  "timestamp": 1771981134,
  "chain": 84532,
  "commit": "e707bc8"
}