{
  "transactions": [
    {
      "hash": "0x2fbd6f154ffd0d9148d5d104c5dc18a1c6639ed040bc39d39ab9cba07c849103",
      "transactionType": "CALL",
      "contractName": null,
      "contractAddress": "0x0cf42e10759a6c5160fab2ece21866387e4ffaaa",
      "function": "setForwarderAddress(address)",
      "arguments": [
        "0x82300bd7c3958625581cc2F77bC6464dcEcDF3e5"
      ],
      "transaction": {
        "from": "0xf0830060f836b8d54bf02049e5905f619487989e",
        "to": "0x0cf42e10759a6c5160fab2ece21866387e4ffaaa",
        "gas": "0xb3a6",
        "value": "0x0",
        "input": "0xd777cc6d00000000000000000000000082300bd7c3958625581cc2f77bc6464dcecdf3e5",
        "nonce": "0x4fc",
        "chainId": "0x14a34"
      },
      "additionalContracts": [],
      "isFixedGasLimit": false
    },
    {
      "hash": "0xc3059c5eac39a540fa9b85cdbbac59e76d39f8822a27456c24cd6bf69cb0b2b2",
      "transactionType": "CALL",
      "contractName": null,
      "contractAddress": "0x0cf42e10759a6c5160fab2ece21866387e4ffaaa",
      "function": "setExpectedAuthor(address)",
      "arguments": [
        "0x0000000000000000000000000000000000000000"
      ],
      "transaction": {
        "from": "0xf0830060f836b8d54bf02049e5905f619487989e",
        "to": "0x0cf42e10759a6c5160fab2ece21866387e4ffaaa",
        "gas": "0xc143",
        "value": "0x0",
        "input": "0xd60c884b0000000000000000000000000000000000000000000000000000000000000000",
        "nonce": "0x4fd",
        "chainId": "0x14a34"
      },
      "additionalContracts": [],
      "isFixedGasLimit": false
    },
    {
      "hash": "0x960dda0228fda53be81a439cce698ff9ae0a88b46299b4e0c2a35d0538f1ab06",
      "transactionType": "CALL",
      "contractName": null,
      "contractAddress": "0x0cf42e10759a6c5160fab2ece21866387e4ffaaa",
      "function": "setExpectedWorkflowName(string)",
      "arguments": [
        ""
      ],
      "transaction": {
        "from": "0xf0830060f836b8d54bf02049e5905f619487989e",
        "to": "0x0cf42e10759a6c5160fab2ece21866387e4ffaaa",
        "gas": "0xb2f0",
        "value": "0x0",
        "input": "0xbc1fc27a00000000000000000000000000000000000000000000000000000000000000200000000000000000000000000000000000000000000000000000000000000000",
        "nonce": "0x4fe",
        "chainId": "0x14a34"
      },
      "additionalContracts": [],
      "isFixedGasLimit": false
    },
    {
      "hash": "0xd08dacbf78998a3754d9d08326f363e9fb1c051bfff2346594c7e63a857c18ba",
      "transactionType": "CALL",
      "contractName": null,
      "contractAddress": "0x0cf42e10759a6c5160fab2ece21866387e4ffaaa",
      "function": "setExpectedWorkflowId(bytes32)",
      "arguments": [
        "0x0000000000000000000000000000000000000000000000000000000000000000"
      ],
      "transaction": {
        "from": "0xf0830060f836b8d54bf02049e5905f619487989e",
        "to": "0x0cf42e10759a6c5160fab2ece21866387e4ffaaa",
        "gas": "0xb0f6",
        "value": "0x0",
        "input": "0xc3c44ac20000000000000000000000000000000000000000000000000000000000000000",
        "nonce": "0x4ff",
        "chainId": "0x14a34"
      },
      "additionalContracts": [],
      "isFixedGasLimit": false
    }
  ],
  "receipts": [
    {
      "status": "0x1",
      "cumulativeGasUsed": "0x2add19",
      "logs": [
        {
          "address": "0x0cf42e10759a6c5160fab2ece21866387e4ffaaa",
          "topics": [
            "0x039ad854736757070884dd787ef1a7f58db33546639d1f3efddcf4a33fb8997e",
            "0x00000000000000000000000082300bd7c3958625581cc2f77bc6464dcecdf3e5",
            "0x00000000000000000000000082300bd7c3958625581cc2f77bc6464dcecdf3e5"
          ],
          "data": "0x",
          "blockHash": "0x0000000000000000000000000000000000000000000000000000000000000000",
          "blockNumber": "0x24575b9",
          "blockTimestamp": "0x699e4a52",
          "transactionHash": "0x2fbd6f154ffd0d9148d5d104c5dc18a1c6639ed040bc39d39ab9cba07c849103",
          "transactionIndex": "0x12",
          "logIndex": "0x79",
          "removed": false
        }
      ],
      "logsBloom": "0x00000000000020000000000000000000000000000000000002000000002000000000200000000000000000000000000000000000000000000000000000000000000000000000000000000000000000000400000000000000000000000000000000000000000000000000000000000000000000000000000000000000000000000000000000000000000000000000000010000000000000000000000000000000000000000000000000000000000000000000000000000000000000000000000000000000000000000000000000000000000000000000000000000000000000000000000000000000000000000000000000800000000000000000000000088000",
      "type": "0x2",
      "transactionHash": "0x2fbd6f154ffd0d9148d5d104c5dc18a1c6639ed040bc39d39ab9cba07c849103",
      "transactionIndex": "0x12",
      "blockHash": "0x0000000000000000000000000000000000000000000000000000000000000000",
      "blockNumber": "0x24575b9",
      "gasUsed": "0x8210",
      "effectiveGasPrice": "0x5b8d80",
      "blobGasUsed": "0x364c",
      "from": "0xf0830060f836b8d54bf02049e5905f619487989e",
      "to": "0x0cf42e10759a6c5160fab2ece21866387e4ffaaa",
      "contractAddress": null,
      "daFootprintGasScalar": "0x8b",
      "l1BaseFeeScalar": "0x44d",
      "l1BlobBaseFee": "0x1",
      "l1BlobBaseFeeScalar": "0xa118b",
      "l1Fee": "0x5c",
      "l1GasPrice": "0xf",
      "l1GasUsed": "0x640"
    },
    {
      "status": "0x1",
      "cumulativeGasUsed": "0x2b6905",
      "logs": [
        {
          "address": "0x0cf42e10759a6c5160fab2ece21866387e4ffaaa",
          "topics": [
            "0x3321cda85c145617e47418aa14255e9dcbec53a753778e57591703b89a3cad31",
            "0x000000000000000000000000f0830060f836b8d54bf02049e5905f619487989e",
            "0x0000000000000000000000000000000000000000000000000000000000000000"
          ],
          "data": "0x",
          "blockHash": "0x0000000000000000000000000000000000000000000000000000000000000000",
          "blockNumber": "0x24575b9",
          "blockTimestamp": "0x699e4a52",
          "transactionHash": "0xc3059c5eac39a540fa9b85cdbbac59e76d39f8822a27456c24cd6bf69cb0b2b2",
          "transactionIndex": "0x13",
          "logIndex": "0x7a",
          "removed": false
        }
      ],
      "logsBloom": "0x00000000000000000000000000000000000000000000000000000000000000000000000000000000000000000000000000000000000000000000000000000008000000000000000000000000000000000000000000000000000000000000000000000000020001000000000000000800000000000000000000000000000000000000000000000000000400000000000810000000000000000000000000000000000000000000000000000000000000000000001000000000000000000000000000000000000000000000000000000020000000000000000000000000000020000000000000000000000000000000000000800000000000000000000000008000",
      "type": "0x2",
      "transactionHash": "0xc3059c5eac39a540fa9b85cdbbac59e76d39f8822a27456c24cd6bf69cb0b2b2",
      "transactionIndex": "0x13",
      "blockHash": "0x0000000000000000000000000000000000000000000000000000000000000000",
      "blockNumber": "0x24575b9",
      "gasUsed": "0x8bec",
      "effectiveGasPrice": "0x5b8d80",
      "blobGasUsed": "0x364c",
      "from": "0xf0830060f836b8d54bf02049e5905f619487989e",
      "to": "0x0cf42e10759a6c5160fab2ece21866387e4ffaaa",
      "contractAddress": null,
      "daFootprintGasScalar": "0x8b",
      "l1BaseFeeScalar": "0x44d",
      "l1BlobBaseFee": "0x1",
      "l1BlobBaseFeeScalar": "0xa118b",
      "l1Fee": "0x5c",
      "l1GasPrice": "0xf",
      "l1GasUsed": "0x640"
    },
    {
      "status": "0x1",
      "cumulativeGasUsed": "0x2be35f",
      "logs": [
        {
          "address": "0x0cf42e10759a6c5160fab2ece21866387e4ffaaa",
          "topics": [
            "0x1e7ddd09d504c82dcfc784a464b167469f5aad967606ec4822d848ef9141dfa5",
            "0x6665613463326237303800000000000000000000000000000000000000000000",
            "0x0000000000000000000000000000000000000000000000000000000000000000"
          ],
          "data": "0x",
          "blockHash": "0x0000000000000000000000000000000000000000000000000000000000000000",
          "blockNumber": "0x24575b9",
          "blockTimestamp": "0x699e4a52",
          "transactionHash": "0x960dda0228fda53be81a439cce698ff9ae0a88b46299b4e0c2a35d0538f1ab06",
          "transactionIndex": "0x14",
          "logIndex": "0x7b",
          "removed": false
        }
      ],
      "logsBloom": "0x00000000000000000000000004000000000000000000000000000000000000000000000000000000000020000000000000000000000000000000000000000000000000000000000000000000000000000000000000000000000000000000000000000000020000000000000000000800000000000000000000000000000000000000000000000000000000000000000010000000000000000000000000000000020000000000000000000000000000000000020000000000000000000000000000000000000000000000000000000000000000000004000000000000000020000000000000000000000000000002000000800000000000000000000000008000",
      "type": "0x2",
      "transactionHash": "0x960dda0228fda53be81a439cce698ff9ae0a88b46299b4e0c2a35d0538f1ab06",
      "transactionIndex": "0x14",
      "blockHash": "0x0000000000000000000000000000000000000000000000000000000000000000",
      "blockNumber": "0x24575b9",
      "gasUsed": "0x7a5a",
      "effectiveGasPrice": "0x5b8d80",
      "blobGasUsed": "0x364c",
      "from": "0xf0830060f836b8d54bf02049e5905f619487989e",
      "to": "0x0cf42e10759a6c5160fab2ece21866387e4ffaaa",
      "contractAddress": null,
      "daFootprintGasScalar": "0x8b",
      "l1BaseFeeScalar": "0x44d",
      "l1BlobBaseFee": "0x1",
      "l1BlobBaseFeeScalar": "0xa118b",
      "l1Fee": "0x5c",
      "l1GasPrice": "0xf",
      "l1GasUsed": "0x640"
    },
    {
      "status": "0x1",
      "cumulativeGasUsed": "0x2c637e",
      "logs": [
        {
          "address": "0x0cf42e10759a6c5160fab2ece21866387e4ffaaa",
          "topics": [
            "0x0dbedcdf21925e053b4c574eae180d7f2883235ab4976ecc0873598a2a999b03",
            "0x0000000000000000000000000000000000000000000000000000000000000000",
            "0x0000000000000000000000000000000000000000000000000000000000000000"
          ],
          "data": "0x",
          "blockHash": "0x0000000000000000000000000000000000000000000000000000000000000000",
          "blockNumber": "0x24575b9",
          "blockTimestamp": "0x699e4a52",
          "transactionHash": "0xd08dacbf78998a3754d9d08326f363e9fb1c051bfff2346594c7e63a857c18ba",
          "transactionIndex": "0x15",
          "logIndex": "0x7c",
          "removed": false
        }
      ],
      "logsBloom": "0x00000000000000000000000000000000000000000000000000000000000000000000000004000010000000000000000000000000000000000000000000000000000000000000000000000000000000000000000000000000000000000000000000000000020000000000000000000800000000000000000000000000000000000000000000000000000000000000000010000000000000000000000000000000000000000000000000000000000000000000000000000000000000000000000000000000000000000000000000000000008000000000000000000000000020000000000000000000000000000000000000800000000000000000000000008000",
      "type": "0x2",
      "transactionHash": "0xd08dacbf78998a3754d9d08326f363e9fb1c051bfff2346594c7e63a857c18ba",
      "transactionIndex": "0x15",
      "blockHash": "0x0000000000000000000000000000000000000000000000000000000000000000",
      "blockNumber": "0x24575b9",
      "gasUsed": "0x801f",
      "effectiveGasPrice": "0x5b8d80",
      "blobGasUsed": "0x364c",
      "from": "0xf0830060f836b8d54bf02049e5905f619487989e",
      "to": "0x0cf42e10759a6c5160fab2ece21866387e4ffaaa",
      "contractAddress": null,
      "daFootprintGasScalar": "0x8b",
      "l1BaseFeeScalar": "0x44d",
      "l1BlobBaseFee": "0x1",
      "l1BlobBaseFeeScalar": "0xa118b",
      "l1Fee": "0x5c",
      "l1GasPrice": "0xf",
      "l1GasUsed": "0x640"
    }
  ],
  "libraries": [],
  "pending": [],
  "returns": {},
  "timestamp": 1771981393,
  "chain": 84532,
  "commit": "e707bc8"
}