{
  "transactions": [
    {
      "hash": "0x8e9c0c28a4c48b786764e9c56577b96afe87ab36ca79561a23db923601365ae4",
      "transactionType": "CALL",
      "contractName": null,
      "contractAddress": "0x0cf42e10759a6c5160fab2ece21866387e4ffaaa",
      "function": "setForwarderAddress(address)",
      "arguments": [
        "0x82300bd7c3958625581cc2F77bC6464dcEcDF3e5"
      ],
      "transaction": {
        "from": "0xf0830060f836b8d54bf02049e5905f619487989e",
        "to": "0x0cf42e10759a6c5160fab2ece21866387e4ffaaa",
        "gas": "0xb3a6",
        "value": "0x0",
        "input": "0xd777cc6d00000000000000000000000082300bd7c3958625581cc2f77bc6464dcecdf3e5",
        "nonce": "0x4ef",
        "chainId": "0x14a34"
      },
      "additionalContracts": [],
      "isFixedGasLimit": false
    },
    {
      "hash": "0xec84922306ceb4222e42b259c5e77ed51f4577f6b5c706ca8df64048dcd264a5",
      "transactionType": "CALL",
      "contractName": null,
      "contractAddress": "0x0cf42e10759a6c5160fab2ece21866387e4ffaaa",
      "function": "setExpectedAuthor(address)",
      "arguments": [
        "0xf0830060f836B8d54bF02049E5905F619487989e"
      ],
      "transaction": {
        "from": "0xf0830060f836b8d54bf02049e5905f619487989e",
        "to": "0x0cf42e10759a6c5160fab2ece21866387e4ffaaa",
        "gas": "0x11ec1",
        "value": "0x0",
        "input": "0xd60c884b000000000000000000000000f0830060f836b8d54bf02049e5905f619487989e",
        "nonce": "0x4f0",
        "chainId": "0x14a34"
      },
      "additionalContracts": [],
      "isFixedGasLimit": false
    },
    {
      "hash": "0x79901eb3ee410d84c8f55ccf4c5b8545d9fa47707c8b5fbd8d70e62de28eb098",
      "transactionType": "CALL",
      "contractName": null,
      "contractAddress": "0x0cf42e10759a6c5160fab2ece21866387e4ffaaa",
      "function": "setExpectedWorkflowName(string)",
      "arguments": [
        "sub0cre"
      ],
      "transaction": {
        "from": "0xf0830060f836b8d54bf02049e5905f619487989e",
        "to": "0x0cf42e10759a6c5160fab2ece21866387e4ffaaa",
        "gas": "0x1be2d",
        "value": "0x0",
        "input": "0xbc1fc27a000000000000000000000000000000000000000000000000000000000000002000000000000000000000000000000000000000000000000000000000000000077375623063726500000000000000000000000000000000000000000000000000",
        "nonce": "0x4f1",
        "chainId": "0x14a34"
      },
      "additionalContracts": [],
      "isFixedGasLimit": false
    },
    {
      "hash": "0x52e28875904b042873481c3485b712509fbc1d29ffd62efe5fef25ff95eac1e7",
      "transactionType": "CALL",
      "contractName": null,
      "contractAddress": "0x0cf42e10759a6c5160fab2ece21866387e4ffaaa",
      "function": "setExpectedWorkflowId(bytes32)",
      "arguments": [
        "0x53c4d9706f3a5dcadbc3fc7fcf02115f13ff1b5fd13e4035a92580fcac9cb3f5"
      ],
      "transaction": {
        "from": "0xf0830060f836b8d54bf02049e5905f619487989e",
        "to": "0x0cf42e10759a6c5160fab2ece21866387e4ffaaa",
        "gas": "0x12f41",
        "value": "0x0",
        "input": "0xc3c44ac253c4d9706f3a5dcadbc3fc7fcf02115f13ff1b5fd13e4035a92580fcac9cb3f5",
        "nonce": "0x4f2",
        "chainId": "0x14a34"
      },
      "additionalContracts": [],
      "isFixedGasLimit": false
    }
  ],
  "receipts": [
    {
      "status": "0x1",
      "cumulativeGasUsed": "0x244e6c",
      "logs": [
        {
          "address": "0x0cf42e10759a6c5160fab2ece21866387e4ffaaa",
          "topics": [
            "0x039ad854736757070884dd787ef1a7f58db33546639d1f3efddcf4a33fb8997e",
            "0x00000000000000000000000082300bd7c3958625581cc2f77bc6464dcecdf3e5",
            "0x00000000000000000000000082300bd7c3958625581cc2f77bc6464dcecdf3e5"
          ],
          "data": "0x",
          "blockHash": "0x0000000000000000000000000000000000000000000000000000000000000000",
          "blockNumber": "0x2456dbe",
          "blockTimestamp": "0x699e3a5c",
          "transactionHash": "0x8e9c0c28a4c48b786764e9c56577b96afe87ab36ca79561a23db923601365ae4",
          "transactionIndex": "0x9",
          "logIndex": "0x47",
          "removed": false
        }
      ],
      "logsBloom": "0x00000000000020000000000000000000000000000000000002000000002000000000200000000000000000000000000000000000000000000000000000000000000000000000000000000000000000000400000000000000000000000000000000000000000000000000000000000000000000000000000000000000000000000000000000000000000000000000000010000000000000000000000000000000000000000000000000000000000000000000000000000000000000000000000000000000000000000000000000000000000000000000000000000000000000000000000000000000000000000000000000800000000000000000000000088000",
      "type": "0x2",
      "transactionHash": "0x8e9c0c28a4c48b786764e9c56577b96afe87ab36ca79561a23db923601365ae4",
      "transactionIndex": "0x9",
      "blockHash": "0x0000000000000000000000000000000000000000000000000000000000000000",
      "blockNumber": "0x2456dbe",
      "gasUsed": "0x8210",
      "effectiveGasPrice": "0x5b8d80",
      "blobGasUsed": "0x364c",
      "from": "0xf0830060f836b8d54bf02049e5905f619487989e",
      "to": "0x0cf42e10759a6c5160fab2ece21866387e4ffaaa",
      "contractAddress": null,
      "daFootprintGasScalar": "0x8b",
      "l1BaseFeeScalar": "0x44d",
      "l1BlobBaseFee": "0x1",
      "l1BlobBaseFeeScalar": "0xa118b",
      "l1Fee": "0x57",
      "l1GasPrice": "0xc",
      "l1GasUsed": "0x640"
    },
    {
      "status": "0x1",
      "cumulativeGasUsed": "0x251e08",
      "logs": [
        {
          "address": "0x0cf42e10759a6c5160fab2ece21866387e4ffaaa",
          "topics": [
            "0x3321cda85c145617e47418aa14255e9dcbec53a753778e57591703b89a3cad31",
            "0x0000000000000000000000000000000000000000000000000000000000000000",
            "0x000000000000000000000000f0830060f836b8d54bf02049e5905f619487989e"
          ],
          "data": "0x",
          "blockHash": "0x0000000000000000000000000000000000000000000000000000000000000000",
          "blockNumber": "0x2456dbe",
          "blockTimestamp": "0x699e3a5c",
          "transactionHash": "0xec84922306ceb4222e42b259c5e77ed51f4577f6b5c706ca8df64048dcd264a5",
          "transactionIndex": "0xa",
          "logIndex": "0x48",
          "removed": false
        }
      ],
      "logsBloom": "0x00000000000000000000000000000000000000000000000000000000000000000000000000000000000000000000000000000000000000000000000000000008000000000000000000000000000000000000000000000000000000000000000000000000020001000000000000000800000000000000000000000000000000000000000000000000000400000000000810000000000000000000000000000000000000000000000000000000000000000000001000000000000000000000000000000000000000000000000000000020000000000000000000000000000020000000000000000000000000000000000000800000000000000000000000008000",
      "type": "0x2",
      "transactionHash": "0xec84922306ceb4222e42b259c5e77ed51f4577f6b5c706ca8df64048dcd264a5",
      "transactionIndex": "0xa",
      "blockHash": "0x0000000000000000000000000000000000000000000000000000000000000000",
      "blockNumber": "0x2456dbe",
      "gasUsed": "0xcf9c",
      "effectiveGasPrice": "0x5b8d80",
      "blobGasUsed": "0x364c",
      "from": "0xf0830060f836b8d54bf02049e5905f619487989e",
      "to": "0x0cf42e10759a6c5160fab2ece21866387e4ffaaa",
      "contractAddress": null,
      "daFootprintGasScalar": "0x8b",
      "l1BaseFeeScalar": "0x44d",
      "l1BlobBaseFee": "0x1",
      "l1BlobBaseFeeScalar": "0xa118b",
      "l1Fee": "0x57",
      "l1GasPrice": "0xc",
      "l1GasUsed": "0x640"
    },
    {
      "status": "0x1",
      "cumulativeGasUsed": "0x26610f",
      "logs": [
        {
          "address": "0x0cf42e10759a6c5160fab2ece21866387e4ffaaa",
          "topics": [
            "0x1e7ddd09d504c82dcfc784a464b167469f5aad967606ec4822d848ef9141dfa5",
            "0x0000000000000000000000000000000000000000000000000000000000000000",
            "0x6665613463326237303800000000000000000000000000000000000000000000"
          ],
          "data": "0x",
          "blockHash": "0x0000000000000000000000000000000000000000000000000000000000000000",
          "blockNumber": "0x2456dbe",
          "blockTimestamp": "0x699e3a5c",
          "transactionHash": "0x79901eb3ee410d84c8f55ccf4c5b8545d9fa47707c8b5fbd8d70e62de28eb098",
          "transactionIndex": "0xb",
          "logIndex": "0x49",
          "removed": false
        }
      ],
      "logsBloom": "0x00000000000000000000000004000000000000000000000000000000000000000000000000000000000020000000000000000000000000000000000000000000000000000000000000000000000000000000000000000000000000000000000000000000020000000000000000000800000000000000000000000000000000000000000000000000000000000000000010000000000000000000000000000000020000000000000000000000000000000000020000000000000000000000000000000000000000000000000000000000000000000004000000000000000020000000000000000000000000000002000000800000000000000000000000008000",
      "type": "0x2",
      "transactionHash": "0x79901eb3ee410d84c8f55ccf4c5b8545d9fa47707c8b5fbd8d70e62de28eb098",
      "transactionIndex": "0xb",
      "blockHash": "0x0000000000000000000000000000000000000000000000000000000000000000",
      "blockNumber": "0x2456dbe",
      "gasUsed": "0x14307",
      "effectiveGasPrice": "0x5b8d80",
      "blobGasUsed": "0x364c",
      "from": "0xf0830060f836b8d54bf02049e5905f619487989e",
      "to": "0x0cf42e10759a6c5160fab2ece21866387e4ffaaa",
      "contractAddress": null,
      "daFootprintGasScalar": "0x8b",
      "l1BaseFeeScalar": "0x44d",
      "l1BlobBaseFee": "0x1",
      "l1BlobBaseFeeScalar": "0xa118b",
      "l1Fee": "0x57",
      "l1GasPrice": "0xc",
      "l1GasUsed": "0x640"
    },
    {
      "status": "0x1",
      "cumulativeGasUsed": "0x27a6c5",
      "logs": [
        {
          "address": "0x0cf42e10759a6c5160fab2ece21866387e4ffaaa",
          "topics": [
            "0x0dbedcdf21925e053b4c574eae180d7f2883235ab4976ecc0873598a2a999b03",
            "0x0000000000000000000000000000000000000000000000000000000000000000",
            "0x53c4d9706f3a5dcadbc3fc7fcf02115f13ff1b5fd13e4035a92580fcac9cb3f5"
          ],
          "data": "0x",
          "blockHash": "0x0000000000000000000000000000000000000000000000000000000000000000",
          "blockNumber": "0x2456dbe",
          "blockTimestamp": "0x699e3a5c",
          "transactionHash": "0x52e28875904b042873481c3485b712509fbc1d29ffd62efe5fef25ff95eac1e7",
          "transactionIndex": "0xd",
          "logIndex": "0x4b",
          "removed": false
        }
      ],
      "logsBloom": "0x00000000000000000000000000000000000000000000000000000000000001000000000004000010000000000000000000000000000000000000000000000000000000000000000000000000000000000000000000000000000000000010000000000000020000000000000000000800000000000000000000000000000000000000000000000000000000000000000010000000000000000000000000000000000000000000000000000000001000000000000000000000000000000000000000000000000000000000000000000000008000000000000000000000000020000000000000000000000000000000000000800000000000000000000000008000",
      "type": "0x2",
      "transactionHash": "0x52e28875904b042873481c3485b712509fbc1d29ffd62efe5fef25ff95eac1e7",
      "transactionIndex": "0xd",
      "blockHash": "0x0000000000000000000000000000000000000000000000000000000000000000",
      "blockNumber": "0x2456dbe",
      "gasUsed": "0xcf5b",
      "effectiveGasPrice": "0x5b8d80",
      "blobGasUsed": "0x364c",
      "from": "0xf0830060f836b8d54bf02049e5905f619487989e",
      "to": "0x0cf42e10759a6c5160fab2ece21866387e4ffaaa",
      "contractAddress": null,
      "daFootprintGasScalar": "0x8b",
      "l1BaseFeeScalar": "0x44d",
      "l1BlobBaseFee": "0x1",
      "l1BlobBaseFeeScalar": "0xa118b",
      "l1Fee": "0x57",
      "l1GasPrice": "0xc",
      "l1GasUsed": "0x640"
    }
  ],
  "libraries": [],
  "pending": [],
  "returns": {},
  "timestamp": 1771977306,
  "chain": 84532,
  "commit": "e707bc8"
}