{
  "transactions": [
    {
      "hash": "0x4e7b19fa62676cfb67b32c24ff057f770360ca91571b25b97cdbfe6d936ac706",
      "transactionType": "CALL",
      "contractName": null,
      "contractAddress": "0x493e553534eca30df9c5daf7de51bd36ab23458c",
      "function": "setForwarderAddress(address)",
      "arguments": [
        "0x15fC6ae953E024d975e77382eEeC56A9101f9F88"
      ],
      "transaction": {
        "from": "0xf0830060f836b8d54bf02049e5905f619487989e",
        "to": "0x493e553534eca30df9c5daf7de51bd36ab23458c",
        "gas": "0xc2c1",
        "value": "0x0",
        "input": "0xd777cc6d00000000000000000000000015fc6ae953e024d975e77382eeec56a9101f9f88",
        "nonce": "0x5db",
        "chainId": "0x14a34"
      },
      "additionalContracts": [],
      "isFixedGasLimit": false
    },
    {
      "hash": "0x1eaacc7cf2235d2fd11d40a09107f97075c3fb9168e646f80b360c28fc148019",
      "transactionType": "CALL",
      "contractName": null,
      "contractAddress": "0x493e553534eca30df9c5daf7de51bd36ab23458c",
      "function": "setExpectedAuthor(address)",
      "arguments": [
        "0x0000000000000000000000000000000000000000"
      ],
      "transaction": {
        "from": "0xf0830060f836b8d54bf02049e5905f619487989e",
        "to": "0x493e553534eca30df9c5daf7de51bd36ab23458c",
        "gas": "0xb227",
        "value": "0x0",
        "input": "0xd60c884b0000000000000000000000000000000000000000000000000000000000000000",
        "nonce": "0x5dc",
        "chainId": "0x14a34"
      },
      "additionalContracts": [],
      "isFixedGasLimit": false
    },
    {
      "hash": "0x6cfce44a744998b8e5112d974a74874051bd1c071050374a49871c00138dadbf",
      "transactionType": "CALL",
      "contractName": null,
      "contractAddress": "0x493e553534eca30df9c5daf7de51bd36ab23458c",
      "function": "setExpectedWorkflowName(string)",
      "arguments": [
        ""
      ],
      "transaction": {
        "from": "0xf0830060f836b8d54bf02049e5905f619487989e",
        "to": "0x493e553534eca30df9c5daf7de51bd36ab23458c",
        "gas": "0xbe5d",
        "value": "0x0",
        "input": "0xbc1fc27a00000000000000000000000000000000000000000000000000000000000000200000000000000000000000000000000000000000000000000000000000000000",
        "nonce": "0x5dd",
        "chainId": "0x14a34"
      },
      "additionalContracts": [],
      "isFixedGasLimit": false
    },
    {
      "hash": "0x69d8bb462cdd1e1738876e47b8f8c99ccea24a9c59ed5d7e398f8ea425dfb6d8",
      "transactionType": "CALL",
      "contractName": null,
      "contractAddress": "0x493e553534eca30df9c5daf7de51bd36ab23458c",
      "function": "setExpectedWorkflowId(bytes32)",
      "arguments": [
        "0x0000000000000000000000000000000000000000000000000000000000000000"
      ],
      "transaction": {
        "from": "0xf0830060f836b8d54bf02049e5905f619487989e",
        "to": "0x493e553534eca30df9c5daf7de51bd36ab23458c",
        "gas": "0xb0f6",
        "value": "0x0",
        "input": "0xc3c44ac20000000000000000000000000000000000000000000000000000000000000000",
        "nonce": "0x5de",
        "chainId": "0x14a34"
      },
      "additionalContracts": [],
      "isFixedGasLimit": false
    }
  ],
  "receipts": [
    {
      "status": "0x1",
      "cumulativeGasUsed": "0x3982b3",
      "logs": [
        {
          "address": "0x493e553534eca30df9c5daf7de51bd36ab23458c",
          "topics": [
            "0x039ad854736757070884dd787ef1a7f58db33546639d1f3efddcf4a33fb8997e",
            "0x00000000000000000000000082300bd7c3958625581cc2f77bc6464dcecdf3e5",
            "0x00000000000000000000000015fc6ae953e024d975e77382eeec56a9101f9f88"
          ],
          "data": "0x",
          "blockHash": "0x0000000000000000000000000000000000000000000000000000000000000000",
          "blockNumber": "0x245c02d",
          "blockTimestamp": "0x699edf3a",
          "transactionHash": "0x4e7b19fa62676cfb67b32c24ff057f770360ca91571b25b97cdbfe6d936ac706",
          "transactionIndex": "0xf",
          "logIndex": "0x8",
          "removed": false
        }
      ],
      "logsBloom": "0x20000000400020000000000000000000000000000000000002000000002000000000200000000000000000000000000000000000000000000000000000000000000000000000000000000000000000000400000000000000000000000000000002000000000000000000000000000000000000000000000000000000000000000000000000000000000000000000000000000000000000000000000000000000000000000000000004000000000000000000000000000000000000020000000000040000000000000000000000000000000000000000000000000000000000000000000000000000000000000000000000000000000000000000000000080000",
      "type": "0x2",
      "transactionHash": "0x4e7b19fa62676cfb67b32c24ff057f770360ca91571b25b97cdbfe6d936ac706",
      "transactionIndex": "0xf",
      "blockHash": "0x0000000000000000000000000000000000000000000000000000000000000000",
      "blockNumber": "0x245c02d",
      "gasUsed": "0x8d00",
      "effectiveGasPrice": "0x5b8d80",
      "blobGasUsed": "0x364c",
      "from": "0xf0830060f836b8d54bf02049e5905f619487989e",
      "to": "0x493e553534eca30df9c5daf7de51bd36ab23458c",
      "contractAddress": null,
      "daFootprintGasScalar": "0x8b",
      "l1BaseFeeScalar": "0x44d",
      "l1BlobBaseFee": "0xd0",
      "l1BlobBaseFeeScalar": "0xa118b",
      "l1Fee": "0x4cf9",
      "l1GasPrice": "0xd43",
      "l1GasUsed": "0x640"
    },
    {
      "status": "0x1",
      "cumulativeGasUsed": "0x3ae7b6",
      "logs": [
        {
          "address": "0x493e553534eca30df9c5daf7de51bd36ab23458c",
          "topics": [
            "0x3321cda85c145617e47418aa14255e9dcbec53a753778e57591703b89a3cad31",
            "0x0000000000000000000000000000000000000000000000000000000000000000",
            "0x0000000000000000000000000000000000000000000000000000000000000000"
          ],
          "data": "0x",
          "blockHash": "0x0000000000000000000000000000000000000000000000000000000000000000",
          "blockNumber": "0x245c02d",
          "blockTimestamp": "0x699edf3a",
          "transactionHash": "0x1eaacc7cf2235d2fd11d40a09107f97075c3fb9168e646f80b360c28fc148019",
          "transactionIndex": "0x12",
          "logIndex": "0xa",
          "removed": false
        }
      ],
      "logsBloom": "0x20000000000000000000000000000000000000000000000000000000000000000000000000000000000000000000000000000000000000000000000000000000000000000000000000000000000000000000000000000000000000000000000000000000020001000000000000000800000000000000000000000000000000000000000000000000000000000000000000000000000000000000000000000000000000000000000004000000000000000000001000000000000000000000000000040000000000000000000000000020000000000000000000000000000020000000000000000000000000000000000000000000000000000000000000000000",
      "type": "0x2",
      "transactionHash": "0x1eaacc7cf2235d2fd11d40a09107f97075c3fb9168e646f80b360c28fc148019",
      "transactionIndex": "0x12",
      "blockHash": "0x0000000000000000000000000000000000000000000000000000000000000000",
      "blockNumber": "0x245c02d",
      "gasUsed": "0x80fc",
      "effectiveGasPrice": "0x5b8d80",
      "blobGasUsed": "0x364c",
      "from": "0xf0830060f836b8d54bf02049e5905f619487989e",
      "to": "0x493e553534eca30df9c5daf7de51bd36ab23458c",
      "contractAddress": null,
      "daFootprintGasScalar": "0x8b",
      "l1BaseFeeScalar": "0x44d",
      "l1BlobBaseFee": "0xd0",
      "l1BlobBaseFeeScalar": "0xa118b",
      "l1Fee": "0x4cf9",
      "l1GasPrice": "0xd43",
      "l1GasUsed": "0x640"
    },
    {
      "status": "0x1",
      "cumulativeGasUsed": "0x3b69e0",
      "logs": [
        {
          "address": "0x493e553534eca30df9c5daf7de51bd36ab23458c",
          "topics": [
            "0x1e7ddd09d504c82dcfc784a464b167469f5aad967606ec4822d848ef9141dfa5",
            "0x0000000000000000000000000000000000000000000000000000000000000000",
            "0x0000000000000000000000000000000000000000000000000000000000000000"
          ],
          "data": "0x",
          "blockHash": "0x0000000000000000000000000000000000000000000000000000000000000000",
          "blockNumber": "0x245c02d",
          "blockTimestamp": "0x699edf3a",
          "transactionHash": "0x6cfce44a744998b8e5112d974a74874051bd1c071050374a49871c00138dadbf",
          "transactionIndex": "0x13",
          "logIndex": "0xb",
          "removed": false
        }
      ],
      "logsBloom": "0x20000000000000000000000004000000000000000000000000000000000000000000000000000000000020000000000000000000000000000000000000000000000000000000000000000000000000000000000000000000000000000000000000000000020000000000000000000800000000000000000000000000000000000000000000000000000000000000000000000000000000000000000000000000000000000000000004000000000000000000000000000000000000000000000000040000000000000000000000000000000000000004000000000000000020000000000000000000000000000000000000000000000000000000000000000000",
      "type": "0x2",
      "transactionHash": "0x6cfce44a744998b8e5112d974a74874051bd1c071050374a49871c00138dadbf",
      "transactionIndex": "0x13",
      "blockHash": "0x0000000000000000000000000000000000000000000000000000000000000000",
      "blockNumber": "0x245c02d",
      "gasUsed": "0x822a",
      "effectiveGasPrice": "0x5b8d80",
      "blobGasUsed": "0x364c",
      "from": "0xf0830060f836b8d54bf02049e5905f619487989e",
      "to": "0x493e553534eca30df9c5daf7de51bd36ab23458c",
      "contractAddress": null,
      "daFootprintGasScalar": "0x8b",
      "l1BaseFeeScalar": "0x44d",
      "l1BlobBaseFee": "0xd0",
      "l1BlobBaseFeeScalar": "0xa118b",
      "l1Fee": "0x4cf9",
      "l1GasPrice": "0xd43",
      "l1GasUsed": "0x640"
    },
    {
      "status": "0x1",
      "cumulativeGasUsed": "0x3be9ff",
      "logs": [
        {
          "address": "0x493e553534eca30df9c5daf7de51bd36ab23458c",
          "topics": [
            "0x0dbedcdf21925e053b4c574eae180d7f2883235ab4976ecc0873598a2a999b03",
            "0x0000000000000000000000000000000000000000000000000000000000000000",
            "0x0000000000000000000000000000000000000000000000000000000000000000"
          ],
          "data": "0x",
          "blockHash": "0x0000000000000000000000000000000000000000000000000000000000000000",
          "blockNumber": "0x245c02d",
          "blockTimestamp": "0x699edf3a",
          "transactionHash": "0x69d8bb462cdd1e1738876e47b8f8c99ccea24a9c59ed5d7e398f8ea425dfb6d8",
          "transactionIndex": "0x14",
          "logIndex": "0xc",
          "removed": false
        }
      ],
      "logsBloom": "0x20000000000000000000000000000000000000000000000000000000000000000000000004000010000000000000000000000000000000000000000000000000000000000000000000000000000000000000000000000000000000000000000000000000020000000000000000000800000000000000000000000000000000000000000000000000000000000000000000000000000000000000000000000000000000000000000004000000000000000000000000000000000000000000000000040000000000000000000000000000008000000000000000000000000020000000000000000000000000000000000000000000000000000000000000000000",
      "type": "0x2",
      "transactionHash": "0x69d8bb462cdd1e1738876e47b8f8c99ccea24a9c59ed5d7e398f8ea425dfb6d8",
      "transactionIndex": "0x14",
      "blockHash": "0x0000000000000000000000000000000000000000000000000000000000000000",
      "blockNumber": "0x245c02d",
      "gasUsed": "0x801f",
      "effectiveGasPrice": "0x5b8d80",
      "blobGasUsed": "0x364c",
      "from": "0xf0830060f836b8d54bf02049e5905f619487989e",
      "to": "0x493e553534eca30df9c5daf7de51bd36ab23458c",
      "contractAddress": null,
      "daFootprintGasScalar": "0x8b",
      "l1BaseFeeScalar": "0x44d",
      "l1BlobBaseFee": "0xd0",
      "l1BlobBaseFeeScalar": "0xa118b",
      "l1Fee": "0x4cf9",
      "l1GasPrice": "0xd43",
      "l1GasUsed": "0x640"
    }
  ],
  "libraries": [],
  "pending": [],
  "returns": {},
  "timestamp": 1772019512,
  "chain": 84532,
  "commit": "9d53ee3"
}