{
  "transactions": [
    {
      "hash": "0x351d04e4048eab49bc2526b4fcf5b961ca8cd54203033e5609059935b9b168ee",
      "transactionType": "CALL",
      "contractName": null,
      "contractAddress": "0x2ca2ed54ff680208711ae322dc5c7c98b09b8855",
      "function": "setForwarderAddress(address)",
      "arguments": [
        "0x82300bd7c3958625581cc2F77bC6464dcEcDF3e5"
      ],
      "transaction": {
        "from": "0xf0830060f836b8d54bf02049e5905f619487989e",
        "to": "0x2ca2ed54ff680208711ae322dc5c7c98b09b8855",
        "gas": "0xb3a6",
        "value": "0x0",
        "input": "0xd777cc6d00000000000000000000000082300bd7c3958625581cc2f77bc6464dcecdf3e5",
        "nonce": "0x586",
        "chainId": "0x14a34"
      },
      "additionalContracts": [],
      "isFixedGasLimit": false
    },
    {
      "hash": "0x90e44a97a7e8e25a76173f6affeca13f1064f3de25a2d35eff76c34ab17d82f1",
      "transactionType": "CALL",
      "contractName": null,
      "contractAddress": "0x2ca2ed54ff680208711ae322dc5c7c98b09b8855",
      "function": "setExpectedAuthor(address)",
      "arguments": [
        "0x0000000000000000000000000000000000000000"
      ],
      "transaction": {
        "from": "0xf0830060f836b8d54bf02049e5905f619487989e",
        "to": "0x2ca2ed54ff680208711ae322dc5c7c98b09b8855",
        "gas": "0xb227",
        "value": "0x0",
        "input": "0xd60c884b0000000000000000000000000000000000000000000000000000000000000000",
        "nonce": "0x587",
        "chainId": "0x14a34"
      },
      "additionalContracts": [],
      "isFixedGasLimit": false
    },
    {
      "hash": "0x77202d502f86e856c37360600cc01110f8b423752cfd50a4ac94713529321b74",
      "transactionType": "CALL",
      "contractName": null,
      "contractAddress": "0x2ca2ed54ff680208711ae322dc5c7c98b09b8855",
      "function": "setExpectedWorkflowName(string)",
      "arguments": [
        ""
      ],
      "transaction": {
        "from": "0xf0830060f836b8d54bf02049e5905f619487989e",
        "to": "0x2ca2ed54ff680208711ae322dc5c7c98b09b8855",
        "gas": "0xbe5d",
        "value": "0x0",
        "input": "0xbc1fc27a00000000000000000000000000000000000000000000000000000000000000200000000000000000000000000000000000000000000000000000000000000000",
        "nonce": "0x588",
        "chainId": "0x14a34"
      },
      "additionalContracts": [],
      "isFixedGasLimit": false
    },
    {
      "hash": "0x80093100ecbb44bae4a7e415fabc53f6bf99f44d30ebab7c6ecb537fa5982c9b",
      "transactionType": "CALL",
      "contractName": null,
      "contractAddress": "0x2ca2ed54ff680208711ae322dc5c7c98b09b8855",
      "function": "setExpectedWorkflowId(bytes32)",
      "arguments": [
        "0x0000000000000000000000000000000000000000000000000000000000000000"
      ],
      "transaction": {
        "from": "0xf0830060f836b8d54bf02049e5905f619487989e",
        "to": "0x2ca2ed54ff680208711ae322dc5c7c98b09b8855",
        "gas": "0xb0f6",
        "value": "0x0",
        "input": "0xc3c44ac20000000000000000000000000000000000000000000000000000000000000000",
        "nonce": "0x589",
        "chainId": "0x14a34"
      },
      "additionalContracts": [],
      "isFixedGasLimit": false
    }
  ],
  "receipts": [
    {
      "status": "0x1",
      "cumulativeGasUsed": "0x171c4e",
      "logs": [
        {
          "address": "0x2ca2ed54ff680208711ae322dc5c7c98b09b8855",
          "topics": [
            "0x039ad854736757070884dd787ef1a7f58db33546639d1f3efddcf4a33fb8997e",
            "0x00000000000000000000000082300bd7c3958625581cc2f77bc6464dcecdf3e5",
            "0x00000000000000000000000082300bd7c3958625581cc2f77bc6464dcecdf3e5"
          ],
          "data": "0x",
          "blockHash": "0x0000000000000000000000000000000000000000000000000000000000000000",
          "blockNumber": "0x2457e74",
          "blockTimestamp": "0x699e5bc8",
          "transactionHash": "0x351d04e4048eab49bc2526b4fcf5b961ca8cd54203033e5609059935b9b168ee",
          "transactionIndex": "0xc",
          "logIndex": "0x57",
          "removed": false
        }
      ],
      "logsBloom": "0x00000000000020000000000000000000000000000000000002000000002000000000200000000000000000000000000000000000000000000000000000000000000000000000000000010000000000000400000000000000000000000000000000000000000000000000000000000000000080000000000000000000000000000000000000000000000000000000000000000000000000000000000000000000000000000000000000000000000000000000000000000000000000000000000000000000000000000000000000000000000000000000000000000000000000000000000000000000000000000000000000000000010000000000000000080000",
      "type": "0x2",
      "transactionHash": "0x351d04e4048eab49bc2526b4fcf5b961ca8cd54203033e5609059935b9b168ee",
      "transactionIndex": "0xc",
      "blockHash": "0x0000000000000000000000000000000000000000000000000000000000000000",
      "blockNumber": "0x2457e74",
      "gasUsed": "0x8210",
      "effectiveGasPrice": "0x5b8d80",
      "blobGasUsed": "0x364c",
      "from": "0xf0830060f836b8d54bf02049e5905f619487989e",
      "to": "0x2ca2ed54ff680208711ae322dc5c7c98b09b8855",
      "contractAddress": null,
      "daFootprintGasScalar": "0x8b",
      "l1BaseFeeScalar": "0x44d",
      "l1BlobBaseFee": "0x1",
      "l1BlobBaseFeeScalar": "0xa118b",
      "l1Fee": "0x5a",
      "l1GasPrice": "0xe",
      "l1GasUsed": "0x640"
    },
    {
      "status": "0x1",
      "cumulativeGasUsed": "0x179d4a",
      "logs": [
        {
          "address": "0x2ca2ed54ff680208711ae322dc5c7c98b09b8855",
          "topics": [
            "0x3321cda85c145617e47418aa14255e9dcbec53a753778e57591703b89a3cad31",
            "0x0000000000000000000000000000000000000000000000000000000000000000",
            "0x0000000000000000000000000000000000000000000000000000000000000000"
          ],
          "data": "0x",
          "blockHash": "0x0000000000000000000000000000000000000000000000000000000000000000",
          "blockNumber": "0x2457e74",
          "blockTimestamp": "0x699e5bc8",
          "transactionHash": "0x90e44a97a7e8e25a76173f6affeca13f1064f3de25a2d35eff76c34ab17d82f1",
          "transactionIndex": "0xd",
          "logIndex": "0x58",
          "removed": false
        }
      ],
      "logsBloom": "0x00000000000000000000000000000000000000000000000000000000000000000000000000000000000000000000000000000000000000000000000000000000000000000000000000010000000000000000000000000000000000000000000000000000020001000000000000000800000080000000000000000000000000000000000000000000000000000000000000000000000000000000000000000000000000000000000000000000000000000000001000000000000000000000000000000000000000000000000000000020000000000000000000000000000020000000000000000000000000000000000000000000010000000000000000000000",
      "type": "0x2",
      "transactionHash": "0x90e44a97a7e8e25a76173f6affeca13f1064f3de25a2d35eff76c34ab17d82f1",
      "transactionIndex": "0xd",
      "blockHash": "0x0000000000000000000000000000000000000000000000000000000000000000",
      "blockNumber": "0x2457e74",
      "gasUsed": "0x80fc",
      "effectiveGasPrice": "0x5b8d80",
      "blobGasUsed": "0x364c",
      "from": "0xf0830060f836b8d54bf02049e5905f619487989e",
      "to": "0x2ca2ed54ff680208711ae322dc5c7c98b09b8855",
      "contractAddress": null,
      "daFootprintGasScalar": "0x8b",
      "l1BaseFeeScalar": "0x44d",
      "l1BlobBaseFee": "0x1",
      "l1BlobBaseFeeScalar": "0xa118b",
      "l1Fee": "0x5a",
      "l1GasPrice": "0xe",
      "l1GasUsed": "0x640"
    },
    {
      "status": "0x1",
      "cumulativeGasUsed": "0x181f74",
      "logs": [
        {
          "address": "0x2ca2ed54ff680208711ae322dc5c7c98b09b8855",
          "topics": [
            "0x1e7ddd09d504c82dcfc784a464b167469f5aad967606ec4822d848ef9141dfa5",
            "0x0000000000000000000000000000000000000000000000000000000000000000",
            "0x0000000000000000000000000000000000000000000000000000000000000000"
          ],
          "data": "0x",
          "blockHash": "0x0000000000000000000000000000000000000000000000000000000000000000",
          "blockNumber": "0x2457e74",
          "blockTimestamp": "0x699e5bc8",
          "transactionHash": "0x77202d502f86e856c37360600cc01110f8b423752cfd50a4ac94713529321b74",
          "transactionIndex": "0xe",
          "logIndex": "0x59",
          "removed": false
        }
      ],
      "logsBloom": "0x00000000000000000000000004000000000000000000000000000000000000000000000000000000000020000000000000000000000000000000000000000000000000000000000000010000000000000000000000000000000000000000000000000000020000000000000000000800000080000000000000000000000000000000000000000000000000000000000000000000000000000000000000000000000000000000000000000000000000000000000000000000000000000000000000000000000000000000000000000000000000000004000000000000000020000000000000000000000000000000000000000000010000000000000000000000",
      "type": "0x2",
      "transactionHash": "0x77202d502f86e856c37360600cc01110f8b423752cfd50a4ac94713529321b74",
      "transactionIndex": "0xe",
      "blockHash": "0x0000000000000000000000000000000000000000000000000000000000000000",
      "blockNumber": "0x2457e74",
      "gasUsed": "0x822a",
      "effectiveGasPrice": "0x5b8d80",
      "blobGasUsed": "0x364c",
      "from": "0xf0830060f836b8d54bf02049e5905f619487989e",
      "to": "0x2ca2ed54ff680208711ae322dc5c7c98b09b8855",
      "contractAddress": null,
      "daFootprintGasScalar": "0x8b",
      "l1BaseFeeScalar": "0x44d",
      "l1BlobBaseFee": "0x1",
      "l1BlobBaseFeeScalar": "0xa118b",
      "l1Fee": "0x5a",
      "l1GasPrice": "0xe",
      "l1GasUsed": "0x640"
    },
    {
      "status": "0x1",
      "cumulativeGasUsed": "0x189f93",
      "logs": [
        {
          "address": "0x2ca2ed54ff680208711ae322dc5c7c98b09b8855",
          "topics": [
            "0x0dbedcdf21925e053b4c574eae180d7f2883235ab4976ecc0873598a2a999b03",
            "0x0000000000000000000000000000000000000000000000000000000000000000",
            "0x0000000000000000000000000000000000000000000000000000000000000000"
          ],
          "data": "0x",
          "blockHash": "0x0000000000000000000000000000000000000000000000000000000000000000",
          "blockNumber": "0x2457e74",
          "blockTimestamp": "0x699e5bc8",
          "transactionHash": "0x80093100ecbb44bae4a7e415fabc53f6bf99f44d30ebab7c6ecb537fa5982c9b",
          "transactionIndex": "0xf",
          "logIndex": "0x5a",
          "removed": false
        }
      ],
      "logsBloom": "0x00000000000000000000000000000000000000000000000000000000000000000000000004000010000000000000000000000000000000000000000000000000000000000000000000010000000000000000000000000000000000000000000000000000020000000000000000000800000080000000000000000000000000000000000000000000000000000000000000000000000000000000000000000000000000000000000000000000000000000000000000000000000000000000000000000000000000000000000000000000008000000000000000000000000020000000000000000000000000000000000000000000010000000000000000000000",
      "type": "0x2",
      "transactionHash": "0x80093100ecbb44bae4a7e415fabc53f6bf99f44d30ebab7c6ecb537fa5982c9b",
      "transactionIndex": "0xf",
      "blockHash": "0x0000000000000000000000000000000000000000000000000000000000000000",
      "blockNumber": "0x2457e74",
      "gasUsed": "0x801f",
      "effectiveGasPrice": "0x5b8d80",
      "blobGasUsed": "0x364c",
      "from": "0xf0830060f836b8d54bf02049e5905f619487989e",
      "to": "0x2ca2ed54ff680208711ae322dc5c7c98b09b8855",
      "contractAddress": null,
      "daFootprintGasScalar": "0x8b",
      "l1BaseFeeScalar": "0x44d",
      "l1BlobBaseFee": "0x1",
      "l1BlobBaseFeeScalar": "0xa118b",
      "l1Fee": "0x5a",
      "l1GasPrice": "0xe",
      "l1GasUsed": "0x640"
    }
  ],
  "libraries": [],
  "pending": [],
  "returns": {},
  "timestamp": 1771985863,
  "chain": 84532,
  "commit": "e707bc8"
}