{
  "transactions": [
    {
      "hash": "0x9ca9bc916e328c93c30ce146396b9e04c0a62b73795f5f1dbec7e9a8493b97b5",
      "transactionType": "CALL",
      "contractName": null,
      "contractAddress": "0xd16bea141dc1a9a2ae56c1bfe14b04a6fd1e5cfd",
      "function": "setForwarderAddress(address)",
      "arguments": [
        "0x82300bd7c3958625581cc2F77bC6464dcEcDF3e5"
      ],
      "transaction": {
        "from": "0xf0830060f836b8d54bf02049e5905f619487989e",
        "to": "0xd16bea141dc1a9a2ae56c1bfe14b04a6fd1e5cfd",
        "gas": "0xb3a6",
        "value": "0x0",
        "input": "0xd777cc6d00000000000000000000000082300bd7c3958625581cc2f77bc6464dcecdf3e5",
        "nonce": "0x55e",
        "chainId": "0x14a34"
      },
      "additionalContracts": [],
      "isFixedGasLimit": false
    },
    {
      "hash": "0xcbdc44e909fce987be3e227226ba86022b3c67dd3d9322f2b711ce6faba0773d",
      "transactionType": "CALL",
      "contractName": null,
      "contractAddress": "0xd16bea141dc1a9a2ae56c1bfe14b04a6fd1e5cfd",
      "function": "setExpectedAuthor(address)",
      "arguments": [
        "0x0000000000000000000000000000000000000000"
      ],
      "transaction": {
        "from": "0xf0830060f836b8d54bf02049e5905f619487989e",
        "to": "0xd16bea141dc1a9a2ae56c1bfe14b04a6fd1e5cfd",
        "gas": "0xc143",
        "value": "0x0",
        "input": "0xd60c884b0000000000000000000000000000000000000000000000000000000000000000",
        "nonce": "0x55f",
        "chainId": "0x14a34"
      },
      "additionalContracts": [],
      "isFixedGasLimit": false
    },
    {
      "hash": "0x58b2f19d3aeedbe7f142f80b8c2a9c6c5f9a6b9a07f232ccfcf7098a95db9c19",
      "transactionType": "CALL",
      "contractName": null,
      "contractAddress": "0xd16bea141dc1a9a2ae56c1bfe14b04a6fd1e5cfd",
      "function": "setExpectedWorkflowName(string)",
      "arguments": [
        ""
      ],
      "transaction": {
        "from": "0xf0830060f836b8d54bf02049e5905f619487989e",
        "to": "0xd16bea141dc1a9a2ae56c1bfe14b04a6fd1e5cfd",
        "gas": "0xb2f0",
        "value": "0x0",
        "input": "0xbc1fc27a00000000000000000000000000000000000000000000000000000000000000200000000000000000000000000000000000000000000000000000000000000000",
        "nonce": "0x560",
        "chainId": "0x14a34"
      },
      "additionalContracts": [],
      "isFixedGasLimit": false
    },
    {
      "hash": "0x431692a01692c68275f7095ddce24318db643ba077c6c4ad99fcb4ed80be8a9d",
      "transactionType": "CALL",
      "contractName": null,
      "contractAddress": "0xd16bea141dc1a9a2ae56c1bfe14b04a6fd1e5cfd",
      "function": "setExpectedWorkflowId(bytes32)",
      "arguments": [
        "0x0000000000000000000000000000000000000000000000000000000000000000"
      ],
      "transaction": {
        "from": "0xf0830060f836b8d54bf02049e5905f619487989e",
        "to": "0xd16bea141dc1a9a2ae56c1bfe14b04a6fd1e5cfd",
        "gas": "0xa62b",
        "value": "0x0",
        "input": "0xc3c44ac20000000000000000000000000000000000000000000000000000000000000000",
        "nonce": "0x561",
        "chainId": "0x14a34"
      },
      "additionalContracts": [],
      "isFixedGasLimit": false
    }
  ],
  "receipts": [
    {
      "status": "0x1",
      "cumulativeGasUsed": "0xac452",
      "logs": [
        {
          "address": "0xd16bea141dc1a9a2ae56c1bfe14b04a6fd1e5cfd",
          "topics": [
            "0x039ad854736757070884dd787ef1a7f58db33546639d1f3efddcf4a33fb8997e",
            "0x00000000000000000000000082300bd7c3958625581cc2f77bc6464dcecdf3e5",
            "0x00000000000000000000000082300bd7c3958625581cc2f77bc6464dcecdf3e5"
          ],
          "data": "0x",
          "blockHash": "0x0000000000000000000000000000000000000000000000000000000000000000",
          "blockNumber": "0x2457bf8",
          "blockTimestamp": "0x699e56d0",
          "transactionHash": "0x9ca9bc916e328c93c30ce146396b9e04c0a62b73795f5f1dbec7e9a8493b97b5",
          "transactionIndex": "0x9",
          "logIndex": "0x11",
          "removed": false
        }
      ],
      "logsBloom": "0x00000000000020000000000000000000000000000000000002000000002000000000200000008000000000000000000000000000000000000000000000000000000000000000000000000000000000000400000000000000000000000000000000000000000000000000000000000000000000000000000000000000000000000000000000000000000000000000000000000000000000000000000000000000000000000000000000800000000000800000000000000000000000000000000000000000000000000000000000000000000000000000000000000000000000000000000000000000000000000000000000000000000000000000000000080000",
      "type": "0x2",
      "transactionHash": "0x9ca9bc916e328c93c30ce146396b9e04c0a62b73795f5f1dbec7e9a8493b97b5",
      "transactionIndex": "0x9",
      "blockHash": "0x0000000000000000000000000000000000000000000000000000000000000000",
      "blockNumber": "0x2457bf8",
      "gasUsed": "0x8210",
      "effectiveGasPrice": "0x5b8d80",
      "blobGasUsed": "0x364c",
      "from": "0xf0830060f836b8d54bf02049e5905f619487989e",
      "to": "0xd16bea141dc1a9a2ae56c1bfe14b04a6fd1e5cfd",
      "contractAddress": null,
      "daFootprintGasScalar": "0x8b",
      "l1BaseFeeScalar": "0x44d",
      "l1BlobBaseFee": "0x1",
      "l1BlobBaseFeeScalar": "0xa118b",
      "l1Fee": "0x5a",
      "l1GasPrice": "0xe",
      "l1GasUsed": "0x640"
    },
    {
      "status": "0x1",
      "cumulativeGasUsed": "0xb503e",
      "logs": [
        {
          "address": "0xd16bea141dc1a9a2ae56c1bfe14b04a6fd1e5cfd",
          "topics": [
            "0x3321cda85c145617e47418aa14255e9dcbec53a753778e57591703b89a3cad31",
            "0x000000000000000000000000aaaaaaaaaaaaaaaaaaaaaaaaaaaaaaaaaaaaaaaa",
            "0x0000000000000000000000000000000000000000000000000000000000000000"
          ],
          "data": "0x",
          "blockHash": "0x0000000000000000000000000000000000000000000000000000000000000000",
          "blockNumber": "0x2457bf8",
          "blockTimestamp": "0x699e56d0",
          "transactionHash": "0xcbdc44e909fce987be3e227226ba86022b3c67dd3d9322f2b711ce6faba0773d",
          "transactionIndex": "0xa",
          "logIndex": "0x12",
          "removed": false
        }
      ],
      "logsBloom": "0x00000000000000000000000000000000000000000000000000000000000000000000000000008000000000000000000000000000000000000000000000000000000000000000000000000000000000000000000000000000000000000000000000000040020001000000000000000800000000000000000040000000000000000000000000000000000000000000000000000000000000000000000000000000000000000000000000800000000000800000001000000000000000000000000000000000000000000000000000000020000000000000000000000000000020000000000000000000000000000200000000000000000000000000000000000000",
      "type": "0x2",
      "transactionHash": "0xcbdc44e909fce987be3e227226ba86022b3c67dd3d9322f2b711ce6faba0773d",
      "transactionIndex": "0xa",
      "blockHash": "0x0000000000000000000000000000000000000000000000000000000000000000",
      "blockNumber": "0x2457bf8",
      "gasUsed": "0x8bec",
      "effectiveGasPrice": "0x5b8d80",
      "blobGasUsed": "0x364c",
      "from": "0xf0830060f836b8d54bf02049e5905f619487989e",
      "to": "0xd16bea141dc1a9a2ae56c1bfe14b04a6fd1e5cfd",
      "contractAddress": null,
      "daFootprintGasScalar": "0x8b",
      "l1BaseFeeScalar": "0x44d",
      "l1BlobBaseFee": "0x1",
      "l1BlobBaseFeeScalar": "0xa118b",
      "l1Fee": "0x156",
      "l1GasPrice": "0xe",
      "l1GasUsed": "0x640"
    },
    {
      "status": "0x1",
      "cumulativeGasUsed": "0xbca98",
      "logs": [
        {
          "address": "0xd16bea141dc1a9a2ae56c1bfe14b04a6fd1e5cfd",
          "topics": [
            "0x1e7ddd09d504c82dcfc784a464b167469f5aad967606ec4822d848ef9141dfa5",
            "0x6665613463326237303800000000000000000000000000000000000000000000",
            "0x0000000000000000000000000000000000000000000000000000000000000000"
          ],
          "data": "0x",
          "blockHash": "0x0000000000000000000000000000000000000000000000000000000000000000",
          "blockNumber": "0x2457bf8",
          "blockTimestamp": "0x699e56d0",
          "transactionHash": "0x58b2f19d3aeedbe7f142f80b8c2a9c6c5f9a6b9a07f232ccfcf7098a95db9c19",
          "transactionIndex": "0xb",
          "logIndex": "0x13",
          "removed": false
        }
      ],
      "logsBloom": "0x00000000000000000000000004000000000000000000000000000000000000000000000000008000000020000000000000000000000000000000000000000000000000000000000000000000000000000000000000000000000000000000000000000000020000000000000000000800000000000000000000000000000000000000000000000000000000000000000000000000000000000000000000000000020000000000000000800000000000800000020000000000000000000000000000000000000000000000000000000000000000000004000000000000000020000000000000000000000000000002000000000000000000000000000000000000",
      "type": "0x2",
      "transactionHash": "0x58b2f19d3aeedbe7f142f80b8c2a9c6c5f9a6b9a07f232ccfcf7098a95db9c19",
      "transactionIndex": "0xb",
      "blockHash": "0x0000000000000000000000000000000000000000000000000000000000000000",
      "blockNumber": "0x2457bf8",
      "gasUsed": "0x7a5a",
      "effectiveGasPrice": "0x5b8d80",
      "blobGasUsed": "0x364c",
      "from": "0xf0830060f836b8d54bf02049e5905f619487989e",
      "to": "0xd16bea141dc1a9a2ae56c1bfe14b04a6fd1e5cfd",
      "contractAddress": null,
      "daFootprintGasScalar": "0x8b",
      "l1BaseFeeScalar": "0x44d",
      "l1BlobBaseFee": "0x1",
      "l1BlobBaseFeeScalar": "0xa118b",
      "l1Fee": "0x156",
      "l1GasPrice": "0xe",
      "l1GasUsed": "0x640"
    },
    {
      "status": "0x1",
      "cumulativeGasUsed": "0xc42e7",
      "logs": [
        {
          "address": "0xd16bea141dc1a9a2ae56c1bfe14b04a6fd1e5cfd",
          "topics": [
            "0x0dbedcdf21925e053b4c574eae180d7f2883235ab4976ecc0873598a2a999b03",
            "0x1111111111111111111111111111111111111111111111111111111111111111",
            "0x0000000000000000000000000000000000000000000000000000000000000000"
          ],
          "data": "0x",
          "blockHash": "0x0000000000000000000000000000000000000000000000000000000000000000",
          "blockNumber": "0x2457bf8",
          "blockTimestamp": "0x699e56d0",
          "transactionHash": "0x431692a01692c68275f7095ddce24318db643ba077c6c4ad99fcb4ed80be8a9d",
          "transactionIndex": "0xc",
          "logIndex": "0x14",
          "removed": false
        }
      ],
      "logsBloom": "0x00000000000000000000000000000000000000000000000000002000000000000000000004008010000000000000000000000000000000000000000000000000000000000000000000000000000000000000020000000000000000000000000000000000020000000000000000000800000000000000000000000000000000000000000000000000000000000000000000000000000000000000000000000000000000000000000000800000000000800000000000000000000000002000000000000000000000000000000000000000008000000000000000000000000020000000000000000000000000000000000000000000000000000000000000000000",
      "type": "0x2",
      "transactionHash": "0x431692a01692c68275f7095ddce24318db643ba077c6c4ad99fcb4ed80be8a9d",
      "transactionIndex": "0xc",
      "blockHash": "0x0000000000000000000000000000000000000000000000000000000000000000",
      "blockNumber": "0x2457bf8",
      "gasUsed": "0x784f",
      "effectiveGasPrice": "0x5b8d80",
      "blobGasUsed": "0x364c",
      "from": "0xf0830060f836b8d54bf02049e5905f619487989e",
      "to": "0xd16bea141dc1a9a2ae56c1bfe14b04a6fd1e5cfd",
      "contractAddress": null,
      "daFootprintGasScalar": "0x8b",
      "l1BaseFeeScalar": "0x44d",
      "l1BlobBaseFee": "0x1",
      "l1BlobBaseFeeScalar": "0xa118b",
      "l1Fee": "0x156",
      "l1GasPrice": "0xe",
      "l1GasUsed": "0x640"
    }
  ],
  "libraries": [],
  "pending": [],
  "returns": {},
  "timestamp": 1771984590,
  "chain": 84532,
  "commit": "e707bc8"
}