{
  "transactions": [
    {
      "hash": "0x6d838de91ba733361c932493f3bede06a6e990e36313867fd2ba3bdb00068c1d",
      "transactionType": "CALL",
      "contractName": null,
      "contractAddress": "0xd16bea141dc1a9a2ae56c1bfe14b04a6fd1e5cfd",
      "function": "setForwarderAddress(address)",
      "arguments": [
        "0x82300bd7c3958625581cc2F77bC6464dcEcDF3e5"
      ],
      "transaction": {
        "from": "0xf0830060f836b8d54bf02049e5905f619487989e",
        "to": "0xd16bea141dc1a9a2ae56c1bfe14b04a6fd1e5cfd",
        "gas": "0xb3a6",
        "value": "0x0",
        "input": "0xd777cc6d00000000000000000000000082300bd7c3958625581cc2f77bc6464dcecdf3e5",
        "nonce": "0x554",
        "chainId": "0x14a34"
      },
      "additionalContracts": [],
      "isFixedGasLimit": false
    },
    {
      "hash": "0xee8c59a572175f050fa13ea47eedcce60e73e0574cc1a7c5b741d4a9df1ecbe7",
      "transactionType": "CALL",
      "contractName": null,
      "contractAddress": "0xd16bea141dc1a9a2ae56c1bfe14b04a6fd1e5cfd",
      "function": "setExpectedAuthor(address)",
      "arguments": [
        "0xaAaAaAaaAaAaAaaAaAAAAAAAAaaaAaAaAaaAaaAa"
      ],
      "transaction": {
        "from": "0xf0830060f836b8d54bf02049e5905f619487989e",
        "to": "0xd16bea141dc1a9a2ae56c1bfe14b04a6fd1e5cfd",
        "gas": "0x11ed2",
        "value": "0x0",
        "input": "0xd60c884b000000000000000000000000aaaaaaaaaaaaaaaaaaaaaaaaaaaaaaaaaaaaaaaa",
        "nonce": "0x555",
        "chainId": "0x14a34"
      },
      "additionalContracts": [],
      "isFixedGasLimit": false
    },
    {
      "hash": "0x8f2514d7cde3872d482c799a763e4d0082294d8d831081e1fdd5c8a4e7d94e3f",
      "transactionType": "CALL",
      "contractName": null,
      "contractAddress": "0xd16bea141dc1a9a2ae56c1bfe14b04a6fd1e5cfd",
      "function": "setExpectedWorkflowName(string)",
      "arguments": [
        "sub0cre"
      ],
      "transaction": {
        "from": "0xf0830060f836b8d54bf02049e5905f619487989e",
        "to": "0xd16bea141dc1a9a2ae56c1bfe14b04a6fd1e5cfd",
        "gas": "0x1be2d",
        "value": "0x0",
        "input": "0xbc1fc27a000000000000000000000000000000000000000000000000000000000000002000000000000000000000000000000000000000000000000000000000000000077375623063726500000000000000000000000000000000000000000000000000",
        "nonce": "0x556",
        "chainId": "0x14a34"
      },
      "additionalContracts": [],
      "isFixedGasLimit": false
    },
    {
      "hash": "0x226a558f2ccd93726df8697e7c579b80e5016f56ee33bcf2a2a5ba6eaabf17e0",
      "transactionType": "CALL",
      "contractName": null,
      "contractAddress": "0xd16bea141dc1a9a2ae56c1bfe14b04a6fd1e5cfd",
      "function": "setExpectedWorkflowId(bytes32)",
      "arguments": [
        "0x1111111111111111111111111111111111111111111111111111111111111111"
      ],
      "transaction": {
        "from": "0xf0830060f836b8d54bf02049e5905f619487989e",
        "to": "0xd16bea141dc1a9a2ae56c1bfe14b04a6fd1e5cfd",
        "gas": "0x12f41",
        "value": "0x0",
        "input": "0xc3c44ac21111111111111111111111111111111111111111111111111111111111111111",
        "nonce": "0x557",
        "chainId": "0x14a34"
      },
      "additionalContracts": [],
      "isFixedGasLimit": false
    }
  ],
  "receipts": [
    {
      "status": "0x1",
      "cumulativeGasUsed": "0x1c7228",
      "logs": [
        {
          "address": "0xd16bea141dc1a9a2ae56c1bfe14b04a6fd1e5cfd",
          "topics": [
            "0x039ad854736757070884dd787ef1a7f58db33546639d1f3efddcf4a33fb8997e",
            "0x00000000000000000000000082300bd7c3958625581cc2f77bc6464dcecdf3e5",
            "0x00000000000000000000000082300bd7c3958625581cc2f77bc6464dcecdf3e5"
          ],
          "data": "0x",
          "blockHash": "0x0000000000000000000000000000000000000000000000000000000000000000",
          "blockNumber": "0x2457ae0",
          "blockTimestamp": "0x699e54a0",
          "transactionHash": "0x6d838de91ba733361c932493f3bede06a6e990e36313867fd2ba3bdb00068c1d",
          "transactionIndex": "0x11",
          "logIndex": "0x55",
          "removed": false
        }
      ],
      "logsBloom": "0x00000000000020000000000000000000000000000000000002000000002000000000200000008000000000000000000000000000000000000000000000000000000000000000000000000000000000000400000000000000000000000000000000000000000000000000000000000000000000000000000000000000000000000000000000000000000000000000000000000000000000000000000000000000000000000000000000800000000000800000000000000000000000000000000000000000000000000000000000000000000000000000000000000000000000000000000000000000000000000000000000000000000000000000000000080000",
      "type": "0x2",
      "transactionHash": "0x6d838de91ba733361c932493f3bede06a6e990e36313867fd2ba3bdb00068c1d",
      "transactionIndex": "0x11",
      "blockHash": "0x0000000000000000000000000000000000000000000000000000000000000000",
      "blockNumber": "0x2457ae0",
      "gasUsed": "0x8210",
      "effectiveGasPrice": "0x5b8d80",
      "blobGasUsed": "0x364c",
      "from": "0xf0830060f836b8d54bf02049e5905f619487989e",
      "to": "0xd16bea141dc1a9a2ae56c1bfe14b04a6fd1e5cfd",
      "contractAddress": null,
      "daFootprintGasScalar": "0x8b",
      "l1BaseFeeScalar": "0x44d",
      "l1BlobBaseFee": "0x1",
      "l1BlobBaseFeeScalar": "0xa118b",
      "l1Fee": "0x1c6",
      "l1GasPrice": "0xe",
      "l1GasUsed": "0x640"
    },
    {
      "status": "0x1",
      "cumulativeGasUsed": "0x1d41d0",
      "logs": [
        {
          "address": "0xd16bea141dc1a9a2ae56c1bfe14b04a6fd1e5cfd",
          "topics": [
            "0x3321cda85c145617e47418aa14255e9dcbec53a753778e57591703b89a3cad31",
            "0x0000000000000000000000000000000000000000000000000000000000000000",
            "0x000000000000000000000000aaaaaaaaaaaaaaaaaaaaaaaaaaaaaaaaaaaaaaaa"
          ],
          "data": "0x",
          "blockHash": "0x0000000000000000000000000000000000000000000000000000000000000000",
          "blockNumber": "0x2457ae0",
          "blockTimestamp": "0x699e54a0",
          "transactionHash": "0xee8c59a572175f050fa13ea47eedcce60e73e0574cc1a7c5b741d4a9df1ecbe7",
          "transactionIndex": "0x12",
          "logIndex": "0x56",
          "removed": false
        }
      ],
      "logsBloom": "0x00000000000000000000000000000000000000000000000000000000000000000000000000008000000000000000000000000000000000000000000000000000000000000000000000000000000000000000000000000000000000000000000000000040020001000000000000000800000000000000000040000000000000000000000000000000000000000000000000000000000000000000000000000000000000000000000000800000000000800000001000000000000000000000000000000000000000000000000000000020000000000000000000000000000020000000000000000000000000000200000000000000000000000000000000000000",
      "type": "0x2",
      "transactionHash": "0xee8c59a572175f050fa13ea47eedcce60e73e0574cc1a7c5b741d4a9df1ecbe7",
      "transactionIndex": "0x12",
      "blockHash": "0x0000000000000000000000000000000000000000000000000000000000000000",
      "blockNumber": "0x2457ae0",
      "gasUsed": "0xcfa8",
      "effectiveGasPrice": "0x5b8d80",
      "blobGasUsed": "0x364c",
      "from": "0xf0830060f836b8d54bf02049e5905f619487989e",
      "to": "0xd16bea141dc1a9a2ae56c1bfe14b04a6fd1e5cfd",
      "contractAddress": null,
      "daFootprintGasScalar": "0x8b",
      "l1BaseFeeScalar": "0x44d",
      "l1BlobBaseFee": "0x1",
      "l1BlobBaseFeeScalar": "0xa118b",
      "l1Fee": "0x1c6",
      "l1GasPrice": "0xe",
      "l1GasUsed": "0x640"
    },
    {
      "status": "0x1",
      "cumulativeGasUsed": "0x1e84d7",
      "logs": [
        {
          "address": "0xd16bea141dc1a9a2ae56c1bfe14b04a6fd1e5cfd",
          "topics": [
            "0x1e7ddd09d504c82dcfc784a464b167469f5aad967606ec4822d848ef9141dfa5",
            "0x0000000000000000000000000000000000000000000000000000000000000000",
            "0x6665613463326237303800000000000000000000000000000000000000000000"
          ],
          "data": "0x",
          "blockHash": "0x0000000000000000000000000000000000000000000000000000000000000000",
          "blockNumber": "0x2457ae0",
          "blockTimestamp": "0x699e54a0",
          "transactionHash": "0x8f2514d7cde3872d482c799a763e4d0082294d8d831081e1fdd5c8a4e7d94e3f",
          "transactionIndex": "0x13",
          "logIndex": "0x57",
          "removed": false
        }
      ],
      "logsBloom": "0x00000000000000000000000004000000000000000000000000000000000000000000000000008000000020000000000000000000000000000000000000000000000000000000000000000000000000000000000000000000000000000000000000000000020000000000000000000800000000000000000000000000000000000000000000000000000000000000000000000000000000000000000000000000020000000000000000800000000000800000020000000000000000000000000000000000000000000000000000000000000000000004000000000000000020000000000000000000000000000002000000000000000000000000000000000000",
      "type": "0x2",
      "transactionHash": "0x8f2514d7cde3872d482c799a763e4d0082294d8d831081e1fdd5c8a4e7d94e3f",
      "transactionIndex": "0x13",
      "blockHash": "0x0000000000000000000000000000000000000000000000000000000000000000",
      "blockNumber": "0x2457ae0",
      "gasUsed": "0x14307",
      "effectiveGasPrice": "0x5b8d80",
      "blobGasUsed": "0x364c",
      "from": "0xf0830060f836b8d54bf02049e5905f619487989e",
      "to": "0xd16bea141dc1a9a2ae56c1bfe14b04a6fd1e5cfd",
      "contractAddress": null,
      "daFootprintGasScalar": "0x8b",
      "l1BaseFeeScalar": "0x44d",
      "l1BlobBaseFee": "0x1",
      "l1BlobBaseFeeScalar": "0xa118b",
      "l1Fee": "0x1c6",
      "l1GasPrice": "0xe",
      "l1GasUsed": "0x640"
    },
    {
      "status": "0x1",
      "cumulativeGasUsed": "0x1f5432",
      "logs": [
        {
          "address": "0xd16bea141dc1a9a2ae56c1bfe14b04a6fd1e5cfd",
          "topics": [
            "0x0dbedcdf21925e053b4c574eae180d7f2883235ab4976ecc0873598a2a999b03",
            "0x0000000000000000000000000000000000000000000000000000000000000000",
            "0x1111111111111111111111111111111111111111111111111111111111111111"
          ],
          "data": "0x",
          "blockHash": "0x0000000000000000000000000000000000000000000000000000000000000000",
          "blockNumber": "0x2457ae0",
          "blockTimestamp": "0x699e54a0",
          "transactionHash": "0x226a558f2ccd93726df8697e7c579b80e5016f56ee33bcf2a2a5ba6eaabf17e0",
          "transactionIndex": "0x14",
          "logIndex": "0x58",
          "removed": false
        }
      ],
      "logsBloom": "0x00000000000000000000000000000000000000000000000000002000000000000000000004008010000000000000000000000000000000000000000000000000000000000000000000000000000000000000020000000000000000000000000000000000020000000000000000000800000000000000000000000000000000000000000000000000000000000000000000000000000000000000000000000000000000000000000000800000000000800000000000000000000000002000000000000000000000000000000000000000008000000000000000000000000020000000000000000000000000000000000000000000000000000000000000000000",
      "type": "0x2",
      "transactionHash": "0x226a558f2ccd93726df8697e7c579b80e5016f56ee33bcf2a2a5ba6eaabf17e0",
      "transactionIndex": "0x14",
      "blockHash": "0x0000000000000000000000000000000000000000000000000000000000000000",
      "blockNumber": "0x2457ae0",
      "gasUsed": "0xcf5b",
      "effectiveGasPrice": "0x5b8d80",
      "blobGasUsed": "0x364c",
      "from": "0xf0830060f836b8d54bf02049e5905f619487989e",
      "to": "0xd16bea141dc1a9a2ae56c1bfe14b04a6fd1e5cfd",
      "contractAddress": null,
      "daFootprintGasScalar": "0x8b",
      "l1BaseFeeScalar": "0x44d",
      "l1BlobBaseFee": "0x1",
      "l1BlobBaseFeeScalar": "0xa118b",
      "l1Fee": "0x1c6",
      "l1GasPrice": "0xe",
      "l1GasUsed": "0x640"
    }
  ],
  "libraries": [],
  "pending": [],
  "returns": {},
  "timestamp": 1771984030,
  "chain": 84532,
  "commit": "e707bc8"
}