{
  "transactions": [
    {
      "hash": "0xe0473e0937566e3e49707a56efe2da2ebf1f80e2044db87c995443c2112774ce",
      "transactionType": "CALL",
      "contractName": null,
      "contractAddress": "0xf8ee2e5267ada69846e9f242d038270a4fd60132",
      "function": "grantRole(bytes32,address)",
      "arguments": [
        "0x24f6c009eb13751040a28379057ed7d527a78ecf74c2107b989e00f4e509d9dd",
        "0xA957F3eAC17c10A9ca0205b9849b691702a9De6E"
      ],
      "transaction": {
        "from": "0xf0830060f836b8d54bf02049e5905f619487989e",
        "to": "0xf8ee2e5267ada69846e9f242d038270a4fd60132",
        "gas": "0x136cb",
        "value": "0x0",
        "input": "0x2f2ff15d24f6c009eb13751040a28379057ed7d527a78ecf74c2107b989e00f4e509d9dd000000000000000000000000a957f3eac17c10a9ca0205b9849b691702a9de6e",
        "nonce": "0x35d",
        "chainId": "0x14a34"
      },
      "additionalContracts": [],
      "isFixedGasLimit": false
    },
    {
      "hash": "0x0eccbf2205d59e1f752792fe7ef65b2e3b00dc96570a44e8f258296c75af6f14",
      "transactionType": "CALL",
      "contractName": null,
      "contractAddress": "0xf8ee2e5267ada69846e9f242d038270a4fd60132",
      "function": "grantRole(bytes32,address)",
      "arguments": [
        "0x74f7a545c65c11839a48d7453738b30c295408df2d944516167556759ddc6d06",
        "0xA957F3eAC17c10A9ca0205b9849b691702a9De6E"
      ],
      "transaction": {
        "from": "0xf0830060f836b8d54bf02049e5905f619487989e",
        "to": "0xf8ee2e5267ada69846e9f242d038270a4fd60132",
        "gas": "0x12597",
        "value": "0x0",
        "input": "0x2f2ff15d74f7a545c65c11839a48d7453738b30c295408df2d944516167556759ddc6d06000000000000000000000000a957f3eac17c10a9ca0205b9849b691702a9de6e",
        "nonce": "0x35e",
        "chainId": "0x14a34"
      },
      "additionalContracts": [],
      "isFixedGasLimit": false
    },
    {
      "hash": "0xf6d60fcab9b276176b3442eb379a73626ada42dbef1e8330a80f39caa9421e08",
      "transactionType": "CALL",
      "contractName": null,
      "contractAddress": "0xf8ee2e5267ada69846e9f242d038270a4fd60132",
      "function": "grantRole(bytes32,address)",
      "arguments": [
        "0xced6982f480260bdd8ad5cb18ff2854f0306d78d904ad6cc107e8f3a0f526c18",
        "0xA957F3eAC17c10A9ca0205b9849b691702a9De6E"
      ],
      "transaction": {
        "from": "0xf0830060f836b8d54bf02049e5905f619487989e",
        "to": "0xf8ee2e5267ada69846e9f242d038270a4fd60132",
        "gas": "0x12597",
        "value": "0x0",
        "input": "0x2f2ff15dced6982f480260bdd8ad5cb18ff2854f0306d78d904ad6cc107e8f3a0f526c18000000000000000000000000a957f3eac17c10a9ca0205b9849b691702a9de6e",
        "nonce": "0x35f",
        "chainId": "0x14a34"
      },
      "additionalContracts": [],
      "isFixedGasLimit": false
    },
    {
      "hash": "0xe1aa4322a672aa7c3faddb790e037297b4a0011856067b386cf9181b75f07ad6",
      "transactionType": "CALL",
      "contractName": null,
      "contractAddress": "0x2cacbb166d8238be9aa6a45553b85953a6dfc326",
      "function": "setFeeConfig(address,uint256)",
      "arguments": [
        "0xA957F3eAC17c10A9ca0205b9849b691702a9De6E",
        "500"
      ],
      "transaction": {
        "from": "0xf0830060f836b8d54bf02049e5905f619487989e",
        "to": "0x2cacbb166d8238be9aa6a45553b85953a6dfc326",
        "gas": "0x101e4",
        "value": "0x0",
        "input": "0xe07a3111000000000000000000000000a957f3eac17c10a9ca0205b9849b691702a9de6e00000000000000000000000000000000000000000000000000000000000001f4",
        "nonce": "0x360",
        "chainId": "0x14a34"
      },
      "additionalContracts": [],
      "isFixedGasLimit": false
    }
  ],
  "receipts": [
    {
      "status": "0x1",
      "cumulativeGasUsed": "0x122725",
      "logs": [
        {
          "address": "0xf8ee2e5267ada69846e9f242d038270a4fd60132",
          "topics": [
            "0x2f8788117e7eff1d82e926ec794901d17c78024a50270940304540a733656f0d",
            "0x24f6c009eb13751040a28379057ed7d527a78ecf74c2107b989e00f4e509d9dd",
            "0x000000000000000000000000a957f3eac17c10a9ca0205b9849b691702a9de6e",
            "0x000000000000000000000000f0830060f836b8d54bf02049e5905f619487989e"
          ],
          "data": "0x",
          "blockHash": "0xa06bac6baad6ecf95fb16a85958576872373e67b825895f7f2508d2eeb96841f",
          "blockNumber": "0x226e4dc",
          "blockTimestamp": "0x69612898",
          "transactionHash": "0xe0473e0937566e3e49707a56efe2da2ebf1f80e2044db87c995443c2112774ce",
          "transactionIndex": "0xd",
          "logIndex": "0x19",
          "removed": false
        }
      ],
      "logsBloom": "0x00000004000000000000000000000000000000080000000000000000000000000000000000000000000000000000000000000000000000000000000000000008000000000000000000010000040000000000000000000000000000000000000000000000000000000000000000000800000080000000000000000000000000000000000000200000100400000000000800000000000000000000000000000000000000000000000000000000000000000000000000000000001000000000000000000000000000000000000000000000800000000000000100000000000000000000000000000000000000000000000000000000000000000000040000000000",
      "type": "0x2",
      "transactionHash": "0xe0473e0937566e3e49707a56efe2da2ebf1f80e2044db87c995443c2112774ce",
      "transactionIndex": "0xd",
      "blockHash": "0xa06bac6baad6ecf95fb16a85958576872373e67b825895f7f2508d2eeb96841f",
      "blockNumber": "0x226e4dc",
      "gasUsed": "0xd483",
      "effectiveGasPrice": "0x124f80",
      "blobGasUsed": "0x8268",
      "from": "0xf0830060f836b8d54bf02049e5905f619487989e",
      "to": "0xf8ee2e5267ada69846e9f242d038270a4fd60132",
      "contractAddress": null,
      "daFootprintGasScalar": "0x138",
      "l1BaseFeeScalar": "0x44d",
      "l1BlobBaseFee": "0xeb518",
      "l1BlobBaseFeeScalar": "0xa118b",
      "l1Fee": "0x59b7c15",
      "l1GasPrice": "0x1044679",
      "l1GasUsed": "0x6bf"
    },
    {
      "status": "0x1",
      "cumulativeGasUsed": "0x13d4bf",
      "logs": [
        {
          "address": "0xf8ee2e5267ada69846e9f242d038270a4fd60132",
          "topics": [
            "0x2f8788117e7eff1d82e926ec794901d17c78024a50270940304540a733656f0d",
            "0x74f7a545c65c11839a48d7453738b30c295408df2d944516167556759ddc6d06",
            "0x000000000000000000000000a957f3eac17c10a9ca0205b9849b691702a9de6e",
            "0x000000000000000000000000f0830060f836b8d54bf02049e5905f619487989e"
          ],
          "data": "0x",
          "blockHash": "0xa06bac6baad6ecf95fb16a85958576872373e67b825895f7f2508d2eeb96841f",
          "blockNumber": "0x226e4dc",
          "blockTimestamp": "0x69612898",
          "transactionHash": "0x0eccbf2205d59e1f752792fe7ef65b2e3b00dc96570a44e8f258296c75af6f14",
          "transactionIndex": "0xf",
          "logIndex": "0x1a",
          "removed": false
        }
      ],
      "logsBloom": "0x00000004000000000000000000000000000000080000000000000000000000000000000000000000000000000000000000000000000000000000000000000008000000000000000000000000000000000000000000000000000000000000000000000000000000002000000000000800000080000000000400000000000000000000000000000000100400000000000800000000000000000000000000000000000000000000000000000000000000000000000000000000001000000000000000000000000000000000000000000000800000000000000100100000000000000000000000000000000000000000000000000000000000000000040000000000",
      "type": "0x2",
      "transactionHash": "0x0eccbf2205d59e1f752792fe7ef65b2e3b00dc96570a44e8f258296c75af6f14",
      "transactionIndex": "0xf",
      "blockHash": "0xa06bac6baad6ecf95fb16a85958576872373e67b825895f7f2508d2eeb96841f",
      "blockNumber": "0x226e4dc",
      "gasUsed": "0xd48f",
      "effectiveGasPrice": "0x124f80",
      "blobGasUsed": "0x8268",
      "from": "0xf0830060f836b8d54bf02049e5905f619487989e",
      "to": "0xf8ee2e5267ada69846e9f242d038270a4fd60132",
      "contractAddress": null,
      "daFootprintGasScalar": "0x138",
      "l1BaseFeeScalar": "0x44d",
      "l1BlobBaseFee": "0xeb518",
      "l1BlobBaseFeeScalar": "0xa118b",
      "l1Fee": "0x59b7c15",
      "l1GasPrice": "0x1044679",
      "l1GasUsed": "0x6bf"
    },
    {
      "status": "0x1",
      "cumulativeGasUsed": "0x14a94e",
      "logs": [
        {
          "address": "0xf8ee2e5267ada69846e9f242d038270a4fd60132",
          "topics": [
            "0x2f8788117e7eff1d82e926ec794901d17c78024a50270940304540a733656f0d",
            "0xced6982f480260bdd8ad5cb18ff2854f0306d78d904ad6cc107e8f3a0f526c18",
            "0x000000000000000000000000a957f3eac17c10a9ca0205b9849b691702a9de6e",
            "0x000000000000000000000000f0830060f836b8d54bf02049e5905f619487989e"
          ],
          "data": "0x",
          "blockHash": "0xa06bac6baad6ecf95fb16a85958576872373e67b825895f7f2508d2eeb96841f",
          "blockNumber": "0x226e4dc",
          "blockTimestamp": "0x69612898",
          "transactionHash": "0xf6d60fcab9b276176b3442eb379a73626ada42dbef1e8330a80f39caa9421e08",
          "transactionIndex": "0x10",
          "logIndex": "0x1b",
          "removed": false
        }
      ],
      "logsBloom": "0x00000004000000000000000000000000000000080000000000000000000000000000000000000000000000000000000000000000000400100000000000000008000000000000000000000000000000000000000000000000000000000000000000000000000000000000000000000800000080000000000000000000000000000000000000000000100400000000000800000000000000000000000000000000000000000000000000000000000000000000000000000000001000000000000000000000000000000020000000000000800000000000000100000000000000000000000000000000000000000000000000000000000000000000040000000000",
      "type": "0x2",
      "transactionHash": "0xf6d60fcab9b276176b3442eb379a73626ada42dbef1e8330a80f39caa9421e08",
      "transactionIndex": "0x10",
      "blockHash": "0xa06bac6baad6ecf95fb16a85958576872373e67b825895f7f2508d2eeb96841f",
      "blockNumber": "0x226e4dc",
      "gasUsed": "0xd48f",
      "effectiveGasPrice": "0x124f80",
      "blobGasUsed": "0x8268",
      "from": "0xf0830060f836b8d54bf02049e5905f619487989e",
      "to": "0xf8ee2e5267ada69846e9f242d038270a4fd60132",
      "contractAddress": null,
      "daFootprintGasScalar": "0x138",
      "l1BaseFeeScalar": "0x44d",
      "l1BlobBaseFee": "0xeb518",
      "l1BlobBaseFeeScalar": "0xa118b",
      "l1Fee": "0x59b7c15",
      "l1GasPrice": "0x1044679",
      "l1GasUsed": "0x6bf"
    },
    {
      "status": "0x1",
      "cumulativeGasUsed": "0x156404",
      "logs": [
        {
          "address": "0x2cacbb166d8238be9aa6a45553b85953a6dfc326",
          "topics": [
            "0xe42708d93b95810922305119a3271ca42233da9ebe1e1e503f0e887817a32c7a"
          ],
          "data": "0x000000000000000000000000a957f3eac17c10a9ca0205b9849b691702a9de6e00000000000000000000000000000000000000000000000000000000000001f4",
          "blockHash": "0xa06bac6baad6ecf95fb16a85958576872373e67b825895f7f2508d2eeb96841f",
          "blockNumber": "0x226e4dc",
          "blockTimestamp": "0x69612898",
          "transactionHash": "0xe1aa4322a672aa7c3faddb790e037297b4a0011856067b386cf9181b75f07ad6",
          "transactionIndex": "0x11",
          "logIndex": "0x1c",
          "removed": false
        }
      ],
      "logsBloom": "0x00000000000000000000000000000000000000000000000000000000000000000000000000000000000000000001000000000000000800000000000000000000000000000000000000000000000000000000000000000000000000000000000000000000000000000000000000000000000000010000000010000000000000000000000000000000000000000000000000000000000000000000000000000000000000000000000000000000000000000000000000000000000000000000000000000000000040000000000000000000000000000000000000002000000000000000000000000000000000000000000000000000000000000000000000000000",
      "type": "0x2",
      "transactionHash": "0xe1aa4322a672aa7c3faddb790e037297b4a0011856067b386cf9181b75f07ad6",
      "transactionIndex": "0x11",
      "blockHash": "0xa06bac6baad6ecf95fb16a85958576872373e67b825895f7f2508d2eeb96841f",
      "blockNumber": "0x226e4dc",
      "gasUsed": "0xbab6",
      "effectiveGasPrice": "0x124f80",
      "blobGasUsed": "0x79e0",
      "from": "0xf0830060f836b8d54bf02049e5905f619487989e",
      "to": "0x2cacbb166d8238be9aa6a45553b85953a6dfc326",
      "contractAddress": null,
      "daFootprintGasScalar": "0x138",
      "l1BaseFeeScalar": "0x44d",
      "l1BlobBaseFee": "0xeb518",
      "l1BlobBaseFeeScalar": "0xa118b",
      "l1Fee": "0x59b7c15",
      "l1GasPrice": "0x1044679",
      "l1GasUsed": "0x640"
    }
  ],
  "libraries": [],
  "pending": [],
  "returns": {},
  "timestamp": 1767975063,
  "chain": 84532,
  "commit": "a3f3d1b"
}