{
  "transactions": [
    {
      "hash": "0x822a15a8945c60e78693059d08b03b42d238bf00d60cee31aa59eab1d40dc15f",
      "transactionType": "CALL",
      "contractName": null,
      "contractAddress": "0x728a0a11714aec10c3c28da5c551e4326ab6a032",
      "function": "allowListToken(address,bool)",
      "arguments": [
        "0x9C504c9E4fBc92a780aA35f2441821962581c646",
        "true"
      ],
      "transaction": {
        "from": "0xf0830060f836b8d54bf02049e5905f619487989e",
        "to": "0x728a0a11714aec10c3c28da5c551e4326ab6a032",
        "gas": "0x13d81",
        "value": "0x0",
        "input": "0xb975f1b30000000000000000000000009c504c9e4fbc92a780aa35f2441821962581c6460000000000000000000000000000000000000000000000000000000000000001",
        "nonce": "0x58",
        "chainId": "0xaa044c"
      },
      "additionalContracts": [],
      "isFixedGasLimit": false
    },
    {
      "hash": "0x1193ec9b395bc8d0c98717d9a307898d9642f00475403449338fb2a423e7d9ef",
      "transactionType": "CALL",
      "contractName": null,
      "contractAddress": "0x728a0a11714aec10c3c28da5c551e4326ab6a032",
      "function": "setDecimals(address,uint8)",
      "arguments": [
        "0x9C504c9E4fBc92a780aA35f2441821962581c646",
        "6"
      ],
      "transaction": {
        "from": "0xf0830060f836b8d54bf02049e5905f619487989e",
        "to": "0x728a0a11714aec10c3c28da5c551e4326ab6a032",
        "gas": "0x12ca9",
        "value": "0x0",
        "input": "0xf2259f960000000000000000000000009c504c9e4fbc92a780aa35f2441821962581c6460000000000000000000000000000000000000000000000000000000000000006",
        "nonce": "0x59",
        "chainId": "0xaa044c"
      },
      "additionalContracts": [],
      "isFixedGasLimit": false
    }
  ],
  "receipts": [
    {
      "status": "0x1",
      "cumulativeGasUsed": "0x18d1f",
      "logs": [
        {
          "address": "0x728a0a11714aec10c3c28da5c551e4326ab6a032",
          "topics": [
            "0x9a8e30a8658b96ab3f034ce4bac6806278b4aee5880ccdd1ac35e4ed5bb31d23"
          ],
          "data": "0x0000000000000000000000009c504c9e4fbc92a780aa35f2441821962581c6460000000000000000000000000000000000000000000000000000000000000001",
          "blockHash": "0xdf7d7a8eec646663cc7f3ddfd4b7958c197befbaa64ab0d0979fe4f32ad3aeb4",
          "blockNumber": "0x13c2970",
          "blockTimestamp": "0x69bd2704",
          "transactionHash": "0x822a15a8945c60e78693059d08b03b42d238bf00d60cee31aa59eab1d40dc15f",
          "transactionIndex": "0x1",
          "logIndex": "0x0",
          "removed": false
        }
      ],
      "logsBloom": "0x00000000000000000000000000000000000000000000000000000000000000000000000000000000000000000000000000000000000000000000000000000000000000000000000000000001000000000040000000000000100000000000000000000000000000000000000000000000000001000000000000000000008000000000000000000000000000000000000000000000000000000000000000000000000000000000000000000000000000000000000000000000000000000000000000000000000000000000000000000000000000000000000000000000000020000000000000000000000000000000000000000000000000000000000000000000",
      "type": "0x2",
      "transactionHash": "0x822a15a8945c60e78693059d08b03b42d238bf00d60cee31aa59eab1d40dc15f",
      "transactionIndex": "0x1",
      "blockHash": "0xdf7d7a8eec646663cc7f3ddfd4b7958c197befbaa64ab0d0979fe4f32ad3aeb4",
      "blockNumber": "0x13c2970",
      "gasUsed": "0xd919",
      "effectiveGasPrice": "0xba44ab640",
      "blobGasUsed": "0x64",
      "from": "0xf0830060f836b8d54bf02049e5905f619487989e",
      "to": "0x728a0a11714aec10c3c28da5c551e4326ab6a032",
      "contractAddress": null,
      "daFootprintGasScalar": "0x1",
      "l1BaseFeeScalar": "0x0",
      "l1BlobBaseFee": "0x1",
      "l1BlobBaseFeeScalar": "0x0",
      "l1Fee": "0x0",
      "l1GasPrice": "0xc",
      "l1GasUsed": "0x640"
    },
    {
      "status": "0x1",
      "cumulativeGasUsed": "0x266cc",
      "logs": [
        {
          "address": "0x728a0a11714aec10c3c28da5c551e4326ab6a032",
          "topics": [
            "0x236e771abc981332874697c18edcefe526b1a17f2110c64f5d067a4638d9d8bd"
          ],
          "data": "0x0000000000000000000000009c504c9e4fbc92a780aa35f2441821962581c6460000000000000000000000000000000000000000000000000000000000000006",
          "blockHash": "0xdf7d7a8eec646663cc7f3ddfd4b7958c197befbaa64ab0d0979fe4f32ad3aeb4",
          "blockNumber": "0x13c2970",
          "blockTimestamp": "0x69bd2704",
          "transactionHash": "0x1193ec9b395bc8d0c98717d9a307898d9642f00475403449338fb2a423e7d9ef",
          "transactionIndex": "0x2",
          "logIndex": "0x1",
          "removed": false
        }
      ],
      "logsBloom": "0x00000000000000000000000000000000000000000000000000000000000000000000000000000000000000000000000000000000000000000000000000000000000000000000000000000001000000000000000000080000100000000000000000000000000000000000000000000000000001000000000000000000000000000000000000000000000000000000000000000000000000000000000000000000000000000000000000000000001000000000000000000000000000000000000000000000000000000000000000000000000000000000000000000000000000000000000000040000000000000000000000000000000000000000000000000000",
      "type": "0x2",
      "transactionHash": "0x1193ec9b395bc8d0c98717d9a307898d9642f00475403449338fb2a423e7d9ef",
      "transactionIndex": "0x2",
      "blockHash": "0xdf7d7a8eec646663cc7f3ddfd4b7958c197befbaa64ab0d0979fe4f32ad3aeb4",
      "blockNumber": "0x13c2970",
      "gasUsed": "0xd9ad",
      "effectiveGasPrice": "0xba44ab640",
      "blobGasUsed": "0x64",
      "from": "0xf0830060f836b8d54bf02049e5905f619487989e",
      "to": "0x728a0a11714aec10c3c28da5c551e4326ab6a032",
      "contractAddress": null,
      "daFootprintGasScalar": "0x1",
      "l1BaseFeeScalar": "0x0",
      "l1BlobBaseFee": "0x1",
      "l1BlobBaseFeeScalar": "0x0",
      "l1Fee": "0x0",
      "l1GasPrice": "0xc",
      "l1GasUsed": "0x640"
    }
  ],
  "libraries": [],
  "pending": [],
  "returns": {},
  "timestamp": 1774003972546,
  "chain": 11142220,
  "commit": "7098885"
}