{
  "transactions": [
    {
      "hash": "0xa80212037ede879cbfa72e50d340ea1b8cfcfe8f68feaa3649255dccceb9e0f7",
      "transactionType": "CALL",
      "contractName": null,
      "contractAddress": "0x2baace48c2102f062053bb6576fee2d5537b3d33",
      "function": "allowListToken(address,bool)",
      "arguments": [
        "0xbF956eB047146f60BF7025D8988cb2df87a961Fe",
        "true"
      ],
      "transaction": {
        "from": "0xf0830060f836b8d54bf02049e5905f619487989e",
        "to": "0x2baace48c2102f062053bb6576fee2d5537b3d33",
        "gas": "0x15266",
        "value": "0x0",
        "input": "0xb975f1b3000000000000000000000000bf956eb047146f60bf7025d8988cb2df87a961fe0000000000000000000000000000000000000000000000000000000000000001",
        "nonce": "0x2c1",
        "chainId": "0x14a34"
      },
      "additionalContracts": [],
      "isFixedGasLimit": false
    }
  ],
  "receipts": [
    {
      "status": "0x1",
      "cumulativeGasUsed": "0x17d336",
      "logs": [
        {
          "address": "0x2baace48c2102f062053bb6576fee2d5537b3d33",
          "topics": [
            "0x9a8e30a8658b96ab3f034ce4bac6806278b4aee5880ccdd1ac35e4ed5bb31d23"
          ],
          "data": "0x000000000000000000000000bf956eb047146f60bf7025d8988cb2df87a961fe0000000000000000000000000000000000000000000000000000000000000001",
          "blockHash": "0x3286aaa5bfc310d0d8dee9664fe20ae00277848019680a4d5131f92eb4ac3540",
          "blockNumber": "0x222f805",
          "blockTimestamp": "0x69594eea",
          "transactionHash": "0xa80212037ede879cbfa72e50d340ea1b8cfcfe8f68feaa3649255dccceb9e0f7",
          "transactionIndex": "0x11",
          "logIndex": "0xd",
          "removed": false
        }
      ],
      "logsBloom": "0x00000000000000000000000000000000000000000000000000000000000000000000000000000000000000000000000000000000000000000000000000000000000000000000000000000000000000000040000000200000000000000000000000000000000000000000000000000000000000000000000000000000008000000000000000000000000000000000000000000000000000000000800000000000000000000000000000000000000000000000000000000000000000000000000000000000000000000000000000000000000000000000000000400000000020000000000000000000000000000000000000000000000000000000000000000000",
      "type": "0x2",
      "transactionHash": "0xa80212037ede879cbfa72e50d340ea1b8cfcfe8f68feaa3649255dccceb9e0f7",
      "transactionIndex": "0x11",
      "blockHash": "0x3286aaa5bfc310d0d8dee9664fe20ae00277848019680a4d5131f92eb4ac3540",
      "blockNumber": "0x222f805",
      "gasUsed": "0xe763",
      "effectiveGasPrice": "0x124f80",
      "blobGasUsed": "0x79e0",
      "from": "0xf0830060f836b8d54bf02049e5905f619487989e",
      "to": "0x2baace48c2102f062053bb6576fee2d5537b3d33",
      "contractAddress": null,
      "daFootprintGasScalar": "0x138",
      "l1BaseFeeScalar": "0x44d",
      "l1BlobBaseFee": "0x89596",
      "l1BlobBaseFeeScalar": "0xa118b",
      "l1Fee": "0x6dc19a0",
      "l1GasPrice": "0x77af2f",
      "l1GasUsed": "0x640"
    }
  ],
  "libraries": [],
  "pending": [],
  "returns": {},
  "timestamp": 1767460585,
  "chain": 84532,
  "commit": "a3f3d1b"
}