{
  "transactions": [
    {
      "hash": "0x81d20d3712ce8ad75720680725733434394271d7e4b1fda706b3f53278bc04ad",
      "transactionType": "CALL",
      "contractName": null,
      "contractAddress": "0x8507aeb6bef1bea7de2cedf3a4aec7f88cb57765",
      "function": "allowListToken(address,bool)",
      "arguments": [
        "0xd9198F69cB2f28dEcB199fC5B9F6dCe8D5a44448",
        "true"
      ],
      "transaction": {
        "from": "0xf0830060f836b8d54bf02049e5905f619487989e",
        "to": "0x8507aeb6bef1bea7de2cedf3a4aec7f88cb57765",
        "gas": "0x15266",
        "value": "0x0",
        "input": "0xb975f1b3000000000000000000000000d9198f69cb2f28decb199fc5b9f6dce8d5a444480000000000000000000000000000000000000000000000000000000000000001",
        "nonce": "0x337",
        "chainId": "0x14a34"
      },
      "additionalContracts": [],
      "isFixedGasLimit": false
    },
    {
      "hash": "0x19f4f72efc2cc5febf0db7c6dfc9e07b5d85db7e4911a457fae9c9413516d805",
      "transactionType": "CALL",
      "contractName": null,
      "contractAddress": "0x8507aeb6bef1bea7de2cedf3a4aec7f88cb57765",
      "function": "setDecimals(address,uint8)",
      "arguments": [
        "0xd9198F69cB2f28dEcB199fC5B9F6dCe8D5a44448",
        "18"
      ],
      "transaction": {
        "from": "0xf0830060f836b8d54bf02049e5905f619487989e",
        "to": "0x8507aeb6bef1bea7de2cedf3a4aec7f88cb57765",
        "gas": "0x153a0",
        "value": "0x0",
        "input": "0xf2259f96000000000000000000000000d9198f69cb2f28decb199fc5b9f6dce8d5a444480000000000000000000000000000000000000000000000000000000000000012",
        "nonce": "0x338",
        "chainId": "0x14a34"
      },
      "additionalContracts": [],
      "isFixedGasLimit": false
    },
    {
      "hash": "0x20bf3216b6437ee755f9731deb7aa42e1263b507d282eebffa13052a011d9968",
      "transactionType": "CALL",
      "contractName": null,
      "contractAddress": "0x8507aeb6bef1bea7de2cedf3a4aec7f88cb57765",
      "function": "setPriceFeed(address,address)",
      "arguments": [
        "0xd9198F69cB2f28dEcB199fC5B9F6dCe8D5a44448",
        "0xd30e2101a97dcbAeBCBC04F14C3f624E67A35165"
      ],
      "transaction": {
        "from": "0xf0830060f836b8d54bf02049e5905f619487989e",
        "to": "0x8507aeb6bef1bea7de2cedf3a4aec7f88cb57765",
        "gas": "0x15719",
        "value": "0x0",
        "input": "0x76e11286000000000000000000000000d9198f69cb2f28decb199fc5b9f6dce8d5a44448000000000000000000000000d30e2101a97dcbaebcbc04f14c3f624e67a35165",
        "nonce": "0x339",
        "chainId": "0x14a34"
      },
      "additionalContracts": [],
      "isFixedGasLimit": false
    }
  ],
  "receipts": [
    {
      "status": "0x1",
      "cumulativeGasUsed": "0xd4e96",
      "logs": [
        {
          "address": "0x8507aeb6bef1bea7de2cedf3a4aec7f88cb57765",
          "topics": [
            "0x9a8e30a8658b96ab3f034ce4bac6806278b4aee5880ccdd1ac35e4ed5bb31d23"
          ],
          "data": "0x000000000000000000000000d9198f69cb2f28decb199fc5b9f6dce8d5a444480000000000000000000000000000000000000000000000000000000000000001",
          "blockHash": "0xd8bf34ccf080ddbbd89328f8f404f25d7f2913459bc7b2f1727bfbee09bc1df7",
          "blockNumber": "0x226e07c",
          "blockTimestamp": "0x69611fd8",
          "transactionHash": "0x81d20d3712ce8ad75720680725733434394271d7e4b1fda706b3f53278bc04ad",
          "transactionIndex": "0xf",
          "logIndex": "0x9",
          "removed": false
        }
      ],
      "logsBloom": "0x00000000000000010000000000000000000000000000000000000000000000000000000000000000000000000000000000000000000000000000000000000000000000000000000000000000000000000040000000000000000000000000000000000100000000000000000000000000000000000000000000000000008000000000000000000000000000000000000000000000000000000000000000000000000000000000000000000000000000000000000000000000000000000000000000000000000000000000000000000000000000000000000000000000000020000000000000000000000000000000000000000000020000000000000000000000",
      "type": "0x2",
      "transactionHash": "0x81d20d3712ce8ad75720680725733434394271d7e4b1fda706b3f53278bc04ad",
      "transactionIndex": "0xf",
      "blockHash": "0xd8bf34ccf080ddbbd89328f8f404f25d7f2913459bc7b2f1727bfbee09bc1df7",
      "blockNumber": "0x226e07c",
      "gasUsed": "0xe763",
      "effectiveGasPrice": "0x124f80",
      "blobGasUsed": "0x79e0",
      "from": "0xf0830060f836b8d54bf02049e5905f619487989e",
      "to": "0x8507aeb6bef1bea7de2cedf3a4aec7f88cb57765",
      "contractAddress": null,
      "daFootprintGasScalar": "0x138",
      "l1BaseFeeScalar": "0x44d",
      "l1BlobBaseFee": "0x197ba0",
      "l1BlobBaseFeeScalar": "0xa118b",
      "l1Fee": "0x99a694e",
      "l1GasPrice": "0x1b907c2",
      "l1GasUsed": "0x640"
    },
    {
      "status": "0x1",
      "cumulativeGasUsed": "0xe36cf",
      "logs": [
        {
          "address": "0x8507aeb6bef1bea7de2cedf3a4aec7f88cb57765",
          "topics": [
            "0x236e771abc981332874697c18edcefe526b1a17f2110c64f5d067a4638d9d8bd"
          ],
          "data": "0x000000000000000000000000d9198f69cb2f28decb199fc5b9f6dce8d5a444480000000000000000000000000000000000000000000000000000000000000012",
          "blockHash": "0xd8bf34ccf080ddbbd89328f8f404f25d7f2913459bc7b2f1727bfbee09bc1df7",
          "blockNumber": "0x226e07c",
          "blockTimestamp": "0x69611fd8",
          "transactionHash": "0x19f4f72efc2cc5febf0db7c6dfc9e07b5d85db7e4911a457fae9c9413516d805",
          "transactionIndex": "0x10",
          "logIndex": "0xa",
          "removed": false
        }
      ],
      "logsBloom": "0x00000000000000010000000000000000000000000000000000000000000000000000000000000000000000000000000000000000000000000000000000000000000000000000000000000000000000000000000000080000000000000000000000000100000000000000000000000000000000000000000000000000000000000000000000000000000000000000000000000000000000000000000000000000000000000000000000000000001000000000000000000000000000000000000000000000000000000000000000000000000000000000000000000000000000000000000000040000000000000000000000000000020000000000000000000000",
      "type": "0x2",
      "transactionHash": "0x19f4f72efc2cc5febf0db7c6dfc9e07b5d85db7e4911a457fae9c9413516d805",
      "transactionIndex": "0x10",
      "blockHash": "0xd8bf34ccf080ddbbd89328f8f404f25d7f2913459bc7b2f1727bfbee09bc1df7",
      "blockNumber": "0x226e07c",
      "gasUsed": "0xe839",
      "effectiveGasPrice": "0x124f80",
      "blobGasUsed": "0x79e0",
      "from": "0xf0830060f836b8d54bf02049e5905f619487989e",
      "to": "0x8507aeb6bef1bea7de2cedf3a4aec7f88cb57765",
      "contractAddress": null,
      "daFootprintGasScalar": "0x138",
      "l1BaseFeeScalar": "0x44d",
      "l1BlobBaseFee": "0x197ba0",
      "l1BlobBaseFeeScalar": "0xa118b",
      "l1Fee": "0x99a694e",
      "l1GasPrice": "0x1b907c2",
      "l1GasUsed": "0x640"
    },
    {
      "status": "0x1",
      "cumulativeGasUsed": "0xf2168",
      "logs": [
        {
          "address": "0x8507aeb6bef1bea7de2cedf3a4aec7f88cb57765",
          "topics": [
            "0xd2d8394cf7549a5ddbc2ba3dd7b2de8d53c891472d1f2907008ed6a10045fdae"
          ],
          "data": "0x000000000000000000000000d9198f69cb2f28decb199fc5b9f6dce8d5a44448000000000000000000000000d30e2101a97dcbaebcbc04f14c3f624e67a35165",
          "blockHash": "0xd8bf34ccf080ddbbd89328f8f404f25d7f2913459bc7b2f1727bfbee09bc1df7",
          "blockNumber": "0x226e07c",
          "blockTimestamp": "0x69611fd8",
          "transactionHash": "0x20bf3216b6437ee755f9731deb7aa42e1263b507d282eebffa13052a011d9968",
          "transactionIndex": "0x11",
          "logIndex": "0xb",
          "removed": false
        }
      ],
      "logsBloom": "0x00000000000000010000000000000000000000000080000000000000000000000000000000000000000000000000000000000000000000000000000000000000100000000000000000000000000000000000000000000000000000000000000000000100000000000000000000000000000000000000000000100000000000000000000000000000000000000000000000000000000000000000000000000000000000000000000000000000000000000000000000000000000000000000000000000000000000000000000000000000000000000000000000000000000000000000000000000000000000000000000000000000020000000000000000000000",
      "type": "0x2",
      "transactionHash": "0x20bf3216b6437ee755f9731deb7aa42e1263b507d282eebffa13052a011d9968",
      "transactionIndex": "0x11",
      "blockHash": "0xd8bf34ccf080ddbbd89328f8f404f25d7f2913459bc7b2f1727bfbee09bc1df7",
      "blockNumber": "0x226e07c",
      "gasUsed": "0xea99",
      "effectiveGasPrice": "0x124f80",
      "blobGasUsed": "0x7b18",
      "from": "0xf0830060f836b8d54bf02049e5905f619487989e",
      "to": "0x8507aeb6bef1bea7de2cedf3a4aec7f88cb57765",
      "contractAddress": null,
      "daFootprintGasScalar": "0x138",
      "l1BaseFeeScalar": "0x44d",
      "l1BlobBaseFee": "0x197ba0",
      "l1BlobBaseFeeScalar": "0xa118b",
      "l1Fee": "0x99a694e",
      "l1GasPrice": "0x1b907c2",
      "l1GasUsed": "0x654"
    }
  ],
  "libraries": [],
  "pending": [],
  "returns": {},
  "timestamp": 1767972823,
  "chain": 84532,
  "commit": "a3f3d1b"
}