{
  "transactions": [
    {
      "hash": "0x242d4c2eb1829944584ea04138d0fcb74f898bda327ecab5a9e53ff5554e961c",
      "transactionType": "CALL",
      "contractName": null,
      "contractAddress": "0x2baace48c2102f062053bb6576fee2d5537b3d33",
      "function": "setDecimals(address,uint8)",
      "arguments": [
        "0xbF956eB047146f60BF7025D8988cb2df87a961Fe",
        "18"
      ],
      "transaction": {
        "from": "0xf0830060f836b8d54bf02049e5905f619487989e",
        "to": "0x2baace48c2102f062053bb6576fee2d5537b3d33",
        "gas": "0x153a0",
        "value": "0x0",
        "input": "0xf2259f96000000000000000000000000bf956eb047146f60bf7025d8988cb2df87a961fe0000000000000000000000000000000000000000000000000000000000000012",
        "nonce": "0x2c3",
        "chainId": "0x14a34"
      },
      "additionalContracts": [],
      "isFixedGasLimit": false
    },
    {
      "hash": "0x4f9e32b2ec277bf6a810daf9fb8ffd782c93d6aba28db70ef2cdaf1a98461a98",
      "transactionType": "CALL",
      "contractName": null,
      "contractAddress": "0x2baace48c2102f062053bb6576fee2d5537b3d33",
      "function": "setPriceFeed(address,address)",
      "arguments": [
        "0xbF956eB047146f60BF7025D8988cb2df87a961Fe",
        "0xd30e2101a97dcbAeBCBC04F14C3f624E67A35165"
      ],
      "transaction": {
        "from": "0xf0830060f836b8d54bf02049e5905f619487989e",
        "to": "0x2baace48c2102f062053bb6576fee2d5537b3d33",
        "gas": "0x15719",
        "value": "0x0",
        "input": "0x76e11286000000000000000000000000bf956eb047146f60bf7025d8988cb2df87a961fe000000000000000000000000d30e2101a97dcbaebcbc04f14c3f624e67a35165",
        "nonce": "0x2c4",
        "chainId": "0x14a34"
      },
      "additionalContracts": [],
      "isFixedGasLimit": false
    }
  ],
  "receipts": [
    {
      "status": "0x1",
      "cumulativeGasUsed": "0x30cff8",
      "logs": [
        {
          "address": "0x2baace48c2102f062053bb6576fee2d5537b3d33",
          "topics": [
            "0x236e771abc981332874697c18edcefe526b1a17f2110c64f5d067a4638d9d8bd"
          ],
          "data": "0x000000000000000000000000bf956eb047146f60bf7025d8988cb2df87a961fe0000000000000000000000000000000000000000000000000000000000000012",
          "blockHash": "0x7afe450205c52522d9e56fdbf0e8ab341e9fde05c2fae6606cacaef93b263184",
          "blockNumber": "0x222f8bc",
          "blockTimestamp": "0x69595058",
          "transactionHash": "0x242d4c2eb1829944584ea04138d0fcb74f898bda327ecab5a9e53ff5554e961c",
          "transactionIndex": "0x19",
          "logIndex": "0x49",
          "removed": false
        }
      ],
      "logsBloom": "0x00000000000000000000000000000000000000000000000000000000000000000000000000000000000000000000000000000000000000000000000000000000000000000000000000000000000000000000000000280000000000000000000000000000000000000000000000000000000000000000000000000000000000000000000000000000000000000000000000000000000000000000800000000000000000000000000000000000001000000000000000000000000000000000000000000000000000000000000000000000000000000000000000400000000000000000000000040000000000000000000000000000000000000000000000000000",
      "type": "0x2",
      "transactionHash": "0x242d4c2eb1829944584ea04138d0fcb74f898bda327ecab5a9e53ff5554e961c",
      "transactionIndex": "0x19",
      "blockHash": "0x7afe450205c52522d9e56fdbf0e8ab341e9fde05c2fae6606cacaef93b263184",
      "blockNumber": "0x222f8bc",
      "gasUsed": "0xe839",
      "effectiveGasPrice": "0x124f80",
      "blobGasUsed": "0x79e0",
      "from": "0xf0830060f836b8d54bf02049e5905f619487989e",
      "to": "0x2baace48c2102f062053bb6576fee2d5537b3d33",
      "contractAddress": null,
      "daFootprintGasScalar": "0x138",
      "l1BaseFeeScalar": "0x44d",
      "l1BlobBaseFee": "0x1ab40",
      "l1BlobBaseFeeScalar": "0xa118b",
      "l1Fee": "0xc99b13",
      "l1GasPrice": "0xde109",
      "l1GasUsed": "0x640"
    },
    {
      "status": "0x1",
      "cumulativeGasUsed": "0x31ba91",
      "logs": [
        {
          "address": "0x2baace48c2102f062053bb6576fee2d5537b3d33",
          "topics": [
            "0xd2d8394cf7549a5ddbc2ba3dd7b2de8d53c891472d1f2907008ed6a10045fdae"
          ],
          "data": "0x000000000000000000000000bf956eb047146f60bf7025d8988cb2df87a961fe000000000000000000000000d30e2101a97dcbaebcbc04f14c3f624e67a35165",
          "blockHash": "0x7afe450205c52522d9e56fdbf0e8ab341e9fde05c2fae6606cacaef93b263184",
          "blockNumber": "0x222f8bc",
          "blockTimestamp": "0x69595058",
          "transactionHash": "0x4f9e32b2ec277bf6a810daf9fb8ffd782c93d6aba28db70ef2cdaf1a98461a98",
          "transactionIndex": "0x1a",
          "logIndex": "0x4a",
          "removed": false
        }
      ],
      "logsBloom": "0x00000000000000000000000000000000000000000080000000000000000000000000000000000000000000000000000000000000000000000000000000000000100000000000000000000000000000000000000000200000000000000000000000000000000000000000000000000000000000000000000000100000000000000000000000000000000000000000000000000000000000000000800000000000000000000000000000000000000000000000000000000000000000000000000000000000000000000000000000000000000000000000000000400000000000000000000000000000000000000000000000000000000000000000000000000000",
      "type": "0x2",
      "transactionHash": "0x4f9e32b2ec277bf6a810daf9fb8ffd782c93d6aba28db70ef2cdaf1a98461a98",
      "transactionIndex": "0x1a",
      "blockHash": "0x7afe450205c52522d9e56fdbf0e8ab341e9fde05c2fae6606cacaef93b263184",
      "blockNumber": "0x222f8bc",
      "gasUsed": "0xea99",
      "effectiveGasPrice": "0x124f80",
      "blobGasUsed": "0x7b18",
      "from": "0xf0830060f836b8d54bf02049e5905f619487989e",
      "to": "0x2baace48c2102f062053bb6576fee2d5537b3d33",
      "contractAddress": null,
      "daFootprintGasScalar": "0x138",
      "l1BaseFeeScalar": "0x44d",
      "l1BlobBaseFee": "0x1ab40",
      "l1BlobBaseFeeScalar": "0xa118b",
      "l1Fee": "0xc99b13",
      "l1GasPrice": "0xde109",
      "l1GasUsed": "0x654"
    }
  ],
  "libraries": [],
  "pending": [],
  "returns": {},
  "timestamp": 1767460952,
  "chain": 84532,
  "commit": "a3f3d1b"
}