{
  "transactions": [
    {
      "hash": "0x808c954066fd80e8f1a8f7893649ff9e5ff9766c9441e99360a6734d45a9ec58",
      "transactionType": "CALL",
      "contractName": null,
      "contractAddress": "0x326eb8878db774d2a0b9f64703fc64850a0eb1e1",
      "function": "stake(bytes32,uint256,address,uint256)",
      "arguments": [
        "0x49e05ec7ef0ddde0924d0c62315819d17e6d7a9e53250fe316f82db1ea39ff85",
        "0",
        "0x35dc79d9e011d60d84A4d401a4f7C701D6F69972",
        "0"
      ],
      "transaction": {
        "from": "0xf0830060f836b8d54bf02049e5905f619487989e",
        "to": "0x326eb8878db774d2a0b9f64703fc64850a0eb1e1",
        "gas": "0x50121",
        "value": "0x0",
        "input": "0xcdaa34a149e05ec7ef0ddde0924d0c62315819d17e6d7a9e53250fe316f82db1ea39ff85000000000000000000000000000000000000000000000000000000000000000000000000000000000000000035dc79d9e011d60d84a4d401a4f7c701d6f699720000000000000000000000000000000000000000000000000000000000000000",
        "nonce": "0x363",
        "chainId": "0x14a34"
      },
      "additionalContracts": [],
      "isFixedGasLimit": false
    }
  ],
  "receipts": [
    {
      "status": "0x1",
      "cumulativeGasUsed": "0x15fe73",
      "logs": [
        {
          "address": "0x35dc79d9e011d60d84a4d401a4f7c701d6f69972",
          "topics": [
            "0xddf252ad1be2c89b69c2b068fc378daa952ba7f163c4a11628f55a4df523b3ef",
            "0x000000000000000000000000f0830060f836b8d54bf02049e5905f619487989e",
            "0x0000000000000000000000002cacbb166d8238be9aa6a45553b85953a6dfc326"
          ],
          "data": "0x0000000000000000000000000000000000000000000000000000000000000000",
          "blockHash": "0x6e414c4800780e71bd1af51ce3681e25209a27b1233015d9a7f7809bdf4247b8",
          "blockNumber": "0x226e752",
          "blockTimestamp": "0x69612d84",
          "transactionHash": "0x808c954066fd80e8f1a8f7893649ff9e5ff9766c9441e99360a6734d45a9ec58",
          "transactionIndex": "0xd",
          "logIndex": "0x10",
          "removed": false
        },
        {
          "address": "0x35dc79d9e011d60d84a4d401a4f7c701d6f69972",
          "topics": [
            "0x8c5be1e5ebec7d5bd14f71427d1e84f3dd0314c0f7b2291e5b200ac8c7c3b925",
            "0x0000000000000000000000002cacbb166d8238be9aa6a45553b85953a6dfc326",
            "0x000000000000000000000000e6fb505a5c0f308c7c9ab37cd96defaf59f20cce"
          ],
          "data": "0x0000000000000000000000000000000000000000000000000000000000000000",
          "blockHash": "0x6e414c4800780e71bd1af51ce3681e25209a27b1233015d9a7f7809bdf4247b8",
          "blockNumber": "0x226e752",
          "blockTimestamp": "0x69612d84",
          "transactionHash": "0x808c954066fd80e8f1a8f7893649ff9e5ff9766c9441e99360a6734d45a9ec58",
          "transactionIndex": "0xd",
          "logIndex": "0x11",
          "removed": false
        },
        {
          "address": "0x35dc79d9e011d60d84a4d401a4f7c701d6f69972",
          "topics": [
            "0xddf252ad1be2c89b69c2b068fc378daa952ba7f163c4a11628f55a4df523b3ef",
            "0x0000000000000000000000002cacbb166d8238be9aa6a45553b85953a6dfc326",
            "0x000000000000000000000000e6fb505a5c0f308c7c9ab37cd96defaf59f20cce"
          ],
          "data": "0x0000000000000000000000000000000000000000000000000000000000000000",
          "blockHash": "0x6e414c4800780e71bd1af51ce3681e25209a27b1233015d9a7f7809bdf4247b8",
          "blockNumber": "0x226e752",
          "blockTimestamp": "0x69612d84",
          "transactionHash": "0x808c954066fd80e8f1a8f7893649ff9e5ff9766c9441e99360a6734d45a9ec58",
          "transactionIndex": "0xd",
          "logIndex": "0x12",
          "removed": false
        },
        {
          "address": "0xe6fb505a5c0f308c7c9ab37cd96defaf59f20cce",
          "topics": [
            "0x4a39dc06d4c0dbc64b70af90fd698a233a518aa5d07e595d983b8c0526c8f7fb",
            "0x0000000000000000000000002cacbb166d8238be9aa6a45553b85953a6dfc326",
            "0x0000000000000000000000000000000000000000000000000000000000000000",
            "0x0000000000000000000000002cacbb166d8238be9aa6a45553b85953a6dfc326"
          ],
          "data": "0x000000000000000000000000000000000000000000000000000000000000004000000000000000000000000000000000000000000000000000000000000000a00000000000000000000000000000000000000000000000000000000000000002b35d30d4a351cfcf12f6f4911cf01e10eeee19dc5db7d3e471bab58638390e541cc2684dfeb0b0b5fb8b5f7af8c32bb5ef562da5eba0a635c57b133340d8c986000000000000000000000000000000000000000000000000000000000000000200000000000000000000000000000000000000000000000000000000000000000000000000000000000000000000000000000000000000000000000000000000",
          "blockHash": "0x6e414c4800780e71bd1af51ce3681e25209a27b1233015d9a7f7809bdf4247b8",
          "blockNumber": "0x226e752",
          "blockTimestamp": "0x69612d84",
          "transactionHash": "0x808c954066fd80e8f1a8f7893649ff9e5ff9766c9441e99360a6734d45a9ec58",
          "transactionIndex": "0xd",
          "logIndex": "0x13",
          "removed": false
        },
        {
          "address": "0xe6fb505a5c0f308c7c9ab37cd96defaf59f20cce",
          "topics": [
            "0x2e6bb91f8cbcda0c93623c54d0403a43514fabc40084ec96b6d5379a74786298",
            "0x0000000000000000000000002cacbb166d8238be9aa6a45553b85953a6dfc326",
            "0x00000000000000000000000035dc79d9e011d60d84a4d401a4f7c701d6f69972",
            "0x0000000000000000000000000000000000000000000000000000000000000000"
          ],
          "data": "0x245f76e227fbd8d32315523ab81017264e771568277f9f23fe5b9abcab01129700000000000000000000000000000000000000000000000000000000000000600000000000000000000000000000000000000000000000000000000000000000000000000000000000000000000000000000000000000000000000000000000200000000000000000000000000000000000000000000000000000000000000010000000000000000000000000000000000000000000000000000000000000006",
          "blockHash": "0x6e414c4800780e71bd1af51ce3681e25209a27b1233015d9a7f7809bdf4247b8",
          "blockNumber": "0x226e752",
          "blockTimestamp": "0x69612d84",
          "transactionHash": "0x808c954066fd80e8f1a8f7893649ff9e5ff9766c9441e99360a6734d45a9ec58",
          "transactionIndex": "0xd",
          "logIndex": "0x14",
          "removed": false
        },
        {
          "address": "0xe6fb505a5c0f308c7c9ab37cd96defaf59f20cce",
          "topics": [
            "0xc3d58168c5ae7397731d063d5bbf3d657854427343f4c083240f7aacaa2d0f62",
            "0x0000000000000000000000002cacbb166d8238be9aa6a45553b85953a6dfc326",
            "0x0000000000000000000000002cacbb166d8238be9aa6a45553b85953a6dfc326",
            "0x000000000000000000000000f0830060f836b8d54bf02049e5905f619487989e"
          ],
          "data": "0xb35d30d4a351cfcf12f6f4911cf01e10eeee19dc5db7d3e471bab58638390e540000000000000000000000000000000000000000000000000000000000000000",
          "blockHash": "0x6e414c4800780e71bd1af51ce3681e25209a27b1233015d9a7f7809bdf4247b8",
          "blockNumber": "0x226e752",
          "blockTimestamp": "0x69612d84",
          "transactionHash": "0x808c954066fd80e8f1a8f7893649ff9e5ff9766c9441e99360a6734d45a9ec58",
          "transactionIndex": "0xd",
          "logIndex": "0x15",
          "removed": false
        },
        {
          "address": "0x2cacbb166d8238be9aa6a45553b85953a6dfc326",
          "topics": [
            "0xdcbc1c05240f31ff3ad067ef1ee35ce4997762752e3a095284754544f4c709d7",
            "0x000000000000000000000000f0830060f836b8d54bf02049e5905f619487989e"
          ],
          "data": "0x00000000000000000000000035dc79d9e011d60d84a4d401a4f7c701d6f6997200000000000000000000000000000000000000000000000000000000000000000000000000000000000000000000000000000000000000000000000000000000",
          "blockHash": "0x6e414c4800780e71bd1af51ce3681e25209a27b1233015d9a7f7809bdf4247b8",
          "blockNumber": "0x226e752",
          "blockTimestamp": "0x69612d84",
          "transactionHash": "0x808c954066fd80e8f1a8f7893649ff9e5ff9766c9441e99360a6734d45a9ec58",
          "transactionIndex": "0xd",
          "logIndex": "0x16",
          "removed": false
        },
        {
          "address": "0x2cacbb166d8238be9aa6a45553b85953a6dfc326",
          "topics": [
            "0x9ed109b2a2968be3fdddec5e55cf76e8a6f80e9c928400cd7bd3af1c82ce7d25",
            "0x49e05ec7ef0ddde0924d0c62315819d17e6d7a9e53250fe316f82db1ea39ff85",
            "0x000000000000000000000000f0830060f836b8d54bf02049e5905f619487989e",
            "0x0000000000000000000000000000000000000000000000000000000000000000"
          ],
          "data": "0xb35d30d4a351cfcf12f6f4911cf01e10eeee19dc5db7d3e471bab58638390e540000000000000000000000000000000000000000000000000000000000000000",
          "blockHash": "0x6e414c4800780e71bd1af51ce3681e25209a27b1233015d9a7f7809bdf4247b8",
          "blockNumber": "0x226e752",
          "blockTimestamp": "0x69612d84",
          "transactionHash": "0x808c954066fd80e8f1a8f7893649ff9e5ff9766c9441e99360a6734d45a9ec58",
          "transactionIndex": "0xd",
          "logIndex": "0x17",
          "removed": false
        },
        {
          "address": "0x326eb8878db774d2a0b9f64703fc64850a0eb1e1",
          "topics": [
            "0xe10d334c80f8d843ed167847db842a9cb957c80dd3a216c2ae8ba89d231d288f"
          ],
          "data": "0x49e05ec7ef0ddde0924d0c62315819d17e6d7a9e53250fe316f82db1ea39ff85000000000000000000000000000000000000000000000000000000000000000000000000000000000000000035dc79d9e011d60d84a4d401a4f7c701d6f699720000000000000000000000000000000000000000000000000000000000000000",
          "blockHash": "0x6e414c4800780e71bd1af51ce3681e25209a27b1233015d9a7f7809bdf4247b8",
          "blockNumber": "0x226e752",
          "blockTimestamp": "0x69612d84",
          "transactionHash": "0x808c954066fd80e8f1a8f7893649ff9e5ff9766c9441e99360a6734d45a9ec58",
          "transactionIndex": "0xd",
          "logIndex": "0x18",
          "removed": false
        }
      ],
      "logsBloom": "0x00800000000000000000004001000000000000000000000000000000000000000000000004000000010004002001000000000000000800000000000000202008400000400000000000004008001000000000000000000000000000000000000000000401020000000001000000000800000000000804000000000010040000000000000000000000000400000000000800100000000000000000000000000000020002000100000000000000000000000000000000000200000000000010000020000002000040000000000001005000000440000008002000000000000020000018010000000000000000000200002000000000000000000000080002000000",
      "type": "0x2",
      "transactionHash": "0x808c954066fd80e8f1a8f7893649ff9e5ff9766c9441e99360a6734d45a9ec58",
      "transactionIndex": "0xd",
      "blockHash": "0x6e414c4800780e71bd1af51ce3681e25209a27b1233015d9a7f7809bdf4247b8",
      "blockNumber": "0x226e752",
      "gasUsed": "0x39f84",
      "effectiveGasPrice": "0x124f80",
      "blobGasUsed": "0x8748",
      "from": "0xf0830060f836b8d54bf02049e5905f619487989e",
      "to": "0x326eb8878db774d2a0b9f64703fc64850a0eb1e1",
      "contractAddress": null,
      "daFootprintGasScalar": "0x138",
      "l1BaseFeeScalar": "0x44d",
      "l1BlobBaseFee": "0xc04b3",
      "l1BlobBaseFeeScalar": "0xa118b",
      "l1Fee": "0x4640f92",
      "l1GasPrice": "0xbbe9da",
      "l1GasUsed": "0x6f5"
    }
  ],
  "libraries": [],
  "pending": [],
  "returns": {},
  "timestamp": 1767976323,
  "chain": 84532,
  "commit": "a3f3d1b"
}