{
  "transactions": [
    {
      "hash": "0xa2afc433e2b97a0f0eb5b652da2c3db66211f09719d8bd88f8a06aba02e6fd07",
      "transactionType": "CALL",
      "contractName": null,
      "contractAddress": "0x4c6d2b645d5d62d79e2396b4c3564ccd83c338d5",
      "function": "stake(bytes32,uint256,address,uint256)",
      "arguments": [
        "0xb6fba499e6921df812b67fbfd37368e9cceb8d27f5e8ac3c63cacc8e8ca9803c",
        "1",
        "0xbF956eB047146f60BF7025D8988cb2df87a961Fe",
        "1"
      ],
      "transaction": {
        "from": "0xf0830060f836b8d54bf02049e5905f619487989e",
        "to": "0x4c6d2b645d5d62d79e2396b4c3564ccd83c338d5",
        "gas": "0x6913d",
        "value": "0x0",
        "input": "0xcdaa34a1b6fba499e6921df812b67fbfd37368e9cceb8d27f5e8ac3c63cacc8e8ca9803c0000000000000000000000000000000000000000000000000000000000000001000000000000000000000000bf956eb047146f60bf7025d8988cb2df87a961fe0000000000000000000000000000000000000000000000000000000000000001",
        "nonce": "0x2c5",
        "chainId": "0x14a34"
      },
      "additionalContracts": [],
      "isFixedGasLimit": false
    }
  ],
  "receipts": [
    {
      "status": "0x1",
      "cumulativeGasUsed": "0xabf26",
      "logs": [
        {
          "address": "0xbf956eb047146f60bf7025d8988cb2df87a961fe",
          "topics": [
            "0xddf252ad1be2c89b69c2b068fc378daa952ba7f163c4a11628f55a4df523b3ef",
            "0x000000000000000000000000f0830060f836b8d54bf02049e5905f619487989e",
            "0x0000000000000000000000005627c03d624f216534adff025c443c24ffc91a15"
          ],
          "data": "0x0000000000000000000000000000000000000000000000000000000000000001",
          "blockHash": "0x96b4bd6785338ad9ad012d17659632de47e69a75f7a39a8a6e6e6a952ddbb197",
          "blockNumber": "0x222f8c9",
          "blockTimestamp": "0x69595072",
          "transactionHash": "0xa2afc433e2b97a0f0eb5b652da2c3db66211f09719d8bd88f8a06aba02e6fd07",
          "transactionIndex": "0x6",
          "logIndex": "0x9",
          "removed": false
        },
        {
          "address": "0xbf956eb047146f60bf7025d8988cb2df87a961fe",
          "topics": [
            "0x8c5be1e5ebec7d5bd14f71427d1e84f3dd0314c0f7b2291e5b200ac8c7c3b925",
            "0x0000000000000000000000005627c03d624f216534adff025c443c24ffc91a15",
            "0x0000000000000000000000001627883fda4b08dd55234eb7e886a25726c1b70c"
          ],
          "data": "0x0000000000000000000000000000000000000000000000000000000000000001",
          "blockHash": "0x96b4bd6785338ad9ad012d17659632de47e69a75f7a39a8a6e6e6a952ddbb197",
          "blockNumber": "0x222f8c9",
          "blockTimestamp": "0x69595072",
          "transactionHash": "0xa2afc433e2b97a0f0eb5b652da2c3db66211f09719d8bd88f8a06aba02e6fd07",
          "transactionIndex": "0x6",
          "logIndex": "0xa",
          "removed": false
        },
        {
          "address": "0xbf956eb047146f60bf7025d8988cb2df87a961fe",
          "topics": [
            "0xddf252ad1be2c89b69c2b068fc378daa952ba7f163c4a11628f55a4df523b3ef",
            "0x0000000000000000000000005627c03d624f216534adff025c443c24ffc91a15",
            "0x0000000000000000000000001627883fda4b08dd55234eb7e886a25726c1b70c"
          ],
          "data": "0x0000000000000000000000000000000000000000000000000000000000000001",
          "blockHash": "0x96b4bd6785338ad9ad012d17659632de47e69a75f7a39a8a6e6e6a952ddbb197",
          "blockNumber": "0x222f8c9",
          "blockTimestamp": "0x69595072",
          "transactionHash": "0xa2afc433e2b97a0f0eb5b652da2c3db66211f09719d8bd88f8a06aba02e6fd07",
          "transactionIndex": "0x6",
          "logIndex": "0xb",
          "removed": false
        },
        {
          "address": "0x1627883fda4b08dd55234eb7e886a25726c1b70c",
          "topics": [
            "0x4a39dc06d4c0dbc64b70af90fd698a233a518aa5d07e595d983b8c0526c8f7fb",
            "0x0000000000000000000000005627c03d624f216534adff025c443c24ffc91a15",
            "0x0000000000000000000000000000000000000000000000000000000000000000",
            "0x0000000000000000000000005627c03d624f216534adff025c443c24ffc91a15"
          ],
          "data": "0x000000000000000000000000000000000000000000000000000000000000004000000000000000000000000000000000000000000000000000000000000000a00000000000000000000000000000000000000000000000000000000000000002629d83aa721bba57f04dfccbe2fee50b3161ab7dc2407328a3484fc9d9bb8045e2dee7f86d5362d576646d8963d996ddd343318ff1c6724044743fc571b348cf000000000000000000000000000000000000000000000000000000000000000200000000000000000000000000000000000000000000000000000000000000010000000000000000000000000000000000000000000000000000000000000001",
          "blockHash": "0x96b4bd6785338ad9ad012d17659632de47e69a75f7a39a8a6e6e6a952ddbb197",
          "blockNumber": "0x222f8c9",
          "blockTimestamp": "0x69595072",
          "transactionHash": "0xa2afc433e2b97a0f0eb5b652da2c3db66211f09719d8bd88f8a06aba02e6fd07",
          "transactionIndex": "0x6",
          "logIndex": "0xc",
          "removed": false
        },
        {
          "address": "0x1627883fda4b08dd55234eb7e886a25726c1b70c",
          "topics": [
            "0x2e6bb91f8cbcda0c93623c54d0403a43514fabc40084ec96b6d5379a74786298",
            "0x0000000000000000000000005627c03d624f216534adff025c443c24ffc91a15",
            "0x000000000000000000000000bf956eb047146f60bf7025d8988cb2df87a961fe",
            "0x0000000000000000000000000000000000000000000000000000000000000000"
          ],
          "data": "0x5cd9701074113a52ee98758ee275930aad89229278c76739c06212eed83fb1ca00000000000000000000000000000000000000000000000000000000000000600000000000000000000000000000000000000000000000000000000000000001000000000000000000000000000000000000000000000000000000000000000200000000000000000000000000000000000000000000000000000000000000020000000000000000000000000000000000000000000000000000000000000001",
          "blockHash": "0x96b4bd6785338ad9ad012d17659632de47e69a75f7a39a8a6e6e6a952ddbb197",
          "blockNumber": "0x222f8c9",
          "blockTimestamp": "0x69595072",
          "transactionHash": "0xa2afc433e2b97a0f0eb5b652da2c3db66211f09719d8bd88f8a06aba02e6fd07",
          "transactionIndex": "0x6",
          "logIndex": "0xd",
          "removed": false
        },
        {
          "address": "0x1627883fda4b08dd55234eb7e886a25726c1b70c",
          "topics": [
            "0xc3d58168c5ae7397731d063d5bbf3d657854427343f4c083240f7aacaa2d0f62",
            "0x0000000000000000000000005627c03d624f216534adff025c443c24ffc91a15",
            "0x0000000000000000000000005627c03d624f216534adff025c443c24ffc91a15",
            "0x000000000000000000000000f0830060f836b8d54bf02049e5905f619487989e"
          ],
          "data": "0x629d83aa721bba57f04dfccbe2fee50b3161ab7dc2407328a3484fc9d9bb80450000000000000000000000000000000000000000000000000000000000000001",
          "blockHash": "0x96b4bd6785338ad9ad012d17659632de47e69a75f7a39a8a6e6e6a952ddbb197",
          "blockNumber": "0x222f8c9",
          "blockTimestamp": "0x69595072",
          "transactionHash": "0xa2afc433e2b97a0f0eb5b652da2c3db66211f09719d8bd88f8a06aba02e6fd07",
          "transactionIndex": "0x6",
          "logIndex": "0xe",
          "removed": false
        },
        {
          "address": "0x5627c03d624f216534adff025c443c24ffc91a15",
          "topics": [
            "0xdcbc1c05240f31ff3ad067ef1ee35ce4997762752e3a095284754544f4c709d7",
            "0x000000000000000000000000f0830060f836b8d54bf02049e5905f619487989e"
          ],
          "data": "0x000000000000000000000000bf956eb047146f60bf7025d8988cb2df87a961fe00000000000000000000000000000000000000000000000000000000000000010000000000000000000000000000000000000000000000000000000000000000",
          "blockHash": "0x96b4bd6785338ad9ad012d17659632de47e69a75f7a39a8a6e6e6a952ddbb197",
          "blockNumber": "0x222f8c9",
          "blockTimestamp": "0x69595072",
          "transactionHash": "0xa2afc433e2b97a0f0eb5b652da2c3db66211f09719d8bd88f8a06aba02e6fd07",
          "transactionIndex": "0x6",
          "logIndex": "0xf",
          "removed": false
        },
        {
          "address": "0x5627c03d624f216534adff025c443c24ffc91a15",
          "topics": [
            "0x9ed109b2a2968be3fdddec5e55cf76e8a6f80e9c928400cd7bd3af1c82ce7d25",
            "0xb6fba499e6921df812b67fbfd37368e9cceb8d27f5e8ac3c63cacc8e8ca9803c",
            "0x000000000000000000000000f0830060f836b8d54bf02049e5905f619487989e",
            "0x0000000000000000000000000000000000000000000000000000000000000001"
          ],
          "data": "0x629d83aa721bba57f04dfccbe2fee50b3161ab7dc2407328a3484fc9d9bb80450000000000000000000000000000000000000000000000000000000000000001",
          "blockHash": "0x96b4bd6785338ad9ad012d17659632de47e69a75f7a39a8a6e6e6a952ddbb197",
          "blockNumber": "0x222f8c9",
          "blockTimestamp": "0x69595072",
          "transactionHash": "0xa2afc433e2b97a0f0eb5b652da2c3db66211f09719d8bd88f8a06aba02e6fd07",
          "transactionIndex": "0x6",
          "logIndex": "0x10",
          "removed": false
        },
        {
          "address": "0x4c6d2b645d5d62d79e2396b4c3564ccd83c338d5",
          "topics": [
            "0xe10d334c80f8d843ed167847db842a9cb957c80dd3a216c2ae8ba89d231d288f"
          ],
          "data": "0xb6fba499e6921df812b67fbfd37368e9cceb8d27f5e8ac3c63cacc8e8ca9803c0000000000000000000000000000000000000000000000000000000000000001000000000000000000000000bf956eb047146f60bf7025d8988cb2df87a961fe0000000000000000000000000000000000000000000000000000000000000001",
          "blockHash": "0x96b4bd6785338ad9ad012d17659632de47e69a75f7a39a8a6e6e6a952ddbb197",
          "blockNumber": "0x222f8c9",
          "blockTimestamp": "0x69595072",
          "transactionHash": "0xa2afc433e2b97a0f0eb5b652da2c3db66211f09719d8bd88f8a06aba02e6fd07",
          "transactionIndex": "0x6",
          "logIndex": "0x11",
          "removed": false
        }
      ],
      "logsBloom": "0x00000000000000000000000009000000000000000000000000000000000000000000004000000000010000002000000000000000000000000000000000242008000000400000000000000008001000002400000000140000020000000001000000000000020000000001000000000800000000000804000000000010040000020000000000000020000400000000000800000000000000000000000000000000060002000000000000020100000000000000000000000000000000000000040080040002000000000000000000005000040400000008080000000800008062000018000200000000000000000000000000000240000000000000080002000000",
      "type": "0x2",
      "transactionHash": "0xa2afc433e2b97a0f0eb5b652da2c3db66211f09719d8bd88f8a06aba02e6fd07",
      "transactionIndex": "0x6",
      "blockHash": "0x96b4bd6785338ad9ad012d17659632de47e69a75f7a39a8a6e6e6a952ddbb197",
      "blockNumber": "0x222f8c9",
      "gasUsed": "0x47d91",
      "effectiveGasPrice": "0x124f80",
      "blobGasUsed": "0x8fd0",
      "from": "0xf0830060f836b8d54bf02049e5905f619487989e",
      "to": "0x4c6d2b645d5d62d79e2396b4c3564ccd83c338d5",
      "contractAddress": null,
      "daFootprintGasScalar": "0x138",
      "l1BaseFeeScalar": "0x44d",
      "l1BlobBaseFee": "0x17571",
      "l1BlobBaseFeeScalar": "0xa118b",
      "l1Fee": "0x76083f",
      "l1GasPrice": "0xc5c8e",
      "l1GasUsed": "0x76d"
    }
  ],
  "libraries": [],
  "pending": [],
  "returns": {},
  "timestamp": 1767460976,
  "chain": 84532,
  "commit": "a3f3d1b"
}