{
  "transactions": [
    {
      "hash": "0xfbfa83b87e0db3262ea61d8523d47612d449dad4b1b8ae87d0efdf95045f7196",
      "transactionType": "CALL",
      "contractName": null,
      "contractAddress": "0x19b16c6846b42bd4d0ca96efb55b9aa66eaf55ef",
      "function": "setCreForwarderAddress(address)",
      "arguments": [
        "0x82300bd7c3958625581cc2F77bC6464dcEcDF3e5"
      ],
      "transaction": {
        "from": "0xf0830060f836b8d54bf02049e5905f619487989e",
        "to": "0x19b16c6846b42bd4d0ca96efb55b9aa66eaf55ef",
        "gas": "0xb4d1",
        "value": "0x0",
        "input": "0xf3580a2200000000000000000000000082300bd7c3958625581cc2f77bc6464dcecdf3e5",
        "nonce": "0x563",
        "chainId": "0x14a34"
      },
      "additionalContracts": [],
      "isFixedGasLimit": false
    }
  ],
  "receipts": [
    {
      "status": "0x1",
      "cumulativeGasUsed": "0x325d24",
      "logs": [],
      "logsBloom": "0x00000000000000000000000000000000000000000000000000000000000000000000000000000000000000000000000000000000000000000000000000000000000000000000000000000000000000000000000000000000000000000000000000000000000000000000000000000000000000000000000000000000000000000000000000000000000000000000000000000000000000000000000000000000000000000000000000000000000000000000000000000000000000000000000000000000000000000000000000000000000000000000000000000000000000000000000000000000000000000000000000000000000000000000000000000000",
      "type": "0x2",
      "transactionHash": "0xfbfa83b87e0db3262ea61d8523d47612d449dad4b1b8ae87d0efdf95045f7196",
      "transactionIndex": "0x18",
      "blockHash": "0x0000000000000000000000000000000000000000000000000000000000000000",
      "blockNumber": "0x2457d35",
      "gasUsed": "0x7ba3",
      "effectiveGasPrice": "0x5b8d80",
      "blobGasUsed": "0x364c",
      "from": "0xf0830060f836b8d54bf02049e5905f619487989e",
      "to": "0x19b16c6846b42bd4d0ca96efb55b9aa66eaf55ef",
      "contractAddress": null,
      "daFootprintGasScalar": "0x8b",
      "l1BaseFeeScalar": "0x44d",
      "l1BlobBaseFee": "0x1",
      "l1BlobBaseFeeScalar": "0xa118b",
      "l1Fee": "0x58",
      "l1GasPrice": "0xd",
      "l1GasUsed": "0x640"
    }
  ],
  "libraries": [],
  "pending": [],
  "returns": {},
  "timestamp": 1771985225657,
  "chain": 84532,
  "commit": "2d7a22f"
}