{
  "transactions": [
    {
      "hash": "0x1f5b3b569e414a6c54b7c1766e24d1261273fcf3132ade84deac355d5f9d8262",
      "transactionType": "CALL",
      "contractName": null,
      "contractAddress": "0xd6403378e4f729d6a143b131cc28e3698d510676",
      "function": "updateSubscriptionId(uint64)",
      "arguments": [
        "530"
      ],
      "transaction": {
        "from": "0xf0830060f836b8d54bf02049e5905f619487989e",
        "to": "0xd6403378e4f729d6a143b131cc28e3698d510676",
        "gas": "0x9803",
        "value": "0x0",
        "input": "0x14b1dd1b0000000000000000000000000000000000000000000000000000000000000212",
        "nonce": "0x1f5",
        "chainId": "0x14a34"
      },
      "additionalContracts": [],
      "isFixedGasLimit": false
    },
    {
      "hash": "0x8a500dad4227ce7e0fa0ba95510a20e53a8db011ba0e040d8d7b4b4d0392cf7d",
      "transactionType": "CALL",
      "contractName": null,
      "contractAddress": "0xd6403378e4f729d6a143b131cc28e3698d510676",
      "function": "updateDonId(bytes32)",
      "arguments": [
        "0x756e2d626173652d7365706f6c69612d31000000000000000000000000000000"
      ],
      "transaction": {
        "from": "0xf0830060f836b8d54bf02049e5905f619487989e",
        "to": "0xd6403378e4f729d6a143b131cc28e3698d510676",
        "gas": "0x994f",
        "value": "0x0",
        "input": "0x6df0c747756e2d626173652d7365706f6c69612d31000000000000000000000000000000",
        "nonce": "0x1f6",
        "chainId": "0x14a34"
      },
      "additionalContracts": [],
      "isFixedGasLimit": false
    },
    {
      "hash": "0x60d039cbe4c6639228f1c1020eb92d275440250d5ee6e558792d1f323e79ab4c",
      "transactionType": "CALL",
      "contractName": null,
      "contractAddress": "0xd6403378e4f729d6a143b131cc28e3698d510676",
      "function": "updateCallbackGasLimit(uint32)",
      "arguments": [
        "300000"
      ],
      "transaction": {
        "from": "0xf0830060f836b8d54bf02049e5905f619487989e",
        "to": "0xd6403378e4f729d6a143b131cc28e3698d510676",
        "gas": "0x993b",
        "value": "0x0",
        "input": "0xb0e8d08600000000000000000000000000000000000000000000000000000000000493e0",
        "nonce": "0x1f7",
        "chainId": "0x14a34"
      },
      "additionalContracts": [],
      "isFixedGasLimit": false
    }
  ],
  "receipts": [
    {
      "status": "0x1",
      "cumulativeGasUsed": "0x70b212",
      "logs": [
        {
          "address": "0xd6403378e4f729d6a143b131cc28e3698d510676",
          "topics": [
            "0xfe1ef567ce884ef794b945e4334aba185ec62ce1f1d71ea9becb1a7d39d561d0"
          ],
          "data": "0x0000000000000000000000000000000000000000000000000000000000000212",
          "blockHash": "0xa3c8a332d9409c82758fed50a7eaa8faa47972503fa018bcfde268b2ae935cbd",
          "blockNumber": "0x2129cb1",
          "blockTimestamp": "0x69389842",
          "transactionHash": "0x1f5b3b569e414a6c54b7c1766e24d1261273fcf3132ade84deac355d5f9d8262",
          "transactionIndex": "0x10",
          "logIndex": "0x98",
          "removed": false
        }
      ],
      "logsBloom": "0x00000000000000000000000000000000201000000000000000000000000000000000000000000000000000000000000000000000000000000000000000000000000000000000000000000000000000000000000000000000000200000000000000000000000000000000000000000000000000004000000000000000000000000000000000000000000000000000000000000000000000040000000000000000000000000000000000000000000000000000000000000000000000000000000000000000000000000000000000000000000000000000000000000200000000000000000000000000000000000000000000000000000000000000000000000000",
      "type": "0x2",
      "transactionHash": "0x1f5b3b569e414a6c54b7c1766e24d1261273fcf3132ade84deac355d5f9d8262",
      "transactionIndex": "0x10",
      "blockHash": "0xa3c8a332d9409c82758fed50a7eaa8faa47972503fa018bcfde268b2ae935cbd",
      "blockNumber": "0x2129cb1",
      "gasUsed": "0x6e0f",
      "effectiveGasPrice": "0x124f80",
      "blobGasUsed": "0x79e0",
      "from": "0xf0830060f836b8d54bf02049e5905f619487989e",
      "to": "0xd6403378e4f729d6a143b131cc28e3698d510676",
      "contractAddress": null,
      "daFootprintGasScalar": "0x138",
      "l1BaseFeeScalar": "0x44d",
      "l1BlobBaseFee": "0x1",
      "l1BlobBaseFeeScalar": "0xa118b",
      "l1Fee": "0x19c",
      "l1GasPrice": "0x7",
      "l1GasUsed": "0x640"
    },
    {
      "status": "0x1",
      "cumulativeGasUsed": "0x73c8ae",
      "logs": [
        {
          "address": "0xd6403378e4f729d6a143b131cc28e3698d510676",
          "topics": [
            "0x8636b239fb28228ed411937d379e0ac65fc0baaa856f6366d197e08c119feb07"
          ],
          "data": "0x756e2d626173652d7365706f6c69612d31000000000000000000000000000000",
          "blockHash": "0x206ac36701110183fad153a7a51d8e6dff9910e087c593c6b771626e927a9946",
          "blockNumber": "0x2129cb1",
          "blockTimestamp": "0x69389842",
          "transactionHash": "0x8a500dad4227ce7e0fa0ba95510a20e53a8db011ba0e040d8d7b4b4d0392cf7d",
          "transactionIndex": "0x15",
          "logIndex": "0x9d",
          "removed": false
        }
      ],
      "logsBloom": "0x00000000000000000000000000000000201000000000000000000000000000000000000000000000000000000000000000000000000000000000000000000000000000000000000000000000000000000000000000000000000200000000000000000000000000000000000000000000000000000000000000000000000000000000000000010000000000000000000000000000000000000000000000000200000000000000000000000000000000000000000000000000000000000000000000000000000000000000000000000000000000000000000000000000000000000000000000000000080000000000000000000000000000000000000000000000",
      "type": "0x2",
      "transactionHash": "0x8a500dad4227ce7e0fa0ba95510a20e53a8db011ba0e040d8d7b4b4d0392cf7d",
      "transactionIndex": "0x15",
      "blockHash": "0x206ac36701110183fad153a7a51d8e6dff9910e087c593c6b771626e927a9946",
      "blockNumber": "0x2129cb1",
      "gasUsed": "0x6eff",
      "effectiveGasPrice": "0x124f80",
      "blobGasUsed": "0x79e0",
      "from": "0xf0830060f836b8d54bf02049e5905f619487989e",
      "to": "0xd6403378e4f729d6a143b131cc28e3698d510676",
      "contractAddress": null,
      "daFootprintGasScalar": "0x138",
      "l1BaseFeeScalar": "0x44d",
      "l1BlobBaseFee": "0x1",
      "l1BlobBaseFeeScalar": "0xa118b",
      "l1Fee": "0x4e",
      "l1GasPrice": "0x7",
      "l1GasUsed": "0x640"
    },
    {
      "status": "0x1",
      "cumulativeGasUsed": "0x74379e",
      "logs": [
        {
          "address": "0xd6403378e4f729d6a143b131cc28e3698d510676",
          "topics": [
            "0x25358b14cd4557629ee75bbccedef47b9c0fe38c159233fb711b4c547692f889"
          ],
          "data": "0x00000000000000000000000000000000000000000000000000000000000493e0",
          "blockHash": "0x206ac36701110183fad153a7a51d8e6dff9910e087c593c6b771626e927a9946",
          "blockNumber": "0x2129cb1",
          "blockTimestamp": "0x69389842",
          "transactionHash": "0x60d039cbe4c6639228f1c1020eb92d275440250d5ee6e558792d1f323e79ab4c",
          "transactionIndex": "0x16",
          "logIndex": "0x9e",
          "removed": false
        }
      ],
      "logsBloom": "0x00000000000000000000000000000000201000000000000000000000000000000000000000000000000000000000000000000000000000000000000000000000000000000010000000000000000000000000000000000080000200000000000000000000000000000000000000000000000000000000000000000000000000000000000000000000000000000000000000000000000000000000000000000000000000000000000000000000000000000000000000000000200000000000000000000000000000000000000000000000000000000000000000000000000000000000000000000000000000000000000000000000000000000000000000000000",
      "type": "0x2",
      "transactionHash": "0x60d039cbe4c6639228f1c1020eb92d275440250d5ee6e558792d1f323e79ab4c",
      "transactionIndex": "0x16",
      "blockHash": "0x206ac36701110183fad153a7a51d8e6dff9910e087c593c6b771626e927a9946",
      "blockNumber": "0x2129cb1",
      "gasUsed": "0x6ef0",
      "effectiveGasPrice": "0x124f80",
      "blobGasUsed": "0x79e0",
      "from": "0xf0830060f836b8d54bf02049e5905f619487989e",
      "to": "0xd6403378e4f729d6a143b131cc28e3698d510676",
      "contractAddress": null,
      "daFootprintGasScalar": "0x138",
      "l1BaseFeeScalar": "0x44d",
      "l1BlobBaseFee": "0x1",
      "l1BlobBaseFeeScalar": "0xa118b",
      "l1Fee": "0x4e",
      "l1GasPrice": "0x7",
      "l1GasUsed": "0x640"
    }
  ],
  "libraries": [],
  "pending": [],
  "returns": {},
  "timestamp": 1765316674,
  "chain": 84532,
  "commit": "58d83c2"
}