{
  "transactions": [
    {
      "hash": "0x73836ce4fdd1c202ec4fc523511bae1acb0da586fb8abd45c954016b86685cf3",
      "transactionType": "CALL",
      "contractName": null,
      "contractAddress": "0xd6403378e4f729d6a143b131cc28e3698d510676",
      "function": "updateSubscriptionId(uint64)",
      "arguments": [
        "530"
      ],
      "transaction": {
        "from": "0xf0830060f836b8d54bf02049e5905f619487989e",
        "to": "0xd6403378e4f729d6a143b131cc28e3698d510676",
        "gas": "0x9803",
        "value": "0x0",
        "input": "0x14b1dd1b0000000000000000000000000000000000000000000000000000000000000212",
        "nonce": "0x1f8",
        "chainId": "0x14a34"
      },
      "additionalContracts": [],
      "isFixedGasLimit": false
    },
    {
      "hash": "0xc31a434715a4b6728be8b0d0b61301c2e86062a4a16f656e83bb78ba0cd24170",
      "transactionType": "CALL",
      "contractName": null,
      "contractAddress": "0xd6403378e4f729d6a143b131cc28e3698d510676",
      "function": "updateDonId(bytes32)",
      "arguments": [
        "0x66756e2d626173652d7365706f6c69612d310000000000000000000000000000"
      ],
      "transaction": {
        "from": "0xf0830060f836b8d54bf02049e5905f619487989e",
        "to": "0xd6403378e4f729d6a143b131cc28e3698d510676",
        "gas": "0xb265",
        "value": "0x0",
        "input": "0x6df0c74766756e2d626173652d7365706f6c69612d310000000000000000000000000000",
        "nonce": "0x1f9",
        "chainId": "0x14a34"
      },
      "additionalContracts": [],
      "isFixedGasLimit": false
    },
    {
      "hash": "0xb578e72a756a704e2f1c5049399754962742907cd040b5e87c1ca12122e59fb4",
      "transactionType": "CALL",
      "contractName": null,
      "contractAddress": "0xd6403378e4f729d6a143b131cc28e3698d510676",
      "function": "updateCallbackGasLimit(uint32)",
      "arguments": [
        "300000"
      ],
      "transaction": {
        "from": "0xf0830060f836b8d54bf02049e5905f619487989e",
        "to": "0xd6403378e4f729d6a143b131cc28e3698d510676",
        "gas": "0x993b",
        "value": "0x0",
        "input": "0xb0e8d08600000000000000000000000000000000000000000000000000000000000493e0",
        "nonce": "0x1fa",
        "chainId": "0x14a34"
      },
      "additionalContracts": [],
      "isFixedGasLimit": false
    }
  ],
  "receipts": [
    {
      "status": "0x1",
      "cumulativeGasUsed": "0x559100",
      "logs": [
        {
          "address": "0xd6403378e4f729d6a143b131cc28e3698d510676",
          "topics": [
            "0xfe1ef567ce884ef794b945e4334aba185ec62ce1f1d71ea9becb1a7d39d561d0"
          ],
          "data": "0x0000000000000000000000000000000000000000000000000000000000000212",
          "blockHash": "0xa007a2d8df718a178240a369cbd933a628a3aec82e647962c6503073e4572e37",
          "blockNumber": "0x2129daf",
          "blockTimestamp": "0x69389a3e",
          "transactionHash": "0x73836ce4fdd1c202ec4fc523511bae1acb0da586fb8abd45c954016b86685cf3",
          "transactionIndex": "0x15",
          "logIndex": "0x23",
          "removed": false
        }
      ],
      "logsBloom": "0x00000000000000000000000000000000201000000000000000000000000000000000000000000000000000000000000000000000000000000000000000000000000000000000000000000000000000000000000000000000000200000000000000000000000000000000000000000000000000004000000000000000000000000000000000000000000000000000000000000000000000040000000000000000000000000000000000000000000000000000000000000000000000000000000000000000000000000000000000000000000000000000000000000200000000000000000000000000000000000000000000000000000000000000000000000000",
      "type": "0x2",
      "transactionHash": "0x73836ce4fdd1c202ec4fc523511bae1acb0da586fb8abd45c954016b86685cf3",
      "transactionIndex": "0x15",
      "blockHash": "0xa007a2d8df718a178240a369cbd933a628a3aec82e647962c6503073e4572e37",
      "blockNumber": "0x2129daf",
      "gasUsed": "0x6e0f",
      "effectiveGasPrice": "0x124f80",
      "blobGasUsed": "0x79e0",
      "from": "0xf0830060f836b8d54bf02049e5905f619487989e",
      "to": "0xd6403378e4f729d6a143b131cc28e3698d510676",
      "contractAddress": null,
      "daFootprintGasScalar": "0x138",
      "l1BaseFeeScalar": "0x44d",
      "l1BlobBaseFee": "0x1",
      "l1BlobBaseFeeScalar": "0xa118b",
      "l1Fee": "0x4e",
      "l1GasPrice": "0x7",
      "l1GasUsed": "0x640"
    },
    {
      "status": "0x1",
      "cumulativeGasUsed": "0x560afb",
      "logs": [
        {
          "address": "0xd6403378e4f729d6a143b131cc28e3698d510676",
          "topics": [
            "0x8636b239fb28228ed411937d379e0ac65fc0baaa856f6366d197e08c119feb07"
          ],
          "data": "0x66756e2d626173652d7365706f6c69612d310000000000000000000000000000",
          "blockHash": "0xa007a2d8df718a178240a369cbd933a628a3aec82e647962c6503073e4572e37",
          "blockNumber": "0x2129daf",
          "blockTimestamp": "0x69389a3e",
          "transactionHash": "0xc31a434715a4b6728be8b0d0b61301c2e86062a4a16f656e83bb78ba0cd24170",
          "transactionIndex": "0x16",
          "logIndex": "0x24",
          "removed": false
        }
      ],
      "logsBloom": "0x00000000000000000000000000000000201000000000000000000000000000000000000000000000000000000000000000000000000000000000000000000000000000000000000000000000000000000000000000000000000200000000000000000000000000000000000000000000000000000000000000000000000000000000000000010000000000000000000000000000000000000000000000000200000000000000000000000000000000000000000000000000000000000000000000000000000000000000000000000000000000000000000000000000000000000000000000000000080000000000000000000000000000000000000000000000",
      "type": "0x2",
      "transactionHash": "0xc31a434715a4b6728be8b0d0b61301c2e86062a4a16f656e83bb78ba0cd24170",
      "transactionIndex": "0x16",
      "blockHash": "0xa007a2d8df718a178240a369cbd933a628a3aec82e647962c6503073e4572e37",
      "blockNumber": "0x2129daf",
      "gasUsed": "0x79fb",
      "effectiveGasPrice": "0x124f80",
      "blobGasUsed": "0x79e0",
      "from": "0xf0830060f836b8d54bf02049e5905f619487989e",
      "to": "0xd6403378e4f729d6a143b131cc28e3698d510676",
      "contractAddress": null,
      "daFootprintGasScalar": "0x138",
      "l1BaseFeeScalar": "0x44d",
      "l1BlobBaseFee": "0x1",
      "l1BlobBaseFeeScalar": "0xa118b",
      "l1Fee": "0x4e",
      "l1GasPrice": "0x7",
      "l1GasUsed": "0x640"
    },
    {
      "status": "0x1",
      "cumulativeGasUsed": "0x5679eb",
      "logs": [
        {
          "address": "0xd6403378e4f729d6a143b131cc28e3698d510676",
          "topics": [
            "0x25358b14cd4557629ee75bbccedef47b9c0fe38c159233fb711b4c547692f889"
          ],
          "data": "0x00000000000000000000000000000000000000000000000000000000000493e0",
          "blockHash": "0xa007a2d8df718a178240a369cbd933a628a3aec82e647962c6503073e4572e37",
          "blockNumber": "0x2129daf",
          "blockTimestamp": "0x69389a3e",
          "transactionHash": "0xb578e72a756a704e2f1c5049399754962742907cd040b5e87c1ca12122e59fb4",
          "transactionIndex": "0x17",
          "logIndex": "0x25",
          "removed": false
        }
      ],
      "logsBloom": "0x00000000000000000000000000000000201000000000000000000000000000000000000000000000000000000000000000000000000000000000000000000000000000000010000000000000000000000000000000000080000200000000000000000000000000000000000000000000000000000000000000000000000000000000000000000000000000000000000000000000000000000000000000000000000000000000000000000000000000000000000000000000200000000000000000000000000000000000000000000000000000000000000000000000000000000000000000000000000000000000000000000000000000000000000000000000",
      "type": "0x2",
      "transactionHash": "0xb578e72a756a704e2f1c5049399754962742907cd040b5e87c1ca12122e59fb4",
      "transactionIndex": "0x17",
      "blockHash": "0xa007a2d8df718a178240a369cbd933a628a3aec82e647962c6503073e4572e37",
      "blockNumber": "0x2129daf",
      "gasUsed": "0x6ef0",
      "effectiveGasPrice": "0x124f80",
      "blobGasUsed": "0x79e0",
      "from": "0xf0830060f836b8d54bf02049e5905f619487989e",
      "to": "0xd6403378e4f729d6a143b131cc28e3698d510676",
      "contractAddress": null,
      "daFootprintGasScalar": "0x138",
      "l1BaseFeeScalar": "0x44d",
      "l1BlobBaseFee": "0x1",
      "l1BlobBaseFeeScalar": "0xa118b",
      "l1Fee": "0x4e",
      "l1GasPrice": "0x7",
      "l1GasUsed": "0x640"
    }
  ],
  "libraries": [],
  "pending": [],
  "returns": {},
  "timestamp": 1765317182,
  "chain": 84532,
  "commit": "58d83c2"
}