{
  "transactions": [
    {
      "hash": "0xe3a4fb45a0c771f7e7178e75fd60b70f0e83b426f7abea748e5466012005dd6a",
      "transactionType": "CALL",
      "contractName": null,
      "contractAddress": "0x30b0a86153c2c17c5a0f8b89f8ce693ae469c02a",
      "function": "allowListReporter(address,bool)",
      "arguments": [
        "0x30b0a86153C2C17C5A0f8b89F8CE693AE469C02a",
        "true"
      ],
      "transaction": {
        "from": "0xf0830060f836b8d54bf02049e5905f619487989e",
        "to": "0x30b0a86153c2c17c5a0f8b89f8ce693ae469c02a",
        "gas": "0x11ee7",
        "value": "0x0",
        "input": "0x6605d6b900000000000000000000000030b0a86153c2c17c5a0f8b89f8ce693ae469c02a0000000000000000000000000000000000000000000000000000000000000001",
        "nonce": "0x584",
        "chainId": "0x14a34"
      },
      "additionalContracts": [],
      "isFixedGasLimit": false
    }
  ],
  "receipts": [
    {
      "status": "0x1",
      "cumulativeGasUsed": "0x179c52",
      "logs": [
        {
          "address": "0x30b0a86153c2c17c5a0f8b89f8ce693ae469c02a",
          "topics": [
            "0xbd2eed0e0b9e71b4636ac34e4b6398c60945a0446c79a0a81fe172f10d0260ea",
            "0x00000000000000000000000030b0a86153c2c17c5a0f8b89f8ce693ae469c02a"
          ],
          "data": "0x",
          "blockHash": "0x0000000000000000000000000000000000000000000000000000000000000000",
          "blockNumber": "0x2457e50",
          "blockTimestamp": "0x699e5b80",
          "transactionHash": "0xe3a4fb45a0c771f7e7178e75fd60b70f0e83b426f7abea748e5466012005dd6a",
          "transactionIndex": "0x19",
          "logIndex": "0x39",
          "removed": false
        }
      ],
      "logsBloom": "0x00000000000000000000000000000000000000000000000000000000000000000000800000000000000000000000000000000000040000000000008000000000000000000000000000000000000000000000000000000000800000000000000000000000000000000000000000000000000000000000000001000000000000000000010000000000000000000000000000000000000000000000000000000000000000000000000000020000000000000000000000000000000000000000000000000000000000000000000000000100000000000000000000000000000000000000000000000000000000000000000000000080000000000000000000000000",
      "type": "0x2",
      "transactionHash": "0xe3a4fb45a0c771f7e7178e75fd60b70f0e83b426f7abea748e5466012005dd6a",
      "transactionIndex": "0x19",
      "blockHash": "0x0000000000000000000000000000000000000000000000000000000000000000",
      "blockNumber": "0x2457e50",
      "gasUsed": "0xcfb7",
      "effectiveGasPrice": "0x5b8d80",
      "blobGasUsed": "0x364c",
      "from": "0xf0830060f836b8d54bf02049e5905f619487989e",
      "to": "0x30b0a86153c2c17c5a0f8b89f8ce693ae469c02a",
      "contractAddress": null,
      "daFootprintGasScalar": "0x8b",
      "l1BaseFeeScalar": "0x44d",
      "l1BlobBaseFee": "0x1",
      "l1BlobBaseFeeScalar": "0xa118b",
      "l1Fee": "0x5c",
      "l1GasPrice": "0xf",
      "l1GasUsed": "0x640"
    }
  ],
  "libraries": [],
  "pending": [],
  "returns": {},
  "timestamp": 1771985791,
  "chain": 84532,
  "commit": "e707bc8"
}