{
  "transactions": [
    {
      "hash": "0xc92ace7812eac896308a6c8a36e245e52082a7c045d950a015f60f65064f780b",
      "transactionType": "CALL",
      "contractName": null,
      "contractAddress": "0xdbb48cc80de6bbab003f3e9b17641effca110e39",
      "function": "allowListReporter(address,bool)",
      "arguments": [
        "0xdBB48cc80DE6BbaB003f3e9b17641EFfcA110e39",
        "true"
      ],
      "transaction": {
        "from": "0xf0830060f836b8d54bf02049e5905f619487989e",
        "to": "0xdbb48cc80de6bbab003f3e9b17641effca110e39",
        "gas": "0x12fbf",
        "value": "0x0",
        "input": "0x6605d6b9000000000000000000000000dbb48cc80de6bbab003f3e9b17641effca110e390000000000000000000000000000000000000000000000000000000000000001",
        "nonce": "0x477",
        "chainId": "0x14a34"
      },
      "additionalContracts": [],
      "isFixedGasLimit": false
    }
  ],
  "receipts": [
    {
      "status": "0x1",
      "cumulativeGasUsed": "0x348020",
      "logs": [
        {
          "address": "0xdbb48cc80de6bbab003f3e9b17641effca110e39",
          "topics": [
            "0xbd2eed0e0b9e71b4636ac34e4b6398c60945a0446c79a0a81fe172f10d0260ea",
            "0x000000000000000000000000dbb48cc80de6bbab003f3e9b17641effca110e39"
          ],
          "data": "0x",
          "blockHash": "0x0000000000000000000000000000000000000000000000000000000000000000",
          "blockNumber": "0x2454402",
          "blockTimestamp": "0x699de6e4",
          "transactionHash": "0xc92ace7812eac896308a6c8a36e245e52082a7c045d950a015f60f65064f780b",
          "transactionIndex": "0xa",
          "logIndex": "0x56",
          "removed": false
        }
      ],
      "logsBloom": "0x00000000000000000000000000000000000000000000000000000000000000000000000000000000000000000000000000000000040000000000000000000000000200000000000000040000000000000000000000000000000000000000000000000000000000000000000000000000000000000000000000000000000000000000000000000000000000000000000000000000000000041400000000000000000000000000000000020000000000000000000000000000000000000000000000000000000000000000000000000100000000000000000000000000000000000000000000000000000000000000000000000200000000000000000000000000",
      "type": "0x2",
      "transactionHash": "0xc92ace7812eac896308a6c8a36e245e52082a7c045d950a015f60f65064f780b",
      "transactionIndex": "0xa",
      "blockHash": "0x0000000000000000000000000000000000000000000000000000000000000000",
      "blockNumber": "0x2454402",
      "gasUsed": "0xcfb1",
      "effectiveGasPrice": "0x4dd1e0",
      "blobGasUsed": "0x364c",
      "from": "0xf0830060f836b8d54bf02049e5905f619487989e",
      "to": "0xdbb48cc80de6bbab003f3e9b17641effca110e39",
      "contractAddress": null,
      "daFootprintGasScalar": "0x8b",
      "l1BaseFeeScalar": "0x44d",
      "l1BlobBaseFee": "0x1",
      "l1BlobBaseFeeScalar": "0xa118b",
      "l1Fee": "0x58",
      "l1GasPrice": "0xd",
      "l1GasUsed": "0x640"
    }
  ],
  "libraries": [],
  "pending": [],
  "returns": {},
  "timestamp": 1771955938,
  "chain": 84532,
  "commit": null
}