{
  "transactions": [
    {
      "hash": "0xe29a4b4808797bc7cdcefd98133879127de2c4ddc29f72890dbbbc7c1bb2e07e",
      "transactionType": "CALL",
      "contractName": null,
      "contractAddress": "0x4f18d9a7b5847c06987c31a0a4392bbe72cfb336",
      "function": "allowListReporter(address,bool)",
      "arguments": [
        "0x4F18d9a7b5847C06987c31A0A4392BBE72cFb336",
        "true"
      ],
      "transaction": {
        "from": "0xf0830060f836b8d54bf02049e5905f619487989e",
        "to": "0x4f18d9a7b5847c06987c31a0a4392bbe72cfb336",
        "gas": "0x11ee7",
        "value": "0x0",
        "input": "0x6605d6b90000000000000000000000004f18d9a7b5847c06987c31a0a4392bbe72cfb3360000000000000000000000000000000000000000000000000000000000000001",
        "nonce": "0x5da",
        "chainId": "0x14a34"
      },
      "additionalContracts": [],
      "isFixedGasLimit": false
    }
  ],
  "receipts": [
    {
      "status": "0x1",
      "cumulativeGasUsed": "0x1d2538",
      "logs": [
        {
          "address": "0x4f18d9a7b5847c06987c31a0a4392bbe72cfb336",
          "topics": [
            "0xbd2eed0e0b9e71b4636ac34e4b6398c60945a0446c79a0a81fe172f10d0260ea",
            "0x0000000000000000000000004f18d9a7b5847c06987c31a0a4392bbe72cfb336"
          ],
          "data": "0x",
          "blockHash": "0x0000000000000000000000000000000000000000000000000000000000000000",
          "blockNumber": "0x245c021",
          "blockTimestamp": "0x699edf22",
          "transactionHash": "0xe29a4b4808797bc7cdcefd98133879127de2c4ddc29f72890dbbbc7c1bb2e07e",
          "transactionIndex": "0x10",
          "logIndex": "0x13",
          "removed": false
        }
      ],
      "logsBloom": "0x00000000000100000000000000000000000000000100000000000008000000000000000000000000000000000000000000000000040000000000000000000000000000000000000000000000000000000000000000000000000000000000000000000000000000000000000000000000000000000000000000000000000000000000410000000000000000000000000000000000000000000000000000000000000000000000000000020000000000000000000000000000000000000000000000000000000000200000000000000100000000000000000000000000000000000000000000000000000000000000000000000000000000000000000000000000",
      "type": "0x2",
      "transactionHash": "0xe29a4b4808797bc7cdcefd98133879127de2c4ddc29f72890dbbbc7c1bb2e07e",
      "transactionIndex": "0x10",
      "blockHash": "0x0000000000000000000000000000000000000000000000000000000000000000",
      "blockNumber": "0x245c021",
      "gasUsed": "0xcfb7",
      "effectiveGasPrice": "0x5b8d80",
      "blobGasUsed": "0x364c",
      "from": "0xf0830060f836b8d54bf02049e5905f619487989e",
      "to": "0x4f18d9a7b5847c06987c31a0a4392bbe72cfb336",
      "contractAddress": null,
      "daFootprintGasScalar": "0x8b",
      "l1BaseFeeScalar": "0x44d",
      "l1BlobBaseFee": "0xc2",
      "l1BlobBaseFeeScalar": "0xa118b",
      "l1Fee": "0x69bc",
      "l1GasPrice": "0xc5d",
      "l1GasUsed": "0x640"
    }
  ],
  "libraries": [],
  "pending": [],
  "returns": {},
  "timestamp": 1772019488,
  "chain": 84532,
  "commit": "9d53ee3"
}