{
  "transactions": [
    {
      "hash": "0x5d557c8aec183b037a282cc5a6db78edbda50dcce025d6fa4d2326ea3ca1936d",
      "transactionType": "CALL",
      "contractName": null,
      "contractAddress": "0x3dd35b903667842078a9898ca3206e047d87d0ea",
      "function": "allowListReporter(address,bool)",
      "arguments": [
        "0x3DD35b903667842078a9898ca3206E047D87d0ea",
        "true"
      ],
      "transaction": {
        "from": "0xf0830060f836b8d54bf02049e5905f619487989e",
        "to": "0x3dd35b903667842078a9898ca3206e047d87d0ea",
        "gas": "0x11ee7",
        "value": "0x0",
        "input": "0x6605d6b90000000000000000000000003dd35b903667842078a9898ca3206e047d87d0ea0000000000000000000000000000000000000000000000000000000000000001",
        "nonce": "0x544",
        "chainId": "0x14a34"
      },
      "additionalContracts": [],
      "isFixedGasLimit": false
    }
  ],
  "receipts": [
    {
      "status": "0x1",
      "cumulativeGasUsed": "0x1f8d63",
      "logs": [
        {
          "address": "0x3dd35b903667842078a9898ca3206e047d87d0ea",
          "topics": [
            "0xbd2eed0e0b9e71b4636ac34e4b6398c60945a0446c79a0a81fe172f10d0260ea",
            "0x0000000000000000000000003dd35b903667842078a9898ca3206e047d87d0ea"
          ],
          "data": "0x",
          "blockHash": "0x0000000000000000000000000000000000000000000000000000000000000000",
          "blockNumber": "0x24578af",
          "blockTimestamp": "0x699e503e",
          "transactionHash": "0x5d557c8aec183b037a282cc5a6db78edbda50dcce025d6fa4d2326ea3ca1936d",
          "transactionIndex": "0x8",
          "logIndex": "0x14",
          "removed": false
        }
      ],
      "logsBloom": "0x00000000000000000000000000000000000000000000000000000000000000000000000000000000000000000000000000000000040000000000000000000000200000000000000000000000000000000000000000000000000000000000000000000000000000000000000000000200000000000000000000000000000000000480000000000000000000000000000000000000000000000000000000000000000000000000000000020000000000000000000000000000000000000000000000000000000000000000000000000100000200000000000000000000000000000000000000000000000000000000000400000000000000000000000000000000",
      "type": "0x2",
      "transactionHash": "0x5d557c8aec183b037a282cc5a6db78edbda50dcce025d6fa4d2326ea3ca1936d",
      "transactionIndex": "0x8",
      "blockHash": "0x0000000000000000000000000000000000000000000000000000000000000000",
      "blockNumber": "0x24578af",
      "gasUsed": "0xcfb7",
      "effectiveGasPrice": "0x5b8d80",
      "blobGasUsed": "0x364c",
      "from": "0xf0830060f836b8d54bf02049e5905f619487989e",
      "to": "0x3dd35b903667842078a9898ca3206e047d87d0ea",
      "contractAddress": null,
      "daFootprintGasScalar": "0x8b",
      "l1BaseFeeScalar": "0x44d",
      "l1BlobBaseFee": "0x1",
      "l1BlobBaseFeeScalar": "0xa118b",
      "l1Fee": "0x66",
      "l1GasPrice": "0x15",
      "l1GasUsed": "0x640"
    }
  ],
  "libraries": [],
  "pending": [],
  "returns": {},
  "timestamp": 1771982908,
  "chain": 84532,
  "commit": "e707bc8"
}