{
  "transactions": [
    {
      "hash": "0xa4612fa61a1064d5482a1680008e1bf09a83b4eb9664477da08f8f1b2300bc9a",
      "transactionType": "CALL",
      "contractName": null,
      "contractAddress": "0x6c01c820459c542c8add55fb358fe2e295c5a16e",
      "function": "allowListReporter(address,bool)",
      "arguments": [
        "0x6C01C820459c542C8adD55fB358fE2E295c5a16E",
        "true"
      ],
      "transaction": {
        "from": "0xf0830060f836b8d54bf02049e5905f619487989e",
        "to": "0x6c01c820459c542c8add55fb358fe2e295c5a16e",
        "gas": "0x1301d",
        "value": "0x0",
        "input": "0x6605d6b90000000000000000000000006c01c820459c542c8add55fb358fe2e295c5a16e0000000000000000000000000000000000000000000000000000000000000001",
        "nonce": "0x361",
        "chainId": "0x14a34"
      },
      "additionalContracts": [],
      "isFixedGasLimit": false
    }
  ],
  "receipts": [
    {
      "status": "0x1",
      "cumulativeGasUsed": "0x30a72",
      "logs": [
        {
          "address": "0x6c01c820459c542c8add55fb358fe2e295c5a16e",
          "topics": [
            "0xbd2eed0e0b9e71b4636ac34e4b6398c60945a0446c79a0a81fe172f10d0260ea",
            "0x0000000000000000000000006c01c820459c542c8add55fb358fe2e295c5a16e"
          ],
          "data": "0x",
          "blockHash": "0x37916b632d0327082cf05c74b219b4bfe4ea5aa7b33eabd7572687635e097692",
          "blockNumber": "0x226e6b1",
          "blockTimestamp": "0x69612c42",
          "transactionHash": "0xa4612fa61a1064d5482a1680008e1bf09a83b4eb9664477da08f8f1b2300bc9a",
          "transactionIndex": "0x3",
          "logIndex": "0x1",
          "removed": false
        }
      ],
      "logsBloom": "0x00000000001000000000000000000000000000000000000000000000000000000000000000000000000000000000000000000000040000000000000000000000000000000000001000000000000000000000001000000000000000000000000000000000000000000000000000000000000000000000000000000000000100000000000000000000000000000000000400000020000000000000000000000000000000000000000000020000000000000000000000000000000000000000000000000000000000000000000000000100000000000000000000000000000000000000000000000000000000000000000000000000000000000000000000000000",
      "type": "0x2",
      "transactionHash": "0xa4612fa61a1064d5482a1680008e1bf09a83b4eb9664477da08f8f1b2300bc9a",
      "transactionIndex": "0x3",
      "blockHash": "0x37916b632d0327082cf05c74b219b4bfe4ea5aa7b33eabd7572687635e097692",
      "blockNumber": "0x226e6b1",
      "gasUsed": "0xdc2d",
      "effectiveGasPrice": "0x124f80",
      "blobGasUsed": "0x79e0",
      "from": "0xf0830060f836b8d54bf02049e5905f619487989e",
      "to": "0x6c01c820459c542c8add55fb358fe2e295c5a16e",
      "contractAddress": null,
      "daFootprintGasScalar": "0x138",
      "l1BaseFeeScalar": "0x44d",
      "l1BlobBaseFee": "0x902fd",
      "l1BlobBaseFeeScalar": "0xa118b",
      "l1Fee": "0x3604fa3",
      "l1GasPrice": "0x9915d2",
      "l1GasUsed": "0x640"
    }
  ],
  "libraries": [],
  "pending": [],
  "returns": {},
  "timestamp": 1767976000,
  "chain": 84532,
  "commit": "a3f3d1b"
}