{
  "transactions": [
    {
      "hash": "0x9b2df6adf82f9456f1fa750b0847db967ab0261e39e557564a79f500d2dc2225",
      "transactionType": "CALL",
      "contractName": null,
      "contractAddress": "0xd0f00b375e47fc3ab8b962b2277975391ff28554",
      "function": "allowListReporter(address,bool)",
      "arguments": [
        "0xA957F3eAC17c10A9ca0205b9849b691702a9De6E",
        "true"
      ],
      "transaction": {
        "from": "0xf0830060f836b8d54bf02049e5905f619487989e",
        "to": "0xd0f00b375e47fc3ab8b962b2277975391ff28554",
        "gas": "0x141c1",
        "value": "0x0",
        "input": "0x6605d6b9000000000000000000000000a957f3eac17c10a9ca0205b9849b691702a9de6e0000000000000000000000000000000000000000000000000000000000000001",
        "nonce": "0x2d7",
        "chainId": "0x14a34"
      },
      "additionalContracts": [],
      "isFixedGasLimit": false
    }
  ],
  "receipts": [
    {
      "status": "0x1",
      "cumulativeGasUsed": "0x1d6314",
      "logs": [
        {
          "address": "0xd0f00b375e47fc3ab8b962b2277975391ff28554",
          "topics": [
            "0xbd2eed0e0b9e71b4636ac34e4b6398c60945a0446c79a0a81fe172f10d0260ea",
            "0x000000000000000000000000a957f3eac17c10a9ca0205b9849b691702a9de6e"
          ],
          "data": "0x",
          "blockHash": "0x820e38096a13036c95090b56e33ae52542fe9ae022628f7e9c6a12c037261115",
          "blockNumber": "0x223b3d8",
          "blockTimestamp": "0x695ac690",
          "transactionHash": "0x9b2df6adf82f9456f1fa750b0847db967ab0261e39e557564a79f500d2dc2225",
          "transactionIndex": "0x9",
          "logIndex": "0x3a",
          "removed": false
        }
      ],
      "logsBloom": "0x00000000000000000000000000000000000000000000000000000000000000000000000000000000000000000000000000000000040000000008000000000000000000000000000000000000000000400000000000000000000000000000000000000000000000000000000000000000000000000000000000000000000000000000000000000000100000000000000000000000000000000000000000000000000000000000000000020000000000000000000000000000000000000000000000000000000000000000000000000100800000000000000100000000000000000000000000000000000000000000000000000000000000000000040000000000",
      "type": "0x2",
      "transactionHash": "0x9b2df6adf82f9456f1fa750b0847db967ab0261e39e557564a79f500d2dc2225",
      "transactionIndex": "0x9",
      "blockHash": "0x820e38096a13036c95090b56e33ae52542fe9ae022628f7e9c6a12c037261115",
      "blockNumber": "0x223b3d8",
      "gasUsed": "0xdc01",
      "effectiveGasPrice": "0x124f80",
      "blobGasUsed": "0x79e0",
      "from": "0xf0830060f836b8d54bf02049e5905f619487989e",
      "to": "0xd0f00b375e47fc3ab8b962b2277975391ff28554",
      "contractAddress": null,
      "daFootprintGasScalar": "0x138",
      "l1BaseFeeScalar": "0x44d",
      "l1BlobBaseFee": "0x1",
      "l1BlobBaseFeeScalar": "0xa118b",
      "l1Fee": "0x51",
      "l1GasPrice": "0x9",
      "l1GasUsed": "0x640"
    }
  ],
  "libraries": [],
  "pending": [],
  "returns": {},
  "timestamp": 1767556751,
  "chain": 84532,
  "commit": "a3f3d1b"
}