{
  "transactions": [
    {
      "hash": "0x299c3ede2338a45738074ecac308411964c8d0d8ac8715e2b7a055aeeac118ef",
      "transactionType": "CALL",
      "contractName": "TestERC20",
      "contractAddress": "0xef536e7dc524566635ae50e891bfc44d6619a1ff",
      "function": "approve(address,uint256)",
      "arguments": [
        "0xFC4DEF105b3288E41f0aE8818bDD48d58F950772",
        "1000000"
      ],
      "transaction": {
        "from": "0xf0830060f836b8d54bf02049e5905f619487989e",
        "to": "0xef536e7dc524566635ae50e891bfc44d6619a1ff",
        "gas": "0xf7de",
        "value": "0x0",
        "input": "0x095ea7b3000000000000000000000000fc4def105b3288e41f0ae8818bdd48d58f95077200000000000000000000000000000000000000000000000000000000000f4240",
        "nonce": "0x904",
        "chainId": "0xaa36a7"
      },
      "additionalContracts": [],
      "isFixedGasLimit": false
    },
    {
      "hash": "0x5127a13f996d91744a89532d38b24261efeb09cb79e0a6cb14a97e0c60cd0677",
      "transactionType": "CALL",
      "contractName": "PredictionVault",
      "contractAddress": "0xfc4def105b3288e41f0ae8818bdd48d58f950772",
      "function": "seedMarketLiquidity(bytes32,uint256)",
      "arguments": [
        "0x40f0acaf49cb574ee13f185350fc8c1a08f3a6fa6dae7c3a0923aacaab1313d2",
        "1000000"
      ],
      "transaction": {
        "from": "0xf0830060f836b8d54bf02049e5905f619487989e",
        "to": "0xfc4def105b3288e41f0ae8818bdd48d58f950772",
        "gas": "0x37c43",
        "value": "0x0",
        "input": "0x765ee7dd40f0acaf49cb574ee13f185350fc8c1a08f3a6fa6dae7c3a0923aacaab1313d200000000000000000000000000000000000000000000000000000000000f4240",
        "nonce": "0x905",
        "chainId": "0xaa36a7"
      },
      "additionalContracts": [],
      "isFixedGasLimit": false
    }
  ],
  "receipts": [
    {
      "status": "0x1",
      "cumulativeGasUsed": "0x16e5c33",
      "logs": [
        {
          "address": "0xef536e7dc524566635ae50e891bfc44d6619a1ff",
          "topics": [
            "0x8c5be1e5ebec7d5bd14f71427d1e84f3dd0314c0f7b2291e5b200ac8c7c3b925",
            "0x000000000000000000000000f0830060f836b8d54bf02049e5905f619487989e",
            "0x000000000000000000000000fc4def105b3288e41f0ae8818bdd48d58f950772"
          ],
          "data": "0x00000000000000000000000000000000000000000000000000000000000f4240",
          "blockHash": "0xee4709bedc5d499ba2319b45ff6aa47c6df7d4485011b77d532e03afc7740c64",
          "blockNumber": "0x9df123",
          "blockTimestamp": "0x69a22e98",
          "transactionHash": "0x5127a13f996d91744a89532d38b24261efeb09cb79e0a6cb14a97e0c60cd0677",
          "transactionIndex": "0x86",
          "logIndex": "0x1ff",
          "removed": false
        }
      ],
      "logsBloom": "0x00004000000000000000000000000000000000000000000000000000000000000000000000000000000000000000000000000000000000000000000000204008000000000000000000000000000000000000000000000000000000000000000000000000000000000000000000000000000000000000000000000000000000000000000000000000000400000000000800000000000000000000000000000000020000000000000000000000000100000000000000000000000002000000000000000000000000000000000000000000000000000000000000000000000000000010000000000000000000000000000002000000000000000000000000000080",
      "type": "0x2",
      "transactionHash": "0x5127a13f996d91744a89532d38b24261efeb09cb79e0a6cb14a97e0c60cd0677",
      "transactionIndex": "0x86",
      "blockHash": "0xee4709bedc5d499ba2319b45ff6aa47c6df7d4485011b77d532e03afc7740c64",
      "blockNumber": "0x9df123",
      "gasUsed": "0xb374",
      "effectiveGasPrice": "0x11da97",
      "from": "0xf0830060f836b8d54bf02049e5905f619487989e",
      "to": "0xef536e7dc524566635ae50e891bfc44d6619a1ff",
      "contractAddress": null
    },
    {
      "status": "0x1",
      "cumulativeGasUsed": "0x63beae",
      "logs": [
        {
          "address": "0xef536e7dc524566635ae50e891bfc44d6619a1ff",
          "topics": [
            "0xddf252ad1be2c89b69c2b068fc378daa952ba7f163c4a11628f55a4df523b3ef",
            "0x000000000000000000000000f0830060f836b8d54bf02049e5905f619487989e",
            "0x000000000000000000000000fc4def105b3288e41f0ae8818bdd48d58f950772"
          ],
          "data": "0x00000000000000000000000000000000000000000000000000000000000f4240",
          "blockHash": "0x44d8a1b18ba5735bdbb078ce8a2b6bafad79dce75cfbf2392e6f7090b8f3e7fa",
          "blockNumber": "0x9df124",
          "blockTimestamp": "0x69a22ea4",
          "transactionHash": "0x299c3ede2338a45738074ecac308411964c8d0d8ac8715e2b7a055aeeac118ef",
          "transactionIndex": "0x4b",
          "logIndex": "0x8a",
          "removed": false
        },
        {
          "address": "0xef536e7dc524566635ae50e891bfc44d6619a1ff",
          "topics": [
            "0x8c5be1e5ebec7d5bd14f71427d1e84f3dd0314c0f7b2291e5b200ac8c7c3b925",
            "0x000000000000000000000000fc4def105b3288e41f0ae8818bdd48d58f950772",
            "0x000000000000000000000000ff6f3af86bf0f010f1a72ba9c6be7bf22162d330"
          ],
          "data": "0x00000000000000000000000000000000000000000000000000000000000f4240",
          "blockHash": "0x44d8a1b18ba5735bdbb078ce8a2b6bafad79dce75cfbf2392e6f7090b8f3e7fa",
          "blockNumber": "0x9df124",
          "blockTimestamp": "0x69a22ea4",
          "transactionHash": "0x299c3ede2338a45738074ecac308411964c8d0d8ac8715e2b7a055aeeac118ef",
          "transactionIndex": "0x4b",
          "logIndex": "0x8b",
          "removed": false
        },
        {
          "address": "0xef536e7dc524566635ae50e891bfc44d6619a1ff",
          "topics": [
            "0xddf252ad1be2c89b69c2b068fc378daa952ba7f163c4a11628f55a4df523b3ef",
            "0x000000000000000000000000fc4def105b3288e41f0ae8818bdd48d58f950772",
            "0x000000000000000000000000ff6f3af86bf0f010f1a72ba9c6be7bf22162d330"
          ],
          "data": "0x00000000000000000000000000000000000000000000000000000000000f4240",
          "blockHash": "0x44d8a1b18ba5735bdbb078ce8a2b6bafad79dce75cfbf2392e6f7090b8f3e7fa",
          "blockNumber": "0x9df124",
          "blockTimestamp": "0x69a22ea4",
          "transactionHash": "0x299c3ede2338a45738074ecac308411964c8d0d8ac8715e2b7a055aeeac118ef",
          "transactionIndex": "0x4b",
          "logIndex": "0x8c",
          "removed": false
        },
        {
          "address": "0xff6f3af86bf0f010f1a72ba9c6be7bf22162d330",
          "topics": [
            "0x4a39dc06d4c0dbc64b70af90fd698a233a518aa5d07e595d983b8c0526c8f7fb",
            "0x000000000000000000000000fc4def105b3288e41f0ae8818bdd48d58f950772",
            "0x0000000000000000000000000000000000000000000000000000000000000000",
            "0x000000000000000000000000fc4def105b3288e41f0ae8818bdd48d58f950772"
          ],
          "data": "0x000000000000000000000000000000000000000000000000000000000000004000000000000000000000000000000000000000000000000000000000000000a000000000000000000000000000000000000000000000000000000000000000022ea058e39c5ecfe2aa26e095b8f8700df33f917fdf9823f0b576a5ead36ed0a2df5cc38352d215b0a92b5a3287428ec8a184d3a37c8c5696a8bfccfd9adf2ed9000000000000000000000000000000000000000000000000000000000000000200000000000000000000000000000000000000000000000000000000000f424000000000000000000000000000000000000000000000000000000000000f4240",
          "blockHash": "0x44d8a1b18ba5735bdbb078ce8a2b6bafad79dce75cfbf2392e6f7090b8f3e7fa",
          "blockNumber": "0x9df124",
          "blockTimestamp": "0x69a22ea4",
          "transactionHash": "0x299c3ede2338a45738074ecac308411964c8d0d8ac8715e2b7a055aeeac118ef",
          "transactionIndex": "0x4b",
          "logIndex": "0x8d",
          "removed": false
        },
        {
          "address": "0xff6f3af86bf0f010f1a72ba9c6be7bf22162d330",
          "topics": [
            "0x2e6bb91f8cbcda0c93623c54d0403a43514fabc40084ec96b6d5379a74786298",
            "0x000000000000000000000000fc4def105b3288e41f0ae8818bdd48d58f950772",
            "0x000000000000000000000000ef536e7dc524566635ae50e891bfc44d6619a1ff",
            "0x0000000000000000000000000000000000000000000000000000000000000000"
          ],
          "data": "0xad52a25ad476345ac3e26bd1c87b10128c60a66f8c742085089c491ec5b32428000000000000000000000000000000000000000000000000000000000000006000000000000000000000000000000000000000000000000000000000000f4240000000000000000000000000000000000000000000000000000000000000000200000000000000000000000000000000000000000000000000000000000000010000000000000000000000000000000000000000000000000000000000000002",
          "blockHash": "0x44d8a1b18ba5735bdbb078ce8a2b6bafad79dce75cfbf2392e6f7090b8f3e7fa",
          "blockNumber": "0x9df124",
          "blockTimestamp": "0x69a22ea4",
          "transactionHash": "0x299c3ede2338a45738074ecac308411964c8d0d8ac8715e2b7a055aeeac118ef",
          "transactionIndex": "0x4b",
          "logIndex": "0x8e",
          "removed": false
        },
        {
          "address": "0xef536e7dc524566635ae50e891bfc44d6619a1ff",
          "topics": [
            "0x8c5be1e5ebec7d5bd14f71427d1e84f3dd0314c0f7b2291e5b200ac8c7c3b925",
            "0x000000000000000000000000fc4def105b3288e41f0ae8818bdd48d58f950772",
            "0x000000000000000000000000ff6f3af86bf0f010f1a72ba9c6be7bf22162d330"
          ],
          "data": "0x0000000000000000000000000000000000000000000000000000000000000000",
          "blockHash": "0x44d8a1b18ba5735bdbb078ce8a2b6bafad79dce75cfbf2392e6f7090b8f3e7fa",
          "blockNumber": "0x9df124",
          "blockTimestamp": "0x69a22ea4",
          "transactionHash": "0x299c3ede2338a45738074ecac308411964c8d0d8ac8715e2b7a055aeeac118ef",
          "transactionIndex": "0x4b",
          "logIndex": "0x8f",
          "removed": false
        },
        {
          "address": "0xfc4def105b3288e41f0ae8818bdd48d58f950772",
          "topics": [
            "0xf404d92d2c3631ae4b9607df0145b2725ac6525c03ec0ee2ea64f4f4f4a30cc6",
            "0x40f0acaf49cb574ee13f185350fc8c1a08f3a6fa6dae7c3a0923aacaab1313d2"
          ],
          "data": "0x00000000000000000000000000000000000000000000000000000000000f4240",
          "blockHash": "0x44d8a1b18ba5735bdbb078ce8a2b6bafad79dce75cfbf2392e6f7090b8f3e7fa",
          "blockNumber": "0x9df124",
          "blockTimestamp": "0x69a22ea4",
          "transactionHash": "0x299c3ede2338a45738074ecac308411964c8d0d8ac8715e2b7a055aeeac118ef",
          "transactionIndex": "0x4b",
          "logIndex": "0x90",
          "removed": false
        }
      ],
      "logsBloom": "0x00004000000000000000000000000000000000000040800000000000000000000001000000000000010000002000000000000040000000000000000000204008004000000000000040000008000000000000000000000000020000000000000000000000020000000001000000000800000008000800000000002010000000000000000000000000000400000000000828000000080000000000000000000400020000000000000000000000000100000000000000000000000002000400010000000002000000000000000000000000000400000000000000000000000020000010000000000000000000000020000002000000000000000000000002008080",
      "type": "0x2",
      "transactionHash": "0x299c3ede2338a45738074ecac308411964c8d0d8ac8715e2b7a055aeeac118ef",
      "transactionIndex": "0x4b",
      "blockHash": "0x44d8a1b18ba5735bdbb078ce8a2b6bafad79dce75cfbf2392e6f7090b8f3e7fa",
      "blockNumber": "0x9df124",
      "gasUsed": "0x285fc",
      "effectiveGasPrice": "0x11da97",
      "from": "0xf0830060f836b8d54bf02049e5905f619487989e",
      "to": "0xfc4def105b3288e41f0ae8818bdd48d58f950772",
      "contractAddress": null
    }
  ],
  "libraries": [],
  "pending": [],
  "returns": {},
  "timestamp": 1772236452785,
  "chain": 11155111,
  "commit": "f844a23"
}