{
  "transactions": [
    {
      "hash": "0x0404d53babdca310045978bee46cbf9d62d76b91fcf75aa2a72ac7958862c505",
      "transactionType": "CALL",
      "contractName": null,
      "contractAddress": "0xe6fb505a5c0f308c7c9ab37cd96defaf59f20cce",
      "function": "setApprovalForAll(address,bool)",
      "arguments": [
        "0x2caCBb166d8238Be9Aa6a45553B85953a6dfc326",
        "true"
      ],
      "transaction": {
        "from": "0xf0830060f836b8d54bf02049e5905f619487989e",
        "to": "0xe6fb505a5c0f308c7c9ab37cd96defaf59f20cce",
        "gas": "0x10587",
        "value": "0x0",
        "input": "0xa22cb4650000000000000000000000002cacbb166d8238be9aa6a45553b85953a6dfc3260000000000000000000000000000000000000000000000000000000000000001",
        "nonce": "0x372",
        "chainId": "0x14a34"
      },
      "additionalContracts": [],
      "isFixedGasLimit": false
    },
    {
      "hash": "0x9633fc1bcfb3a5b678d6d2edeeaf9d5fb8e9789d7795882c260017ad083b6b17",
      "transactionType": "CALL",
      "contractName": null,
      "contractAddress": "0x326eb8878db774d2a0b9f64703fc64850a0eb1e1",
      "function": "redeem(bytes32,uint256)",
      "arguments": [
        "0x61eec70dc8d18022c3f3e7c0409455e7841de4d6143bc2136ff763fcf5d48ea8",
        "0"
      ],
      "transaction": {
        "from": "0xf0830060f836b8d54bf02049e5905f619487989e",
        "to": "0x326eb8878db774d2a0b9f64703fc64850a0eb1e1",
        "gas": "0x5442f",
        "value": "0x0",
        "input": "0x673da15461eec70dc8d18022c3f3e7c0409455e7841de4d6143bc2136ff763fcf5d48ea80000000000000000000000000000000000000000000000000000000000000000",
        "nonce": "0x373",
        "chainId": "0x14a34"
      },
      "additionalContracts": [],
      "isFixedGasLimit": false
    }
  ],
  "receipts": [
    {
      "status": "0x1",
      "cumulativeGasUsed": "0x8a85b",
      "logs": [
        {
          "address": "0xe6fb505a5c0f308c7c9ab37cd96defaf59f20cce",
          "topics": [
            "0x17307eab39ab6107e8899845ad3d59bd9653f200f220920489ca2b5937696c31",
            "0x000000000000000000000000f0830060f836b8d54bf02049e5905f619487989e",
            "0x0000000000000000000000002cacbb166d8238be9aa6a45553b85953a6dfc326"
          ],
          "data": "0x0000000000000000000000000000000000000000000000000000000000000001",
          "blockHash": "0x36cd0104cf1639fcf9bdf63f924d3da26a3965554f21822d841d3e7d3e4145c1",
          "blockNumber": "0x227068f",
          "blockTimestamp": "0x69616bfe",
          "transactionHash": "0x0404d53babdca310045978bee46cbf9d62d76b91fcf75aa2a72ac7958862c505",
          "transactionIndex": "0x6",
          "logIndex": "0x4",
          "removed": false
        }
      ],
      "logsBloom": "0x00000000000000000000000000000000000000000000000000000000000000000000000000000000000000000001000000000000000000000000000000000008000000000000000000000000001000000000000000000000000000000000000002000400000000000000000000000000000000000000000000000000000000000000000000000000000400000000000800000000000000000000000000000000000000000000000000000000000000000000000000000200000000000000000000000000000000000000000001000000000040000000000000000000000000000000200800000000000000000000000000000000000000000000000000000000",
      "type": "0x2",
      "transactionHash": "0x0404d53babdca310045978bee46cbf9d62d76b91fcf75aa2a72ac7958862c505",
      "transactionIndex": "0x6",
      "blockHash": "0x36cd0104cf1639fcf9bdf63f924d3da26a3965554f21822d841d3e7d3e4145c1",
      "blockNumber": "0x227068f",
      "gasUsed": "0xbd58",
      "effectiveGasPrice": "0x124f80",
      "blobGasUsed": "0x79e0",
      "from": "0xf0830060f836b8d54bf02049e5905f619487989e",
      "to": "0xe6fb505a5c0f308c7c9ab37cd96defaf59f20cce",
      "contractAddress": null,
      "daFootprintGasScalar": "0x138",
      "l1BaseFeeScalar": "0x44d",
      "l1BlobBaseFee": "0x10167e",
      "l1BlobBaseFeeScalar": "0xa118b",
      "l1Fee": "0x633dcf2",
      "l1GasPrice": "0x12ac3c8",
      "l1GasUsed": "0x640"
    },
    {
      "status": "0x1",
      "cumulativeGasUsed": "0xc786b",
      "logs": [
        {
          "address": "0xe6fb505a5c0f308c7c9ab37cd96defaf59f20cce",
          "topics": [
            "0xc3d58168c5ae7397731d063d5bbf3d657854427343f4c083240f7aacaa2d0f62",
            "0x0000000000000000000000002cacbb166d8238be9aa6a45553b85953a6dfc326",
            "0x000000000000000000000000f0830060f836b8d54bf02049e5905f619487989e",
            "0x0000000000000000000000002cacbb166d8238be9aa6a45553b85953a6dfc326"
          ],
          "data": "0x9b9ea97740a1162ef39a5e3d2d8c882af832bb7a7ad21731fc74f6471af8fc23000000000000000000000000000000000000000000000001158e460913d00000",
          "blockHash": "0x36cd0104cf1639fcf9bdf63f924d3da26a3965554f21822d841d3e7d3e4145c1",
          "blockNumber": "0x227068f",
          "blockTimestamp": "0x69616bfe",
          "transactionHash": "0x9633fc1bcfb3a5b678d6d2edeeaf9d5fb8e9789d7795882c260017ad083b6b17",
          "transactionIndex": "0x7",
          "logIndex": "0x5",
          "removed": false
        },
        {
          "address": "0xe6fb505a5c0f308c7c9ab37cd96defaf59f20cce",
          "topics": [
            "0xc3d58168c5ae7397731d063d5bbf3d657854427343f4c083240f7aacaa2d0f62",
            "0x0000000000000000000000002cacbb166d8238be9aa6a45553b85953a6dfc326",
            "0x0000000000000000000000002cacbb166d8238be9aa6a45553b85953a6dfc326",
            "0x0000000000000000000000000000000000000000000000000000000000000000"
          ],
          "data": "0x9b9ea97740a1162ef39a5e3d2d8c882af832bb7a7ad21731fc74f6471af8fc23000000000000000000000000000000000000000000000001158e460913d00000",
          "blockHash": "0x36cd0104cf1639fcf9bdf63f924d3da26a3965554f21822d841d3e7d3e4145c1",
          "blockNumber": "0x227068f",
          "blockTimestamp": "0x69616bfe",
          "transactionHash": "0x9633fc1bcfb3a5b678d6d2edeeaf9d5fb8e9789d7795882c260017ad083b6b17",
          "transactionIndex": "0x7",
          "logIndex": "0x6",
          "removed": false
        },
        {
          "address": "0x35dc79d9e011d60d84a4d401a4f7c701d6f69972",
          "topics": [
            "0xddf252ad1be2c89b69c2b068fc378daa952ba7f163c4a11628f55a4df523b3ef",
            "0x000000000000000000000000e6fb505a5c0f308c7c9ab37cd96defaf59f20cce",
            "0x0000000000000000000000002cacbb166d8238be9aa6a45553b85953a6dfc326"
          ],
          "data": "0x000000000000000000000000000000000000000000000001158e460913d00000",
          "blockHash": "0x36cd0104cf1639fcf9bdf63f924d3da26a3965554f21822d841d3e7d3e4145c1",
          "blockNumber": "0x227068f",
          "blockTimestamp": "0x69616bfe",
          "transactionHash": "0x9633fc1bcfb3a5b678d6d2edeeaf9d5fb8e9789d7795882c260017ad083b6b17",
          "transactionIndex": "0x7",
          "logIndex": "0x7",
          "removed": false
        },
        {
          "address": "0xe6fb505a5c0f308c7c9ab37cd96defaf59f20cce",
          "topics": [
            "0x2682012a4a4f1973119f1c9b90745d1bd91fa2bab387344f044cb3586864d18d",
            "0x0000000000000000000000002cacbb166d8238be9aa6a45553b85953a6dfc326",
            "0x00000000000000000000000035dc79d9e011d60d84a4d401a4f7c701d6f69972",
            "0x0000000000000000000000000000000000000000000000000000000000000000"
          ],
          "data": "0x83d2360f3c85f30033303f4e68b80bd6b09246b9447567d1abc1ea2bd24f259a0000000000000000000000000000000000000000000000000000000000000060000000000000000000000000000000000000000000000001158e460913d0000000000000000000000000000000000000000000000000000000000000000000010000000000000000000000000000000000000000000000000000000000000001",
          "blockHash": "0x36cd0104cf1639fcf9bdf63f924d3da26a3965554f21822d841d3e7d3e4145c1",
          "blockNumber": "0x227068f",
          "blockTimestamp": "0x69616bfe",
          "transactionHash": "0x9633fc1bcfb3a5b678d6d2edeeaf9d5fb8e9789d7795882c260017ad083b6b17",
          "transactionIndex": "0x7",
          "logIndex": "0x8",
          "removed": false
        },
        {
          "address": "0x35dc79d9e011d60d84a4d401a4f7c701d6f69972",
          "topics": [
            "0xddf252ad1be2c89b69c2b068fc378daa952ba7f163c4a11628f55a4df523b3ef",
            "0x0000000000000000000000002cacbb166d8238be9aa6a45553b85953a6dfc326",
            "0x000000000000000000000000f0830060f836b8d54bf02049e5905f619487989e"
          ],
          "data": "0x00000000000000000000000000000000000000000000000107ad8f556c6c0000",
          "blockHash": "0x36cd0104cf1639fcf9bdf63f924d3da26a3965554f21822d841d3e7d3e4145c1",
          "blockNumber": "0x227068f",
          "blockTimestamp": "0x69616bfe",
          "transactionHash": "0x9633fc1bcfb3a5b678d6d2edeeaf9d5fb8e9789d7795882c260017ad083b6b17",
          "transactionIndex": "0x7",
          "logIndex": "0x9",
          "removed": false
        },
        {
          "address": "0x2cacbb166d8238be9aa6a45553b85953a6dfc326",
          "topics": [
            "0xe9e508bad6d4c3227e881ca19068f099da81b5164dd6d62b2eaf1e8bc6c34931",
            "0x000000000000000000000000f0830060f836b8d54bf02049e5905f619487989e"
          ],
          "data": "0x61eec70dc8d18022c3f3e7c0409455e7841de4d6143bc2136ff763fcf5d48ea8000000000000000000000000326eb8878db774d2a0b9f64703fc64850a0eb1e100000000000000000000000000000000000000000000000107ad8f556c6c0000",
          "blockHash": "0x36cd0104cf1639fcf9bdf63f924d3da26a3965554f21822d841d3e7d3e4145c1",
          "blockNumber": "0x227068f",
          "blockTimestamp": "0x69616bfe",
          "transactionHash": "0x9633fc1bcfb3a5b678d6d2edeeaf9d5fb8e9789d7795882c260017ad083b6b17",
          "transactionIndex": "0x7",
          "logIndex": "0xa",
          "removed": false
        }
      ],
      "logsBloom": "0x00800000000000000000000000000000000000000000000000000000000000000000000004000000000000000001000000000000000800000000000000002008400000000000000000004008801000000000000008000000000000000000000000000401020000000000000000002800000000000000000000000010000000000000000000000000000400000000000800000000000000400000000000000000000000000100000000000000000000000000000000000200000000000000000000000002000040000000000001000000000040000008002000000000000020000000010000200000000000000200000000000000000000000000080000000000",
      "type": "0x2",
      "transactionHash": "0x9633fc1bcfb3a5b678d6d2edeeaf9d5fb8e9789d7795882c260017ad083b6b17",
      "transactionIndex": "0x7",
      "blockHash": "0x36cd0104cf1639fcf9bdf63f924d3da26a3965554f21822d841d3e7d3e4145c1",
      "blockNumber": "0x227068f",
      "gasUsed": "0x3d010",
      "effectiveGasPrice": "0x124f80",
      "blobGasUsed": "0x79e0",
      "from": "0xf0830060f836b8d54bf02049e5905f619487989e",
      "to": "0x326eb8878db774d2a0b9f64703fc64850a0eb1e1",
      "contractAddress": null,
      "daFootprintGasScalar": "0x138",
      "l1BaseFeeScalar": "0x44d",
      "l1BlobBaseFee": "0x10167e",
      "l1BlobBaseFeeScalar": "0xa118b",
      "l1Fee": "0x633dcf2",
      "l1GasPrice": "0x12ac3c8",
      "l1GasUsed": "0x640"
    }
  ],
  "libraries": [],
  "pending": [],
  "returns": {},
  "timestamp": 1767992316,
  "chain": 84532,
  "commit": "a3f3d1b"
}