{
  "transactions": [
    {
      "hash": "0x7e098f395cd65db74c8be5f07dc193d160872efe9a66cfb2887010c0358c9f16",
      "transactionType": "CALL",
      "contractName": null,
      "contractAddress": "0x1627883fda4b08dd55234eb7e886a25726c1b70c",
      "function": "setApprovalForAll(address,bool)",
      "arguments": [
        "0x5627C03D624F216534adFf025c443C24ffc91A15",
        "true"
      ],
      "transaction": {
        "from": "0xf0830060f836b8d54bf02049e5905f619487989e",
        "to": "0x1627883fda4b08dd55234eb7e886a25726c1b70c",
        "gas": "0x114c9",
        "value": "0x0",
        "input": "0xa22cb4650000000000000000000000005627c03d624f216534adff025c443c24ffc91a150000000000000000000000000000000000000000000000000000000000000001",
        "nonce": "0x302",
        "chainId": "0x14a34"
      },
      "additionalContracts": [],
      "isFixedGasLimit": false
    },
    {
      "hash": "0x9fcff13ea9316e66be528a10d94420b5dd81d98540ffa98e7eaa3121f430d599",
      "transactionType": "CALL",
      "contractName": null,
      "contractAddress": "0x4c6d2b645d5d62d79e2396b4c3564ccd83c338d5",
      "function": "redeem(bytes32,uint256)",
      "arguments": [
        "0x031d4f3f8dcef6a2fdf8e6419ae143eddec05e2fe0544f2b7ea28d07dfae2634",
        "0"
      ],
      "transaction": {
        "from": "0xf0830060f836b8d54bf02049e5905f619487989e",
        "to": "0x4c6d2b645d5d62d79e2396b4c3564ccd83c338d5",
        "gas": "0x4cc1f",
        "value": "0x0",
        "input": "0x673da154031d4f3f8dcef6a2fdf8e6419ae143eddec05e2fe0544f2b7ea28d07dfae26340000000000000000000000000000000000000000000000000000000000000000",
        "nonce": "0x303",
        "chainId": "0x14a34"
      },
      "additionalContracts": [],
      "isFixedGasLimit": false
    }
  ],
  "receipts": [
    {
      "status": "0x1",
      "cumulativeGasUsed": "0x1b03e3",
      "logs": [
        {
          "address": "0x1627883fda4b08dd55234eb7e886a25726c1b70c",
          "topics": [
            "0x17307eab39ab6107e8899845ad3d59bd9653f200f220920489ca2b5937696c31",
            "0x000000000000000000000000f0830060f836b8d54bf02049e5905f619487989e",
            "0x0000000000000000000000005627c03d624f216534adff025c443c24ffc91a15"
          ],
          "data": "0x0000000000000000000000000000000000000000000000000000000000000001",
          "blockHash": "0x07ba344d0b1d3b6adea42061869f1f2213afd8ab07a1ba8f1b4666251a11ffcb",
          "blockNumber": "0x226aedb",
          "blockTimestamp": "0x6960bc96",
          "transactionHash": "0x7e098f395cd65db74c8be5f07dc193d160872efe9a66cfb2887010c0358c9f16",
          "transactionIndex": "0xb",
          "logIndex": "0x43",
          "removed": false
        }
      ],
      "logsBloom": "0x00000000000000000000000008000000000000000000000000000000000000000000000000000000000000000000000000000000000000000000000000000008000000000000000000000000000000000000000000000000000000000000000002000000000000000000000000000000000000000000000000000000000000000000000000000000000400000000000800000000000000000000000000000000000000000000000000000100000000000000000000000000000000000000000000040000000000000000000000000000000000000000000000000800000002000000200a00000000000000000000000000000000000000000000000000000000",
      "type": "0x2",
      "transactionHash": "0x7e098f395cd65db74c8be5f07dc193d160872efe9a66cfb2887010c0358c9f16",
      "transactionIndex": "0xb",
      "blockHash": "0x07ba344d0b1d3b6adea42061869f1f2213afd8ab07a1ba8f1b4666251a11ffcb",
      "blockNumber": "0x226aedb",
      "gasUsed": "0xbd42",
      "effectiveGasPrice": "0x124f80",
      "blobGasUsed": "0x79e0",
      "from": "0xf0830060f836b8d54bf02049e5905f619487989e",
      "to": "0x1627883fda4b08dd55234eb7e886a25726c1b70c",
      "contractAddress": null,
      "daFootprintGasScalar": "0x138",
      "l1BaseFeeScalar": "0x44d",
      "l1BlobBaseFee": "0x4",
      "l1BlobBaseFeeScalar": "0xa118b",
      "l1Fee": "0x155",
      "l1GasPrice": "0x2c",
      "l1GasUsed": "0x640"
    },
    {
      "status": "0x1",
      "cumulativeGasUsed": "0x1e7d07",
      "logs": [
        {
          "address": "0x1627883fda4b08dd55234eb7e886a25726c1b70c",
          "topics": [
            "0xc3d58168c5ae7397731d063d5bbf3d657854427343f4c083240f7aacaa2d0f62",
            "0x0000000000000000000000005627c03d624f216534adff025c443c24ffc91a15",
            "0x000000000000000000000000f0830060f836b8d54bf02049e5905f619487989e",
            "0x0000000000000000000000005627c03d624f216534adff025c443c24ffc91a15"
          ],
          "data": "0x2e3d1cec13a0453ec148d5253f7b8ad2a22075a32443ecdf3350940858deb086000000000000000000000000000000000000000000000001158e460913d00000",
          "blockHash": "0x07ba344d0b1d3b6adea42061869f1f2213afd8ab07a1ba8f1b4666251a11ffcb",
          "blockNumber": "0x226aedb",
          "blockTimestamp": "0x6960bc96",
          "transactionHash": "0x9fcff13ea9316e66be528a10d94420b5dd81d98540ffa98e7eaa3121f430d599",
          "transactionIndex": "0xc",
          "logIndex": "0x44",
          "removed": false
        },
        {
          "address": "0x1627883fda4b08dd55234eb7e886a25726c1b70c",
          "topics": [
            "0xc3d58168c5ae7397731d063d5bbf3d657854427343f4c083240f7aacaa2d0f62",
            "0x0000000000000000000000005627c03d624f216534adff025c443c24ffc91a15",
            "0x0000000000000000000000005627c03d624f216534adff025c443c24ffc91a15",
            "0x0000000000000000000000000000000000000000000000000000000000000000"
          ],
          "data": "0x2e3d1cec13a0453ec148d5253f7b8ad2a22075a32443ecdf3350940858deb0860000000000000000000000000000000000000000000000022b1c8c1227a00000",
          "blockHash": "0x07ba344d0b1d3b6adea42061869f1f2213afd8ab07a1ba8f1b4666251a11ffcb",
          "blockNumber": "0x226aedb",
          "blockTimestamp": "0x6960bc96",
          "transactionHash": "0x9fcff13ea9316e66be528a10d94420b5dd81d98540ffa98e7eaa3121f430d599",
          "transactionIndex": "0xc",
          "logIndex": "0x45",
          "removed": false
        },
        {
          "address": "0xbf956eb047146f60bf7025d8988cb2df87a961fe",
          "topics": [
            "0xddf252ad1be2c89b69c2b068fc378daa952ba7f163c4a11628f55a4df523b3ef",
            "0x0000000000000000000000001627883fda4b08dd55234eb7e886a25726c1b70c",
            "0x0000000000000000000000005627c03d624f216534adff025c443c24ffc91a15"
          ],
          "data": "0x0000000000000000000000000000000000000000000000022b1c8c1227a00000",
          "blockHash": "0x07ba344d0b1d3b6adea42061869f1f2213afd8ab07a1ba8f1b4666251a11ffcb",
          "blockNumber": "0x226aedb",
          "blockTimestamp": "0x6960bc96",
          "transactionHash": "0x9fcff13ea9316e66be528a10d94420b5dd81d98540ffa98e7eaa3121f430d599",
          "transactionIndex": "0xc",
          "logIndex": "0x46",
          "removed": false
        },
        {
          "address": "0x1627883fda4b08dd55234eb7e886a25726c1b70c",
          "topics": [
            "0x2682012a4a4f1973119f1c9b90745d1bd91fa2bab387344f044cb3586864d18d",
            "0x0000000000000000000000005627c03d624f216534adff025c443c24ffc91a15",
            "0x000000000000000000000000bf956eb047146f60bf7025d8988cb2df87a961fe",
            "0x0000000000000000000000000000000000000000000000000000000000000000"
          ],
          "data": "0x6270fe221e7ca9eb0b880b5b0742125de796e1a09a4ef153c31ffb425cb88caf00000000000000000000000000000000000000000000000000000000000000600000000000000000000000000000000000000000000000022b1c8c1227a0000000000000000000000000000000000000000000000000000000000000000000010000000000000000000000000000000000000000000000000000000000000001",
          "blockHash": "0x07ba344d0b1d3b6adea42061869f1f2213afd8ab07a1ba8f1b4666251a11ffcb",
          "blockNumber": "0x226aedb",
          "blockTimestamp": "0x6960bc96",
          "transactionHash": "0x9fcff13ea9316e66be528a10d94420b5dd81d98540ffa98e7eaa3121f430d599",
          "transactionIndex": "0xc",
          "logIndex": "0x47",
          "removed": false
        },
        {
          "address": "0xbf956eb047146f60bf7025d8988cb2df87a961fe",
          "topics": [
            "0xddf252ad1be2c89b69c2b068fc378daa952ba7f163c4a11628f55a4df523b3ef",
            "0x0000000000000000000000005627c03d624f216534adff025c443c24ffc91a15",
            "0x000000000000000000000000f0830060f836b8d54bf02049e5905f619487989e"
          ],
          "data": "0x0000000000000000000000000000000000000000000000020f5b1eaad8d80000",
          "blockHash": "0x07ba344d0b1d3b6adea42061869f1f2213afd8ab07a1ba8f1b4666251a11ffcb",
          "blockNumber": "0x226aedb",
          "blockTimestamp": "0x6960bc96",
          "transactionHash": "0x9fcff13ea9316e66be528a10d94420b5dd81d98540ffa98e7eaa3121f430d599",
          "transactionIndex": "0xc",
          "logIndex": "0x48",
          "removed": false
        },
        {
          "address": "0x5627c03d624f216534adff025c443c24ffc91a15",
          "topics": [
            "0xe9e508bad6d4c3227e881ca19068f099da81b5164dd6d62b2eaf1e8bc6c34931",
            "0x000000000000000000000000f0830060f836b8d54bf02049e5905f619487989e"
          ],
          "data": "0x031d4f3f8dcef6a2fdf8e6419ae143eddec05e2fe0544f2b7ea28d07dfae26340000000000000000000000004c6d2b645d5d62d79e2396b4c3564ccd83c338d50000000000000000000000000000000000000000000000020f5b1eaad8d80000",
          "blockHash": "0x07ba344d0b1d3b6adea42061869f1f2213afd8ab07a1ba8f1b4666251a11ffcb",
          "blockNumber": "0x226aedb",
          "blockTimestamp": "0x6960bc96",
          "transactionHash": "0x9fcff13ea9316e66be528a10d94420b5dd81d98540ffa98e7eaa3121f430d599",
          "transactionIndex": "0xc",
          "logIndex": "0x49",
          "removed": false
        }
      ],
      "logsBloom": "0x00000000000000000000000008000000000000000000000000000000000000000000004004000000000000000000000000000000000000000000000000002008000000000000000000000008801000002000000008000000020000000001000000000000020000000000000000002800000000000000000000000010000000000000000000000020000400000000000800000000000000400000000000000000040000000000000000020100000000000000000000000000000000000000040080040002000000000000000000000000000000000008000000000800008022000000000200200000000000000000000000000200000000000000080000000000",
      "type": "0x2",
      "transactionHash": "0x9fcff13ea9316e66be528a10d94420b5dd81d98540ffa98e7eaa3121f430d599",
      "transactionIndex": "0xc",
      "blockHash": "0x07ba344d0b1d3b6adea42061869f1f2213afd8ab07a1ba8f1b4666251a11ffcb",
      "blockNumber": "0x226aedb",
      "gasUsed": "0x37924",
      "effectiveGasPrice": "0x124f80",
      "blobGasUsed": "0x79e0",
      "from": "0xf0830060f836b8d54bf02049e5905f619487989e",
      "to": "0x4c6d2b645d5d62d79e2396b4c3564ccd83c338d5",
      "contractAddress": null,
      "daFootprintGasScalar": "0x138",
      "l1BaseFeeScalar": "0x44d",
      "l1BlobBaseFee": "0x4",
      "l1BlobBaseFeeScalar": "0xa118b",
      "l1Fee": "0x155",
      "l1GasPrice": "0x2c",
      "l1GasUsed": "0x640"
    }
  ],
  "libraries": [],
  "pending": [],
  "returns": {},
  "timestamp": 1767947413,
  "chain": 84532,
  "commit": "a3f3d1b"
}